{
	"contracts2/tokens/LiquidityGeneratorToken.sol": {
		"LiquidityGeneratorToken": {
			"abi": [
				{
					"inputs": [
						{
							"internalType": "string",
							"name": "name_",
							"type": "string"
						},
						{
							"internalType": "string",
							"name": "symbol_",
							"type": "string"
						},
						{
							"internalType": "uint256",
							"name": "totalSupply_",
							"type": "uint256"
						},
						{
							"internalType": "address",
							"name": "router_",
							"type": "address"
						},
						{
							"internalType": "address",
							"name": "charityAddress_",
							"type": "address"
						},
						{
							"internalType": "uint16",
							"name": "taxFeeBps_",
							"type": "uint16"
						},
						{
							"internalType": "uint16",
							"name": "liquidityFeeBps_",
							"type": "uint16"
						},
						{
							"internalType": "uint16",
							"name": "charityFeeBps_",
							"type": "uint16"
						},
						{
							"internalType": "address",
							"name": "serviceFeeReceiver_",
							"type": "address"
						},
						{
							"internalType": "uint256",
							"name": "serviceFee_",
							"type": "uint256"
						}
					],
					"stateMutability": "payable",
					"type": "constructor"
				},
				{
					"anonymous": false,
					"inputs": [
						{
							"indexed": true,
							"internalType": "address",
							"name": "owner",
							"type": "address"
						},
						{
							"indexed": true,
							"internalType": "address",
							"name": "spender",
							"type": "address"
						},
						{
							"indexed": false,
							"internalType": "uint256",
							"name": "value",
							"type": "uint256"
						}
					],
					"name": "Approval",
					"type": "event"
				},
				{
					"anonymous": false,
					"inputs": [
						{
							"indexed": false,
							"internalType": "uint256",
							"name": "minTokensBeforeSwap",
							"type": "uint256"
						}
					],
					"name": "MinTokensBeforeSwapUpdated",
					"type": "event"
				},
				{
					"anonymous": false,
					"inputs": [
						{
							"indexed": true,
							"internalType": "address",
							"name": "previousOwner",
							"type": "address"
						},
						{
							"indexed": true,
							"internalType": "address",
							"name": "newOwner",
							"type": "address"
						}
					],
					"name": "OwnershipTransferred",
					"type": "event"
				},
				{
					"anonymous": false,
					"inputs": [
						{
							"indexed": false,
							"internalType": "uint256",
							"name": "tokensSwapped",
							"type": "uint256"
						},
						{
							"indexed": false,
							"internalType": "uint256",
							"name": "ethReceived",
							"type": "uint256"
						},
						{
							"indexed": false,
							"internalType": "uint256",
							"name": "tokensIntoLiqudity",
							"type": "uint256"
						}
					],
					"name": "SwapAndLiquify",
					"type": "event"
				},
				{
					"anonymous": false,
					"inputs": [
						{
							"indexed": false,
							"internalType": "bool",
							"name": "enabled",
							"type": "bool"
						}
					],
					"name": "SwapAndLiquifyEnabledUpdated",
					"type": "event"
				},
				{
					"anonymous": false,
					"inputs": [
						{
							"indexed": true,
							"internalType": "address",
							"name": "owner",
							"type": "address"
						},
						{
							"indexed": true,
							"internalType": "address",
							"name": "token",
							"type": "address"
						},
						{
							"indexed": false,
							"internalType": "enum TokenType",
							"name": "tokenType",
							"type": "uint8"
						},
						{
							"indexed": false,
							"internalType": "uint256",
							"name": "version",
							"type": "uint256"
						}
					],
					"name": "TokenCreated",
					"type": "event"
				},
				{
					"anonymous": false,
					"inputs": [
						{
							"indexed": true,
							"internalType": "address",
							"name": "from",
							"type": "address"
						},
						{
							"indexed": true,
							"internalType": "address",
							"name": "to",
							"type": "address"
						},
						{
							"indexed": false,
							"internalType": "uint256",
							"name": "value",
							"type": "uint256"
						}
					],
					"name": "Transfer",
					"type": "event"
				},
				{
					"inputs": [],
					"name": "VERSION",
					"outputs": [
						{
							"internalType": "uint256",
							"name": "",
							"type": "uint256"
						}
					],
					"stateMutability": "view",
					"type": "function"
				},
				{
					"inputs": [],
					"name": "_charityAddress",
					"outputs": [
						{
							"internalType": "address",
							"name": "",
							"type": "address"
						}
					],
					"stateMutability": "view",
					"type": "function"
				},
				{
					"inputs": [],
					"name": "_charityFee",
					"outputs": [
						{
							"internalType": "uint256",
							"name": "",
							"type": "uint256"
						}
					],
					"stateMutability": "view",
					"type": "function"
				},
				{
					"inputs": [],
					"name": "_liquidityFee",
					"outputs": [
						{
							"internalType": "uint256",
							"name": "",
							"type": "uint256"
						}
					],
					"stateMutability": "view",
					"type": "function"
				},
				{
					"inputs": [],
					"name": "_taxFee",
					"outputs": [
						{
							"internalType": "uint256",
							"name": "",
							"type": "uint256"
						}
					],
					"stateMutability": "view",
					"type": "function"
				},
				{
					"inputs": [
						{
							"internalType": "address",
							"name": "owner",
							"type": "address"
						},
						{
							"internalType": "address",
							"name": "spender",
							"type": "address"
						}
					],
					"name": "allowance",
					"outputs": [
						{
							"internalType": "uint256",
							"name": "",
							"type": "uint256"
						}
					],
					"stateMutability": "view",
					"type": "function"
				},
				{
					"inputs": [
						{
							"internalType": "address",
							"name": "spender",
							"type": "address"
						},
						{
							"internalType": "uint256",
							"name": "amount",
							"type": "uint256"
						}
					],
					"name": "approve",
					"outputs": [
						{
							"internalType": "bool",
							"name": "",
							"type": "bool"
						}
					],
					"stateMutability": "nonpayable",
					"type": "function"
				},
				{
					"inputs": [
						{
							"internalType": "address",
							"name": "account",
							"type": "address"
						}
					],
					"name": "balanceOf",
					"outputs": [
						{
							"internalType": "uint256",
							"name": "",
							"type": "uint256"
						}
					],
					"stateMutability": "view",
					"type": "function"
				},
				{
					"inputs": [],
					"name": "decimals",
					"outputs": [
						{
							"internalType": "uint8",
							"name": "",
							"type": "uint8"
						}
					],
					"stateMutability": "view",
					"type": "function"
				},
				{
					"inputs": [
						{
							"internalType": "address",
							"name": "spender",
							"type": "address"
						},
						{
							"internalType": "uint256",
							"name": "subtractedValue",
							"type": "uint256"
						}
					],
					"name": "decreaseAllowance",
					"outputs": [
						{
							"internalType": "bool",
							"name": "",
							"type": "bool"
						}
					],
					"stateMutability": "nonpayable",
					"type": "function"
				},
				{
					"inputs": [
						{
							"internalType": "uint256",
							"name": "tAmount",
							"type": "uint256"
						}
					],
					"name": "deliver",
					"outputs": [],
					"stateMutability": "nonpayable",
					"type": "function"
				},
				{
					"inputs": [
						{
							"internalType": "address",
							"name": "account",
							"type": "address"
						}
					],
					"name": "excludeFromFee",
					"outputs": [],
					"stateMutability": "nonpayable",
					"type": "function"
				},
				{
					"inputs": [
						{
							"internalType": "address",
							"name": "account",
							"type": "address"
						}
					],
					"name": "excludeFromReward",
					"outputs": [],
					"stateMutability": "nonpayable",
					"type": "function"
				},
				{
					"inputs": [
						{
							"internalType": "address",
							"name": "account",
							"type": "address"
						}
					],
					"name": "includeInFee",
					"outputs": [],
					"stateMutability": "nonpayable",
					"type": "function"
				},
				{
					"inputs": [
						{
							"internalType": "address",
							"name": "account",
							"type": "address"
						}
					],
					"name": "includeInReward",
					"outputs": [],
					"stateMutability": "nonpayable",
					"type": "function"
				},
				{
					"inputs": [
						{
							"internalType": "address",
							"name": "spender",
							"type": "address"
						},
						{
							"internalType": "uint256",
							"name": "addedValue",
							"type": "uint256"
						}
					],
					"name": "increaseAllowance",
					"outputs": [
						{
							"internalType": "bool",
							"name": "",
							"type": "bool"
						}
					],
					"stateMutability": "nonpayable",
					"type": "function"
				},
				{
					"inputs": [
						{
							"internalType": "address",
							"name": "account",
							"type": "address"
						}
					],
					"name": "isExcludedFromFee",
					"outputs": [
						{
							"internalType": "bool",
							"name": "",
							"type": "bool"
						}
					],
					"stateMutability": "view",
					"type": "function"
				},
				{
					"inputs": [
						{
							"internalType": "address",
							"name": "account",
							"type": "address"
						}
					],
					"name": "isExcludedFromReward",
					"outputs": [
						{
							"internalType": "bool",
							"name": "",
							"type": "bool"
						}
					],
					"stateMutability": "view",
					"type": "function"
				},
				{
					"inputs": [],
					"name": "name",
					"outputs": [
						{
							"internalType": "string",
							"name": "",
							"type": "string"
						}
					],
					"stateMutability": "view",
					"type": "function"
				},
				{
					"inputs": [],
					"name": "owner",
					"outputs": [
						{
							"internalType": "address",
							"name": "",
							"type": "address"
						}
					],
					"stateMutability": "view",
					"type": "function"
				},
				{
					"inputs": [
						{
							"internalType": "uint256",
							"name": "tAmount",
							"type": "uint256"
						},
						{
							"internalType": "bool",
							"name": "deductTransferFee",
							"type": "bool"
						}
					],
					"name": "reflectionFromToken",
					"outputs": [
						{
							"internalType": "uint256",
							"name": "",
							"type": "uint256"
						}
					],
					"stateMutability": "view",
					"type": "function"
				},
				{
					"inputs": [],
					"name": "renounceOwnership",
					"outputs": [],
					"stateMutability": "nonpayable",
					"type": "function"
				},
				{
					"inputs": [
						{
							"internalType": "uint256",
							"name": "liquidityFeeBps",
							"type": "uint256"
						}
					],
					"name": "setLiquidityFeePercent",
					"outputs": [],
					"stateMutability": "nonpayable",
					"type": "function"
				},
				{
					"inputs": [
						{
							"internalType": "bool",
							"name": "_enabled",
							"type": "bool"
						}
					],
					"name": "setSwapAndLiquifyEnabled",
					"outputs": [],
					"stateMutability": "nonpayable",
					"type": "function"
				},
				{
					"inputs": [
						{
							"internalType": "uint256",
							"name": "taxFeeBps",
							"type": "uint256"
						}
					],
					"name": "setTaxFeePercent",
					"outputs": [],
					"stateMutability": "nonpayable",
					"type": "function"
				},
				{
					"inputs": [],
					"name": "swapAndLiquifyEnabled",
					"outputs": [
						{
							"internalType": "bool",
							"name": "",
							"type": "bool"
						}
					],
					"stateMutability": "view",
					"type": "function"
				},
				{
					"inputs": [],
					"name": "symbol",
					"outputs": [
						{
							"internalType": "string",
							"name": "",
							"type": "string"
						}
					],
					"stateMutability": "view",
					"type": "function"
				},
				{
					"inputs": [
						{
							"internalType": "uint256",
							"name": "rAmount",
							"type": "uint256"
						}
					],
					"name": "tokenFromReflection",
					"outputs": [
						{
							"internalType": "uint256",
							"name": "",
							"type": "uint256"
						}
					],
					"stateMutability": "view",
					"type": "function"
				},
				{
					"inputs": [],
					"name": "totalFees",
					"outputs": [
						{
							"internalType": "uint256",
							"name": "",
							"type": "uint256"
						}
					],
					"stateMutability": "view",
					"type": "function"
				},
				{
					"inputs": [],
					"name": "totalSupply",
					"outputs": [
						{
							"internalType": "uint256",
							"name": "",
							"type": "uint256"
						}
					],
					"stateMutability": "view",
					"type": "function"
				},
				{
					"inputs": [
						{
							"internalType": "address",
							"name": "recipient",
							"type": "address"
						},
						{
							"internalType": "uint256",
							"name": "amount",
							"type": "uint256"
						}
					],
					"name": "transfer",
					"outputs": [
						{
							"internalType": "bool",
							"name": "",
							"type": "bool"
						}
					],
					"stateMutability": "nonpayable",
					"type": "function"
				},
				{
					"inputs": [
						{
							"internalType": "address",
							"name": "sender",
							"type": "address"
						},
						{
							"internalType": "address",
							"name": "recipient",
							"type": "address"
						},
						{
							"internalType": "uint256",
							"name": "amount",
							"type": "uint256"
						}
					],
					"name": "transferFrom",
					"outputs": [
						{
							"internalType": "bool",
							"name": "",
							"type": "bool"
						}
					],
					"stateMutability": "nonpayable",
					"type": "function"
				},
				{
					"inputs": [
						{
							"internalType": "address",
							"name": "newOwner",
							"type": "address"
						}
					],
					"name": "transferOwnership",
					"outputs": [],
					"stateMutability": "nonpayable",
					"type": "function"
				},
				{
					"inputs": [],
					"name": "uniswapV2Pair",
					"outputs": [
						{
							"internalType": "address",
							"name": "",
							"type": "address"
						}
					],
					"stateMutability": "view",
					"type": "function"
				},
				{
					"inputs": [],
					"name": "uniswapV2Router",
					"outputs": [
						{
							"internalType": "contract IUniswapV2Router02",
							"name": "",
							"type": "address"
						}
					],
					"stateMutability": "view",
					"type": "function"
				},
				{
					"stateMutability": "payable",
					"type": "receive"
				}
			],
			"devdoc": {
				"kind": "dev",
				"methods": {
					"allowance(address,address)": {
						"details": "Returns the remaining number of tokens that `spender` will be allowed to spend on behalf of `owner` through {transferFrom}. This is zero by default. This value changes when {approve} or {transferFrom} are called."
					},
					"approve(address,uint256)": {
						"details": "Sets `amount` as the allowance of `spender` over the caller's tokens. Returns a boolean value indicating whether the operation succeeded. IMPORTANT: Beware that changing an allowance with this method brings the risk that someone may use both the old and the new allowance by unfortunate transaction ordering. One possible solution to mitigate this race condition is to first reduce the spender's allowance to 0 and set the desired value afterwards: https://github.com/ethereum/EIPs/issues/20#issuecomment-263524729 Emits an {Approval} event."
					},
					"balanceOf(address)": {
						"details": "Returns the amount of tokens owned by `account`."
					},
					"owner()": {
						"details": "Returns the address of the current owner."
					},
					"renounceOwnership()": {
						"details": "Leaves the contract without owner. It will not be possible to call `onlyOwner` functions anymore. Can only be called by the current owner. NOTE: Renouncing ownership will leave the contract without an owner, thereby removing any functionality that is only available to the owner."
					},
					"totalSupply()": {
						"details": "Returns the amount of tokens in existence."
					},
					"transfer(address,uint256)": {
						"details": "Moves `amount` tokens from the caller's account to `recipient`. Returns a boolean value indicating whether the operation succeeded. Emits a {Transfer} event."
					},
					"transferFrom(address,address,uint256)": {
						"details": "Moves `amount` tokens from `sender` to `recipient` using the allowance mechanism. `amount` is then deducted from the caller's allowance. Returns a boolean value indicating whether the operation succeeded. Emits a {Transfer} event."
					},
					"transferOwnership(address)": {
						"details": "Transfers ownership of the contract to a new account (`newOwner`). Can only be called by the current owner."
					}
				},
				"version": 1
			},
			"evm": {
				"assembly": "    /* \"contracts2/tokens/LiquidityGeneratorToken.sol\":27821:49964  contract LiquidityGeneratorToken is IERC20, Ownable, BaseToken {... */\n  mstore(0x40, 0x80)\n    /* \"contracts2/tokens/LiquidityGeneratorToken.sol\":28594:28601  _taxFee */\n  sload(0x0d)\n    /* \"contracts2/tokens/LiquidityGeneratorToken.sol\":28560:28601  uint256 private _previousTaxFee = _taxFee */\n  0x0e\n  sstore\n    /* \"contracts2/tokens/LiquidityGeneratorToken.sol\":28682:28695  _liquidityFee */\n  sload(0x0f)\n    /* \"contracts2/tokens/LiquidityGeneratorToken.sol\":28642:28695  uint256 private _previousLiquidityFee = _liquidityFee */\n  0x10\n  sstore\n    /* \"contracts2/tokens/LiquidityGeneratorToken.sol\":28772:28783  _charityFee */\n  sload(0x11)\n    /* \"contracts2/tokens/LiquidityGeneratorToken.sol\":28734:28783  uint256 private _previousCharityFee = _charityFee */\n  0x12\n  sstore\n    /* \"contracts2/tokens/LiquidityGeneratorToken.sol\":29391:31624  constructor(... */\n  mload(0x40)\n  sub(codesize, bytecodeSize)\n  dup1\n  bytecodeSize\n  dup4\n  codecopy\n  dup2\n  add\n  0x40\n  dup2\n  swap1\n  mstore\n  tag_1\n  swap2\n  tag_2\n  jump\t// in\ntag_1:\n    /* \"contracts2/tokens/LiquidityGeneratorToken.sol\":4552:4575  _setOwner(_msgSender()) */\n  tag_6\n    /* \"contracts2/tokens/LiquidityGeneratorToken.sol\":3499:3509  msg.sender */\n  caller\n    /* \"contracts2/tokens/LiquidityGeneratorToken.sol\":4552:4561  _setOwner */\n  tag_9\n    /* \"contracts2/tokens/LiquidityGeneratorToken.sol\":4552:4575  _setOwner(_msgSender()) */\n  jump\t// in\ntag_6:\n    /* \"contracts2/tokens/LiquidityGeneratorToken.sol\":29785:29840  require(liquidityFeeBps_ >= 0, \"Invalid liquidity fee\") */\n  jump(tag_14)\n    /* \"contracts2/tokens/LiquidityGeneratorToken.sol\":29732:29775  require(taxFeeBps_ >= 0, \"Invalid tax fee\") */\ntag_12:\n  mload(0x40)\n  dup1\n  swap2\n  sub\n  swap1\n  revert\n    /* \"contracts2/tokens/LiquidityGeneratorToken.sol\":29785:29840  require(liquidityFeeBps_ >= 0, \"Invalid liquidity fee\") */\ntag_14:\n  sub(shl(0xa0, 0x01), 0x01)\n    /* \"contracts2/tokens/LiquidityGeneratorToken.sol\":29915:29944  charityAddress_ == address(0) */\n  dup7\n  and\n    /* \"contracts2/tokens/LiquidityGeneratorToken.sol\":29911:30123  if (charityAddress_ == address(0)) {... */\n  tag_21\n  jumpi\n    /* \"contracts2/tokens/LiquidityGeneratorToken.sol\":29985:30004  charityFeeBps_ == 0 */\n  0xffff\n  dup4\n  and\n  iszero\n    /* \"contracts2/tokens/LiquidityGeneratorToken.sol\":29960:30112  require(... */\n  tag_21\n  jumpi\n  mload(0x40)\n  shl(0xe5, 0x461bcd)\n  dup2\n  mstore\n    /* \"#utility.yul\":4354:4356   */\n  0x20\n    /* \"contracts2/tokens/LiquidityGeneratorToken.sol\":29960:30112  require(... */\n  0x04\n  dup3\n  add\n    /* \"#utility.yul\":4336:4357   */\n  mstore\n    /* \"#utility.yul\":4393:4395   */\n  0x4a\n    /* \"#utility.yul\":4373:4391   */\n  0x24\n  dup3\n  add\n    /* \"#utility.yul\":4366:4396   */\n  mstore\n    /* \"#utility.yul\":4432:4466   */\n  0x43616e742073657420626f74682063686172697479206164647265737320746f\n    /* \"#utility.yul\":4412:4430   */\n  0x44\n  dup3\n  add\n    /* \"#utility.yul\":4405:4467   */\n  mstore\n    /* \"#utility.yul\":4503:4537   */\n  0x2061646472657373203020616e6420636861726974792070657263656e74206d\n    /* \"#utility.yul\":4483:4501   */\n  0x64\n  dup3\n  add\n    /* \"#utility.yul\":4476:4538   */\n  mstore\n  shl(0xb4, 0x06f7265207468616e203)\n    /* \"#utility.yul\":4554:4573   */\n  0x84\n  dup3\n  add\n    /* \"#utility.yul\":4547:4588   */\n  mstore\n    /* \"#utility.yul\":4605:4624   */\n  0xa4\n  add\n    /* \"contracts2/tokens/LiquidityGeneratorToken.sol\":29960:30112  require(... */\n  tag_12\n    /* \"#utility.yul\":4326:4630   */\n  jump\n    /* \"contracts2/tokens/LiquidityGeneratorToken.sol\":29960:30112  require(... */\ntag_21:\n    /* \"contracts2/tokens/LiquidityGeneratorToken.sol\":30203:30212  10**4 / 4 */\n  0x09c4\n    /* \"contracts2/tokens/LiquidityGeneratorToken.sol\":30185:30199  charityFeeBps_ */\n  dup4\n    /* \"contracts2/tokens/LiquidityGeneratorToken.sol\":30153:30182  taxFeeBps_ + liquidityFeeBps_ */\n  tag_24\n    /* \"contracts2/tokens/LiquidityGeneratorToken.sol\":30166:30182  liquidityFeeBps_ */\n  dup7\n    /* \"contracts2/tokens/LiquidityGeneratorToken.sol\":30153:30163  taxFeeBps_ */\n  dup9\n    /* \"contracts2/tokens/LiquidityGeneratorToken.sol\":30153:30182  taxFeeBps_ + liquidityFeeBps_ */\n  tag_25\n  jump\t// in\ntag_24:\n    /* \"contracts2/tokens/LiquidityGeneratorToken.sol\":30153:30199  taxFeeBps_ + liquidityFeeBps_ + charityFeeBps_ */\n  tag_26\n  swap2\n  swap1\n  tag_25\n  jump\t// in\ntag_26:\n    /* \"contracts2/tokens/LiquidityGeneratorToken.sol\":30153:30212  taxFeeBps_ + liquidityFeeBps_ + charityFeeBps_ <= 10**4 / 4 */\n  0xffff\n  and\n  gt\n  iszero\n    /* \"contracts2/tokens/LiquidityGeneratorToken.sol\":30132:30259  require(... */\n  tag_27\n  jumpi\n  mload(0x40)\n  shl(0xe5, 0x461bcd)\n  dup2\n  mstore\n    /* \"#utility.yul\":4837:4839   */\n  0x20\n    /* \"contracts2/tokens/LiquidityGeneratorToken.sol\":30132:30259  require(... */\n  0x04\n  dup3\n  add\n    /* \"#utility.yul\":4819:4840   */\n  mstore\n    /* \"#utility.yul\":4876:4878   */\n  0x15\n    /* \"#utility.yul\":4856:4874   */\n  0x24\n  dup3\n  add\n    /* \"#utility.yul\":4849:4879   */\n  mstore\n    /* \"#utility.yul\":4915:4938   */\n  0x546f74616c20666565206973206f766572203235250000000000000000000000\n    /* \"#utility.yul\":4895:4913   */\n  0x44\n  dup3\n  add\n    /* \"#utility.yul\":4888:4939   */\n  mstore\n    /* \"#utility.yul\":4956:4974   */\n  0x64\n  add\n    /* \"contracts2/tokens/LiquidityGeneratorToken.sol\":30132:30259  require(... */\n  tag_12\n    /* \"#utility.yul\":4809:4980   */\n  jump\n    /* \"contracts2/tokens/LiquidityGeneratorToken.sol\":30132:30259  require(... */\ntag_27:\n    /* \"contracts2/tokens/LiquidityGeneratorToken.sol\":30270:30283  _name = name_ */\n  dup10\n  mload\n  tag_30\n  swap1\n    /* \"contracts2/tokens/LiquidityGeneratorToken.sol\":30270:30275  _name */\n  0x0a\n  swap1\n    /* \"contracts2/tokens/LiquidityGeneratorToken.sol\":30270:30283  _name = name_ */\n  0x20\n  dup14\n  add\n  swap1\n  tag_31\n  jump\t// in\ntag_30:\n  pop\n    /* \"contracts2/tokens/LiquidityGeneratorToken.sol\":30293:30310  _symbol = symbol_ */\n  dup9\n  mload\n  tag_32\n  swap1\n    /* \"contracts2/tokens/LiquidityGeneratorToken.sol\":30293:30300  _symbol */\n  0x0b\n  swap1\n    /* \"contracts2/tokens/LiquidityGeneratorToken.sol\":30293:30310  _symbol = symbol_ */\n  0x20\n  dup13\n  add\n  swap1\n  tag_31\n  jump\t// in\ntag_32:\n  pop\n    /* \"contracts2/tokens/LiquidityGeneratorToken.sol\":30320:30329  _decimals */\n  0x0c\n    /* \"contracts2/tokens/LiquidityGeneratorToken.sol\":30320:30333  _decimals = 9 */\n  dup1\n  sload\n  not(0xff)\n  and\n    /* \"contracts2/tokens/LiquidityGeneratorToken.sol\":30332:30333  9 */\n  0x09\n    /* \"contracts2/tokens/LiquidityGeneratorToken.sol\":30320:30333  _decimals = 9 */\n  or\n  swap1\n  sstore\n    /* \"contracts2/tokens/LiquidityGeneratorToken.sol\":30344:30351  _tTotal */\n  0x07\n    /* \"contracts2/tokens/LiquidityGeneratorToken.sol\":30344:30366  _tTotal = totalSupply_ */\n  dup9\n  swap1\n  sstore\n    /* \"contracts2/tokens/LiquidityGeneratorToken.sol\":30394:30407  MAX % _tTotal */\n  tag_33\n    /* \"contracts2/tokens/LiquidityGeneratorToken.sol\":30354:30366  totalSupply_ */\n  dup9\n  not(0x00)\n    /* \"contracts2/tokens/LiquidityGeneratorToken.sol\":30394:30407  MAX % _tTotal */\n  tag_34\n  jump\t// in\ntag_33:\n    /* \"contracts2/tokens/LiquidityGeneratorToken.sol\":30387:30408  MAX - (MAX % _tTotal) */\n  tag_35\n  swap1\n  not(0x00)\n  tag_36\n  jump\t// in\ntag_35:\n    /* \"contracts2/tokens/LiquidityGeneratorToken.sol\":30376:30383  _rTotal */\n  0x08\n    /* \"contracts2/tokens/LiquidityGeneratorToken.sol\":30376:30409  _rTotal = (MAX - (MAX % _tTotal)) */\n  sstore\n    /* \"contracts2/tokens/LiquidityGeneratorToken.sol\":30420:30440  _taxFee = taxFeeBps_ */\n  0xffff\n  dup6\n  dup2\n  and\n    /* \"contracts2/tokens/LiquidityGeneratorToken.sol\":30420:30427  _taxFee */\n  0x0d\n    /* \"contracts2/tokens/LiquidityGeneratorToken.sol\":30420:30440  _taxFee = taxFeeBps_ */\n  dup2\n  swap1\n  sstore\n    /* \"contracts2/tokens/LiquidityGeneratorToken.sol\":30450:30465  _previousTaxFee */\n  0x0e\n    /* \"contracts2/tokens/LiquidityGeneratorToken.sol\":30450:30475  _previousTaxFee = _taxFee */\n  sstore\n    /* \"contracts2/tokens/LiquidityGeneratorToken.sol\":30486:30518  _liquidityFee = liquidityFeeBps_ */\n  dup5\n  dup2\n  and\n    /* \"contracts2/tokens/LiquidityGeneratorToken.sol\":30486:30499  _liquidityFee */\n  0x0f\n    /* \"contracts2/tokens/LiquidityGeneratorToken.sol\":30486:30518  _liquidityFee = liquidityFeeBps_ */\n  dup2\n  swap1\n  sstore\n    /* \"contracts2/tokens/LiquidityGeneratorToken.sol\":30528:30549  _previousLiquidityFee */\n  0x10\n    /* \"contracts2/tokens/LiquidityGeneratorToken.sol\":30528:30565  _previousLiquidityFee = _liquidityFee */\n  sstore\n    /* \"contracts2/tokens/LiquidityGeneratorToken.sol\":30576:30591  _charityAddress */\n  0x15\n    /* \"contracts2/tokens/LiquidityGeneratorToken.sol\":30576:30609  _charityAddress = charityAddress_ */\n  dup1\n  sload\n  not(sub(shl(0xa0, 0x01), 0x01))\n  and\n  sub(shl(0xa0, 0x01), 0x01)\n  dup10\n  and\n  or\n  swap1\n  sstore\n    /* \"contracts2/tokens/LiquidityGeneratorToken.sol\":30619:30647  _charityFee = charityFeeBps_ */\n  dup4\n  and\n    /* \"contracts2/tokens/LiquidityGeneratorToken.sol\":30619:30630  _charityFee */\n  0x11\n    /* \"contracts2/tokens/LiquidityGeneratorToken.sol\":30619:30647  _charityFee = charityFeeBps_ */\n  dup2\n  swap1\n  sstore\n    /* \"contracts2/tokens/LiquidityGeneratorToken.sol\":30657:30676  _previousCharityFee */\n  0x12\n    /* \"contracts2/tokens/LiquidityGeneratorToken.sol\":30657:30690  _previousCharityFee = _charityFee */\n  sstore\n    /* \"contracts2/tokens/LiquidityGeneratorToken.sol\":30733:30763  totalSupply_.mul(5).div(10**4) */\n  tag_37\n    /* \"contracts2/tokens/LiquidityGeneratorToken.sol\":30757:30762  10**4 */\n  0x2710\n    /* \"contracts2/tokens/LiquidityGeneratorToken.sol\":30733:30752  totalSupply_.mul(5) */\n  tag_38\n    /* \"contracts2/tokens/LiquidityGeneratorToken.sol\":30733:30745  totalSupply_ */\n  dup11\n    /* \"contracts2/tokens/LiquidityGeneratorToken.sol\":30750:30751  5 */\n  0x05\n    /* \"contracts2/tokens/LiquidityGeneratorToken.sol\":30733:30749  totalSupply_.mul */\n  tag_39\n  0x20\n  swap1\n  dup2\n  shl\n  tag_0_210\n  or\n    /* \"contracts2/tokens/LiquidityGeneratorToken.sol\":30733:30752  totalSupply_.mul(5) */\n  swap1\n  shr\n  jump\t// in\ntag_38:\n    /* \"contracts2/tokens/LiquidityGeneratorToken.sol\":30733:30756  totalSupply_.mul(5).div */\n  or(tag_0_211, shl(0x20, tag_40))\n  swap1\n    /* \"contracts2/tokens/LiquidityGeneratorToken.sol\":30733:30763  totalSupply_.mul(5).div(10**4) */\n  swap2\n  swap1\n  0x20\n  shr\n  jump\t// in\ntag_37:\n    /* \"contracts2/tokens/LiquidityGeneratorToken.sol\":30701:30730  numTokensSellToAddToLiquidity */\n  0x16\n    /* \"contracts2/tokens/LiquidityGeneratorToken.sol\":30701:30763  numTokensSellToAddToLiquidity = totalSupply_.mul(5).div(10**4) */\n  sstore\n    /* \"contracts2/tokens/LiquidityGeneratorToken.sol\":30783:30804  swapAndLiquifyEnabled */\n  0x15\n    /* \"contracts2/tokens/LiquidityGeneratorToken.sol\":30783:30811  swapAndLiquifyEnabled = true */\n  dup1\n  sload\n  not(shl(0xa8, 0xff))\n  and\n  shl(0xa8, 0x01)\n  or\n  swap1\n  sstore\n    /* \"contracts2/tokens/LiquidityGeneratorToken.sol\":30841:30848  _rTotal */\n  sload(0x08)\n    /* \"contracts2/tokens/LiquidityGeneratorToken.sol\":30807:30811  true */\n  0x01\n    /* \"contracts2/tokens/LiquidityGeneratorToken.sol\":30783:30811  swapAndLiquifyEnabled = true */\n  0x00\n    /* \"contracts2/tokens/LiquidityGeneratorToken.sol\":30830:30837  owner() */\n  tag_41\n    /* \"contracts2/tokens/LiquidityGeneratorToken.sol\":4704:4711  address */\n  0x00\n    /* \"contracts2/tokens/LiquidityGeneratorToken.sol\":4730:4736  _owner */\n  sload\n  sub(shl(0xa0, 0x01), 0x01)\n  and\n  swap1\n    /* \"contracts2/tokens/LiquidityGeneratorToken.sol\":4658:4743  function owner() public view virtual returns (address) {... */\n  jump\n    /* \"contracts2/tokens/LiquidityGeneratorToken.sol\":30830:30837  owner() */\ntag_41:\n  sub(shl(0xa0, 0x01), 0x01)\n    /* \"contracts2/tokens/LiquidityGeneratorToken.sol\":30822:30838  _rOwned[owner()] */\n  and\n  sub(shl(0xa0, 0x01), 0x01)\n  and\n  dup2\n  mstore\n  0x20\n  add\n  swap1\n  dup2\n  mstore\n  0x20\n  add\n  0x00\n  keccak256\n    /* \"contracts2/tokens/LiquidityGeneratorToken.sol\":30822:30848  _rOwned[owner()] = _rTotal */\n  dup2\n  swap1\n  sstore\n  pop\n    /* \"contracts2/tokens/LiquidityGeneratorToken.sol\":30859:30894  IUniswapV2Router02 _uniswapV2Router */\n  0x00\n    /* \"contracts2/tokens/LiquidityGeneratorToken.sol\":30916:30923  router_ */\n  dup8\n    /* \"contracts2/tokens/LiquidityGeneratorToken.sol\":30859:30924  IUniswapV2Router02 _uniswapV2Router = IUniswapV2Router02(router_) */\n  swap1\n  pop\n    /* \"contracts2/tokens/LiquidityGeneratorToken.sol\":31020:31036  _uniswapV2Router */\n  dup1\n  sub(shl(0xa0, 0x01), 0x01)\n    /* \"contracts2/tokens/LiquidityGeneratorToken.sol\":31020:31044  _uniswapV2Router.factory */\n  and\n  0xc45a0155\n    /* \"contracts2/tokens/LiquidityGeneratorToken.sol\":31020:31046  _uniswapV2Router.factory() */\n  mload(0x40)\n  dup2\n  0xffffffff\n  and\n  0xe0\n  shl\n  dup2\n  mstore\n  0x04\n  add\n  0x20\n  mload(0x40)\n  dup1\n  dup4\n  sub\n  dup2\n  dup7\n  dup1\n  extcodesize\n  iszero\n  dup1\n  iszero\n  tag_43\n  jumpi\n  0x00\n  dup1\n  revert\ntag_43:\n  pop\n  gas\n  staticcall\n  iszero\n  dup1\n  iszero\n  tag_45\n  jumpi\n  returndatasize\n  0x00\n  dup1\n  returndatacopy\n  revert(0x00, returndatasize)\ntag_45:\n  pop\n  pop\n  pop\n  pop\n  mload(0x40)\n  returndatasize\n  not(0x1f)\n  0x1f\n  dup3\n  add\n  and\n  dup3\n  add\n  dup1\n  0x40\n  mstore\n  pop\n  dup2\n  add\n  swap1\n  tag_46\n  swap2\n  swap1\n  tag_47\n  jump\t// in\ntag_46:\n  sub(shl(0xa0, 0x01), 0x01)\n    /* \"contracts2/tokens/LiquidityGeneratorToken.sol\":31002:31071  IUniswapV2Factory(_uniswapV2Router.factory())... */\n  and\n  0xc9c65396\n    /* \"contracts2/tokens/LiquidityGeneratorToken.sol\":31080:31084  this */\n  address\n    /* \"contracts2/tokens/LiquidityGeneratorToken.sol\":31087:31103  _uniswapV2Router */\n  dup4\n  sub(shl(0xa0, 0x01), 0x01)\n    /* \"contracts2/tokens/LiquidityGeneratorToken.sol\":31087:31108  _uniswapV2Router.WETH */\n  and\n  0xad5c4648\n    /* \"contracts2/tokens/LiquidityGeneratorToken.sol\":31087:31110  _uniswapV2Router.WETH() */\n  mload(0x40)\n  dup2\n  0xffffffff\n  and\n  0xe0\n  shl\n  dup2\n  mstore\n  0x04\n  add\n  0x20\n  mload(0x40)\n  dup1\n  dup4\n  sub\n  dup2\n  dup7\n  dup1\n  extcodesize\n  iszero\n  dup1\n  iszero\n  tag_48\n  jumpi\n  0x00\n  dup1\n  revert\ntag_48:\n  pop\n  gas\n  staticcall\n  iszero\n  dup1\n  iszero\n  tag_50\n  jumpi\n  returndatasize\n  0x00\n  dup1\n  returndatacopy\n  revert(0x00, returndatasize)\ntag_50:\n  pop\n  pop\n  pop\n  pop\n  mload(0x40)\n  returndatasize\n  not(0x1f)\n  0x1f\n  dup3\n  add\n  and\n  dup3\n  add\n  dup1\n  0x40\n  mstore\n  pop\n  dup2\n  add\n  swap1\n  tag_51\n  swap2\n  swap1\n  tag_47\n  jump\t// in\ntag_51:\n    /* \"contracts2/tokens/LiquidityGeneratorToken.sol\":31002:31111  IUniswapV2Factory(_uniswapV2Router.factory())... */\n  mload(0x40)\n  not(sub(shl(0xe0, 0x01), 0x01))\n  0xe0\n  dup6\n  swap1\n  shl\n  and\n  dup2\n  mstore\n  sub(shl(0xa0, 0x01), 0x01)\n    /* \"#utility.yul\":2961:2976   */\n  swap3\n  dup4\n  and\n    /* \"contracts2/tokens/LiquidityGeneratorToken.sol\":31002:31111  IUniswapV2Factory(_uniswapV2Router.factory())... */\n  0x04\n  dup3\n  add\n    /* \"#utility.yul\":2943:2977   */\n  mstore\n    /* \"#utility.yul\":3013:3028   */\n  swap2\n  and\n    /* \"#utility.yul\":2993:3011   */\n  0x24\n  dup3\n  add\n    /* \"#utility.yul\":2986:3029   */\n  mstore\n    /* \"#utility.yul\":2878:2896   */\n  0x44\n  add\n    /* \"contracts2/tokens/LiquidityGeneratorToken.sol\":31002:31111  IUniswapV2Factory(_uniswapV2Router.factory())... */\n  0x20\n  mload(0x40)\n  dup1\n  dup4\n  sub\n  dup2\n  0x00\n  dup8\n  dup1\n  extcodesize\n  iszero\n  dup1\n  iszero\n  tag_54\n  jumpi\n  0x00\n  dup1\n  revert\ntag_54:\n  pop\n  gas\n  call\n  iszero\n  dup1\n  iszero\n  tag_56\n  jumpi\n  returndatasize\n  0x00\n  dup1\n  returndatacopy\n  revert(0x00, returndatasize)\ntag_56:\n  pop\n  pop\n  pop\n  pop\n  mload(0x40)\n  returndatasize\n  not(0x1f)\n  0x1f\n  dup3\n  add\n  and\n  dup3\n  add\n  dup1\n  0x40\n  mstore\n  pop\n  dup2\n  add\n  swap1\n  tag_57\n  swap2\n  swap1\n  tag_47\n  jump\t// in\ntag_57:\n    /* \"contracts2/tokens/LiquidityGeneratorToken.sol\":30986:30999  uniswapV2Pair */\n  0x14\n    /* \"contracts2/tokens/LiquidityGeneratorToken.sol\":30986:31111  uniswapV2Pair = IUniswapV2Factory(_uniswapV2Router.factory())... */\n  dup1\n  sload\n  not(sub(shl(0xa0, 0x01), 0x01))\n  swap1\n  dup2\n  and\n  sub(shl(0xa0, 0x01), 0x01)\n  swap4\n  dup5\n  and\n  or\n  swap1\n  swap2\n  sstore\n    /* \"contracts2/tokens/LiquidityGeneratorToken.sol\":31172:31187  uniswapV2Router */\n  0x13\n    /* \"contracts2/tokens/LiquidityGeneratorToken.sol\":31172:31206  uniswapV2Router = _uniswapV2Router */\n  dup1\n  sload\n  swap1\n  swap2\n  and\n  swap2\n  dup4\n  and\n  swap2\n  swap1\n  swap2\n  or\n  swap1\n  sstore\n  0x01\n    /* \"contracts2/tokens/LiquidityGeneratorToken.sol\":31269:31287  _isExcludedFromFee */\n  0x04\n  0x00\n    /* \"contracts2/tokens/LiquidityGeneratorToken.sol\":31288:31295  owner() */\n  tag_58\n    /* \"contracts2/tokens/LiquidityGeneratorToken.sol\":4704:4711  address */\n  0x00\n    /* \"contracts2/tokens/LiquidityGeneratorToken.sol\":4730:4736  _owner */\n  sload\n  sub(shl(0xa0, 0x01), 0x01)\n  and\n  swap1\n    /* \"contracts2/tokens/LiquidityGeneratorToken.sol\":4658:4743  function owner() public view virtual returns (address) {... */\n  jump\n    /* \"contracts2/tokens/LiquidityGeneratorToken.sol\":31288:31295  owner() */\ntag_58:\n  sub(shl(0xa0, 0x01), 0x01)\n    /* \"contracts2/tokens/LiquidityGeneratorToken.sol\":31269:31296  _isExcludedFromFee[owner()] */\n  and\n  dup2\n  mstore\n  0x20\n  dup1\n  dup3\n  add\n  swap3\n  swap1\n  swap3\n  mstore\n  0x40\n  swap1\n  dup2\n  add\n  0x00\n  swap1\n  dup2\n  keccak256\n    /* \"contracts2/tokens/LiquidityGeneratorToken.sol\":31269:31303  _isExcludedFromFee[owner()] = true */\n  dup1\n  sload\n  swap5\n  iszero\n  iszero\n  not(0xff)\n  swap6\n  dup7\n  and\n  or\n  swap1\n  sstore\n    /* \"contracts2/tokens/LiquidityGeneratorToken.sol\":31340:31344  this */\n  address\n    /* \"contracts2/tokens/LiquidityGeneratorToken.sol\":31313:31346  _isExcludedFromFee[address(this)] */\n  dup2\n  mstore\n    /* \"contracts2/tokens/LiquidityGeneratorToken.sol\":31313:31331  _isExcludedFromFee */\n  0x04\n    /* \"contracts2/tokens/LiquidityGeneratorToken.sol\":31313:31346  _isExcludedFromFee[address(this)] */\n  swap1\n  swap3\n  mstore\n  swap1\n  keccak256\n    /* \"contracts2/tokens/LiquidityGeneratorToken.sol\":31313:31353  _isExcludedFromFee[address(this)] = true */\n  dup1\n  sload\n  swap1\n  swap2\n  and\n    /* \"contracts2/tokens/LiquidityGeneratorToken.sol\":31269:31303  _isExcludedFromFee[owner()] = true */\n  0x01\n    /* \"contracts2/tokens/LiquidityGeneratorToken.sol\":31313:31353  _isExcludedFromFee[address(this)] = true */\n  or\n  swap1\n  sstore\n    /* \"contracts2/tokens/LiquidityGeneratorToken.sol\":31390:31397  owner() */\n  tag_59\n    /* \"contracts2/tokens/LiquidityGeneratorToken.sol\":4704:4711  address */\n  0x00\n    /* \"contracts2/tokens/LiquidityGeneratorToken.sol\":4730:4736  _owner */\n  sload\n  sub(shl(0xa0, 0x01), 0x01)\n  and\n  swap1\n    /* \"contracts2/tokens/LiquidityGeneratorToken.sol\":4658:4743  function owner() public view virtual returns (address) {... */\n  jump\n    /* \"contracts2/tokens/LiquidityGeneratorToken.sol\":31390:31397  owner() */\ntag_59:\n  sub(shl(0xa0, 0x01), 0x01)\n    /* \"contracts2/tokens/LiquidityGeneratorToken.sol\":31369:31407  Transfer(address(0), owner(), _tTotal) */\n  and\n    /* \"contracts2/tokens/LiquidityGeneratorToken.sol\":31386:31387  0 */\n  0x00\n  sub(shl(0xa0, 0x01), 0x01)\n    /* \"contracts2/tokens/LiquidityGeneratorToken.sol\":31369:31407  Transfer(address(0), owner(), _tTotal) */\n  and\n  0xddf252ad1be2c89b69c2b068fc378daa952ba7f163c4a11628f55a4df523b3ef\n    /* \"contracts2/tokens/LiquidityGeneratorToken.sol\":31399:31406  _tTotal */\n  sload(0x07)\n    /* \"contracts2/tokens/LiquidityGeneratorToken.sol\":31369:31407  Transfer(address(0), owner(), _tTotal) */\n  mload(0x40)\n  tag_60\n  swap2\n    /* \"#utility.yul\":5479:5504   */\n  dup2\n  mstore\n    /* \"#utility.yul\":5467:5469   */\n  0x20\n    /* \"#utility.yul\":5452:5470   */\n  add\n  swap1\n    /* \"#utility.yul\":5434:5510   */\n  jump\n    /* \"contracts2/tokens/LiquidityGeneratorToken.sol\":31369:31407  Transfer(address(0), owner(), _tTotal) */\ntag_60:\n  mload(0x40)\n  dup1\n  swap2\n  sub\n  swap1\n  log3\n    /* \"contracts2/tokens/LiquidityGeneratorToken.sol\":31478:31482  this */\n  address\n    /* \"contracts2/tokens/LiquidityGeneratorToken.sol\":31449:31456  owner() */\n  tag_62\n    /* \"contracts2/tokens/LiquidityGeneratorToken.sol\":4704:4711  address */\n  0x00\n    /* \"contracts2/tokens/LiquidityGeneratorToken.sol\":4730:4736  _owner */\n  sload\n  sub(shl(0xa0, 0x01), 0x01)\n  and\n  swap1\n    /* \"contracts2/tokens/LiquidityGeneratorToken.sol\":4658:4743  function owner() public view virtual returns (address) {... */\n  jump\n    /* \"contracts2/tokens/LiquidityGeneratorToken.sol\":31449:31456  owner() */\ntag_62:\n  sub(shl(0xa0, 0x01), 0x01)\n    /* \"contracts2/tokens/LiquidityGeneratorToken.sol\":31423:31556  TokenCreated(... */\n  and\n  0x56358b41df5fa59f5639228f0930994cbdde383c8a8fd74e06c04e1deebe3562\n    /* \"contracts2/tokens/LiquidityGeneratorToken.sol\":31497:31525  TokenType.liquidityGenerator */\n  0x02\n    /* \"contracts2/tokens/LiquidityGeneratorToken.sol\":27988:27989  1 */\n  0x01\n    /* \"contracts2/tokens/LiquidityGeneratorToken.sol\":31423:31556  TokenCreated(... */\n  mload(0x40)\n  tag_63\n  swap3\n  swap2\n  swap1\n  tag_64\n  jump\t// in\ntag_63:\n  mload(0x40)\n  dup1\n  swap2\n  sub\n  swap1\n  log3\n    /* \"contracts2/tokens/LiquidityGeneratorToken.sol\":31567:31617  payable(serviceFeeReceiver_).transfer(serviceFee_) */\n  mload(0x40)\n  sub(shl(0xa0, 0x01), 0x01)\n    /* \"contracts2/tokens/LiquidityGeneratorToken.sol\":31567:31604  payable(serviceFeeReceiver_).transfer */\n  dup5\n  and\n  swap1\n    /* \"contracts2/tokens/LiquidityGeneratorToken.sol\":31567:31617  payable(serviceFeeReceiver_).transfer(serviceFee_) */\n  dup4\n  iszero\n  0x08fc\n  mul\n  swap1\n    /* \"contracts2/tokens/LiquidityGeneratorToken.sol\":31605:31616  serviceFee_ */\n  dup5\n  swap1\n    /* \"contracts2/tokens/LiquidityGeneratorToken.sol\":31567:31617  payable(serviceFeeReceiver_).transfer(serviceFee_) */\n  0x00\n  dup2\n  dup2\n  dup2\n    /* \"contracts2/tokens/LiquidityGeneratorToken.sol\":31605:31616  serviceFee_ */\n  dup6\n    /* \"contracts2/tokens/LiquidityGeneratorToken.sol\":31567:31604  payable(serviceFeeReceiver_).transfer */\n  dup9\n    /* \"contracts2/tokens/LiquidityGeneratorToken.sol\":31567:31617  payable(serviceFeeReceiver_).transfer(serviceFee_) */\n  dup9\n  call\n  swap4\n  pop\n  pop\n  pop\n  pop\n  iszero\n  dup1\n  iszero\n  tag_66\n  jumpi\n  returndatasize\n  0x00\n  dup1\n  returndatacopy\n  revert(0x00, returndatasize)\ntag_66:\n  pop\n    /* \"contracts2/tokens/LiquidityGeneratorToken.sol\":29391:31624  constructor(... */\n  pop\n  pop\n  pop\n  pop\n  pop\n  pop\n  pop\n  pop\n  pop\n  pop\n  pop\n    /* \"contracts2/tokens/LiquidityGeneratorToken.sol\":27821:49964  contract LiquidityGeneratorToken is IERC20, Ownable, BaseToken {... */\n  jump(tag_88)\n    /* \"contracts2/tokens/LiquidityGeneratorToken.sol\":5726:5895  function _setOwner(address newOwner) private {... */\ntag_9:\n    /* \"contracts2/tokens/LiquidityGeneratorToken.sol\":5781:5797  address oldOwner */\n  0x00\n    /* \"contracts2/tokens/LiquidityGeneratorToken.sol\":5800:5806  _owner */\n  dup1\n  sload\n  sub(shl(0xa0, 0x01), 0x01)\n    /* \"contracts2/tokens/LiquidityGeneratorToken.sol\":5816:5833  _owner = newOwner */\n  dup4\n  dup2\n  and\n  not(sub(shl(0xa0, 0x01), 0x01))\n  dup4\n  and\n  dup2\n  or\n  dup5\n  sstore\n    /* \"contracts2/tokens/LiquidityGeneratorToken.sol\":5848:5888  OwnershipTransferred(oldOwner, newOwner) */\n  mload(0x40)\n    /* \"contracts2/tokens/LiquidityGeneratorToken.sol\":5800:5806  _owner */\n  swap2\n  swap1\n  swap3\n  and\n  swap3\n  dup4\n  swap2\n    /* \"contracts2/tokens/LiquidityGeneratorToken.sol\":5848:5888  OwnershipTransferred(oldOwner, newOwner) */\n  0x8be0079c531659141344cd1fd0a4f28419497f9722a3daafe3b4186f6b6457e0\n  swap2\n    /* \"contracts2/tokens/LiquidityGeneratorToken.sol\":5781:5797  address oldOwner */\n  swap1\n    /* \"contracts2/tokens/LiquidityGeneratorToken.sol\":5848:5888  OwnershipTransferred(oldOwner, newOwner) */\n  log3\n    /* \"contracts2/tokens/LiquidityGeneratorToken.sol\":5726:5895  function _setOwner(address newOwner) private {... */\n  pop\n  pop\n  jump\t// out\n    /* \"contracts2/tokens/LiquidityGeneratorToken.sol\":9322:9418  function mul(uint256 a, uint256 b) internal pure returns (uint256) {... */\ntag_39:\n    /* \"contracts2/tokens/LiquidityGeneratorToken.sol\":9380:9387  uint256 */\n  0x00\n    /* \"contracts2/tokens/LiquidityGeneratorToken.sol\":9406:9411  a * b */\n  tag_71\n    /* \"contracts2/tokens/LiquidityGeneratorToken.sol\":9410:9411  b */\n  dup3\n    /* \"contracts2/tokens/LiquidityGeneratorToken.sol\":9406:9407  a */\n  dup5\n    /* \"contracts2/tokens/LiquidityGeneratorToken.sol\":9406:9411  a * b */\n  tag_72\n  jump\t// in\ntag_71:\n    /* \"contracts2/tokens/LiquidityGeneratorToken.sol\":9399:9411  return a * b */\n  swap4\n    /* \"contracts2/tokens/LiquidityGeneratorToken.sol\":9322:9418  function mul(uint256 a, uint256 b) internal pure returns (uint256) {... */\n  swap3\n  pop\n  pop\n  pop\n  jump\t// out\n    /* \"contracts2/tokens/LiquidityGeneratorToken.sol\":9707:9803  function div(uint256 a, uint256 b) internal pure returns (uint256) {... */\ntag_40:\n    /* \"contracts2/tokens/LiquidityGeneratorToken.sol\":9765:9772  uint256 */\n  0x00\n    /* \"contracts2/tokens/LiquidityGeneratorToken.sol\":9791:9796  a / b */\n  tag_71\n    /* \"contracts2/tokens/LiquidityGeneratorToken.sol\":9795:9796  b */\n  dup3\n    /* \"contracts2/tokens/LiquidityGeneratorToken.sol\":9791:9792  a */\n  dup5\n    /* \"contracts2/tokens/LiquidityGeneratorToken.sol\":9791:9796  a / b */\n  tag_75\n  jump\t// in\n    /* \"contracts2/tokens/LiquidityGeneratorToken.sol\":27821:49964  contract LiquidityGeneratorToken is IERC20, Ownable, BaseToken {... */\ntag_31:\n  dup3\n  dup1\n  sload\n  tag_77\n  swap1\n  tag_78\n  jump\t// in\ntag_77:\n  swap1\n  0x00\n  mstore\n  keccak256(0x00, 0x20)\n  swap1\n  0x1f\n  add\n  0x20\n  swap1\n  div\n  dup2\n  add\n  swap3\n  dup3\n  tag_80\n  jumpi\n  0x00\n  dup6\n  sstore\n  jump(tag_83)\ntag_80:\n  dup3\n  0x1f\n  lt\n  tag_81\n  jumpi\n  dup1\n  mload\n  not(0xff)\n  and\n  dup4\n  dup1\n  add\n  or\n  dup6\n  sstore\n  jump(tag_83)\ntag_81:\n  dup3\n  dup1\n  add\n  0x01\n  add\n  dup6\n  sstore\n  dup3\n  iszero\n  tag_83\n  jumpi\n  swap2\n  dup3\n  add\ntag_82:\n  dup3\n  dup2\n  gt\n  iszero\n  tag_83\n  jumpi\n  dup3\n  mload\n  dup3\n  sstore\n  swap2\n  0x20\n  add\n  swap2\n  swap1\n  0x01\n  add\n  swap1\n  jump(tag_82)\ntag_83:\n  pop\n  tag_84\n  swap3\n  swap2\n  pop\n  tag_85\n  jump\t// in\ntag_84:\n  pop\n  swap1\n  jump\t// out\ntag_85:\ntag_86:\n  dup1\n  dup3\n  gt\n  iszero\n  tag_84\n  jumpi\n  0x00\n  dup2\n  sstore\n  0x01\n  add\n  jump(tag_86)\n    /* \"#utility.yul\":14:191   */\ntag_89:\n    /* \"#utility.yul\":93:106   */\n  dup1\n  mload\n  sub(shl(0xa0, 0x01), 0x01)\n    /* \"#utility.yul\":135:166   */\n  dup2\n  and\n    /* \"#utility.yul\":125:167   */\n  dup2\n  eq\n    /* \"#utility.yul\":115:117   */\n  tag_91\n  jumpi\n    /* \"#utility.yul\":181:182   */\n  0x00\n    /* \"#utility.yul\":178:179   */\n  dup1\n    /* \"#utility.yul\":171:183   */\n  revert\n    /* \"#utility.yul\":115:117   */\ntag_91:\n    /* \"#utility.yul\":74:191   */\n  swap2\n  swap1\n  pop\n  jump\t// out\n    /* \"#utility.yul\":196:1105   */\ntag_92:\n    /* \"#utility.yul\":250:255   */\n  0x00\n    /* \"#utility.yul\":303:306   */\n  dup3\n    /* \"#utility.yul\":296:300   */\n  0x1f\n    /* \"#utility.yul\":288:294   */\n  dup4\n    /* \"#utility.yul\":284:301   */\n  add\n    /* \"#utility.yul\":280:307   */\n  slt\n    /* \"#utility.yul\":270:272   */\n  tag_94\n  jumpi\n    /* \"#utility.yul\":325:330   */\n  dup1\n    /* \"#utility.yul\":318:323   */\n  dup2\n    /* \"#utility.yul\":311:331   */\n  revert\n    /* \"#utility.yul\":270:272   */\ntag_94:\n    /* \"#utility.yul\":352:365   */\n  dup2\n  mload\n  sub(shl(0x40, 0x01), 0x01)\n    /* \"#utility.yul\":414:424   */\n  dup1\n  dup3\n  gt\n    /* \"#utility.yul\":411:413   */\n  iszero\n  tag_96\n  jumpi\n    /* \"#utility.yul\":427:445   */\n  tag_96\n  tag_97\n  jump\t// in\ntag_96:\n    /* \"#utility.yul\":502:504   */\n  0x40\n    /* \"#utility.yul\":496:505   */\n  mload\n    /* \"#utility.yul\":470:472   */\n  0x1f\n    /* \"#utility.yul\":556:569   */\n  dup4\n  add\n  not(0x1f)\n    /* \"#utility.yul\":552:574   */\n  swap1\n  dup2\n  and\n    /* \"#utility.yul\":576:578   */\n  0x3f\n    /* \"#utility.yul\":548:579   */\n  add\n    /* \"#utility.yul\":544:584   */\n  and\n    /* \"#utility.yul\":532:585   */\n  dup2\n  add\n  swap1\n    /* \"#utility.yul\":600:618   */\n  dup3\n  dup3\n  gt\n    /* \"#utility.yul\":620:642   */\n  dup2\n  dup4\n  lt\n    /* \"#utility.yul\":597:643   */\n  or\n    /* \"#utility.yul\":594:596   */\n  iszero\n  tag_99\n  jumpi\n    /* \"#utility.yul\":646:664   */\n  tag_99\n  tag_97\n  jump\t// in\ntag_99:\n    /* \"#utility.yul\":686:696   */\n  dup2\n    /* \"#utility.yul\":682:684   */\n  0x40\n    /* \"#utility.yul\":675:697   */\n  mstore\n    /* \"#utility.yul\":721:723   */\n  dup4\n    /* \"#utility.yul\":713:719   */\n  dup2\n    /* \"#utility.yul\":706:724   */\n  mstore\n    /* \"#utility.yul\":743:747   */\n  0x20\n    /* \"#utility.yul\":733:747   */\n  swap3\n  pop\n    /* \"#utility.yul\":788:791   */\n  dup7\n    /* \"#utility.yul\":783:785   */\n  dup4\n    /* \"#utility.yul\":778:780   */\n  dup6\n    /* \"#utility.yul\":770:776   */\n  dup9\n    /* \"#utility.yul\":766:781   */\n  add\n    /* \"#utility.yul\":762:786   */\n  add\n    /* \"#utility.yul\":759:792   */\n  gt\n    /* \"#utility.yul\":756:758   */\n  iszero\n  tag_100\n  jumpi\n    /* \"#utility.yul\":809:814   */\n  dup5\n    /* \"#utility.yul\":802:807   */\n  dup6\n    /* \"#utility.yul\":795:815   */\n  revert\n    /* \"#utility.yul\":756:758   */\ntag_100:\n    /* \"#utility.yul\":835:840   */\n  dup5\n    /* \"#utility.yul\":826:840   */\n  swap2\n  pop\n    /* \"#utility.yul\":849:982   */\ntag_101:\n    /* \"#utility.yul\":863:865   */\n  dup4\n    /* \"#utility.yul\":860:861   */\n  dup3\n    /* \"#utility.yul\":857:866   */\n  lt\n    /* \"#utility.yul\":849:982   */\n  iszero\n  tag_103\n  jumpi\n    /* \"#utility.yul\":951:965   */\n  dup6\n  dup3\n  add\n    /* \"#utility.yul\":947:970   */\n  dup4\n  add\n    /* \"#utility.yul\":941:971   */\n  mload\n    /* \"#utility.yul\":920:934   */\n  dup2\n  dup4\n  add\n    /* \"#utility.yul\":916:939   */\n  dup5\n  add\n    /* \"#utility.yul\":909:972   */\n  mstore\n    /* \"#utility.yul\":874:884   */\n  swap1\n  dup3\n  add\n  swap1\n    /* \"#utility.yul\":849:982   */\n  jump(tag_101)\ntag_103:\n    /* \"#utility.yul\":1000:1002   */\n  dup4\n    /* \"#utility.yul\":997:998   */\n  dup3\n    /* \"#utility.yul\":994:1003   */\n  gt\n    /* \"#utility.yul\":991:993   */\n  iszero\n  tag_104\n  jumpi\n    /* \"#utility.yul\":1059:1064   */\n  dup5\n    /* \"#utility.yul\":1054:1056   */\n  dup4\n    /* \"#utility.yul\":1049:1051   */\n  dup6\n    /* \"#utility.yul\":1041:1047   */\n  dup4\n    /* \"#utility.yul\":1037:1052   */\n  add\n    /* \"#utility.yul\":1033:1057   */\n  add\n    /* \"#utility.yul\":1026:1065   */\n  mstore\n    /* \"#utility.yul\":991:993   */\ntag_104:\n    /* \"#utility.yul\":1093:1099   */\n  swap7\n    /* \"#utility.yul\":260:1105   */\n  swap6\n  pop\n  pop\n  pop\n  pop\n  pop\n  pop\n  jump\t// out\n    /* \"#utility.yul\":1110:1273   */\ntag_105:\n    /* \"#utility.yul\":1188:1201   */\n  dup1\n  mload\n    /* \"#utility.yul\":1241:1247   */\n  0xffff\n    /* \"#utility.yul\":1230:1248   */\n  dup2\n  and\n    /* \"#utility.yul\":1220:1249   */\n  dup2\n  eq\n    /* \"#utility.yul\":1210:1212   */\n  tag_91\n  jumpi\n    /* \"#utility.yul\":1263:1264   */\n  0x00\n    /* \"#utility.yul\":1260:1261   */\n  dup1\n    /* \"#utility.yul\":1253:1265   */\n  revert\n    /* \"#utility.yul\":1278:1496   */\ntag_47:\n    /* \"#utility.yul\":1348:1354   */\n  0x00\n    /* \"#utility.yul\":1401:1403   */\n  0x20\n    /* \"#utility.yul\":1389:1398   */\n  dup3\n    /* \"#utility.yul\":1380:1387   */\n  dup5\n    /* \"#utility.yul\":1376:1399   */\n  sub\n    /* \"#utility.yul\":1372:1404   */\n  slt\n    /* \"#utility.yul\":1369:1371   */\n  iszero\n  tag_109\n  jumpi\n    /* \"#utility.yul\":1422:1428   */\n  dup1\n    /* \"#utility.yul\":1414:1420   */\n  dup2\n    /* \"#utility.yul\":1407:1429   */\n  revert\n    /* \"#utility.yul\":1369:1371   */\ntag_109:\n    /* \"#utility.yul\":1450:1490   */\n  tag_71\n    /* \"#utility.yul\":1480:1489   */\n  dup3\n    /* \"#utility.yul\":1450:1490   */\n  tag_89\n  jump\t// in\n    /* \"#utility.yul\":1501:2726   */\ntag_2:\n    /* \"#utility.yul\":1669:1675   */\n  0x00\n    /* \"#utility.yul\":1677:1683   */\n  dup1\n    /* \"#utility.yul\":1685:1691   */\n  0x00\n    /* \"#utility.yul\":1693:1699   */\n  dup1\n    /* \"#utility.yul\":1701:1707   */\n  0x00\n    /* \"#utility.yul\":1709:1715   */\n  dup1\n    /* \"#utility.yul\":1717:1723   */\n  0x00\n    /* \"#utility.yul\":1725:1731   */\n  dup1\n    /* \"#utility.yul\":1733:1739   */\n  0x00\n    /* \"#utility.yul\":1741:1747   */\n  dup1\n    /* \"#utility.yul\":1794:1797   */\n  0x0140\n    /* \"#utility.yul\":1782:1791   */\n  dup12\n    /* \"#utility.yul\":1773:1780   */\n  dup14\n    /* \"#utility.yul\":1769:1792   */\n  sub\n    /* \"#utility.yul\":1765:1798   */\n  slt\n    /* \"#utility.yul\":1762:1764   */\n  iszero\n  tag_112\n  jumpi\n    /* \"#utility.yul\":1816:1822   */\n  dup6\n    /* \"#utility.yul\":1808:1814   */\n  dup7\n    /* \"#utility.yul\":1801:1823   */\n  revert\n    /* \"#utility.yul\":1762:1764   */\ntag_112:\n    /* \"#utility.yul\":1848:1864   */\n  dup11\n  mload\n  sub(shl(0x40, 0x01), 0x01)\n    /* \"#utility.yul\":1913:1927   */\n  dup1\n  dup3\n  gt\n    /* \"#utility.yul\":1910:1912   */\n  iszero\n  tag_113\n  jumpi\n    /* \"#utility.yul\":1945:1951   */\n  dup8\n    /* \"#utility.yul\":1937:1943   */\n  dup9\n    /* \"#utility.yul\":1930:1952   */\n  revert\n    /* \"#utility.yul\":1910:1912   */\ntag_113:\n    /* \"#utility.yul\":1973:2034   */\n  tag_114\n    /* \"#utility.yul\":2026:2033   */\n  dup15\n    /* \"#utility.yul\":2017:2023   */\n  dup4\n    /* \"#utility.yul\":2006:2015   */\n  dup16\n    /* \"#utility.yul\":2002:2024   */\n  add\n    /* \"#utility.yul\":1973:2034   */\n  tag_92\n  jump\t// in\ntag_114:\n    /* \"#utility.yul\":1963:2034   */\n  swap12\n  pop\n    /* \"#utility.yul\":2080:2082   */\n  0x20\n    /* \"#utility.yul\":2069:2078   */\n  dup14\n    /* \"#utility.yul\":2065:2083   */\n  add\n    /* \"#utility.yul\":2059:2084   */\n  mload\n    /* \"#utility.yul\":2043:2084   */\n  swap2\n  pop\n    /* \"#utility.yul\":2109:2111   */\n  dup1\n    /* \"#utility.yul\":2099:2107   */\n  dup3\n    /* \"#utility.yul\":2096:2112   */\n  gt\n    /* \"#utility.yul\":2093:2095   */\n  iszero\n  tag_115\n  jumpi\n    /* \"#utility.yul\":2130:2136   */\n  dup8\n    /* \"#utility.yul\":2122:2128   */\n  dup9\n    /* \"#utility.yul\":2115:2137   */\n  revert\n    /* \"#utility.yul\":2093:2095   */\ntag_115:\n  pop\n    /* \"#utility.yul\":2158:2221   */\n  tag_116\n    /* \"#utility.yul\":2213:2220   */\n  dup14\n    /* \"#utility.yul\":2202:2210   */\n  dup3\n    /* \"#utility.yul\":2191:2200   */\n  dup15\n    /* \"#utility.yul\":2187:2211   */\n  add\n    /* \"#utility.yul\":2158:2221   */\n  tag_92\n  jump\t// in\ntag_116:\n    /* \"#utility.yul\":2148:2221   */\n  swap10\n  pop\n  pop\n    /* \"#utility.yul\":2261:2263   */\n  0x40\n    /* \"#utility.yul\":2250:2259   */\n  dup12\n    /* \"#utility.yul\":2246:2264   */\n  add\n    /* \"#utility.yul\":2240:2265   */\n  mload\n    /* \"#utility.yul\":2230:2265   */\n  swap8\n  pop\n    /* \"#utility.yul\":2284:2333   */\n  tag_117\n    /* \"#utility.yul\":2329:2331   */\n  0x60\n    /* \"#utility.yul\":2318:2327   */\n  dup13\n    /* \"#utility.yul\":2314:2332   */\n  add\n    /* \"#utility.yul\":2284:2333   */\n  tag_89\n  jump\t// in\ntag_117:\n    /* \"#utility.yul\":2274:2333   */\n  swap7\n  pop\n    /* \"#utility.yul\":2352:2402   */\n  tag_118\n    /* \"#utility.yul\":2397:2400   */\n  0x80\n    /* \"#utility.yul\":2386:2395   */\n  dup13\n    /* \"#utility.yul\":2382:2401   */\n  add\n    /* \"#utility.yul\":2352:2402   */\n  tag_89\n  jump\t// in\ntag_118:\n    /* \"#utility.yul\":2342:2402   */\n  swap6\n  pop\n    /* \"#utility.yul\":2421:2470   */\n  tag_119\n    /* \"#utility.yul\":2465:2468   */\n  0xa0\n    /* \"#utility.yul\":2454:2463   */\n  dup13\n    /* \"#utility.yul\":2450:2469   */\n  add\n    /* \"#utility.yul\":2421:2470   */\n  tag_105\n  jump\t// in\ntag_119:\n    /* \"#utility.yul\":2411:2470   */\n  swap5\n  pop\n    /* \"#utility.yul\":2489:2538   */\n  tag_120\n    /* \"#utility.yul\":2533:2536   */\n  0xc0\n    /* \"#utility.yul\":2522:2531   */\n  dup13\n    /* \"#utility.yul\":2518:2537   */\n  add\n    /* \"#utility.yul\":2489:2538   */\n  tag_105\n  jump\t// in\ntag_120:\n    /* \"#utility.yul\":2479:2538   */\n  swap4\n  pop\n    /* \"#utility.yul\":2557:2606   */\n  tag_121\n    /* \"#utility.yul\":2601:2604   */\n  0xe0\n    /* \"#utility.yul\":2590:2599   */\n  dup13\n    /* \"#utility.yul\":2586:2605   */\n  add\n    /* \"#utility.yul\":2557:2606   */\n  tag_105\n  jump\t// in\ntag_121:\n    /* \"#utility.yul\":2547:2606   */\n  swap3\n  pop\n    /* \"#utility.yul\":2625:2675   */\n  tag_122\n    /* \"#utility.yul\":2670:2673   */\n  0x0100\n    /* \"#utility.yul\":2659:2668   */\n  dup13\n    /* \"#utility.yul\":2655:2674   */\n  add\n    /* \"#utility.yul\":2625:2675   */\n  tag_89\n  jump\t// in\ntag_122:\n    /* \"#utility.yul\":2615:2675   */\n  swap2\n  pop\n    /* \"#utility.yul\":2715:2718   */\n  0x0120\n    /* \"#utility.yul\":2704:2713   */\n  dup12\n    /* \"#utility.yul\":2700:2719   */\n  add\n    /* \"#utility.yul\":2694:2720   */\n  mload\n    /* \"#utility.yul\":2684:2720   */\n  swap1\n  pop\n    /* \"#utility.yul\":1752:2726   */\n  swap3\n  swap6\n  swap9\n  swap12\n  swap2\n  swap5\n  swap8\n  swap11\n  pop\n  swap3\n  swap6\n  swap9\n  pop\n  jump\t// out\n    /* \"#utility.yul\":3040:3453   */\ntag_64:\n    /* \"#utility.yul\":3214:3216   */\n  0x40\n    /* \"#utility.yul\":3199:3217   */\n  dup2\n  add\n    /* \"#utility.yul\":3247:3248   */\n  0x08\n    /* \"#utility.yul\":3236:3249   */\n  dup5\n  lt\n    /* \"#utility.yul\":3226:3228   */\n  tag_125\n  jumpi\n    /* \"#utility.yul\":3292:3302   */\n  0x4e487b71\n    /* \"#utility.yul\":3287:3290   */\n  0xe0\n    /* \"#utility.yul\":3283:3303   */\n  shl\n    /* \"#utility.yul\":3280:3281   */\n  0x00\n    /* \"#utility.yul\":3273:3304   */\n  mstore\n    /* \"#utility.yul\":3327:3331   */\n  0x21\n    /* \"#utility.yul\":3324:3325   */\n  0x04\n    /* \"#utility.yul\":3317:3332   */\n  mstore\n    /* \"#utility.yul\":3355:3359   */\n  0x24\n    /* \"#utility.yul\":3352:3353   */\n  0x00\n    /* \"#utility.yul\":3345:3360   */\n  revert\n    /* \"#utility.yul\":3226:3228   */\ntag_125:\n    /* \"#utility.yul\":3379:3404   */\n  swap3\n  dup2\n  mstore\n    /* \"#utility.yul\":3435:3437   */\n  0x20\n    /* \"#utility.yul\":3420:3438   */\n  add\n    /* \"#utility.yul\":3413:3447   */\n  mstore\n    /* \"#utility.yul\":3181:3453   */\n  swap1\n  jump\t// out\n    /* \"#utility.yul\":5515:5739   */\ntag_25:\n    /* \"#utility.yul\":5554:5557   */\n  0x00\n    /* \"#utility.yul\":5582:5588   */\n  0xffff\n    /* \"#utility.yul\":5615:5617   */\n  dup1\n    /* \"#utility.yul\":5612:5613   */\n  dup4\n    /* \"#utility.yul\":5608:5618   */\n  and\n    /* \"#utility.yul\":5645:5647   */\n  dup2\n    /* \"#utility.yul\":5642:5643   */\n  dup6\n    /* \"#utility.yul\":5638:5648   */\n  and\n    /* \"#utility.yul\":5676:5679   */\n  dup1\n    /* \"#utility.yul\":5672:5674   */\n  dup4\n    /* \"#utility.yul\":5668:5680   */\n  sub\n    /* \"#utility.yul\":5663:5666   */\n  dup3\n    /* \"#utility.yul\":5660:5681   */\n  gt\n    /* \"#utility.yul\":5657:5659   */\n  iszero\n  tag_134\n  jumpi\n    /* \"#utility.yul\":5684:5702   */\n  tag_134\n  tag_135\n  jump\t// in\ntag_134:\n    /* \"#utility.yul\":5720:5733   */\n  add\n  swap5\n    /* \"#utility.yul\":5562:5739   */\n  swap4\n  pop\n  pop\n  pop\n  pop\n  jump\t// out\n    /* \"#utility.yul\":5744:5864   */\ntag_75:\n    /* \"#utility.yul\":5784:5785   */\n  0x00\n    /* \"#utility.yul\":5810:5811   */\n  dup3\n    /* \"#utility.yul\":5800:5802   */\n  tag_138\n  jumpi\n    /* \"#utility.yul\":5815:5833   */\n  tag_138\n  tag_139\n  jump\t// in\ntag_138:\n  pop\n    /* \"#utility.yul\":5849:5858   */\n  div\n  swap1\n    /* \"#utility.yul\":5790:5864   */\n  jump\t// out\n    /* \"#utility.yul\":5869:6037   */\ntag_72:\n    /* \"#utility.yul\":5909:5916   */\n  0x00\n    /* \"#utility.yul\":5975:5976   */\n  dup2\n    /* \"#utility.yul\":5971:5972   */\n  0x00\n    /* \"#utility.yul\":5967:5973   */\n  not\n    /* \"#utility.yul\":5963:5977   */\n  div\n    /* \"#utility.yul\":5960:5961   */\n  dup4\n    /* \"#utility.yul\":5957:5978   */\n  gt\n    /* \"#utility.yul\":5952:5953   */\n  dup3\n    /* \"#utility.yul\":5945:5954   */\n  iszero\n    /* \"#utility.yul\":5938:5955   */\n  iszero\n    /* \"#utility.yul\":5934:5979   */\n  and\n    /* \"#utility.yul\":5931:5933   */\n  iszero\n  tag_142\n  jumpi\n    /* \"#utility.yul\":5982:6000   */\n  tag_142\n  tag_135\n  jump\t// in\ntag_142:\n  pop\n    /* \"#utility.yul\":6022:6031   */\n  mul\n  swap1\n    /* \"#utility.yul\":5921:6037   */\n  jump\t// out\n    /* \"#utility.yul\":6042:6167   */\ntag_36:\n    /* \"#utility.yul\":6082:6086   */\n  0x00\n    /* \"#utility.yul\":6110:6111   */\n  dup3\n    /* \"#utility.yul\":6107:6108   */\n  dup3\n    /* \"#utility.yul\":6104:6112   */\n  lt\n    /* \"#utility.yul\":6101:6103   */\n  iszero\n  tag_145\n  jumpi\n    /* \"#utility.yul\":6115:6133   */\n  tag_145\n  tag_135\n  jump\t// in\ntag_145:\n  pop\n    /* \"#utility.yul\":6152:6161   */\n  sub\n  swap1\n    /* \"#utility.yul\":6091:6167   */\n  jump\t// out\n    /* \"#utility.yul\":6172:6552   */\ntag_78:\n    /* \"#utility.yul\":6251:6252   */\n  0x01\n    /* \"#utility.yul\":6247:6259   */\n  dup2\n  dup2\n  shr\n  swap1\n    /* \"#utility.yul\":6294:6306   */\n  dup3\n  and\n  dup1\n    /* \"#utility.yul\":6315:6317   */\n  tag_147\n  jumpi\n    /* \"#utility.yul\":6369:6373   */\n  0x7f\n    /* \"#utility.yul\":6361:6367   */\n  dup3\n    /* \"#utility.yul\":6357:6374   */\n  and\n    /* \"#utility.yul\":6347:6374   */\n  swap2\n  pop\n    /* \"#utility.yul\":6315:6317   */\ntag_147:\n    /* \"#utility.yul\":6422:6424   */\n  0x20\n    /* \"#utility.yul\":6414:6420   */\n  dup3\n    /* \"#utility.yul\":6411:6425   */\n  lt\n    /* \"#utility.yul\":6391:6409   */\n  dup2\n    /* \"#utility.yul\":6388:6426   */\n  eq\n    /* \"#utility.yul\":6385:6387   */\n  iszero\n  tag_148\n  jumpi\n    /* \"#utility.yul\":6468:6478   */\n  0x4e487b71\n    /* \"#utility.yul\":6463:6466   */\n  0xe0\n    /* \"#utility.yul\":6459:6479   */\n  shl\n    /* \"#utility.yul\":6456:6457   */\n  0x00\n    /* \"#utility.yul\":6449:6480   */\n  mstore\n    /* \"#utility.yul\":6503:6507   */\n  0x22\n    /* \"#utility.yul\":6500:6501   */\n  0x04\n    /* \"#utility.yul\":6493:6508   */\n  mstore\n    /* \"#utility.yul\":6531:6535   */\n  0x24\n    /* \"#utility.yul\":6528:6529   */\n  0x00\n    /* \"#utility.yul\":6521:6536   */\n  revert\n    /* \"#utility.yul\":6385:6387   */\ntag_148:\n  pop\n    /* \"#utility.yul\":6227:6552   */\n  swap2\n  swap1\n  pop\n  jump\t// out\n    /* \"#utility.yul\":6557:6669   */\ntag_34:\n    /* \"#utility.yul\":6589:6590   */\n  0x00\n    /* \"#utility.yul\":6615:6616   */\n  dup3\n    /* \"#utility.yul\":6605:6607   */\n  tag_151\n  jumpi\n    /* \"#utility.yul\":6620:6638   */\n  tag_151\n  tag_139\n  jump\t// in\ntag_151:\n  pop\n    /* \"#utility.yul\":6654:6663   */\n  mod\n  swap1\n    /* \"#utility.yul\":6595:6669   */\n  jump\t// out\n    /* \"#utility.yul\":6674:6801   */\ntag_135:\n    /* \"#utility.yul\":6735:6745   */\n  0x4e487b71\n    /* \"#utility.yul\":6730:6733   */\n  0xe0\n    /* \"#utility.yul\":6726:6746   */\n  shl\n    /* \"#utility.yul\":6723:6724   */\n  0x00\n    /* \"#utility.yul\":6716:6747   */\n  mstore\n    /* \"#utility.yul\":6766:6770   */\n  0x11\n    /* \"#utility.yul\":6763:6764   */\n  0x04\n    /* \"#utility.yul\":6756:6771   */\n  mstore\n    /* \"#utility.yul\":6790:6794   */\n  0x24\n    /* \"#utility.yul\":6787:6788   */\n  0x00\n    /* \"#utility.yul\":6780:6795   */\n  revert\n    /* \"#utility.yul\":6806:6933   */\ntag_139:\n    /* \"#utility.yul\":6867:6877   */\n  0x4e487b71\n    /* \"#utility.yul\":6862:6865   */\n  0xe0\n    /* \"#utility.yul\":6858:6878   */\n  shl\n    /* \"#utility.yul\":6855:6856   */\n  0x00\n    /* \"#utility.yul\":6848:6879   */\n  mstore\n    /* \"#utility.yul\":6898:6902   */\n  0x12\n    /* \"#utility.yul\":6895:6896   */\n  0x04\n    /* \"#utility.yul\":6888:6903   */\n  mstore\n    /* \"#utility.yul\":6922:6926   */\n  0x24\n    /* \"#utility.yul\":6919:6920   */\n  0x00\n    /* \"#utility.yul\":6912:6927   */\n  revert\n    /* \"#utility.yul\":6938:7065   */\ntag_97:\n    /* \"#utility.yul\":6999:7009   */\n  0x4e487b71\n    /* \"#utility.yul\":6994:6997   */\n  0xe0\n    /* \"#utility.yul\":6990:7010   */\n  shl\n    /* \"#utility.yul\":6987:6988   */\n  0x00\n    /* \"#utility.yul\":6980:7011   */\n  mstore\n    /* \"#utility.yul\":7030:7034   */\n  0x41\n    /* \"#utility.yul\":7027:7028   */\n  0x04\n    /* \"#utility.yul\":7020:7035   */\n  mstore\n    /* \"#utility.yul\":7054:7058   */\n  0x24\n    /* \"#utility.yul\":7051:7052   */\n  0x00\n    /* \"#utility.yul\":7044:7059   */\n  revert\n    /* \"#utility.yul\":6970:7065   */\ntag_88:\n    /* \"contracts2/tokens/LiquidityGeneratorToken.sol\":27821:49964  contract LiquidityGeneratorToken is IERC20, Ownable, BaseToken {... */\n  dataSize(sub_0)\n  dup1\n  dataOffset(sub_0)\n  0x00\n  codecopy\n  0x00\n  return\nstop\n\nsub_0: assembly {\n        /* \"contracts2/tokens/LiquidityGeneratorToken.sol\":27821:49964  contract LiquidityGeneratorToken is IERC20, Ownable, BaseToken {... */\n      mstore(0x40, 0x80)\n      jumpi(tag_1, lt(calldatasize, 0x04))\n      shr(0xe0, calldataload(0x00))\n      dup1\n      0x49bd5a5e\n      gt\n      tag_38\n      jumpi\n      dup1\n      0x8ee88c53\n      gt\n      tag_39\n      jumpi\n      dup1\n      0xc49b9a80\n      gt\n      tag_40\n      jumpi\n      dup1\n      0xc49b9a80\n      eq\n      tag_33\n      jumpi\n      dup1\n      0xdd62ed3e\n      eq\n      tag_34\n      jumpi\n      dup1\n      0xea2f0b37\n      eq\n      tag_35\n      jumpi\n      dup1\n      0xf2fde38b\n      eq\n      tag_36\n      jumpi\n      dup1\n      0xffa1ad74\n      eq\n      tag_37\n      jumpi\n      0x00\n      dup1\n      revert\n    tag_40:\n      dup1\n      0x8ee88c53\n      eq\n      tag_29\n      jumpi\n      dup1\n      0x95d89b41\n      eq\n      tag_30\n      jumpi\n      dup1\n      0xa457c2d7\n      eq\n      tag_31\n      jumpi\n      dup1\n      0xa9059cbb\n      eq\n      tag_32\n      jumpi\n      0x00\n      dup1\n      revert\n    tag_39:\n      dup1\n      0x6bc87c3a\n      gt\n      tag_41\n      jumpi\n      dup1\n      0x6bc87c3a\n      eq\n      tag_24\n      jumpi\n      dup1\n      0x70a08231\n      eq\n      tag_25\n      jumpi\n      dup1\n      0x715018a6\n      eq\n      tag_26\n      jumpi\n      dup1\n      0x88f82020\n      eq\n      tag_27\n      jumpi\n      dup1\n      0x8da5cb5b\n      eq\n      tag_28\n      jumpi\n      0x00\n      dup1\n      revert\n    tag_41:\n      dup1\n      0x49bd5a5e\n      eq\n      tag_20\n      jumpi\n      dup1\n      0x4a74bb02\n      eq\n      tag_21\n      jumpi\n      dup1\n      0x52390c02\n      eq\n      tag_22\n      jumpi\n      dup1\n      0x5342acb4\n      eq\n      tag_23\n      jumpi\n      0x00\n      dup1\n      revert\n    tag_38:\n      dup1\n      0x2d838119\n      gt\n      tag_42\n      jumpi\n      dup1\n      0x3b124fe7\n      gt\n      tag_43\n      jumpi\n      dup1\n      0x3b124fe7\n      eq\n      tag_15\n      jumpi\n      dup1\n      0x3bd5d173\n      eq\n      tag_16\n      jumpi\n      dup1\n      0x40f8007a\n      eq\n      tag_17\n      jumpi\n      dup1\n      0x437823ec\n      eq\n      tag_18\n      jumpi\n      dup1\n      0x4549b039\n      eq\n      tag_19\n      jumpi\n      0x00\n      dup1\n      revert\n    tag_43:\n      dup1\n      0x2d838119\n      eq\n      tag_11\n      jumpi\n      dup1\n      0x313ce567\n      eq\n      tag_12\n      jumpi\n      dup1\n      0x3685d419\n      eq\n      tag_13\n      jumpi\n      dup1\n      0x39509351\n      eq\n      tag_14\n      jumpi\n      0x00\n      dup1\n      revert\n    tag_42:\n      dup1\n      0x1694505e\n      gt\n      tag_44\n      jumpi\n      dup1\n      0x1694505e\n      eq\n      tag_7\n      jumpi\n      dup1\n      0x18160ddd\n      eq\n      tag_8\n      jumpi\n      dup1\n      0x19a8ac9e\n      eq\n      tag_9\n      jumpi\n      dup1\n      0x23b872dd\n      eq\n      tag_10\n      jumpi\n      0x00\n      dup1\n      revert\n    tag_44:\n      dup1\n      0x061c82d0\n      eq\n      tag_3\n      jumpi\n      dup1\n      0x06fdde03\n      eq\n      tag_4\n      jumpi\n      dup1\n      0x095ea7b3\n      eq\n      tag_5\n      jumpi\n      dup1\n      0x13114a9d\n      eq\n      tag_6\n      jumpi\n      0x00\n      dup1\n      revert\n    tag_1:\n      jumpi(tag_2, calldatasize)\n      stop\n    tag_2:\n      0x00\n      dup1\n      revert\n        /* \"contracts2/tokens/LiquidityGeneratorToken.sol\":37270:37498  function setTaxFeePercent(uint256 taxFeeBps) external onlyOwner {... */\n    tag_3:\n      callvalue\n      dup1\n      iszero\n      tag_47\n      jumpi\n      0x00\n      dup1\n      revert\n    tag_47:\n      pop\n      tag_48\n      tag_49\n      calldatasize\n      0x04\n      tag_50\n      jump\t// in\n    tag_49:\n      tag_51\n      jump\t// in\n    tag_48:\n      stop\n        /* \"contracts2/tokens/LiquidityGeneratorToken.sol\":31630:31711  function name() public view returns (string memory) {... */\n    tag_4:\n      callvalue\n      dup1\n      iszero\n      tag_52\n      jumpi\n      0x00\n      dup1\n      revert\n    tag_52:\n      pop\n      tag_53\n      tag_54\n      jump\t// in\n    tag_53:\n      mload(0x40)\n      tag_55\n      swap2\n      swap1\n      tag_56\n      jump\t// in\n    tag_55:\n      mload(0x40)\n      dup1\n      swap2\n      sub\n      swap1\n      return\n        /* \"contracts2/tokens/LiquidityGeneratorToken.sol\":32576:32762  function approve(address spender, uint256 amount)... */\n    tag_5:\n      callvalue\n      dup1\n      iszero\n      tag_57\n      jumpi\n      0x00\n      dup1\n      revert\n    tag_57:\n      pop\n      tag_58\n      tag_59\n      calldatasize\n      0x04\n      tag_60\n      jump\t// in\n    tag_59:\n      tag_61\n      jump\t// in\n    tag_58:\n      mload(0x40)\n        /* \"#utility.yul\":3870:3884   */\n      swap1\n      iszero\n        /* \"#utility.yul\":3863:3885   */\n      iszero\n        /* \"#utility.yul\":3845:3886   */\n      dup2\n      mstore\n        /* \"#utility.yul\":3833:3835   */\n      0x20\n        /* \"#utility.yul\":3818:3836   */\n      add\n        /* \"contracts2/tokens/LiquidityGeneratorToken.sol\":32576:32762  function approve(address spender, uint256 amount)... */\n      tag_55\n        /* \"#utility.yul\":3800:3892   */\n      jump\n        /* \"contracts2/tokens/LiquidityGeneratorToken.sol\":34016:34101  function totalFees() public view returns (uint256) {... */\n    tag_6:\n      callvalue\n      dup1\n      iszero\n      tag_64\n      jumpi\n      0x00\n      dup1\n      revert\n    tag_64:\n      pop\n        /* \"contracts2/tokens/LiquidityGeneratorToken.sol\":34084:34094  _tFeeTotal */\n      sload(0x09)\n        /* \"contracts2/tokens/LiquidityGeneratorToken.sol\":34016:34101  function totalFees() public view returns (uint256) {... */\n    tag_65:\n      mload(0x40)\n        /* \"#utility.yul\":9572:9597   */\n      swap1\n      dup2\n      mstore\n        /* \"#utility.yul\":9560:9562   */\n      0x20\n        /* \"#utility.yul\":9545:9563   */\n      add\n        /* \"contracts2/tokens/LiquidityGeneratorToken.sol\":34016:34101  function totalFees() public view returns (uint256) {... */\n      tag_55\n        /* \"#utility.yul\":9527:9603   */\n      jump\n        /* \"contracts2/tokens/LiquidityGeneratorToken.sol\":28790:28831  IUniswapV2Router02 public uniswapV2Router */\n    tag_7:\n      callvalue\n      dup1\n      iszero\n      tag_69\n      jumpi\n      0x00\n      dup1\n      revert\n    tag_69:\n      pop\n      sload(0x13)\n      tag_70\n      swap1\n      sub(shl(0xa0, 0x01), 0x01)\n      and\n      dup2\n      jump\n    tag_70:\n      mload(0x40)\n      sub(shl(0xa0, 0x01), 0x01)\n        /* \"#utility.yul\":3049:3081   */\n      swap1\n      swap2\n      and\n        /* \"#utility.yul\":3031:3082   */\n      dup2\n      mstore\n        /* \"#utility.yul\":3019:3021   */\n      0x20\n        /* \"#utility.yul\":3004:3022   */\n      add\n        /* \"contracts2/tokens/LiquidityGeneratorToken.sol\":28790:28831  IUniswapV2Router02 public uniswapV2Router */\n      tag_55\n        /* \"#utility.yul\":2986:3088   */\n      jump\n        /* \"contracts2/tokens/LiquidityGeneratorToken.sol\":31895:31988  function totalSupply() public view override returns (uint256) {... */\n    tag_8:\n      callvalue\n      dup1\n      iszero\n      tag_74\n      jumpi\n      0x00\n      dup1\n      revert\n    tag_74:\n      pop\n        /* \"contracts2/tokens/LiquidityGeneratorToken.sol\":31974:31981  _tTotal */\n      sload(0x07)\n        /* \"contracts2/tokens/LiquidityGeneratorToken.sol\":31895:31988  function totalSupply() public view override returns (uint256) {... */\n      jump(tag_65)\n        /* \"contracts2/tokens/LiquidityGeneratorToken.sol\":28871:28901  address public _charityAddress */\n    tag_9:\n      callvalue\n      dup1\n      iszero\n      tag_78\n      jumpi\n      0x00\n      dup1\n      revert\n    tag_78:\n      pop\n      sload(0x15)\n      tag_70\n      swap1\n      sub(shl(0xa0, 0x01), 0x01)\n      and\n      dup2\n      jump\n        /* \"contracts2/tokens/LiquidityGeneratorToken.sol\":32768:33199  function transferFrom(... */\n    tag_10:\n      callvalue\n      dup1\n      iszero\n      tag_83\n      jumpi\n      0x00\n      dup1\n      revert\n    tag_83:\n      pop\n      tag_58\n      tag_85\n      calldatasize\n      0x04\n      tag_86\n      jump\t// in\n    tag_85:\n      tag_87\n      jump\t// in\n        /* \"contracts2/tokens/LiquidityGeneratorToken.sol\":35000:35311  function tokenFromReflection(uint256 rAmount)... */\n    tag_11:\n      callvalue\n      dup1\n      iszero\n      tag_89\n      jumpi\n      0x00\n      dup1\n      revert\n    tag_89:\n      pop\n      tag_65\n      tag_91\n      calldatasize\n      0x04\n      tag_50\n      jump\t// in\n    tag_91:\n      tag_92\n      jump\t// in\n        /* \"contracts2/tokens/LiquidityGeneratorToken.sol\":31808:31889  function decimals() public view returns (uint8) {... */\n    tag_12:\n      callvalue\n      dup1\n      iszero\n      tag_94\n      jumpi\n      0x00\n      dup1\n      revert\n    tag_94:\n      pop\n        /* \"contracts2/tokens/LiquidityGeneratorToken.sol\":31873:31882  _decimals */\n      sload(0x0c)\n        /* \"contracts2/tokens/LiquidityGeneratorToken.sol\":31808:31889  function decimals() public view returns (uint8) {... */\n      mload(0x40)\n        /* \"contracts2/tokens/LiquidityGeneratorToken.sol\":31873:31882  _decimals */\n      0xff\n      swap1\n      swap2\n      and\n        /* \"#utility.yul\":11062:11098   */\n      dup2\n      mstore\n        /* \"#utility.yul\":11050:11052   */\n      0x20\n        /* \"#utility.yul\":11035:11053   */\n      add\n        /* \"contracts2/tokens/LiquidityGeneratorToken.sol\":31808:31889  function decimals() public view returns (uint8) {... */\n      tag_55\n        /* \"#utility.yul\":11017:11104   */\n      jump\n        /* \"contracts2/tokens/LiquidityGeneratorToken.sol\":35761:36227  function includeInReward(address account) external onlyOwner {... */\n    tag_13:\n      callvalue\n      dup1\n      iszero\n      tag_99\n      jumpi\n      0x00\n      dup1\n      revert\n    tag_99:\n      pop\n      tag_48\n      tag_101\n      calldatasize\n      0x04\n      tag_102\n      jump\t// in\n    tag_101:\n      tag_103\n      jump\t// in\n        /* \"contracts2/tokens/LiquidityGeneratorToken.sol\":33205:33494  function increaseAllowance(address spender, uint256 addedValue)... */\n    tag_14:\n      callvalue\n      dup1\n      iszero\n      tag_104\n      jumpi\n      0x00\n      dup1\n      revert\n    tag_104:\n      pop\n      tag_58\n      tag_106\n      calldatasize\n      0x04\n      tag_60\n      jump\t// in\n    tag_106:\n      tag_107\n      jump\t// in\n        /* \"contracts2/tokens/LiquidityGeneratorToken.sol\":28532:28554  uint256 public _taxFee */\n    tag_15:\n      callvalue\n      dup1\n      iszero\n      tag_109\n      jumpi\n      0x00\n      dup1\n      revert\n    tag_109:\n      pop\n      tag_65\n      sload(0x0d)\n      dup2\n      jump\n        /* \"contracts2/tokens/LiquidityGeneratorToken.sol\":34107:34518  function deliver(uint256 tAmount) public {... */\n    tag_16:\n      callvalue\n      dup1\n      iszero\n      tag_113\n      jumpi\n      0x00\n      dup1\n      revert\n    tag_113:\n      pop\n      tag_48\n      tag_115\n      calldatasize\n      0x04\n      tag_50\n      jump\t// in\n    tag_115:\n      tag_116\n      jump\t// in\n        /* \"contracts2/tokens/LiquidityGeneratorToken.sol\":28702:28728  uint256 public _charityFee */\n    tag_17:\n      callvalue\n      dup1\n      iszero\n      tag_117\n      jumpi\n      0x00\n      dup1\n      revert\n    tag_117:\n      pop\n      tag_65\n      sload(0x11)\n      dup2\n      jump\n        /* \"contracts2/tokens/LiquidityGeneratorToken.sol\":37041:37150  function excludeFromFee(address account) public onlyOwner {... */\n    tag_18:\n      callvalue\n      dup1\n      iszero\n      tag_121\n      jumpi\n      0x00\n      dup1\n      revert\n    tag_121:\n      pop\n      tag_48\n      tag_123\n      calldatasize\n      0x04\n      tag_102\n      jump\t// in\n    tag_123:\n      tag_124\n      jump\t// in\n        /* \"contracts2/tokens/LiquidityGeneratorToken.sol\":34524:34994  function reflectionFromToken(uint256 tAmount, bool deductTransferFee)... */\n    tag_19:\n      callvalue\n      dup1\n      iszero\n      tag_125\n      jumpi\n      0x00\n      dup1\n      revert\n    tag_125:\n      pop\n      tag_65\n      tag_127\n      calldatasize\n      0x04\n      tag_128\n      jump\t// in\n    tag_127:\n      tag_129\n      jump\t// in\n        /* \"contracts2/tokens/LiquidityGeneratorToken.sol\":28837:28865  address public uniswapV2Pair */\n    tag_20:\n      callvalue\n      dup1\n      iszero\n      tag_131\n      jumpi\n      0x00\n      dup1\n      revert\n    tag_131:\n      pop\n      sload(0x14)\n      tag_70\n      swap1\n      sub(shl(0xa0, 0x01), 0x01)\n      and\n      dup2\n      jump\n        /* \"contracts2/tokens/LiquidityGeneratorToken.sol\":28935:28968  bool public swapAndLiquifyEnabled */\n    tag_21:\n      callvalue\n      dup1\n      iszero\n      tag_135\n      jumpi\n      0x00\n      dup1\n      revert\n    tag_135:\n      pop\n      sload(0x15)\n      tag_58\n      swap1\n      shl(0xa8, 0x01)\n      swap1\n      div\n      0xff\n      and\n      dup2\n      jump\n        /* \"contracts2/tokens/LiquidityGeneratorToken.sol\":35317:35755  function excludeFromReward(address account) public onlyOwner {... */\n    tag_22:\n      callvalue\n      dup1\n      iszero\n      tag_139\n      jumpi\n      0x00\n      dup1\n      revert\n    tag_139:\n      pop\n      tag_48\n      tag_141\n      calldatasize\n      0x04\n      tag_102\n      jump\t// in\n    tag_141:\n      tag_142\n      jump\t// in\n        /* \"contracts2/tokens/LiquidityGeneratorToken.sol\":42866:42988  function isExcludedFromFee(address account) public view returns (bool) {... */\n    tag_23:\n      callvalue\n      dup1\n      iszero\n      tag_143\n      jumpi\n      0x00\n      dup1\n      revert\n    tag_143:\n      pop\n      tag_58\n      tag_145\n      calldatasize\n      0x04\n      tag_102\n      jump\t// in\n    tag_145:\n      sub(shl(0xa0, 0x01), 0x01)\n        /* \"contracts2/tokens/LiquidityGeneratorToken.sol\":42954:42981  _isExcludedFromFee[account] */\n      and\n        /* \"contracts2/tokens/LiquidityGeneratorToken.sol\":42931:42935  bool */\n      0x00\n        /* \"contracts2/tokens/LiquidityGeneratorToken.sol\":42954:42981  _isExcludedFromFee[account] */\n      swap1\n      dup2\n      mstore\n        /* \"contracts2/tokens/LiquidityGeneratorToken.sol\":42954:42972  _isExcludedFromFee */\n      0x04\n        /* \"contracts2/tokens/LiquidityGeneratorToken.sol\":42954:42981  _isExcludedFromFee[account] */\n      0x20\n      mstore\n      0x40\n      swap1\n      keccak256\n      sload\n      0xff\n      and\n      swap1\n        /* \"contracts2/tokens/LiquidityGeneratorToken.sol\":42866:42988  function isExcludedFromFee(address account) public view returns (bool) {... */\n      jump\n        /* \"contracts2/tokens/LiquidityGeneratorToken.sol\":28608:28636  uint256 public _liquidityFee */\n    tag_24:\n      callvalue\n      dup1\n      iszero\n      tag_148\n      jumpi\n      0x00\n      dup1\n      revert\n    tag_148:\n      pop\n      tag_65\n      sload(0x0f)\n      dup2\n      jump\n        /* \"contracts2/tokens/LiquidityGeneratorToken.sol\":31994:32189  function balanceOf(address account) public view override returns (uint256) {... */\n    tag_25:\n      callvalue\n      dup1\n      iszero\n      tag_152\n      jumpi\n      0x00\n      dup1\n      revert\n    tag_152:\n      pop\n      tag_65\n      tag_154\n      calldatasize\n      0x04\n      tag_102\n      jump\t// in\n    tag_154:\n      tag_155\n      jump\t// in\n        /* \"contracts2/tokens/LiquidityGeneratorToken.sol\":5290:5382  function renounceOwnership() public virtual onlyOwner {... */\n    tag_26:\n      callvalue\n      dup1\n      iszero\n      tag_157\n      jumpi\n      0x00\n      dup1\n      revert\n    tag_157:\n      pop\n      tag_48\n      tag_159\n      jump\t// in\n        /* \"contracts2/tokens/LiquidityGeneratorToken.sol\":33892:34010  function isExcludedFromReward(address account) public view returns (bool) {... */\n    tag_27:\n      callvalue\n      dup1\n      iszero\n      tag_160\n      jumpi\n      0x00\n      dup1\n      revert\n    tag_160:\n      pop\n      tag_58\n      tag_162\n      calldatasize\n      0x04\n      tag_102\n      jump\t// in\n    tag_162:\n      sub(shl(0xa0, 0x01), 0x01)\n        /* \"contracts2/tokens/LiquidityGeneratorToken.sol\":33983:34003  _isExcluded[account] */\n      and\n        /* \"contracts2/tokens/LiquidityGeneratorToken.sol\":33960:33964  bool */\n      0x00\n        /* \"contracts2/tokens/LiquidityGeneratorToken.sol\":33983:34003  _isExcluded[account] */\n      swap1\n      dup2\n      mstore\n        /* \"contracts2/tokens/LiquidityGeneratorToken.sol\":33983:33994  _isExcluded */\n      0x05\n        /* \"contracts2/tokens/LiquidityGeneratorToken.sol\":33983:34003  _isExcluded[account] */\n      0x20\n      mstore\n      0x40\n      swap1\n      keccak256\n      sload\n      0xff\n      and\n      swap1\n        /* \"contracts2/tokens/LiquidityGeneratorToken.sol\":33892:34010  function isExcludedFromReward(address account) public view returns (bool) {... */\n      jump\n        /* \"contracts2/tokens/LiquidityGeneratorToken.sol\":4658:4743  function owner() public view virtual returns (address) {... */\n    tag_28:\n      callvalue\n      dup1\n      iszero\n      tag_165\n      jumpi\n      0x00\n      dup1\n      revert\n    tag_165:\n      pop\n        /* \"contracts2/tokens/LiquidityGeneratorToken.sol\":4704:4711  address */\n      0x00\n        /* \"contracts2/tokens/LiquidityGeneratorToken.sol\":4730:4736  _owner */\n      sload\n      sub(shl(0xa0, 0x01), 0x01)\n      and\n        /* \"contracts2/tokens/LiquidityGeneratorToken.sol\":4658:4743  function owner() public view virtual returns (address) {... */\n      jump(tag_70)\n        /* \"contracts2/tokens/LiquidityGeneratorToken.sol\":37504:37776  function setLiquidityFeePercent(uint256 liquidityFeeBps)... */\n    tag_29:\n      callvalue\n      dup1\n      iszero\n      tag_169\n      jumpi\n      0x00\n      dup1\n      revert\n    tag_169:\n      pop\n      tag_48\n      tag_171\n      calldatasize\n      0x04\n      tag_50\n      jump\t// in\n    tag_171:\n      tag_172\n      jump\t// in\n        /* \"contracts2/tokens/LiquidityGeneratorToken.sol\":31717:31802  function symbol() public view returns (string memory) {... */\n    tag_30:\n      callvalue\n      dup1\n      iszero\n      tag_173\n      jumpi\n      0x00\n      dup1\n      revert\n    tag_173:\n      pop\n      tag_53\n      tag_175\n      jump\t// in\n        /* \"contracts2/tokens/LiquidityGeneratorToken.sol\":33500:33886  function decreaseAllowance(address spender, uint256 subtractedValue)... */\n    tag_31:\n      callvalue\n      dup1\n      iszero\n      tag_177\n      jumpi\n      0x00\n      dup1\n      revert\n    tag_177:\n      pop\n      tag_58\n      tag_179\n      calldatasize\n      0x04\n      tag_60\n      jump\t// in\n    tag_179:\n      tag_180\n      jump\t// in\n        /* \"contracts2/tokens/LiquidityGeneratorToken.sol\":32195:32387  function transfer(address recipient, uint256 amount)... */\n    tag_32:\n      callvalue\n      dup1\n      iszero\n      tag_182\n      jumpi\n      0x00\n      dup1\n      revert\n    tag_182:\n      pop\n      tag_58\n      tag_184\n      calldatasize\n      0x04\n      tag_60\n      jump\t// in\n    tag_184:\n      tag_185\n      jump\t// in\n        /* \"contracts2/tokens/LiquidityGeneratorToken.sol\":37782:37950  function setSwapAndLiquifyEnabled(bool _enabled) public onlyOwner {... */\n    tag_33:\n      callvalue\n      dup1\n      iszero\n      tag_187\n      jumpi\n      0x00\n      dup1\n      revert\n    tag_187:\n      pop\n      tag_48\n      tag_189\n      calldatasize\n      0x04\n      tag_190\n      jump\t// in\n    tag_189:\n      tag_191\n      jump\t// in\n        /* \"contracts2/tokens/LiquidityGeneratorToken.sol\":32393:32570  function allowance(address owner, address spender)... */\n    tag_34:\n      callvalue\n      dup1\n      iszero\n      tag_192\n      jumpi\n      0x00\n      dup1\n      revert\n    tag_192:\n      pop\n      tag_65\n      tag_194\n      calldatasize\n      0x04\n      tag_195\n      jump\t// in\n    tag_194:\n      sub(shl(0xa0, 0x01), 0x01)\n        /* \"contracts2/tokens/LiquidityGeneratorToken.sol\":32536:32554  _allowances[owner] */\n      swap2\n      dup3\n      and\n        /* \"contracts2/tokens/LiquidityGeneratorToken.sol\":32506:32513  uint256 */\n      0x00\n        /* \"contracts2/tokens/LiquidityGeneratorToken.sol\":32536:32554  _allowances[owner] */\n      swap1\n      dup2\n      mstore\n        /* \"contracts2/tokens/LiquidityGeneratorToken.sol\":32536:32547  _allowances */\n      0x03\n        /* \"contracts2/tokens/LiquidityGeneratorToken.sol\":32536:32554  _allowances[owner] */\n      0x20\n      swap1\n      dup2\n      mstore\n      0x40\n      dup1\n      dup4\n      keccak256\n        /* \"contracts2/tokens/LiquidityGeneratorToken.sol\":32536:32563  _allowances[owner][spender] */\n      swap4\n      swap1\n      swap5\n      and\n      dup3\n      mstore\n      swap2\n      swap1\n      swap2\n      mstore\n      keccak256\n      sload\n      swap1\n        /* \"contracts2/tokens/LiquidityGeneratorToken.sol\":32393:32570  function allowance(address owner, address spender)... */\n      jump\n        /* \"contracts2/tokens/LiquidityGeneratorToken.sol\":37156:37264  function includeInFee(address account) public onlyOwner {... */\n    tag_35:\n      callvalue\n      dup1\n      iszero\n      tag_198\n      jumpi\n      0x00\n      dup1\n      revert\n    tag_198:\n      pop\n      tag_48\n      tag_200\n      calldatasize\n      0x04\n      tag_102\n      jump\t// in\n    tag_200:\n      tag_201\n      jump\t// in\n        /* \"contracts2/tokens/LiquidityGeneratorToken.sol\":5531:5720  function transferOwnership(address newOwner) public virtual onlyOwner {... */\n    tag_36:\n      callvalue\n      dup1\n      iszero\n      tag_202\n      jumpi\n      0x00\n      dup1\n      revert\n    tag_202:\n      pop\n      tag_48\n      tag_204\n      calldatasize\n      0x04\n      tag_102\n      jump\t// in\n    tag_204:\n      tag_205\n      jump\t// in\n        /* \"contracts2/tokens/LiquidityGeneratorToken.sol\":27954:27989  uint256 public constant VERSION = 1 */\n    tag_37:\n      callvalue\n      dup1\n      iszero\n      tag_206\n      jumpi\n      0x00\n      dup1\n      revert\n    tag_206:\n      pop\n      tag_65\n        /* \"contracts2/tokens/LiquidityGeneratorToken.sol\":27988:27989  1 */\n      0x01\n        /* \"contracts2/tokens/LiquidityGeneratorToken.sol\":27954:27989  uint256 public constant VERSION = 1 */\n      dup2\n      jump\n        /* \"contracts2/tokens/LiquidityGeneratorToken.sol\":37270:37498  function setTaxFeePercent(uint256 taxFeeBps) external onlyOwner {... */\n    tag_51:\n        /* \"contracts2/tokens/LiquidityGeneratorToken.sol\":4704:4711  address */\n      0x00\n        /* \"contracts2/tokens/LiquidityGeneratorToken.sol\":4730:4736  _owner */\n      sload\n      sub(shl(0xa0, 0x01), 0x01)\n      and\n        /* \"contracts2/tokens/LiquidityGeneratorToken.sol\":3499:3509  msg.sender */\n      caller\n        /* \"contracts2/tokens/LiquidityGeneratorToken.sol\":4870:4893  owner() == _msgSender() */\n      eq\n        /* \"contracts2/tokens/LiquidityGeneratorToken.sol\":4862:4930  require(owner() == _msgSender(), \"Ownable: caller is not the owner\") */\n      tag_216\n      jumpi\n      mload(0x40)\n      shl(0xe5, 0x461bcd)\n      dup2\n      mstore\n      0x04\n      add\n      tag_217\n      swap1\n      tag_218\n      jump\t// in\n    tag_217:\n      mload(0x40)\n      dup1\n      swap2\n      sub\n      swap1\n      revert\n    tag_216:\n        /* \"contracts2/tokens/LiquidityGeneratorToken.sol\":37344:37351  _taxFee */\n      0x0d\n        /* \"contracts2/tokens/LiquidityGeneratorToken.sol\":37344:37363  _taxFee = taxFeeBps */\n      dup2\n      swap1\n      sstore\n        /* \"contracts2/tokens/LiquidityGeneratorToken.sol\":37420:37431  _charityFee */\n      sload(0x11)\n        /* \"contracts2/tokens/LiquidityGeneratorToken.sol\":37404:37417  _liquidityFee */\n      sload(0x0f)\n        /* \"contracts2/tokens/LiquidityGeneratorToken.sol\":37435:37444  10**4 / 4 */\n      0x09c4\n      swap2\n        /* \"contracts2/tokens/LiquidityGeneratorToken.sol\":37420:37431  _charityFee */\n      swap1\n        /* \"contracts2/tokens/LiquidityGeneratorToken.sol\":37394:37417  _taxFee + _liquidityFee */\n      tag_220\n      swap1\n        /* \"contracts2/tokens/LiquidityGeneratorToken.sol\":37354:37363  taxFeeBps */\n      dup5\n        /* \"contracts2/tokens/LiquidityGeneratorToken.sol\":37394:37417  _taxFee + _liquidityFee */\n      tag_221\n      jump\t// in\n    tag_220:\n        /* \"contracts2/tokens/LiquidityGeneratorToken.sol\":37394:37431  _taxFee + _liquidityFee + _charityFee */\n      tag_222\n      swap2\n      swap1\n      tag_221\n      jump\t// in\n    tag_222:\n        /* \"contracts2/tokens/LiquidityGeneratorToken.sol\":37394:37444  _taxFee + _liquidityFee + _charityFee <= 10**4 / 4 */\n      gt\n      iszero\n        /* \"contracts2/tokens/LiquidityGeneratorToken.sol\":37373:37491  require(... */\n      tag_223\n      jumpi\n      mload(0x40)\n      shl(0xe5, 0x461bcd)\n      dup2\n      mstore\n        /* \"#utility.yul\":6923:6925   */\n      0x20\n        /* \"contracts2/tokens/LiquidityGeneratorToken.sol\":37373:37491  require(... */\n      0x04\n      dup3\n      add\n        /* \"#utility.yul\":6905:6926   */\n      mstore\n        /* \"#utility.yul\":6962:6964   */\n      0x15\n        /* \"#utility.yul\":6942:6960   */\n      0x24\n      dup3\n      add\n        /* \"#utility.yul\":6935:6965   */\n      mstore\n      shl(0x58, 0x546f74616c20666565206973206f76657220323525)\n        /* \"#utility.yul\":6981:6999   */\n      0x44\n      dup3\n      add\n        /* \"#utility.yul\":6974:7025   */\n      mstore\n        /* \"#utility.yul\":7042:7060   */\n      0x64\n      add\n        /* \"contracts2/tokens/LiquidityGeneratorToken.sol\":37373:37491  require(... */\n      tag_217\n        /* \"#utility.yul\":6895:7066   */\n      jump\n        /* \"contracts2/tokens/LiquidityGeneratorToken.sol\":37373:37491  require(... */\n    tag_223:\n        /* \"contracts2/tokens/LiquidityGeneratorToken.sol\":37270:37498  function setTaxFeePercent(uint256 taxFeeBps) external onlyOwner {... */\n      pop\n      jump\t// out\n        /* \"contracts2/tokens/LiquidityGeneratorToken.sol\":31630:31711  function name() public view returns (string memory) {... */\n    tag_54:\n        /* \"contracts2/tokens/LiquidityGeneratorToken.sol\":31667:31680  string memory */\n      0x60\n        /* \"contracts2/tokens/LiquidityGeneratorToken.sol\":31699:31704  _name */\n      0x0a\n        /* \"contracts2/tokens/LiquidityGeneratorToken.sol\":31692:31704  return _name */\n      dup1\n      sload\n      tag_227\n      swap1\n      tag_228\n      jump\t// in\n    tag_227:\n      dup1\n      0x1f\n      add\n      0x20\n      dup1\n      swap2\n      div\n      mul\n      0x20\n      add\n      mload(0x40)\n      swap1\n      dup2\n      add\n      0x40\n      mstore\n      dup1\n      swap3\n      swap2\n      swap1\n      dup2\n      dup2\n      mstore\n      0x20\n      add\n      dup3\n      dup1\n      sload\n      tag_229\n      swap1\n      tag_228\n      jump\t// in\n    tag_229:\n      dup1\n      iszero\n      tag_230\n      jumpi\n      dup1\n      0x1f\n      lt\n      tag_231\n      jumpi\n      0x0100\n      dup1\n      dup4\n      sload\n      div\n      mul\n      dup4\n      mstore\n      swap2\n      0x20\n      add\n      swap2\n      jump(tag_230)\n    tag_231:\n      dup3\n      add\n      swap2\n      swap1\n      0x00\n      mstore\n      keccak256(0x00, 0x20)\n      swap1\n    tag_232:\n      dup2\n      sload\n      dup2\n      mstore\n      swap1\n      0x01\n      add\n      swap1\n      0x20\n      add\n      dup1\n      dup4\n      gt\n      tag_232\n      jumpi\n      dup3\n      swap1\n      sub\n      0x1f\n      and\n      dup3\n      add\n      swap2\n    tag_230:\n      pop\n      pop\n      pop\n      pop\n      pop\n      swap1\n      pop\n        /* \"contracts2/tokens/LiquidityGeneratorToken.sol\":31630:31711  function name() public view returns (string memory) {... */\n      swap1\n      jump\t// out\n        /* \"contracts2/tokens/LiquidityGeneratorToken.sol\":32576:32762  function approve(address spender, uint256 amount)... */\n    tag_61:\n        /* \"contracts2/tokens/LiquidityGeneratorToken.sol\":32675:32679  bool */\n      0x00\n        /* \"contracts2/tokens/LiquidityGeneratorToken.sol\":32695:32734  _approve(_msgSender(), spender, amount) */\n      tag_234\n        /* \"contracts2/tokens/LiquidityGeneratorToken.sol\":3499:3509  msg.sender */\n      caller\n        /* \"contracts2/tokens/LiquidityGeneratorToken.sol\":32718:32725  spender */\n      dup5\n        /* \"contracts2/tokens/LiquidityGeneratorToken.sol\":32727:32733  amount */\n      dup5\n        /* \"contracts2/tokens/LiquidityGeneratorToken.sol\":32695:32703  _approve */\n      tag_236\n        /* \"contracts2/tokens/LiquidityGeneratorToken.sol\":32695:32734  _approve(_msgSender(), spender, amount) */\n      jump\t// in\n    tag_234:\n      pop\n        /* \"contracts2/tokens/LiquidityGeneratorToken.sol\":32751:32755  true */\n      0x01\n        /* \"contracts2/tokens/LiquidityGeneratorToken.sol\":32576:32762  function approve(address spender, uint256 amount)... */\n    tag_233:\n      swap3\n      swap2\n      pop\n      pop\n      jump\t// out\n        /* \"contracts2/tokens/LiquidityGeneratorToken.sol\":32768:33199  function transferFrom(... */\n    tag_87:\n        /* \"contracts2/tokens/LiquidityGeneratorToken.sol\":32896:32900  bool */\n      0x00\n        /* \"contracts2/tokens/LiquidityGeneratorToken.sol\":32912:32948  _transfer(sender, recipient, amount) */\n      tag_240\n        /* \"contracts2/tokens/LiquidityGeneratorToken.sol\":32922:32928  sender */\n      dup5\n        /* \"contracts2/tokens/LiquidityGeneratorToken.sol\":32930:32939  recipient */\n      dup5\n        /* \"contracts2/tokens/LiquidityGeneratorToken.sol\":32941:32947  amount */\n      dup5\n        /* \"contracts2/tokens/LiquidityGeneratorToken.sol\":32912:32921  _transfer */\n      tag_241\n        /* \"contracts2/tokens/LiquidityGeneratorToken.sol\":32912:32948  _transfer(sender, recipient, amount) */\n      jump\t// in\n    tag_240:\n        /* \"contracts2/tokens/LiquidityGeneratorToken.sol\":32958:33171  _approve(... */\n      tag_242\n        /* \"contracts2/tokens/LiquidityGeneratorToken.sol\":32980:32986  sender */\n      dup5\n        /* \"contracts2/tokens/LiquidityGeneratorToken.sol\":3499:3509  msg.sender */\n      caller\n        /* \"contracts2/tokens/LiquidityGeneratorToken.sol\":33026:33161  _allowances[sender][_msgSender()].sub(... */\n      tag_244\n        /* \"contracts2/tokens/LiquidityGeneratorToken.sol\":33081:33087  amount */\n      dup6\n        /* \"contracts2/tokens/LiquidityGeneratorToken.sol\":33026:33161  _allowances[sender][_msgSender()].sub(... */\n      mload(0x40)\n      dup1\n      0x60\n      add\n      0x40\n      mstore\n      dup1\n      0x28\n      dup2\n      mstore\n      0x20\n      add\n      data_974d1b4421da69cc60b481194f0dad36a5bb4e23da810da7a7fb30cdba178330\n      0x28\n      swap2\n      codecopy\n      sub(shl(0xa0, 0x01), 0x01)\n        /* \"contracts2/tokens/LiquidityGeneratorToken.sol\":33026:33045  _allowances[sender] */\n      dup11\n      and\n      0x00\n      swap1\n      dup2\n      mstore\n        /* \"contracts2/tokens/LiquidityGeneratorToken.sol\":33026:33037  _allowances */\n      0x03\n        /* \"contracts2/tokens/LiquidityGeneratorToken.sol\":33026:33045  _allowances[sender] */\n      0x20\n      swap1\n      dup2\n      mstore\n      0x40\n      dup1\n      dup4\n      keccak256\n        /* \"contracts2/tokens/LiquidityGeneratorToken.sol\":3499:3509  msg.sender */\n      caller\n        /* \"contracts2/tokens/LiquidityGeneratorToken.sol\":33026:33059  _allowances[sender][_msgSender()] */\n      dup5\n      mstore\n      swap1\n      swap2\n      mstore\n      swap1\n      keccak256\n      sload\n      swap2\n      swap1\n        /* \"contracts2/tokens/LiquidityGeneratorToken.sol\":33026:33063  _allowances[sender][_msgSender()].sub */\n      tag_246\n        /* \"contracts2/tokens/LiquidityGeneratorToken.sol\":33026:33161  _allowances[sender][_msgSender()].sub(... */\n      jump\t// in\n    tag_244:\n        /* \"contracts2/tokens/LiquidityGeneratorToken.sol\":32958:32966  _approve */\n      tag_236\n        /* \"contracts2/tokens/LiquidityGeneratorToken.sol\":32958:33171  _approve(... */\n      jump\t// in\n    tag_242:\n      pop\n        /* \"contracts2/tokens/LiquidityGeneratorToken.sol\":33188:33192  true */\n      0x01\n        /* \"contracts2/tokens/LiquidityGeneratorToken.sol\":32768:33199  function transferFrom(... */\n      swap4\n      swap3\n      pop\n      pop\n      pop\n      jump\t// out\n        /* \"contracts2/tokens/LiquidityGeneratorToken.sol\":35000:35311  function tokenFromReflection(uint256 rAmount)... */\n    tag_92:\n        /* \"contracts2/tokens/LiquidityGeneratorToken.sol\":35091:35098  uint256 */\n      0x00\n        /* \"contracts2/tokens/LiquidityGeneratorToken.sol\":35146:35153  _rTotal */\n      sload(0x08)\n        /* \"contracts2/tokens/LiquidityGeneratorToken.sol\":35135:35142  rAmount */\n      dup3\n        /* \"contracts2/tokens/LiquidityGeneratorToken.sol\":35135:35153  rAmount <= _rTotal */\n      gt\n      iszero\n        /* \"contracts2/tokens/LiquidityGeneratorToken.sol\":35114:35221  require(... */\n      tag_248\n      jumpi\n      mload(0x40)\n      shl(0xe5, 0x461bcd)\n      dup2\n      mstore\n        /* \"#utility.yul\":5346:5348   */\n      0x20\n        /* \"contracts2/tokens/LiquidityGeneratorToken.sol\":35114:35221  require(... */\n      0x04\n      dup3\n      add\n        /* \"#utility.yul\":5328:5349   */\n      mstore\n        /* \"#utility.yul\":5385:5387   */\n      0x2a\n        /* \"#utility.yul\":5365:5383   */\n      0x24\n      dup3\n      add\n        /* \"#utility.yul\":5358:5388   */\n      mstore\n        /* \"#utility.yul\":5424:5458   */\n      0x416d6f756e74206d757374206265206c657373207468616e20746f74616c2072\n        /* \"#utility.yul\":5404:5422   */\n      0x44\n      dup3\n      add\n        /* \"#utility.yul\":5397:5459   */\n      mstore\n      shl(0xb0, 0x65666c656374696f6e73)\n        /* \"#utility.yul\":5475:5493   */\n      0x64\n      dup3\n      add\n        /* \"#utility.yul\":5468:5508   */\n      mstore\n        /* \"#utility.yul\":5525:5544   */\n      0x84\n      add\n        /* \"contracts2/tokens/LiquidityGeneratorToken.sol\":35114:35221  require(... */\n      tag_217\n        /* \"#utility.yul\":5318:5550   */\n      jump\n        /* \"contracts2/tokens/LiquidityGeneratorToken.sol\":35114:35221  require(... */\n    tag_248:\n        /* \"contracts2/tokens/LiquidityGeneratorToken.sol\":35231:35250  uint256 currentRate */\n      0x00\n        /* \"contracts2/tokens/LiquidityGeneratorToken.sol\":35253:35263  _getRate() */\n      tag_251\n        /* \"contracts2/tokens/LiquidityGeneratorToken.sol\":35253:35261  _getRate */\n      tag_252\n        /* \"contracts2/tokens/LiquidityGeneratorToken.sol\":35253:35263  _getRate() */\n      jump\t// in\n    tag_251:\n        /* \"contracts2/tokens/LiquidityGeneratorToken.sol\":35231:35263  uint256 currentRate = _getRate() */\n      swap1\n      pop\n        /* \"contracts2/tokens/LiquidityGeneratorToken.sol\":35280:35304  rAmount.div(currentRate) */\n      tag_253\n        /* \"contracts2/tokens/LiquidityGeneratorToken.sol\":35280:35287  rAmount */\n      dup4\n        /* \"contracts2/tokens/LiquidityGeneratorToken.sol\":35231:35263  uint256 currentRate = _getRate() */\n      dup3\n        /* \"contracts2/tokens/LiquidityGeneratorToken.sol\":35280:35291  rAmount.div */\n      tag_211\n        /* \"contracts2/tokens/LiquidityGeneratorToken.sol\":35280:35304  rAmount.div(currentRate) */\n      jump\t// in\n    tag_253:\n        /* \"contracts2/tokens/LiquidityGeneratorToken.sol\":35273:35304  return rAmount.div(currentRate) */\n      swap4\n        /* \"contracts2/tokens/LiquidityGeneratorToken.sol\":35000:35311  function tokenFromReflection(uint256 rAmount)... */\n      swap3\n      pop\n      pop\n      pop\n      jump\t// out\n        /* \"contracts2/tokens/LiquidityGeneratorToken.sol\":35761:36227  function includeInReward(address account) external onlyOwner {... */\n    tag_103:\n        /* \"contracts2/tokens/LiquidityGeneratorToken.sol\":4704:4711  address */\n      0x00\n        /* \"contracts2/tokens/LiquidityGeneratorToken.sol\":4730:4736  _owner */\n      sload\n      sub(shl(0xa0, 0x01), 0x01)\n      and\n        /* \"contracts2/tokens/LiquidityGeneratorToken.sol\":3499:3509  msg.sender */\n      caller\n        /* \"contracts2/tokens/LiquidityGeneratorToken.sol\":4870:4893  owner() == _msgSender() */\n      eq\n        /* \"contracts2/tokens/LiquidityGeneratorToken.sol\":4862:4930  require(owner() == _msgSender(), \"Ownable: caller is not the owner\") */\n      tag_258\n      jumpi\n      mload(0x40)\n      shl(0xe5, 0x461bcd)\n      dup2\n      mstore\n      0x04\n      add\n      tag_217\n      swap1\n      tag_218\n      jump\t// in\n    tag_258:\n      sub(shl(0xa0, 0x01), 0x01)\n        /* \"contracts2/tokens/LiquidityGeneratorToken.sol\":35840:35860  _isExcluded[account] */\n      dup2\n      and\n      0x00\n      swap1\n      dup2\n      mstore\n        /* \"contracts2/tokens/LiquidityGeneratorToken.sol\":35840:35851  _isExcluded */\n      0x05\n        /* \"contracts2/tokens/LiquidityGeneratorToken.sol\":35840:35860  _isExcluded[account] */\n      0x20\n      mstore\n      0x40\n      swap1\n      keccak256\n      sload\n      0xff\n      and\n        /* \"contracts2/tokens/LiquidityGeneratorToken.sol\":35832:35892  require(_isExcluded[account], \"Account is already excluded\") */\n      tag_261\n      jumpi\n      mload(0x40)\n      shl(0xe5, 0x461bcd)\n      dup2\n      mstore\n        /* \"#utility.yul\":6567:6569   */\n      0x20\n        /* \"contracts2/tokens/LiquidityGeneratorToken.sol\":35832:35892  require(_isExcluded[account], \"Account is already excluded\") */\n      0x04\n      dup3\n      add\n        /* \"#utility.yul\":6549:6570   */\n      mstore\n        /* \"#utility.yul\":6606:6608   */\n      0x1b\n        /* \"#utility.yul\":6586:6604   */\n      0x24\n      dup3\n      add\n        /* \"#utility.yul\":6579:6609   */\n      mstore\n        /* \"#utility.yul\":6645:6674   */\n      0x4163636f756e7420697320616c7265616479206578636c756465640000000000\n        /* \"#utility.yul\":6625:6643   */\n      0x44\n      dup3\n      add\n        /* \"#utility.yul\":6618:6675   */\n      mstore\n        /* \"#utility.yul\":6692:6710   */\n      0x64\n      add\n        /* \"contracts2/tokens/LiquidityGeneratorToken.sol\":35832:35892  require(_isExcluded[account], \"Account is already excluded\") */\n      tag_217\n        /* \"#utility.yul\":6539:6716   */\n      jump\n        /* \"contracts2/tokens/LiquidityGeneratorToken.sol\":35832:35892  require(_isExcluded[account], \"Account is already excluded\") */\n    tag_261:\n        /* \"contracts2/tokens/LiquidityGeneratorToken.sol\":35907:35916  uint256 i */\n      0x00\n        /* \"contracts2/tokens/LiquidityGeneratorToken.sol\":35902:36221  for (uint256 i = 0; i < _excluded.length; i++) {... */\n    tag_264:\n        /* \"contracts2/tokens/LiquidityGeneratorToken.sol\":35926:35935  _excluded */\n      0x06\n        /* \"contracts2/tokens/LiquidityGeneratorToken.sol\":35926:35942  _excluded.length */\n      sload\n        /* \"contracts2/tokens/LiquidityGeneratorToken.sol\":35922:35942  i < _excluded.length */\n      dup2\n      lt\n        /* \"contracts2/tokens/LiquidityGeneratorToken.sol\":35902:36221  for (uint256 i = 0; i < _excluded.length; i++) {... */\n      iszero\n      tag_265\n      jumpi\n        /* \"contracts2/tokens/LiquidityGeneratorToken.sol\":35983:35990  account */\n      dup2\n      sub(shl(0xa0, 0x01), 0x01)\n        /* \"contracts2/tokens/LiquidityGeneratorToken.sol\":35967:35990  _excluded[i] == account */\n      and\n        /* \"contracts2/tokens/LiquidityGeneratorToken.sol\":35967:35976  _excluded */\n      0x06\n        /* \"contracts2/tokens/LiquidityGeneratorToken.sol\":35977:35978  i */\n      dup3\n        /* \"contracts2/tokens/LiquidityGeneratorToken.sol\":35967:35979  _excluded[i] */\n      dup2\n      sload\n      dup2\n      lt\n      tag_267\n      jumpi\n      mstore(0x00, shl(0xe0, 0x4e487b71))\n      mstore(0x04, 0x32)\n      revert(0x00, 0x24)\n    tag_267:\n      0x00\n      swap2\n      dup3\n      mstore\n      0x20\n      swap1\n      swap2\n      keccak256\n      add\n      sload\n      sub(shl(0xa0, 0x01), 0x01)\n      and\n        /* \"contracts2/tokens/LiquidityGeneratorToken.sol\":35967:35990  _excluded[i] == account */\n      eq\n        /* \"contracts2/tokens/LiquidityGeneratorToken.sol\":35963:36211  if (_excluded[i] == account) {... */\n      iszero\n      tag_269\n      jumpi\n        /* \"contracts2/tokens/LiquidityGeneratorToken.sol\":36025:36034  _excluded */\n      0x06\n        /* \"contracts2/tokens/LiquidityGeneratorToken.sol\":36035:36051  _excluded.length */\n      dup1\n      sload\n        /* \"contracts2/tokens/LiquidityGeneratorToken.sol\":36035:36055  _excluded.length - 1 */\n      tag_270\n      swap1\n        /* \"contracts2/tokens/LiquidityGeneratorToken.sol\":36054:36055  1 */\n      0x01\n      swap1\n        /* \"contracts2/tokens/LiquidityGeneratorToken.sol\":36035:36055  _excluded.length - 1 */\n      tag_271\n      jump\t// in\n    tag_270:\n        /* \"contracts2/tokens/LiquidityGeneratorToken.sol\":36025:36056  _excluded[_excluded.length - 1] */\n      dup2\n      sload\n      dup2\n      lt\n      tag_272\n      jumpi\n      mstore(0x00, shl(0xe0, 0x4e487b71))\n      mstore(0x04, 0x32)\n      revert(0x00, 0x24)\n    tag_272:\n      0x00\n      swap2\n      dup3\n      mstore\n      0x20\n      swap1\n      swap2\n      keccak256\n      add\n      sload\n        /* \"contracts2/tokens/LiquidityGeneratorToken.sol\":36010:36019  _excluded */\n      0x06\n        /* \"contracts2/tokens/LiquidityGeneratorToken.sol\":36010:36022  _excluded[i] */\n      dup1\n      sload\n      sub(shl(0xa0, 0x01), 0x01)\n        /* \"contracts2/tokens/LiquidityGeneratorToken.sol\":36025:36056  _excluded[_excluded.length - 1] */\n      swap1\n      swap3\n      and\n      swap2\n        /* \"contracts2/tokens/LiquidityGeneratorToken.sol\":36020:36021  i */\n      dup4\n      swap1\n        /* \"contracts2/tokens/LiquidityGeneratorToken.sol\":36010:36022  _excluded[i] */\n      dup2\n      lt\n      tag_274\n      jumpi\n      mstore(0x00, shl(0xe0, 0x4e487b71))\n      mstore(0x04, 0x32)\n      revert(0x00, 0x24)\n    tag_274:\n      0x00\n      swap2\n      dup3\n      mstore\n      0x20\n      dup1\n      dup4\n      keccak256\n      swap2\n      swap1\n      swap2\n      add\n        /* \"contracts2/tokens/LiquidityGeneratorToken.sol\":36010:36056  _excluded[i] = _excluded[_excluded.length - 1] */\n      dup1\n      sload\n      not(sub(shl(0xa0, 0x01), 0x01))\n      and\n      sub(shl(0xa0, 0x01), 0x01)\n      swap5\n      dup6\n      and\n      or\n      swap1\n      sstore\n        /* \"contracts2/tokens/LiquidityGeneratorToken.sol\":36074:36090  _tOwned[account] */\n      swap2\n      dup5\n      and\n      dup2\n      mstore\n        /* \"contracts2/tokens/LiquidityGeneratorToken.sol\":36074:36081  _tOwned */\n      0x02\n        /* \"contracts2/tokens/LiquidityGeneratorToken.sol\":36074:36090  _tOwned[account] */\n      dup3\n      mstore\n      0x40\n      dup1\n      dup3\n      keccak256\n        /* \"contracts2/tokens/LiquidityGeneratorToken.sol\":36074:36094  _tOwned[account] = 0 */\n      dup3\n      swap1\n      sstore\n        /* \"contracts2/tokens/LiquidityGeneratorToken.sol\":36112:36123  _isExcluded */\n      0x05\n        /* \"contracts2/tokens/LiquidityGeneratorToken.sol\":36112:36132  _isExcluded[account] */\n      swap1\n      swap3\n      mstore\n      keccak256\n        /* \"contracts2/tokens/LiquidityGeneratorToken.sol\":36112:36140  _isExcluded[account] = false */\n      dup1\n      sload\n      not(0xff)\n      and\n      swap1\n      sstore\n        /* \"contracts2/tokens/LiquidityGeneratorToken.sol\":36158:36167  _excluded */\n      0x06\n        /* \"contracts2/tokens/LiquidityGeneratorToken.sol\":36158:36173  _excluded.pop() */\n      dup1\n      sload\n      dup1\n      tag_276\n      jumpi\n      mstore(0x00, shl(0xe0, 0x4e487b71))\n      mstore(0x04, 0x31)\n      revert(0x00, 0x24)\n    tag_276:\n      0x00\n      dup3\n      dup2\n      mstore\n      0x20\n      swap1\n      keccak256\n      dup2\n      add\n      not(0x00)\n      swap1\n      dup2\n      add\n      dup1\n      sload\n      not(sub(shl(0xa0, 0x01), 0x01))\n      and\n      swap1\n      sstore\n      add\n      swap1\n      sstore\n        /* \"contracts2/tokens/LiquidityGeneratorToken.sol\":35902:36221  for (uint256 i = 0; i < _excluded.length; i++) {... */\n      pop\n        /* \"contracts2/tokens/LiquidityGeneratorToken.sol\":35761:36227  function includeInReward(address account) external onlyOwner {... */\n      pop\n      jump\t// out\n        /* \"contracts2/tokens/LiquidityGeneratorToken.sol\":35963:36211  if (_excluded[i] == account) {... */\n    tag_269:\n        /* \"contracts2/tokens/LiquidityGeneratorToken.sol\":35944:35947  i++ */\n      dup1\n      tag_278\n      dup2\n      tag_279\n      jump\t// in\n    tag_278:\n      swap2\n      pop\n      pop\n        /* \"contracts2/tokens/LiquidityGeneratorToken.sol\":35902:36221  for (uint256 i = 0; i < _excluded.length; i++) {... */\n      jump(tag_264)\n    tag_265:\n      pop\n        /* \"contracts2/tokens/LiquidityGeneratorToken.sol\":35761:36227  function includeInReward(address account) external onlyOwner {... */\n      pop\n      jump\t// out\n        /* \"contracts2/tokens/LiquidityGeneratorToken.sol\":33205:33494  function increaseAllowance(address spender, uint256 addedValue)... */\n    tag_107:\n        /* \"contracts2/tokens/LiquidityGeneratorToken.sol\":3499:3509  msg.sender */\n      caller\n        /* \"contracts2/tokens/LiquidityGeneratorToken.sol\":33317:33321  bool */\n      0x00\n        /* \"contracts2/tokens/LiquidityGeneratorToken.sol\":33406:33431  _allowances[_msgSender()] */\n      dup2\n      dup2\n      mstore\n        /* \"contracts2/tokens/LiquidityGeneratorToken.sol\":33406:33417  _allowances */\n      0x03\n        /* \"contracts2/tokens/LiquidityGeneratorToken.sol\":33406:33431  _allowances[_msgSender()] */\n      0x20\n      swap1\n      dup2\n      mstore\n      0x40\n      dup1\n      dup4\n      keccak256\n      sub(shl(0xa0, 0x01), 0x01)\n        /* \"contracts2/tokens/LiquidityGeneratorToken.sol\":33406:33440  _allowances[_msgSender()][spender] */\n      dup8\n      and\n      dup5\n      mstore\n      swap1\n      swap2\n      mstore\n      dup2\n      keccak256\n      sload\n        /* \"contracts2/tokens/LiquidityGeneratorToken.sol\":33317:33321  bool */\n      swap1\n      swap2\n        /* \"contracts2/tokens/LiquidityGeneratorToken.sol\":33337:33466  _approve(... */\n      tag_234\n      swap2\n        /* \"contracts2/tokens/LiquidityGeneratorToken.sol\":33385:33392  spender */\n      dup6\n      swap1\n        /* \"contracts2/tokens/LiquidityGeneratorToken.sol\":33406:33456  _allowances[_msgSender()][spender].add(addedValue) */\n      tag_244\n      swap1\n        /* \"contracts2/tokens/LiquidityGeneratorToken.sol\":33445:33455  addedValue */\n      dup7\n        /* \"contracts2/tokens/LiquidityGeneratorToken.sol\":33406:33444  _allowances[_msgSender()][spender].add */\n      tag_285\n        /* \"contracts2/tokens/LiquidityGeneratorToken.sol\":33406:33456  _allowances[_msgSender()][spender].add(addedValue) */\n      jump\t// in\n        /* \"contracts2/tokens/LiquidityGeneratorToken.sol\":34107:34518  function deliver(uint256 tAmount) public {... */\n    tag_116:\n        /* \"contracts2/tokens/LiquidityGeneratorToken.sol\":3499:3509  msg.sender */\n      caller\n        /* \"contracts2/tokens/LiquidityGeneratorToken.sol\":34158:34172  address sender */\n      0x00\n        /* \"contracts2/tokens/LiquidityGeneratorToken.sol\":34219:34238  _isExcluded[sender] */\n      dup2\n      dup2\n      mstore\n        /* \"contracts2/tokens/LiquidityGeneratorToken.sol\":34219:34230  _isExcluded */\n      0x05\n        /* \"contracts2/tokens/LiquidityGeneratorToken.sol\":34219:34238  _isExcluded[sender] */\n      0x20\n      mstore\n      0x40\n      swap1\n      keccak256\n      sload\n      0xff\n      and\n        /* \"contracts2/tokens/LiquidityGeneratorToken.sol\":34218:34238  !_isExcluded[sender] */\n      iszero\n        /* \"contracts2/tokens/LiquidityGeneratorToken.sol\":34197:34308  require(... */\n      tag_288\n      jumpi\n      mload(0x40)\n      shl(0xe5, 0x461bcd)\n      dup2\n      mstore\n        /* \"#utility.yul\":9215:9217   */\n      0x20\n        /* \"contracts2/tokens/LiquidityGeneratorToken.sol\":34197:34308  require(... */\n      0x04\n      dup3\n      add\n        /* \"#utility.yul\":9197:9218   */\n      mstore\n        /* \"#utility.yul\":9254:9256   */\n      0x2c\n        /* \"#utility.yul\":9234:9252   */\n      0x24\n      dup3\n      add\n        /* \"#utility.yul\":9227:9257   */\n      mstore\n        /* \"#utility.yul\":9293:9327   */\n      0x4578636c75646564206164647265737365732063616e6e6f742063616c6c2074\n        /* \"#utility.yul\":9273:9291   */\n      0x44\n      dup3\n      add\n        /* \"#utility.yul\":9266:9328   */\n      mstore\n      shl(0xa1, 0x3434b990333ab731ba34b7b7)\n        /* \"#utility.yul\":9344:9362   */\n      0x64\n      dup3\n      add\n        /* \"#utility.yul\":9337:9379   */\n      mstore\n        /* \"#utility.yul\":9396:9415   */\n      0x84\n      add\n        /* \"contracts2/tokens/LiquidityGeneratorToken.sol\":34197:34308  require(... */\n      tag_217\n        /* \"#utility.yul\":9187:9421   */\n      jump\n        /* \"contracts2/tokens/LiquidityGeneratorToken.sol\":34197:34308  require(... */\n    tag_288:\n        /* \"contracts2/tokens/LiquidityGeneratorToken.sol\":34319:34334  uint256 rAmount */\n      0x00\n        /* \"contracts2/tokens/LiquidityGeneratorToken.sol\":34350:34369  _getValues(tAmount) */\n      tag_291\n        /* \"contracts2/tokens/LiquidityGeneratorToken.sol\":34361:34368  tAmount */\n      dup4\n        /* \"contracts2/tokens/LiquidityGeneratorToken.sol\":34350:34360  _getValues */\n      tag_292\n        /* \"contracts2/tokens/LiquidityGeneratorToken.sol\":34350:34369  _getValues(tAmount) */\n      jump\t// in\n    tag_291:\n      pop\n      pop\n      pop\n      sub(shl(0xa0, 0x01), 0x01)\n        /* \"contracts2/tokens/LiquidityGeneratorToken.sol\":34397:34412  _rOwned[sender] */\n      dup7\n      and\n      0x00\n      swap1\n      dup2\n      mstore\n        /* \"contracts2/tokens/LiquidityGeneratorToken.sol\":34397:34404  _rOwned */\n      0x01\n        /* \"contracts2/tokens/LiquidityGeneratorToken.sol\":34397:34412  _rOwned[sender] */\n      0x20\n      mstore\n      0x40\n      swap1\n      keccak256\n      sload\n        /* \"contracts2/tokens/LiquidityGeneratorToken.sol\":34318:34369  (uint256 rAmount, , , , , , ) = _getValues(tAmount) */\n      swap4\n      swap5\n      pop\n        /* \"contracts2/tokens/LiquidityGeneratorToken.sol\":34397:34425  _rOwned[sender].sub(rAmount) */\n      tag_293\n      swap4\n        /* \"contracts2/tokens/LiquidityGeneratorToken.sol\":34397:34412  _rOwned[sender] */\n      swap3\n      pop\n        /* \"contracts2/tokens/LiquidityGeneratorToken.sol\":34318:34369  (uint256 rAmount, , , , , , ) = _getValues(tAmount) */\n      dup5\n      swap2\n      pop\n      pop\n        /* \"contracts2/tokens/LiquidityGeneratorToken.sol\":34397:34416  _rOwned[sender].sub */\n      tag_294\n        /* \"contracts2/tokens/LiquidityGeneratorToken.sol\":34397:34425  _rOwned[sender].sub(rAmount) */\n      jump\t// in\n    tag_293:\n      sub(shl(0xa0, 0x01), 0x01)\n        /* \"contracts2/tokens/LiquidityGeneratorToken.sol\":34379:34394  _rOwned[sender] */\n      dup4\n      and\n      0x00\n      swap1\n      dup2\n      mstore\n        /* \"contracts2/tokens/LiquidityGeneratorToken.sol\":34379:34386  _rOwned */\n      0x01\n        /* \"contracts2/tokens/LiquidityGeneratorToken.sol\":34379:34394  _rOwned[sender] */\n      0x20\n      mstore\n      0x40\n      swap1\n      keccak256\n        /* \"contracts2/tokens/LiquidityGeneratorToken.sol\":34379:34425  _rOwned[sender] = _rOwned[sender].sub(rAmount) */\n      sstore\n        /* \"contracts2/tokens/LiquidityGeneratorToken.sol\":34445:34452  _rTotal */\n      sload(0x08)\n        /* \"contracts2/tokens/LiquidityGeneratorToken.sol\":34445:34465  _rTotal.sub(rAmount) */\n      tag_295\n      swap1\n        /* \"contracts2/tokens/LiquidityGeneratorToken.sol\":34457:34464  rAmount */\n      dup3\n        /* \"contracts2/tokens/LiquidityGeneratorToken.sol\":34445:34456  _rTotal.sub */\n      tag_294\n        /* \"contracts2/tokens/LiquidityGeneratorToken.sol\":34445:34465  _rTotal.sub(rAmount) */\n      jump\t// in\n    tag_295:\n        /* \"contracts2/tokens/LiquidityGeneratorToken.sol\":34435:34442  _rTotal */\n      0x08\n        /* \"contracts2/tokens/LiquidityGeneratorToken.sol\":34435:34465  _rTotal = _rTotal.sub(rAmount) */\n      sstore\n        /* \"contracts2/tokens/LiquidityGeneratorToken.sol\":34488:34498  _tFeeTotal */\n      sload(0x09)\n        /* \"contracts2/tokens/LiquidityGeneratorToken.sol\":34488:34511  _tFeeTotal.add(tAmount) */\n      tag_296\n      swap1\n        /* \"contracts2/tokens/LiquidityGeneratorToken.sol\":34503:34510  tAmount */\n      dup5\n        /* \"contracts2/tokens/LiquidityGeneratorToken.sol\":34488:34502  _tFeeTotal.add */\n      tag_285\n        /* \"contracts2/tokens/LiquidityGeneratorToken.sol\":34488:34511  _tFeeTotal.add(tAmount) */\n      jump\t// in\n    tag_296:\n        /* \"contracts2/tokens/LiquidityGeneratorToken.sol\":34475:34485  _tFeeTotal */\n      0x09\n        /* \"contracts2/tokens/LiquidityGeneratorToken.sol\":34475:34511  _tFeeTotal = _tFeeTotal.add(tAmount) */\n      sstore\n      pop\n      pop\n      pop\n        /* \"contracts2/tokens/LiquidityGeneratorToken.sol\":34107:34518  function deliver(uint256 tAmount) public {... */\n      jump\t// out\n        /* \"contracts2/tokens/LiquidityGeneratorToken.sol\":37041:37150  function excludeFromFee(address account) public onlyOwner {... */\n    tag_124:\n        /* \"contracts2/tokens/LiquidityGeneratorToken.sol\":4704:4711  address */\n      0x00\n        /* \"contracts2/tokens/LiquidityGeneratorToken.sol\":4730:4736  _owner */\n      sload\n      sub(shl(0xa0, 0x01), 0x01)\n      and\n        /* \"contracts2/tokens/LiquidityGeneratorToken.sol\":3499:3509  msg.sender */\n      caller\n        /* \"contracts2/tokens/LiquidityGeneratorToken.sol\":4870:4893  owner() == _msgSender() */\n      eq\n        /* \"contracts2/tokens/LiquidityGeneratorToken.sol\":4862:4930  require(owner() == _msgSender(), \"Ownable: caller is not the owner\") */\n      tag_300\n      jumpi\n      mload(0x40)\n      shl(0xe5, 0x461bcd)\n      dup2\n      mstore\n      0x04\n      add\n      tag_217\n      swap1\n      tag_218\n      jump\t// in\n    tag_300:\n      sub(shl(0xa0, 0x01), 0x01)\n        /* \"contracts2/tokens/LiquidityGeneratorToken.sol\":37109:37136  _isExcludedFromFee[account] */\n      and\n      0x00\n      swap1\n      dup2\n      mstore\n        /* \"contracts2/tokens/LiquidityGeneratorToken.sol\":37109:37127  _isExcludedFromFee */\n      0x04\n        /* \"contracts2/tokens/LiquidityGeneratorToken.sol\":37109:37136  _isExcludedFromFee[account] */\n      0x20\n      mstore\n      0x40\n      swap1\n      keccak256\n        /* \"contracts2/tokens/LiquidityGeneratorToken.sol\":37109:37143  _isExcludedFromFee[account] = true */\n      dup1\n      sload\n      not(0xff)\n      and\n        /* \"contracts2/tokens/LiquidityGeneratorToken.sol\":37139:37143  true */\n      0x01\n        /* \"contracts2/tokens/LiquidityGeneratorToken.sol\":37109:37143  _isExcludedFromFee[account] = true */\n      or\n      swap1\n      sstore\n        /* \"contracts2/tokens/LiquidityGeneratorToken.sol\":37041:37150  function excludeFromFee(address account) public onlyOwner {... */\n      jump\t// out\n        /* \"contracts2/tokens/LiquidityGeneratorToken.sol\":34524:34994  function reflectionFromToken(uint256 tAmount, bool deductTransferFee)... */\n    tag_129:\n        /* \"contracts2/tokens/LiquidityGeneratorToken.sol\":34639:34646  uint256 */\n      0x00\n        /* \"contracts2/tokens/LiquidityGeneratorToken.sol\":34681:34688  _tTotal */\n      sload(0x07)\n        /* \"contracts2/tokens/LiquidityGeneratorToken.sol\":34670:34677  tAmount */\n      dup4\n        /* \"contracts2/tokens/LiquidityGeneratorToken.sol\":34670:34688  tAmount <= _tTotal */\n      gt\n      iszero\n        /* \"contracts2/tokens/LiquidityGeneratorToken.sol\":34662:34724  require(tAmount <= _tTotal, \"Amount must be less than supply\") */\n      tag_304\n      jumpi\n      mload(0x40)\n      shl(0xe5, 0x461bcd)\n      dup2\n      mstore\n        /* \"#utility.yul\":7273:7275   */\n      0x20\n        /* \"contracts2/tokens/LiquidityGeneratorToken.sol\":34662:34724  require(tAmount <= _tTotal, \"Amount must be less than supply\") */\n      0x04\n      dup3\n      add\n        /* \"#utility.yul\":7255:7276   */\n      mstore\n        /* \"#utility.yul\":7312:7314   */\n      0x1f\n        /* \"#utility.yul\":7292:7310   */\n      0x24\n      dup3\n      add\n        /* \"#utility.yul\":7285:7315   */\n      mstore\n        /* \"#utility.yul\":7351:7384   */\n      0x416d6f756e74206d757374206265206c657373207468616e20737570706c7900\n        /* \"#utility.yul\":7331:7349   */\n      0x44\n      dup3\n      add\n        /* \"#utility.yul\":7324:7385   */\n      mstore\n        /* \"#utility.yul\":7402:7420   */\n      0x64\n      add\n        /* \"contracts2/tokens/LiquidityGeneratorToken.sol\":34662:34724  require(tAmount <= _tTotal, \"Amount must be less than supply\") */\n      tag_217\n        /* \"#utility.yul\":7245:7426   */\n      jump\n        /* \"contracts2/tokens/LiquidityGeneratorToken.sol\":34662:34724  require(tAmount <= _tTotal, \"Amount must be less than supply\") */\n    tag_304:\n        /* \"contracts2/tokens/LiquidityGeneratorToken.sol\":34739:34756  deductTransferFee */\n      dup2\n        /* \"contracts2/tokens/LiquidityGeneratorToken.sol\":34734:34988  if (!deductTransferFee) {... */\n      tag_307\n      jumpi\n        /* \"contracts2/tokens/LiquidityGeneratorToken.sol\":34773:34788  uint256 rAmount */\n      0x00\n        /* \"contracts2/tokens/LiquidityGeneratorToken.sol\":34804:34823  _getValues(tAmount) */\n      tag_308\n        /* \"contracts2/tokens/LiquidityGeneratorToken.sol\":34815:34822  tAmount */\n      dup5\n        /* \"contracts2/tokens/LiquidityGeneratorToken.sol\":34804:34814  _getValues */\n      tag_292\n        /* \"contracts2/tokens/LiquidityGeneratorToken.sol\":34804:34823  _getValues(tAmount) */\n      jump\t// in\n    tag_308:\n      pop\n        /* \"contracts2/tokens/LiquidityGeneratorToken.sol\":34772:34823  (uint256 rAmount, , , , , , ) = _getValues(tAmount) */\n      swap5\n      swap7\n      pop\n        /* \"contracts2/tokens/LiquidityGeneratorToken.sol\":34837:34851  return rAmount */\n      tag_233\n      swap6\n      pop\n      pop\n      pop\n      pop\n      pop\n      pop\n      jump\n        /* \"contracts2/tokens/LiquidityGeneratorToken.sol\":34734:34988  if (!deductTransferFee) {... */\n    tag_307:\n        /* \"contracts2/tokens/LiquidityGeneratorToken.sol\":34885:34908  uint256 rTransferAmount */\n      0x00\n        /* \"contracts2/tokens/LiquidityGeneratorToken.sol\":34922:34941  _getValues(tAmount) */\n      tag_310\n        /* \"contracts2/tokens/LiquidityGeneratorToken.sol\":34933:34940  tAmount */\n      dup5\n        /* \"contracts2/tokens/LiquidityGeneratorToken.sol\":34922:34932  _getValues */\n      tag_292\n        /* \"contracts2/tokens/LiquidityGeneratorToken.sol\":34922:34941  _getValues(tAmount) */\n      jump\t// in\n    tag_310:\n      pop\n        /* \"contracts2/tokens/LiquidityGeneratorToken.sol\":34882:34941  (, uint256 rTransferAmount, , , , , ) = _getValues(tAmount) */\n      swap4\n      swap7\n      pop\n        /* \"contracts2/tokens/LiquidityGeneratorToken.sol\":34955:34977  return rTransferAmount */\n      tag_233\n      swap6\n      pop\n      pop\n      pop\n      pop\n      pop\n      pop\n      jump\n        /* \"contracts2/tokens/LiquidityGeneratorToken.sol\":35317:35755  function excludeFromReward(address account) public onlyOwner {... */\n    tag_142:\n        /* \"contracts2/tokens/LiquidityGeneratorToken.sol\":4704:4711  address */\n      0x00\n        /* \"contracts2/tokens/LiquidityGeneratorToken.sol\":4730:4736  _owner */\n      sload\n      sub(shl(0xa0, 0x01), 0x01)\n      and\n        /* \"contracts2/tokens/LiquidityGeneratorToken.sol\":3499:3509  msg.sender */\n      caller\n        /* \"contracts2/tokens/LiquidityGeneratorToken.sol\":4870:4893  owner() == _msgSender() */\n      eq\n        /* \"contracts2/tokens/LiquidityGeneratorToken.sol\":4862:4930  require(owner() == _msgSender(), \"Ownable: caller is not the owner\") */\n      tag_314\n      jumpi\n      mload(0x40)\n      shl(0xe5, 0x461bcd)\n      dup2\n      mstore\n      0x04\n      add\n      tag_217\n      swap1\n      tag_218\n      jump\t// in\n    tag_314:\n      sub(shl(0xa0, 0x01), 0x01)\n        /* \"contracts2/tokens/LiquidityGeneratorToken.sol\":35510:35530  _isExcluded[account] */\n      dup2\n      and\n      0x00\n      swap1\n      dup2\n      mstore\n        /* \"contracts2/tokens/LiquidityGeneratorToken.sol\":35510:35521  _isExcluded */\n      0x05\n        /* \"contracts2/tokens/LiquidityGeneratorToken.sol\":35510:35530  _isExcluded[account] */\n      0x20\n      mstore\n      0x40\n      swap1\n      keccak256\n      sload\n      0xff\n      and\n        /* \"contracts2/tokens/LiquidityGeneratorToken.sol\":35509:35530  !_isExcluded[account] */\n      iszero\n        /* \"contracts2/tokens/LiquidityGeneratorToken.sol\":35501:35562  require(!_isExcluded[account], \"Account is already excluded\") */\n      tag_317\n      jumpi\n      mload(0x40)\n      shl(0xe5, 0x461bcd)\n      dup2\n      mstore\n        /* \"#utility.yul\":6567:6569   */\n      0x20\n        /* \"contracts2/tokens/LiquidityGeneratorToken.sol\":35501:35562  require(!_isExcluded[account], \"Account is already excluded\") */\n      0x04\n      dup3\n      add\n        /* \"#utility.yul\":6549:6570   */\n      mstore\n        /* \"#utility.yul\":6606:6608   */\n      0x1b\n        /* \"#utility.yul\":6586:6604   */\n      0x24\n      dup3\n      add\n        /* \"#utility.yul\":6579:6609   */\n      mstore\n        /* \"#utility.yul\":6645:6674   */\n      0x4163636f756e7420697320616c7265616479206578636c756465640000000000\n        /* \"#utility.yul\":6625:6643   */\n      0x44\n      dup3\n      add\n        /* \"#utility.yul\":6618:6675   */\n      mstore\n        /* \"#utility.yul\":6692:6710   */\n      0x64\n      add\n        /* \"contracts2/tokens/LiquidityGeneratorToken.sol\":35501:35562  require(!_isExcluded[account], \"Account is already excluded\") */\n      tag_217\n        /* \"#utility.yul\":6539:6716   */\n      jump\n        /* \"contracts2/tokens/LiquidityGeneratorToken.sol\":35501:35562  require(!_isExcluded[account], \"Account is already excluded\") */\n    tag_317:\n      sub(shl(0xa0, 0x01), 0x01)\n        /* \"contracts2/tokens/LiquidityGeneratorToken.sol\":35576:35592  _rOwned[account] */\n      dup2\n      and\n        /* \"contracts2/tokens/LiquidityGeneratorToken.sol\":35595:35596  0 */\n      0x00\n        /* \"contracts2/tokens/LiquidityGeneratorToken.sol\":35576:35592  _rOwned[account] */\n      swap1\n      dup2\n      mstore\n        /* \"contracts2/tokens/LiquidityGeneratorToken.sol\":35576:35583  _rOwned */\n      0x01\n        /* \"contracts2/tokens/LiquidityGeneratorToken.sol\":35576:35592  _rOwned[account] */\n      0x20\n      mstore\n      0x40\n      swap1\n      keccak256\n      sload\n        /* \"contracts2/tokens/LiquidityGeneratorToken.sol\":35576:35596  _rOwned[account] > 0 */\n      iszero\n        /* \"contracts2/tokens/LiquidityGeneratorToken.sol\":35572:35679  if (_rOwned[account] > 0) {... */\n      tag_319\n      jumpi\n      sub(shl(0xa0, 0x01), 0x01)\n        /* \"contracts2/tokens/LiquidityGeneratorToken.sol\":35651:35667  _rOwned[account] */\n      dup2\n      and\n      0x00\n      swap1\n      dup2\n      mstore\n        /* \"contracts2/tokens/LiquidityGeneratorToken.sol\":35651:35658  _rOwned */\n      0x01\n        /* \"contracts2/tokens/LiquidityGeneratorToken.sol\":35651:35667  _rOwned[account] */\n      0x20\n      mstore\n      0x40\n      swap1\n      keccak256\n      sload\n        /* \"contracts2/tokens/LiquidityGeneratorToken.sol\":35631:35668  tokenFromReflection(_rOwned[account]) */\n      tag_320\n      swap1\n        /* \"contracts2/tokens/LiquidityGeneratorToken.sol\":35631:35650  tokenFromReflection */\n      tag_92\n        /* \"contracts2/tokens/LiquidityGeneratorToken.sol\":35631:35668  tokenFromReflection(_rOwned[account]) */\n      jump\t// in\n    tag_320:\n      sub(shl(0xa0, 0x01), 0x01)\n        /* \"contracts2/tokens/LiquidityGeneratorToken.sol\":35612:35628  _tOwned[account] */\n      dup3\n      and\n      0x00\n      swap1\n      dup2\n      mstore\n        /* \"contracts2/tokens/LiquidityGeneratorToken.sol\":35612:35619  _tOwned */\n      0x02\n        /* \"contracts2/tokens/LiquidityGeneratorToken.sol\":35612:35628  _tOwned[account] */\n      0x20\n      mstore\n      0x40\n      swap1\n      keccak256\n        /* \"contracts2/tokens/LiquidityGeneratorToken.sol\":35612:35668  _tOwned[account] = tokenFromReflection(_rOwned[account]) */\n      sstore\n        /* \"contracts2/tokens/LiquidityGeneratorToken.sol\":35572:35679  if (_rOwned[account] > 0) {... */\n    tag_319:\n      sub(shl(0xa0, 0x01), 0x01)\n        /* \"contracts2/tokens/LiquidityGeneratorToken.sol\":35688:35708  _isExcluded[account] */\n      and\n      0x00\n      dup2\n      dup2\n      mstore\n        /* \"contracts2/tokens/LiquidityGeneratorToken.sol\":35688:35699  _isExcluded */\n      0x05\n        /* \"contracts2/tokens/LiquidityGeneratorToken.sol\":35688:35708  _isExcluded[account] */\n      0x20\n      mstore\n      0x40\n      dup2\n      keccak256\n        /* \"contracts2/tokens/LiquidityGeneratorToken.sol\":35688:35715  _isExcluded[account] = true */\n      dup1\n      sload\n      not(0xff)\n      and\n        /* \"contracts2/tokens/LiquidityGeneratorToken.sol\":35711:35715  true */\n      0x01\n        /* \"contracts2/tokens/LiquidityGeneratorToken.sol\":35688:35715  _isExcluded[account] = true */\n      swap1\n      dup2\n      or\n      swap1\n      swap2\n      sstore\n        /* \"contracts2/tokens/LiquidityGeneratorToken.sol\":35725:35734  _excluded */\n      0x06\n        /* \"contracts2/tokens/LiquidityGeneratorToken.sol\":35725:35748  _excluded.push(account) */\n      dup1\n      sload\n      swap2\n      dup3\n      add\n      dup2\n      sstore\n      swap1\n      swap2\n      mstore\n      0xf652222313e28459528d920b65115c16c04f3efc82aaedc97be59f3f377c0d3f\n      add\n      dup1\n      sload\n      not(sub(shl(0xa0, 0x01), 0x01))\n      and\n      swap1\n      swap2\n      or\n      swap1\n      sstore\n        /* \"contracts2/tokens/LiquidityGeneratorToken.sol\":35317:35755  function excludeFromReward(address account) public onlyOwner {... */\n      jump\t// out\n        /* \"contracts2/tokens/LiquidityGeneratorToken.sol\":31994:32189  function balanceOf(address account) public view override returns (uint256) {... */\n    tag_155:\n      sub(shl(0xa0, 0x01), 0x01)\n        /* \"contracts2/tokens/LiquidityGeneratorToken.sol\":32083:32103  _isExcluded[account] */\n      dup2\n      and\n        /* \"contracts2/tokens/LiquidityGeneratorToken.sol\":32060:32067  uint256 */\n      0x00\n        /* \"contracts2/tokens/LiquidityGeneratorToken.sol\":32083:32103  _isExcluded[account] */\n      swap1\n      dup2\n      mstore\n        /* \"contracts2/tokens/LiquidityGeneratorToken.sol\":32083:32094  _isExcluded */\n      0x05\n        /* \"contracts2/tokens/LiquidityGeneratorToken.sol\":32083:32103  _isExcluded[account] */\n      0x20\n      mstore\n      0x40\n      dup2\n      keccak256\n      sload\n      0xff\n      and\n        /* \"contracts2/tokens/LiquidityGeneratorToken.sol\":32079:32128  if (_isExcluded[account]) return _tOwned[account] */\n      iszero\n      tag_324\n      jumpi\n      pop\n      sub(shl(0xa0, 0x01), 0x01)\n        /* \"contracts2/tokens/LiquidityGeneratorToken.sol\":32112:32128  _tOwned[account] */\n      and\n      0x00\n      swap1\n      dup2\n      mstore\n        /* \"contracts2/tokens/LiquidityGeneratorToken.sol\":32112:32119  _tOwned */\n      0x02\n        /* \"contracts2/tokens/LiquidityGeneratorToken.sol\":32112:32128  _tOwned[account] */\n      0x20\n      mstore\n      0x40\n      swap1\n      keccak256\n      sload\n      swap1\n        /* \"contracts2/tokens/LiquidityGeneratorToken.sol\":31994:32189  function balanceOf(address account) public view override returns (uint256) {... */\n      jump\t// out\n        /* \"contracts2/tokens/LiquidityGeneratorToken.sol\":32079:32128  if (_isExcluded[account]) return _tOwned[account] */\n    tag_324:\n      sub(shl(0xa0, 0x01), 0x01)\n        /* \"contracts2/tokens/LiquidityGeneratorToken.sol\":32165:32181  _rOwned[account] */\n      dup3\n      and\n      0x00\n      swap1\n      dup2\n      mstore\n        /* \"contracts2/tokens/LiquidityGeneratorToken.sol\":32165:32172  _rOwned */\n      0x01\n        /* \"contracts2/tokens/LiquidityGeneratorToken.sol\":32165:32181  _rOwned[account] */\n      0x20\n      mstore\n      0x40\n      swap1\n      keccak256\n      sload\n        /* \"contracts2/tokens/LiquidityGeneratorToken.sol\":32145:32182  tokenFromReflection(_rOwned[account]) */\n      tag_233\n      swap1\n        /* \"contracts2/tokens/LiquidityGeneratorToken.sol\":32145:32164  tokenFromReflection */\n      tag_92\n        /* \"contracts2/tokens/LiquidityGeneratorToken.sol\":32145:32182  tokenFromReflection(_rOwned[account]) */\n      jump\t// in\n        /* \"contracts2/tokens/LiquidityGeneratorToken.sol\":5290:5382  function renounceOwnership() public virtual onlyOwner {... */\n    tag_159:\n        /* \"contracts2/tokens/LiquidityGeneratorToken.sol\":4704:4711  address */\n      0x00\n        /* \"contracts2/tokens/LiquidityGeneratorToken.sol\":4730:4736  _owner */\n      sload\n      sub(shl(0xa0, 0x01), 0x01)\n      and\n        /* \"contracts2/tokens/LiquidityGeneratorToken.sol\":3499:3509  msg.sender */\n      caller\n        /* \"contracts2/tokens/LiquidityGeneratorToken.sol\":4870:4893  owner() == _msgSender() */\n      eq\n        /* \"contracts2/tokens/LiquidityGeneratorToken.sol\":4862:4930  require(owner() == _msgSender(), \"Ownable: caller is not the owner\") */\n      tag_329\n      jumpi\n      mload(0x40)\n      shl(0xe5, 0x461bcd)\n      dup2\n      mstore\n      0x04\n      add\n      tag_217\n      swap1\n      tag_218\n      jump\t// in\n    tag_329:\n        /* \"contracts2/tokens/LiquidityGeneratorToken.sol\":5354:5375  _setOwner(address(0)) */\n      tag_332\n        /* \"contracts2/tokens/LiquidityGeneratorToken.sol\":5372:5373  0 */\n      0x00\n        /* \"contracts2/tokens/LiquidityGeneratorToken.sol\":5354:5363  _setOwner */\n      tag_333\n        /* \"contracts2/tokens/LiquidityGeneratorToken.sol\":5354:5375  _setOwner(address(0)) */\n      jump\t// in\n    tag_332:\n        /* \"contracts2/tokens/LiquidityGeneratorToken.sol\":5290:5382  function renounceOwnership() public virtual onlyOwner {... */\n      jump\t// out\n        /* \"contracts2/tokens/LiquidityGeneratorToken.sol\":37504:37776  function setLiquidityFeePercent(uint256 liquidityFeeBps)... */\n    tag_172:\n        /* \"contracts2/tokens/LiquidityGeneratorToken.sol\":4704:4711  address */\n      0x00\n        /* \"contracts2/tokens/LiquidityGeneratorToken.sol\":4730:4736  _owner */\n      sload\n      sub(shl(0xa0, 0x01), 0x01)\n      and\n        /* \"contracts2/tokens/LiquidityGeneratorToken.sol\":3499:3509  msg.sender */\n      caller\n        /* \"contracts2/tokens/LiquidityGeneratorToken.sol\":4870:4893  owner() == _msgSender() */\n      eq\n        /* \"contracts2/tokens/LiquidityGeneratorToken.sol\":4862:4930  require(owner() == _msgSender(), \"Ownable: caller is not the owner\") */\n      tag_339\n      jumpi\n      mload(0x40)\n      shl(0xe5, 0x461bcd)\n      dup2\n      mstore\n      0x04\n      add\n      tag_217\n      swap1\n      tag_218\n      jump\t// in\n    tag_339:\n        /* \"contracts2/tokens/LiquidityGeneratorToken.sol\":37610:37623  _liquidityFee */\n      0x0f\n        /* \"contracts2/tokens/LiquidityGeneratorToken.sol\":37610:37641  _liquidityFee = liquidityFeeBps */\n      dup2\n      swap1\n      sstore\n        /* \"contracts2/tokens/LiquidityGeneratorToken.sol\":37698:37709  _charityFee */\n      sload(0x11)\n        /* \"contracts2/tokens/LiquidityGeneratorToken.sol\":37672:37679  _taxFee */\n      sload(0x0d)\n        /* \"contracts2/tokens/LiquidityGeneratorToken.sol\":37713:37722  10**4 / 4 */\n      0x09c4\n      swap2\n        /* \"contracts2/tokens/LiquidityGeneratorToken.sol\":37698:37709  _charityFee */\n      swap1\n        /* \"contracts2/tokens/LiquidityGeneratorToken.sol\":37672:37695  _taxFee + _liquidityFee */\n      tag_220\n      swap1\n        /* \"contracts2/tokens/LiquidityGeneratorToken.sol\":37626:37641  liquidityFeeBps */\n      dup5\n      swap1\n        /* \"contracts2/tokens/LiquidityGeneratorToken.sol\":37672:37695  _taxFee + _liquidityFee */\n      tag_221\n      jump\t// in\n        /* \"contracts2/tokens/LiquidityGeneratorToken.sol\":31717:31802  function symbol() public view returns (string memory) {... */\n    tag_175:\n        /* \"contracts2/tokens/LiquidityGeneratorToken.sol\":31756:31769  string memory */\n      0x60\n        /* \"contracts2/tokens/LiquidityGeneratorToken.sol\":31788:31795  _symbol */\n      0x0b\n        /* \"contracts2/tokens/LiquidityGeneratorToken.sol\":31781:31795  return _symbol */\n      dup1\n      sload\n      tag_227\n      swap1\n      tag_228\n      jump\t// in\n        /* \"contracts2/tokens/LiquidityGeneratorToken.sol\":33500:33886  function decreaseAllowance(address spender, uint256 subtractedValue)... */\n    tag_180:\n        /* \"contracts2/tokens/LiquidityGeneratorToken.sol\":33617:33621  bool */\n      0x00\n        /* \"contracts2/tokens/LiquidityGeneratorToken.sol\":33637:33858  _approve(... */\n      tag_234\n        /* \"contracts2/tokens/LiquidityGeneratorToken.sol\":3499:3509  msg.sender */\n      caller\n        /* \"contracts2/tokens/LiquidityGeneratorToken.sol\":33685:33692  spender */\n      dup5\n        /* \"contracts2/tokens/LiquidityGeneratorToken.sol\":33706:33848  _allowances[_msgSender()][spender].sub(... */\n      tag_244\n        /* \"contracts2/tokens/LiquidityGeneratorToken.sol\":33762:33777  subtractedValue */\n      dup6\n        /* \"contracts2/tokens/LiquidityGeneratorToken.sol\":33706:33848  _allowances[_msgSender()][spender].sub(... */\n      mload(0x40)\n      dup1\n      0x60\n      add\n      0x40\n      mstore\n      dup1\n      0x25\n      dup2\n      mstore\n      0x20\n      add\n      data_f8b476f7d28209d77d4a4ac1fe36b9f8259aa1bb6bddfa6e89de7e51615cf8a8\n      0x25\n      swap2\n      codecopy\n        /* \"contracts2/tokens/LiquidityGeneratorToken.sol\":3499:3509  msg.sender */\n      caller\n        /* \"contracts2/tokens/LiquidityGeneratorToken.sol\":33706:33731  _allowances[_msgSender()] */\n      0x00\n      swap1\n      dup2\n      mstore\n        /* \"contracts2/tokens/LiquidityGeneratorToken.sol\":33706:33717  _allowances */\n      0x03\n        /* \"contracts2/tokens/LiquidityGeneratorToken.sol\":33706:33731  _allowances[_msgSender()] */\n      0x20\n      swap1\n      dup2\n      mstore\n      0x40\n      dup1\n      dup4\n      keccak256\n      sub(shl(0xa0, 0x01), 0x01)\n        /* \"contracts2/tokens/LiquidityGeneratorToken.sol\":33706:33740  _allowances[_msgSender()][spender] */\n      dup14\n      and\n      dup5\n      mstore\n      swap1\n      swap2\n      mstore\n      swap1\n      keccak256\n      sload\n      swap2\n      swap1\n        /* \"contracts2/tokens/LiquidityGeneratorToken.sol\":33706:33744  _allowances[_msgSender()][spender].sub */\n      tag_246\n        /* \"contracts2/tokens/LiquidityGeneratorToken.sol\":33706:33848  _allowances[_msgSender()][spender].sub(... */\n      jump\t// in\n        /* \"contracts2/tokens/LiquidityGeneratorToken.sol\":32195:32387  function transfer(address recipient, uint256 amount)... */\n    tag_185:\n        /* \"contracts2/tokens/LiquidityGeneratorToken.sol\":32297:32301  bool */\n      0x00\n        /* \"contracts2/tokens/LiquidityGeneratorToken.sol\":32317:32359  _transfer(_msgSender(), recipient, amount) */\n      tag_234\n        /* \"contracts2/tokens/LiquidityGeneratorToken.sol\":3499:3509  msg.sender */\n      caller\n        /* \"contracts2/tokens/LiquidityGeneratorToken.sol\":32341:32350  recipient */\n      dup5\n        /* \"contracts2/tokens/LiquidityGeneratorToken.sol\":32352:32358  amount */\n      dup5\n        /* \"contracts2/tokens/LiquidityGeneratorToken.sol\":32317:32326  _transfer */\n      tag_241\n        /* \"contracts2/tokens/LiquidityGeneratorToken.sol\":32317:32359  _transfer(_msgSender(), recipient, amount) */\n      jump\t// in\n        /* \"contracts2/tokens/LiquidityGeneratorToken.sol\":37782:37950  function setSwapAndLiquifyEnabled(bool _enabled) public onlyOwner {... */\n    tag_191:\n        /* \"contracts2/tokens/LiquidityGeneratorToken.sol\":4704:4711  address */\n      0x00\n        /* \"contracts2/tokens/LiquidityGeneratorToken.sol\":4730:4736  _owner */\n      sload\n      sub(shl(0xa0, 0x01), 0x01)\n      and\n        /* \"contracts2/tokens/LiquidityGeneratorToken.sol\":3499:3509  msg.sender */\n      caller\n        /* \"contracts2/tokens/LiquidityGeneratorToken.sol\":4870:4893  owner() == _msgSender() */\n      eq\n        /* \"contracts2/tokens/LiquidityGeneratorToken.sol\":4862:4930  require(owner() == _msgSender(), \"Ownable: caller is not the owner\") */\n      tag_363\n      jumpi\n      mload(0x40)\n      shl(0xe5, 0x461bcd)\n      dup2\n      mstore\n      0x04\n      add\n      tag_217\n      swap1\n      tag_218\n      jump\t// in\n    tag_363:\n        /* \"contracts2/tokens/LiquidityGeneratorToken.sol\":37858:37879  swapAndLiquifyEnabled */\n      0x15\n        /* \"contracts2/tokens/LiquidityGeneratorToken.sol\":37858:37890  swapAndLiquifyEnabled = _enabled */\n      dup1\n      sload\n      dup3\n      iszero\n      iszero\n      shl(0xa8, 0x01)\n      mul\n      not(shl(0xa8, 0xff))\n      swap1\n      swap2\n      and\n      or\n      swap1\n      sstore\n        /* \"contracts2/tokens/LiquidityGeneratorToken.sol\":37905:37943  SwapAndLiquifyEnabledUpdated(_enabled) */\n      mload(0x40)\n      0x53726dfcaf90650aa7eb35524f4d3220f07413c8d6cb404cc8c18bf5591bc159\n      swap1\n      tag_366\n      swap1\n        /* \"contracts2/tokens/LiquidityGeneratorToken.sol\":37882:37890  _enabled */\n      dup4\n        /* \"#utility.yul\":3870:3884   */\n      iszero\n        /* \"#utility.yul\":3863:3885   */\n      iszero\n        /* \"#utility.yul\":3845:3886   */\n      dup2\n      mstore\n        /* \"#utility.yul\":3833:3835   */\n      0x20\n        /* \"#utility.yul\":3818:3836   */\n      add\n      swap1\n        /* \"#utility.yul\":3800:3892   */\n      jump\n        /* \"contracts2/tokens/LiquidityGeneratorToken.sol\":37905:37943  SwapAndLiquifyEnabledUpdated(_enabled) */\n    tag_366:\n      mload(0x40)\n      dup1\n      swap2\n      sub\n      swap1\n      log1\n        /* \"contracts2/tokens/LiquidityGeneratorToken.sol\":37782:37950  function setSwapAndLiquifyEnabled(bool _enabled) public onlyOwner {... */\n      pop\n      jump\t// out\n        /* \"contracts2/tokens/LiquidityGeneratorToken.sol\":37156:37264  function includeInFee(address account) public onlyOwner {... */\n    tag_201:\n        /* \"contracts2/tokens/LiquidityGeneratorToken.sol\":4704:4711  address */\n      0x00\n        /* \"contracts2/tokens/LiquidityGeneratorToken.sol\":4730:4736  _owner */\n      sload\n      sub(shl(0xa0, 0x01), 0x01)\n      and\n        /* \"contracts2/tokens/LiquidityGeneratorToken.sol\":3499:3509  msg.sender */\n      caller\n        /* \"contracts2/tokens/LiquidityGeneratorToken.sol\":4870:4893  owner() == _msgSender() */\n      eq\n        /* \"contracts2/tokens/LiquidityGeneratorToken.sol\":4862:4930  require(owner() == _msgSender(), \"Ownable: caller is not the owner\") */\n      tag_371\n      jumpi\n      mload(0x40)\n      shl(0xe5, 0x461bcd)\n      dup2\n      mstore\n      0x04\n      add\n      tag_217\n      swap1\n      tag_218\n      jump\t// in\n    tag_371:\n      sub(shl(0xa0, 0x01), 0x01)\n        /* \"contracts2/tokens/LiquidityGeneratorToken.sol\":37222:37249  _isExcludedFromFee[account] */\n      and\n        /* \"contracts2/tokens/LiquidityGeneratorToken.sol\":37252:37257  false */\n      0x00\n        /* \"contracts2/tokens/LiquidityGeneratorToken.sol\":37222:37249  _isExcludedFromFee[account] */\n      swap1\n      dup2\n      mstore\n        /* \"contracts2/tokens/LiquidityGeneratorToken.sol\":37222:37240  _isExcludedFromFee */\n      0x04\n        /* \"contracts2/tokens/LiquidityGeneratorToken.sol\":37222:37249  _isExcludedFromFee[account] */\n      0x20\n      mstore\n      0x40\n      swap1\n      keccak256\n        /* \"contracts2/tokens/LiquidityGeneratorToken.sol\":37222:37257  _isExcludedFromFee[account] = false */\n      dup1\n      sload\n      not(0xff)\n      and\n      swap1\n      sstore\n        /* \"contracts2/tokens/LiquidityGeneratorToken.sol\":37156:37264  function includeInFee(address account) public onlyOwner {... */\n      jump\t// out\n        /* \"contracts2/tokens/LiquidityGeneratorToken.sol\":5531:5720  function transferOwnership(address newOwner) public virtual onlyOwner {... */\n    tag_205:\n        /* \"contracts2/tokens/LiquidityGeneratorToken.sol\":4704:4711  address */\n      0x00\n        /* \"contracts2/tokens/LiquidityGeneratorToken.sol\":4730:4736  _owner */\n      sload\n      sub(shl(0xa0, 0x01), 0x01)\n      and\n        /* \"contracts2/tokens/LiquidityGeneratorToken.sol\":3499:3509  msg.sender */\n      caller\n        /* \"contracts2/tokens/LiquidityGeneratorToken.sol\":4870:4893  owner() == _msgSender() */\n      eq\n        /* \"contracts2/tokens/LiquidityGeneratorToken.sol\":4862:4930  require(owner() == _msgSender(), \"Ownable: caller is not the owner\") */\n      tag_377\n      jumpi\n      mload(0x40)\n      shl(0xe5, 0x461bcd)\n      dup2\n      mstore\n      0x04\n      add\n      tag_217\n      swap1\n      tag_218\n      jump\t// in\n    tag_377:\n      sub(shl(0xa0, 0x01), 0x01)\n        /* \"contracts2/tokens/LiquidityGeneratorToken.sol\":5619:5641  newOwner != address(0) */\n      dup2\n      and\n        /* \"contracts2/tokens/LiquidityGeneratorToken.sol\":5611:5684  require(newOwner != address(0), \"Ownable: new owner is the zero address\") */\n      tag_380\n      jumpi\n      mload(0x40)\n      shl(0xe5, 0x461bcd)\n      dup2\n      mstore\n        /* \"#utility.yul\":5757:5759   */\n      0x20\n        /* \"contracts2/tokens/LiquidityGeneratorToken.sol\":5611:5684  require(newOwner != address(0), \"Ownable: new owner is the zero address\") */\n      0x04\n      dup3\n      add\n        /* \"#utility.yul\":5739:5760   */\n      mstore\n        /* \"#utility.yul\":5796:5798   */\n      0x26\n        /* \"#utility.yul\":5776:5794   */\n      0x24\n      dup3\n      add\n        /* \"#utility.yul\":5769:5799   */\n      mstore\n        /* \"#utility.yul\":5835:5869   */\n      0x4f776e61626c653a206e6577206f776e657220697320746865207a65726f2061\n        /* \"#utility.yul\":5815:5833   */\n      0x44\n      dup3\n      add\n        /* \"#utility.yul\":5808:5870   */\n      mstore\n      shl(0xd0, 0x646472657373)\n        /* \"#utility.yul\":5886:5904   */\n      0x64\n      dup3\n      add\n        /* \"#utility.yul\":5879:5915   */\n      mstore\n        /* \"#utility.yul\":5932:5951   */\n      0x84\n      add\n        /* \"contracts2/tokens/LiquidityGeneratorToken.sol\":5611:5684  require(newOwner != address(0), \"Ownable: new owner is the zero address\") */\n      tag_217\n        /* \"#utility.yul\":5729:5957   */\n      jump\n        /* \"contracts2/tokens/LiquidityGeneratorToken.sol\":5611:5684  require(newOwner != address(0), \"Ownable: new owner is the zero address\") */\n    tag_380:\n        /* \"contracts2/tokens/LiquidityGeneratorToken.sol\":5694:5713  _setOwner(newOwner) */\n      tag_223\n        /* \"contracts2/tokens/LiquidityGeneratorToken.sol\":5704:5712  newOwner */\n      dup2\n        /* \"contracts2/tokens/LiquidityGeneratorToken.sol\":5694:5703  _setOwner */\n      tag_333\n        /* \"contracts2/tokens/LiquidityGeneratorToken.sol\":5694:5713  _setOwner(newOwner) */\n      jump\t// in\n        /* \"contracts2/tokens/LiquidityGeneratorToken.sol\":9322:9418  function mul(uint256 a, uint256 b) internal pure returns (uint256) {... */\n    tag_210:\n        /* \"contracts2/tokens/LiquidityGeneratorToken.sol\":9380:9387  uint256 */\n      0x00\n        /* \"contracts2/tokens/LiquidityGeneratorToken.sol\":9406:9411  a * b */\n      tag_253\n        /* \"contracts2/tokens/LiquidityGeneratorToken.sol\":9410:9411  b */\n      dup3\n        /* \"contracts2/tokens/LiquidityGeneratorToken.sol\":9406:9407  a */\n      dup5\n        /* \"contracts2/tokens/LiquidityGeneratorToken.sol\":9406:9411  a * b */\n      tag_386\n      jump\t// in\n        /* \"contracts2/tokens/LiquidityGeneratorToken.sol\":9707:9803  function div(uint256 a, uint256 b) internal pure returns (uint256) {... */\n    tag_211:\n        /* \"contracts2/tokens/LiquidityGeneratorToken.sol\":9765:9772  uint256 */\n      0x00\n        /* \"contracts2/tokens/LiquidityGeneratorToken.sol\":9791:9796  a / b */\n      tag_253\n        /* \"contracts2/tokens/LiquidityGeneratorToken.sol\":9795:9796  b */\n      dup3\n        /* \"contracts2/tokens/LiquidityGeneratorToken.sol\":9791:9792  a */\n      dup5\n        /* \"contracts2/tokens/LiquidityGeneratorToken.sol\":9791:9796  a / b */\n      tag_389\n      jump\t// in\n        /* \"contracts2/tokens/LiquidityGeneratorToken.sol\":42994:43355  function _approve(... */\n    tag_236:\n      sub(shl(0xa0, 0x01), 0x01)\n        /* \"contracts2/tokens/LiquidityGeneratorToken.sol\":43116:43135  owner != address(0) */\n      dup4\n      and\n        /* \"contracts2/tokens/LiquidityGeneratorToken.sol\":43108:43176  require(owner != address(0), \"ERC20: approve from the zero address\") */\n      tag_392\n      jumpi\n      mload(0x40)\n      shl(0xe5, 0x461bcd)\n      dup2\n      mstore\n        /* \"#utility.yul\":8810:8812   */\n      0x20\n        /* \"contracts2/tokens/LiquidityGeneratorToken.sol\":43108:43176  require(owner != address(0), \"ERC20: approve from the zero address\") */\n      0x04\n      dup3\n      add\n        /* \"#utility.yul\":8792:8813   */\n      mstore\n        /* \"#utility.yul\":8849:8851   */\n      0x24\n        /* \"#utility.yul\":8829:8847   */\n      dup1\n      dup3\n      add\n        /* \"#utility.yul\":8822:8852   */\n      mstore\n        /* \"#utility.yul\":8888:8922   */\n      0x45524332303a20617070726f76652066726f6d20746865207a65726f20616464\n        /* \"#utility.yul\":8868:8886   */\n      0x44\n      dup3\n      add\n        /* \"#utility.yul\":8861:8923   */\n      mstore\n      shl(0xe0, 0x72657373)\n        /* \"#utility.yul\":8939:8957   */\n      0x64\n      dup3\n      add\n        /* \"#utility.yul\":8932:8966   */\n      mstore\n        /* \"#utility.yul\":8983:9002   */\n      0x84\n      add\n        /* \"contracts2/tokens/LiquidityGeneratorToken.sol\":43108:43176  require(owner != address(0), \"ERC20: approve from the zero address\") */\n      tag_217\n        /* \"#utility.yul\":8782:9008   */\n      jump\n        /* \"contracts2/tokens/LiquidityGeneratorToken.sol\":43108:43176  require(owner != address(0), \"ERC20: approve from the zero address\") */\n    tag_392:\n      sub(shl(0xa0, 0x01), 0x01)\n        /* \"contracts2/tokens/LiquidityGeneratorToken.sol\":43194:43215  spender != address(0) */\n      dup3\n      and\n        /* \"contracts2/tokens/LiquidityGeneratorToken.sol\":43186:43254  require(spender != address(0), \"ERC20: approve to the zero address\") */\n      tag_395\n      jumpi\n      mload(0x40)\n      shl(0xe5, 0x461bcd)\n      dup2\n      mstore\n        /* \"#utility.yul\":6164:6166   */\n      0x20\n        /* \"contracts2/tokens/LiquidityGeneratorToken.sol\":43186:43254  require(spender != address(0), \"ERC20: approve to the zero address\") */\n      0x04\n      dup3\n      add\n        /* \"#utility.yul\":6146:6167   */\n      mstore\n        /* \"#utility.yul\":6203:6205   */\n      0x22\n        /* \"#utility.yul\":6183:6201   */\n      0x24\n      dup3\n      add\n        /* \"#utility.yul\":6176:6206   */\n      mstore\n        /* \"#utility.yul\":6242:6276   */\n      0x45524332303a20617070726f766520746f20746865207a65726f206164647265\n        /* \"#utility.yul\":6222:6240   */\n      0x44\n      dup3\n      add\n        /* \"#utility.yul\":6215:6277   */\n      mstore\n      shl(0xf0, 0x7373)\n        /* \"#utility.yul\":6293:6311   */\n      0x64\n      dup3\n      add\n        /* \"#utility.yul\":6286:6318   */\n      mstore\n        /* \"#utility.yul\":6335:6354   */\n      0x84\n      add\n        /* \"contracts2/tokens/LiquidityGeneratorToken.sol\":43186:43254  require(spender != address(0), \"ERC20: approve to the zero address\") */\n      tag_217\n        /* \"#utility.yul\":6136:6360   */\n      jump\n        /* \"contracts2/tokens/LiquidityGeneratorToken.sol\":43186:43254  require(spender != address(0), \"ERC20: approve to the zero address\") */\n    tag_395:\n      sub(shl(0xa0, 0x01), 0x01)\n        /* \"contracts2/tokens/LiquidityGeneratorToken.sol\":43265:43283  _allowances[owner] */\n      dup4\n      dup2\n      and\n      0x00\n      dup2\n      dup2\n      mstore\n        /* \"contracts2/tokens/LiquidityGeneratorToken.sol\":43265:43276  _allowances */\n      0x03\n        /* \"contracts2/tokens/LiquidityGeneratorToken.sol\":43265:43283  _allowances[owner] */\n      0x20\n      swap1\n      dup2\n      mstore\n      0x40\n      dup1\n      dup4\n      keccak256\n        /* \"contracts2/tokens/LiquidityGeneratorToken.sol\":43265:43292  _allowances[owner][spender] */\n      swap5\n      dup8\n      and\n      dup1\n      dup5\n      mstore\n      swap5\n      dup3\n      mstore\n      swap2\n      dup3\n      swap1\n      keccak256\n        /* \"contracts2/tokens/LiquidityGeneratorToken.sol\":43265:43301  _allowances[owner][spender] = amount */\n      dup6\n      swap1\n      sstore\n        /* \"contracts2/tokens/LiquidityGeneratorToken.sol\":43316:43348  Approval(owner, spender, amount) */\n      swap1\n      mload\n        /* \"#utility.yul\":9572:9597   */\n      dup5\n      dup2\n      mstore\n        /* \"contracts2/tokens/LiquidityGeneratorToken.sol\":43316:43348  Approval(owner, spender, amount) */\n      0x8c5be1e5ebec7d5bd14f71427d1e84f3dd0314c0f7b2291e5b200ac8c7c3b925\n      swap2\n        /* \"#utility.yul\":9545:9563   */\n      add\n        /* \"contracts2/tokens/LiquidityGeneratorToken.sol\":43316:43348  Approval(owner, spender, amount) */\n    tag_398:\n      mload(0x40)\n      dup1\n      swap2\n      sub\n      swap1\n      log3\n        /* \"contracts2/tokens/LiquidityGeneratorToken.sol\":42994:43355  function _approve(... */\n      pop\n      pop\n      pop\n      jump\t// out\n        /* \"contracts2/tokens/LiquidityGeneratorToken.sol\":43361:44854  function _transfer(... */\n    tag_241:\n      sub(shl(0xa0, 0x01), 0x01)\n        /* \"contracts2/tokens/LiquidityGeneratorToken.sol\":43478:43496  from != address(0) */\n      dup4\n      and\n        /* \"contracts2/tokens/LiquidityGeneratorToken.sol\":43470:43538  require(from != address(0), \"ERC20: transfer from the zero address\") */\n      tag_400\n      jumpi\n      mload(0x40)\n      shl(0xe5, 0x461bcd)\n      dup2\n      mstore\n        /* \"#utility.yul\":8404:8406   */\n      0x20\n        /* \"contracts2/tokens/LiquidityGeneratorToken.sol\":43470:43538  require(from != address(0), \"ERC20: transfer from the zero address\") */\n      0x04\n      dup3\n      add\n        /* \"#utility.yul\":8386:8407   */\n      mstore\n        /* \"#utility.yul\":8443:8445   */\n      0x25\n        /* \"#utility.yul\":8423:8441   */\n      0x24\n      dup3\n      add\n        /* \"#utility.yul\":8416:8446   */\n      mstore\n        /* \"#utility.yul\":8482:8516   */\n      0x45524332303a207472616e736665722066726f6d20746865207a65726f206164\n        /* \"#utility.yul\":8462:8480   */\n      0x44\n      dup3\n      add\n        /* \"#utility.yul\":8455:8517   */\n      mstore\n      shl(0xd8, 0x6472657373)\n        /* \"#utility.yul\":8533:8551   */\n      0x64\n      dup3\n      add\n        /* \"#utility.yul\":8526:8561   */\n      mstore\n        /* \"#utility.yul\":8578:8597   */\n      0x84\n      add\n        /* \"contracts2/tokens/LiquidityGeneratorToken.sol\":43470:43538  require(from != address(0), \"ERC20: transfer from the zero address\") */\n      tag_217\n        /* \"#utility.yul\":8376:8603   */\n      jump\n        /* \"contracts2/tokens/LiquidityGeneratorToken.sol\":43470:43538  require(from != address(0), \"ERC20: transfer from the zero address\") */\n    tag_400:\n      sub(shl(0xa0, 0x01), 0x01)\n        /* \"contracts2/tokens/LiquidityGeneratorToken.sol\":43556:43572  to != address(0) */\n      dup3\n      and\n        /* \"contracts2/tokens/LiquidityGeneratorToken.sol\":43548:43612  require(to != address(0), \"ERC20: transfer to the zero address\") */\n      tag_403\n      jumpi\n      mload(0x40)\n      shl(0xe5, 0x461bcd)\n      dup2\n      mstore\n        /* \"#utility.yul\":4942:4944   */\n      0x20\n        /* \"contracts2/tokens/LiquidityGeneratorToken.sol\":43548:43612  require(to != address(0), \"ERC20: transfer to the zero address\") */\n      0x04\n      dup3\n      add\n        /* \"#utility.yul\":4924:4945   */\n      mstore\n        /* \"#utility.yul\":4981:4983   */\n      0x23\n        /* \"#utility.yul\":4961:4979   */\n      0x24\n      dup3\n      add\n        /* \"#utility.yul\":4954:4984   */\n      mstore\n        /* \"#utility.yul\":5020:5054   */\n      0x45524332303a207472616e7366657220746f20746865207a65726f2061646472\n        /* \"#utility.yul\":5000:5018   */\n      0x44\n      dup3\n      add\n        /* \"#utility.yul\":4993:5055   */\n      mstore\n      shl(0xe8, 0x657373)\n        /* \"#utility.yul\":5071:5089   */\n      0x64\n      dup3\n      add\n        /* \"#utility.yul\":5064:5097   */\n      mstore\n        /* \"#utility.yul\":5114:5133   */\n      0x84\n      add\n        /* \"contracts2/tokens/LiquidityGeneratorToken.sol\":43548:43612  require(to != address(0), \"ERC20: transfer to the zero address\") */\n      tag_217\n        /* \"#utility.yul\":4914:5139   */\n      jump\n        /* \"contracts2/tokens/LiquidityGeneratorToken.sol\":43548:43612  require(to != address(0), \"ERC20: transfer to the zero address\") */\n    tag_403:\n        /* \"contracts2/tokens/LiquidityGeneratorToken.sol\":43639:43640  0 */\n      0x00\n        /* \"contracts2/tokens/LiquidityGeneratorToken.sol\":43630:43636  amount */\n      dup2\n        /* \"contracts2/tokens/LiquidityGeneratorToken.sol\":43630:43640  amount > 0 */\n      gt\n        /* \"contracts2/tokens/LiquidityGeneratorToken.sol\":43622:43686  require(amount > 0, \"Transfer amount must be greater than zero\") */\n      tag_406\n      jumpi\n      mload(0x40)\n      shl(0xe5, 0x461bcd)\n      dup2\n      mstore\n        /* \"#utility.yul\":7994:7996   */\n      0x20\n        /* \"contracts2/tokens/LiquidityGeneratorToken.sol\":43622:43686  require(amount > 0, \"Transfer amount must be greater than zero\") */\n      0x04\n      dup3\n      add\n        /* \"#utility.yul\":7976:7997   */\n      mstore\n        /* \"#utility.yul\":8033:8035   */\n      0x29\n        /* \"#utility.yul\":8013:8031   */\n      0x24\n      dup3\n      add\n        /* \"#utility.yul\":8006:8036   */\n      mstore\n        /* \"#utility.yul\":8072:8106   */\n      0x5472616e7366657220616d6f756e74206d757374206265206772656174657220\n        /* \"#utility.yul\":8052:8070   */\n      0x44\n      dup3\n      add\n        /* \"#utility.yul\":8045:8107   */\n      mstore\n      shl(0xb8, 0x7468616e207a65726f)\n        /* \"#utility.yul\":8123:8141   */\n      0x64\n      dup3\n      add\n        /* \"#utility.yul\":8116:8155   */\n      mstore\n        /* \"#utility.yul\":8172:8191   */\n      0x84\n      add\n        /* \"contracts2/tokens/LiquidityGeneratorToken.sol\":43622:43686  require(amount > 0, \"Transfer amount must be greater than zero\") */\n      tag_217\n        /* \"#utility.yul\":7966:8197   */\n      jump\n        /* \"contracts2/tokens/LiquidityGeneratorToken.sol\":43622:43686  require(amount > 0, \"Transfer amount must be greater than zero\") */\n    tag_406:\n        /* \"contracts2/tokens/LiquidityGeneratorToken.sol\":43975:44003  uint256 contractTokenBalance */\n      0x00\n        /* \"contracts2/tokens/LiquidityGeneratorToken.sol\":44006:44030  balanceOf(address(this)) */\n      tag_409\n        /* \"contracts2/tokens/LiquidityGeneratorToken.sol\":44024:44028  this */\n      address\n        /* \"contracts2/tokens/LiquidityGeneratorToken.sol\":44006:44015  balanceOf */\n      tag_155\n        /* \"contracts2/tokens/LiquidityGeneratorToken.sol\":44006:44030  balanceOf(address(this)) */\n      jump\t// in\n    tag_409:\n        /* \"contracts2/tokens/LiquidityGeneratorToken.sol\":44104:44133  numTokensSellToAddToLiquidity */\n      sload(0x16)\n        /* \"contracts2/tokens/LiquidityGeneratorToken.sol\":43975:44030  uint256 contractTokenBalance = balanceOf(address(this)) */\n      swap1\n      swap2\n      pop\n        /* \"contracts2/tokens/LiquidityGeneratorToken.sol\":44068:44133  contractTokenBalance >=... */\n      dup2\n      lt\n      dup1\n      iszero\n      swap1\n      dup2\n      swap1\n        /* \"contracts2/tokens/LiquidityGeneratorToken.sol\":44160:44212  overMinTokenBalance &&... */\n      tag_410\n      jumpi\n      pop\n        /* \"contracts2/tokens/LiquidityGeneratorToken.sol\":44196:44212  inSwapAndLiquify */\n      sload(0x15)\n      shl(0xa0, 0x01)\n      swap1\n      div\n      0xff\n      and\n        /* \"contracts2/tokens/LiquidityGeneratorToken.sol\":44195:44212  !inSwapAndLiquify */\n      iszero\n        /* \"contracts2/tokens/LiquidityGeneratorToken.sol\":44160:44212  overMinTokenBalance &&... */\n    tag_410:\n        /* \"contracts2/tokens/LiquidityGeneratorToken.sol\":44160:44249  overMinTokenBalance &&... */\n      dup1\n      iszero\n      tag_411\n      jumpi\n      pop\n        /* \"contracts2/tokens/LiquidityGeneratorToken.sol\":44236:44249  uniswapV2Pair */\n      sload(0x14)\n      sub(shl(0xa0, 0x01), 0x01)\n        /* \"contracts2/tokens/LiquidityGeneratorToken.sol\":44228:44249  from != uniswapV2Pair */\n      dup7\n      dup2\n      and\n        /* \"contracts2/tokens/LiquidityGeneratorToken.sol\":44236:44249  uniswapV2Pair */\n      swap2\n      and\n        /* \"contracts2/tokens/LiquidityGeneratorToken.sol\":44228:44249  from != uniswapV2Pair */\n      eq\n      iszero\n        /* \"contracts2/tokens/LiquidityGeneratorToken.sol\":44160:44249  overMinTokenBalance &&... */\n    tag_411:\n        /* \"contracts2/tokens/LiquidityGeneratorToken.sol\":44160:44286  overMinTokenBalance &&... */\n      dup1\n      iszero\n      tag_412\n      jumpi\n      pop\n        /* \"contracts2/tokens/LiquidityGeneratorToken.sol\":44265:44286  swapAndLiquifyEnabled */\n      sload(0x15)\n      shl(0xa8, 0x01)\n      swap1\n      div\n      0xff\n      and\n        /* \"contracts2/tokens/LiquidityGeneratorToken.sol\":44160:44286  overMinTokenBalance &&... */\n    tag_412:\n        /* \"contracts2/tokens/LiquidityGeneratorToken.sol\":44143:44452  if (... */\n      iszero\n      tag_414\n      jumpi\n        /* \"contracts2/tokens/LiquidityGeneratorToken.sol\":44334:44363  numTokensSellToAddToLiquidity */\n      sload(0x16)\n        /* \"contracts2/tokens/LiquidityGeneratorToken.sol\":44311:44363  contractTokenBalance = numTokensSellToAddToLiquidity */\n      swap2\n      pop\n        /* \"contracts2/tokens/LiquidityGeneratorToken.sol\":44405:44441  swapAndLiquify(contractTokenBalance) */\n      tag_414\n        /* \"contracts2/tokens/LiquidityGeneratorToken.sol\":44420:44440  contractTokenBalance */\n      dup3\n        /* \"contracts2/tokens/LiquidityGeneratorToken.sol\":44405:44419  swapAndLiquify */\n      tag_415\n        /* \"contracts2/tokens/LiquidityGeneratorToken.sol\":44405:44441  swapAndLiquify(contractTokenBalance) */\n      jump\t// in\n    tag_414:\n      sub(shl(0xa0, 0x01), 0x01)\n        /* \"contracts2/tokens/LiquidityGeneratorToken.sol\":44639:44663  _isExcludedFromFee[from] */\n      dup6\n      and\n        /* \"contracts2/tokens/LiquidityGeneratorToken.sol\":44522:44534  bool takeFee */\n      0x00\n        /* \"contracts2/tokens/LiquidityGeneratorToken.sol\":44639:44663  _isExcludedFromFee[from] */\n      swap1\n      dup2\n      mstore\n        /* \"contracts2/tokens/LiquidityGeneratorToken.sol\":44639:44657  _isExcludedFromFee */\n      0x04\n        /* \"contracts2/tokens/LiquidityGeneratorToken.sol\":44639:44663  _isExcludedFromFee[from] */\n      0x20\n      mstore\n      0x40\n      swap1\n      keccak256\n      sload\n        /* \"contracts2/tokens/LiquidityGeneratorToken.sol\":44537:44541  true */\n      0x01\n      swap1\n        /* \"contracts2/tokens/LiquidityGeneratorToken.sol\":44639:44663  _isExcludedFromFee[from] */\n      0xff\n      and\n      dup1\n        /* \"contracts2/tokens/LiquidityGeneratorToken.sol\":44639:44689  _isExcludedFromFee[from] || _isExcludedFromFee[to] */\n      tag_416\n      jumpi\n      pop\n      sub(shl(0xa0, 0x01), 0x01)\n        /* \"contracts2/tokens/LiquidityGeneratorToken.sol\":44667:44689  _isExcludedFromFee[to] */\n      dup6\n      and\n      0x00\n      swap1\n      dup2\n      mstore\n        /* \"contracts2/tokens/LiquidityGeneratorToken.sol\":44667:44685  _isExcludedFromFee */\n      0x04\n        /* \"contracts2/tokens/LiquidityGeneratorToken.sol\":44667:44689  _isExcludedFromFee[to] */\n      0x20\n      mstore\n      0x40\n      swap1\n      keccak256\n      sload\n      0xff\n      and\n        /* \"contracts2/tokens/LiquidityGeneratorToken.sol\":44639:44689  _isExcludedFromFee[from] || _isExcludedFromFee[to] */\n    tag_416:\n        /* \"contracts2/tokens/LiquidityGeneratorToken.sol\":44635:44731  if (_isExcludedFromFee[from] || _isExcludedFromFee[to]) {... */\n      iszero\n      tag_417\n      jumpi\n      pop\n        /* \"contracts2/tokens/LiquidityGeneratorToken.sol\":44715:44720  false */\n      0x00\n        /* \"contracts2/tokens/LiquidityGeneratorToken.sol\":44635:44731  if (_isExcludedFromFee[from] || _isExcludedFromFee[to]) {... */\n    tag_417:\n        /* \"contracts2/tokens/LiquidityGeneratorToken.sol\":44806:44847  _tokenTransfer(from, to, amount, takeFee) */\n      tag_418\n        /* \"contracts2/tokens/LiquidityGeneratorToken.sol\":44821:44825  from */\n      dup7\n        /* \"contracts2/tokens/LiquidityGeneratorToken.sol\":44827:44829  to */\n      dup7\n        /* \"contracts2/tokens/LiquidityGeneratorToken.sol\":44831:44837  amount */\n      dup7\n        /* \"contracts2/tokens/LiquidityGeneratorToken.sol\":44839:44846  takeFee */\n      dup5\n        /* \"contracts2/tokens/LiquidityGeneratorToken.sol\":44806:44820  _tokenTransfer */\n      tag_419\n        /* \"contracts2/tokens/LiquidityGeneratorToken.sol\":44806:44847  _tokenTransfer(from, to, amount, takeFee) */\n      jump\t// in\n    tag_418:\n        /* \"contracts2/tokens/LiquidityGeneratorToken.sol\":43361:44854  function _transfer(... */\n      pop\n      pop\n      pop\n      pop\n      pop\n      pop\n      jump\t// out\n        /* \"contracts2/tokens/LiquidityGeneratorToken.sol\":10816:11047  function sub(... */\n    tag_246:\n        /* \"contracts2/tokens/LiquidityGeneratorToken.sol\":10932:10939  uint256 */\n      0x00\n        /* \"contracts2/tokens/LiquidityGeneratorToken.sol\":10991:11003  errorMessage */\n      dup2\n        /* \"contracts2/tokens/LiquidityGeneratorToken.sol\":10983:10989  b <= a */\n      dup5\n      dup5\n      gt\n      iszero\n        /* \"contracts2/tokens/LiquidityGeneratorToken.sol\":10975:11004  require(b <= a, errorMessage) */\n      tag_421\n      jumpi\n      mload(0x40)\n      shl(0xe5, 0x461bcd)\n      dup2\n      mstore\n      0x04\n      add\n      tag_217\n      swap2\n      swap1\n      tag_56\n      jump\t// in\n    tag_421:\n      pop\n      pop\n      pop\n        /* \"contracts2/tokens/LiquidityGeneratorToken.sol\":11025:11030  a - b */\n      swap1\n      sub\n      swap1\n        /* \"contracts2/tokens/LiquidityGeneratorToken.sol\":10816:11047  function sub(... */\n      jump\t// out\n        /* \"contracts2/tokens/LiquidityGeneratorToken.sol\":40203:40364  function _getRate() private view returns (uint256) {... */\n    tag_252:\n        /* \"contracts2/tokens/LiquidityGeneratorToken.sol\":40245:40252  uint256 */\n      0x00\n        /* \"contracts2/tokens/LiquidityGeneratorToken.sol\":40265:40280  uint256 rSupply */\n      dup1\n        /* \"contracts2/tokens/LiquidityGeneratorToken.sol\":40282:40297  uint256 tSupply */\n      0x00\n        /* \"contracts2/tokens/LiquidityGeneratorToken.sol\":40301:40320  _getCurrentSupply() */\n      tag_424\n        /* \"contracts2/tokens/LiquidityGeneratorToken.sol\":40301:40318  _getCurrentSupply */\n      tag_425\n        /* \"contracts2/tokens/LiquidityGeneratorToken.sol\":40301:40320  _getCurrentSupply() */\n      jump\t// in\n    tag_424:\n        /* \"contracts2/tokens/LiquidityGeneratorToken.sol\":40264:40320  (uint256 rSupply, uint256 tSupply) = _getCurrentSupply() */\n      swap1\n      swap3\n      pop\n      swap1\n      pop\n        /* \"contracts2/tokens/LiquidityGeneratorToken.sol\":40337:40357  rSupply.div(tSupply) */\n      tag_426\n        /* \"contracts2/tokens/LiquidityGeneratorToken.sol\":40264:40320  (uint256 rSupply, uint256 tSupply) = _getCurrentSupply() */\n      dup3\n      dup3\n        /* \"contracts2/tokens/LiquidityGeneratorToken.sol\":40337:40348  rSupply.div */\n      tag_211\n        /* \"contracts2/tokens/LiquidityGeneratorToken.sol\":40337:40357  rSupply.div(tSupply) */\n      jump\t// in\n    tag_426:\n        /* \"contracts2/tokens/LiquidityGeneratorToken.sol\":40330:40357  return rSupply.div(tSupply) */\n      swap3\n      pop\n      pop\n      pop\n        /* \"contracts2/tokens/LiquidityGeneratorToken.sol\":40203:40364  function _getRate() private view returns (uint256) {... */\n      swap1\n      jump\t// out\n        /* \"contracts2/tokens/LiquidityGeneratorToken.sol\":8612:8708  function add(uint256 a, uint256 b) internal pure returns (uint256) {... */\n    tag_285:\n        /* \"contracts2/tokens/LiquidityGeneratorToken.sol\":8670:8677  uint256 */\n      0x00\n        /* \"contracts2/tokens/LiquidityGeneratorToken.sol\":8696:8701  a + b */\n      tag_253\n        /* \"contracts2/tokens/LiquidityGeneratorToken.sol\":8700:8701  b */\n      dup3\n        /* \"contracts2/tokens/LiquidityGeneratorToken.sol\":8696:8697  a */\n      dup5\n        /* \"contracts2/tokens/LiquidityGeneratorToken.sol\":8696:8701  a + b */\n      tag_221\n      jump\t// in\n        /* \"contracts2/tokens/LiquidityGeneratorToken.sol\":38196:39002  function _getValues(uint256 tAmount)... */\n    tag_292:\n        /* \"contracts2/tokens/LiquidityGeneratorToken.sol\":38292:38299  uint256 */\n      0x00\n        /* \"contracts2/tokens/LiquidityGeneratorToken.sol\":38313:38320  uint256 */\n      dup1\n        /* \"contracts2/tokens/LiquidityGeneratorToken.sol\":38334:38341  uint256 */\n      0x00\n        /* \"contracts2/tokens/LiquidityGeneratorToken.sol\":38355:38362  uint256 */\n      dup1\n        /* \"contracts2/tokens/LiquidityGeneratorToken.sol\":38376:38383  uint256 */\n      0x00\n        /* \"contracts2/tokens/LiquidityGeneratorToken.sol\":38397:38404  uint256 */\n      dup1\n        /* \"contracts2/tokens/LiquidityGeneratorToken.sol\":38418:38425  uint256 */\n      0x00\n        /* \"contracts2/tokens/LiquidityGeneratorToken.sol\":38464:38487  uint256 tTransferAmount */\n      dup1\n        /* \"contracts2/tokens/LiquidityGeneratorToken.sol\":38501:38513  uint256 tFee */\n      0x00\n        /* \"contracts2/tokens/LiquidityGeneratorToken.sol\":38527:38545  uint256 tLiquidity */\n      dup1\n        /* \"contracts2/tokens/LiquidityGeneratorToken.sol\":38559:38575  uint256 tCharity */\n      0x00\n        /* \"contracts2/tokens/LiquidityGeneratorToken.sol\":38588:38608  _getTValues(tAmount) */\n      tag_430\n        /* \"contracts2/tokens/LiquidityGeneratorToken.sol\":38600:38607  tAmount */\n      dup13\n        /* \"contracts2/tokens/LiquidityGeneratorToken.sol\":38588:38599  _getTValues */\n      tag_431\n        /* \"contracts2/tokens/LiquidityGeneratorToken.sol\":38588:38608  _getTValues(tAmount) */\n      jump\t// in\n    tag_430:\n        /* \"contracts2/tokens/LiquidityGeneratorToken.sol\":38450:38608  (... */\n      swap4\n      pop\n      swap4\n      pop\n      swap4\n      pop\n      swap4\n      pop\n        /* \"contracts2/tokens/LiquidityGeneratorToken.sol\":38619:38634  uint256 rAmount */\n      0x00\n        /* \"contracts2/tokens/LiquidityGeneratorToken.sol\":38636:38659  uint256 rTransferAmount */\n      dup1\n        /* \"contracts2/tokens/LiquidityGeneratorToken.sol\":38661:38673  uint256 rFee */\n      0x00\n        /* \"contracts2/tokens/LiquidityGeneratorToken.sol\":38677:38807  _getRValues(... */\n      tag_432\n        /* \"contracts2/tokens/LiquidityGeneratorToken.sol\":38702:38709  tAmount */\n      dup16\n        /* \"contracts2/tokens/LiquidityGeneratorToken.sol\":38723:38727  tFee */\n      dup8\n        /* \"contracts2/tokens/LiquidityGeneratorToken.sol\":38741:38751  tLiquidity */\n      dup8\n        /* \"contracts2/tokens/LiquidityGeneratorToken.sol\":38765:38773  tCharity */\n      dup8\n        /* \"contracts2/tokens/LiquidityGeneratorToken.sol\":38787:38797  _getRate() */\n      tag_433\n        /* \"contracts2/tokens/LiquidityGeneratorToken.sol\":38787:38795  _getRate */\n      tag_252\n        /* \"contracts2/tokens/LiquidityGeneratorToken.sol\":38787:38797  _getRate() */\n      jump\t// in\n    tag_433:\n        /* \"contracts2/tokens/LiquidityGeneratorToken.sol\":38677:38688  _getRValues */\n      tag_434\n        /* \"contracts2/tokens/LiquidityGeneratorToken.sol\":38677:38807  _getRValues(... */\n      jump\t// in\n    tag_432:\n        /* \"contracts2/tokens/LiquidityGeneratorToken.sol\":38618:38807  (uint256 rAmount, uint256 rTransferAmount, uint256 rFee) = _getRValues(... */\n      swap2\n      swap16\n      pop\n      swap14\n      pop\n      swap12\n      pop\n        /* \"contracts2/tokens/LiquidityGeneratorToken.sol\":38906:38921  tTransferAmount */\n      swap6\n      swap10\n      pop\n        /* \"contracts2/tokens/LiquidityGeneratorToken.sol\":38935:38939  tFee */\n      swap4\n      swap8\n      pop\n        /* \"contracts2/tokens/LiquidityGeneratorToken.sol\":38953:38963  tLiquidity */\n      swap2\n      swap6\n      pop\n        /* \"contracts2/tokens/LiquidityGeneratorToken.sol\":38977:38985  tCharity */\n      swap4\n      pop\n      pop\n      pop\n      pop\n        /* \"contracts2/tokens/LiquidityGeneratorToken.sol\":38196:39002  function _getValues(uint256 tAmount)... */\n      swap2\n      swap4\n      swap6\n      swap8\n      swap1\n      swap3\n      swap5\n      swap7\n      pop\n      jump\t// out\n        /* \"contracts2/tokens/LiquidityGeneratorToken.sol\":8979:9075  function sub(uint256 a, uint256 b) internal pure returns (uint256) {... */\n    tag_294:\n        /* \"contracts2/tokens/LiquidityGeneratorToken.sol\":9037:9044  uint256 */\n      0x00\n        /* \"contracts2/tokens/LiquidityGeneratorToken.sol\":9063:9068  a - b */\n      tag_253\n        /* \"contracts2/tokens/LiquidityGeneratorToken.sol\":9067:9068  b */\n      dup3\n        /* \"contracts2/tokens/LiquidityGeneratorToken.sol\":9063:9064  a */\n      dup5\n        /* \"contracts2/tokens/LiquidityGeneratorToken.sol\":9063:9068  a - b */\n      tag_271\n      jump\t// in\n        /* \"contracts2/tokens/LiquidityGeneratorToken.sol\":5726:5895  function _setOwner(address newOwner) private {... */\n    tag_333:\n        /* \"contracts2/tokens/LiquidityGeneratorToken.sol\":5781:5797  address oldOwner */\n      0x00\n        /* \"contracts2/tokens/LiquidityGeneratorToken.sol\":5800:5806  _owner */\n      dup1\n      sload\n      sub(shl(0xa0, 0x01), 0x01)\n        /* \"contracts2/tokens/LiquidityGeneratorToken.sol\":5816:5833  _owner = newOwner */\n      dup4\n      dup2\n      and\n      not(sub(shl(0xa0, 0x01), 0x01))\n      dup4\n      and\n      dup2\n      or\n      dup5\n      sstore\n        /* \"contracts2/tokens/LiquidityGeneratorToken.sol\":5848:5888  OwnershipTransferred(oldOwner, newOwner) */\n      mload(0x40)\n        /* \"contracts2/tokens/LiquidityGeneratorToken.sol\":5800:5806  _owner */\n      swap2\n      swap1\n      swap3\n      and\n      swap3\n      dup4\n      swap2\n        /* \"contracts2/tokens/LiquidityGeneratorToken.sol\":5848:5888  OwnershipTransferred(oldOwner, newOwner) */\n      0x8be0079c531659141344cd1fd0a4f28419497f9722a3daafe3b4186f6b6457e0\n      swap2\n        /* \"contracts2/tokens/LiquidityGeneratorToken.sol\":5781:5797  address oldOwner */\n      swap1\n        /* \"contracts2/tokens/LiquidityGeneratorToken.sol\":5848:5888  OwnershipTransferred(oldOwner, newOwner) */\n      log3\n        /* \"contracts2/tokens/LiquidityGeneratorToken.sol\":5726:5895  function _setOwner(address newOwner) private {... */\n      pop\n      pop\n      jump\t// out\n        /* \"contracts2/tokens/LiquidityGeneratorToken.sol\":44860:45816  function swapAndLiquify(uint256 contractTokenBalance) private lockTheSwap {... */\n    tag_415:\n        /* \"contracts2/tokens/LiquidityGeneratorToken.sol\":29310:29326  inSwapAndLiquify */\n      0x15\n        /* \"contracts2/tokens/LiquidityGeneratorToken.sol\":29310:29333  inSwapAndLiquify = true */\n      dup1\n      sload\n      not(shl(0xa0, 0xff))\n      and\n      shl(0xa0, 0x01)\n      or\n      swap1\n      sstore\n      0x00\n        /* \"contracts2/tokens/LiquidityGeneratorToken.sol\":45009:45036  contractTokenBalance.div(2) */\n      tag_440\n        /* \"contracts2/tokens/LiquidityGeneratorToken.sol\":45009:45029  contractTokenBalance */\n      dup3\n        /* \"contracts2/tokens/LiquidityGeneratorToken.sol\":45034:45035  2 */\n      0x02\n        /* \"contracts2/tokens/LiquidityGeneratorToken.sol\":45009:45033  contractTokenBalance.div */\n      tag_211\n        /* \"contracts2/tokens/LiquidityGeneratorToken.sol\":45009:45036  contractTokenBalance.div(2) */\n      jump\t// in\n    tag_440:\n        /* \"contracts2/tokens/LiquidityGeneratorToken.sol\":44994:45036  uint256 half = contractTokenBalance.div(2) */\n      swap1\n      pop\n        /* \"contracts2/tokens/LiquidityGeneratorToken.sol\":45046:45063  uint256 otherHalf */\n      0x00\n        /* \"contracts2/tokens/LiquidityGeneratorToken.sol\":45066:45096  contractTokenBalance.sub(half) */\n      tag_441\n        /* \"contracts2/tokens/LiquidityGeneratorToken.sol\":45066:45086  contractTokenBalance */\n      dup4\n        /* \"contracts2/tokens/LiquidityGeneratorToken.sol\":44994:45036  uint256 half = contractTokenBalance.div(2) */\n      dup4\n        /* \"contracts2/tokens/LiquidityGeneratorToken.sol\":45066:45090  contractTokenBalance.sub */\n      tag_294\n        /* \"contracts2/tokens/LiquidityGeneratorToken.sol\":45066:45096  contractTokenBalance.sub(half) */\n      jump\t// in\n    tag_441:\n        /* \"contracts2/tokens/LiquidityGeneratorToken.sol\":45046:45096  uint256 otherHalf = contractTokenBalance.sub(half) */\n      swap1\n      pop\n        /* \"contracts2/tokens/LiquidityGeneratorToken.sol\":45393:45414  address(this).balance */\n      selfbalance\n        /* \"contracts2/tokens/LiquidityGeneratorToken.sol\":45456:45478  swapTokensForEth(half) */\n      tag_442\n        /* \"contracts2/tokens/LiquidityGeneratorToken.sol\":45473:45477  half */\n      dup4\n        /* \"contracts2/tokens/LiquidityGeneratorToken.sol\":45456:45472  swapTokensForEth */\n      tag_443\n        /* \"contracts2/tokens/LiquidityGeneratorToken.sol\":45456:45478  swapTokensForEth(half) */\n      jump\t// in\n    tag_442:\n        /* \"contracts2/tokens/LiquidityGeneratorToken.sol\":45606:45624  uint256 newBalance */\n      0x00\n        /* \"contracts2/tokens/LiquidityGeneratorToken.sol\":45627:45668  address(this).balance.sub(initialBalance) */\n      tag_444\n        /* \"contracts2/tokens/LiquidityGeneratorToken.sol\":45627:45648  address(this).balance */\n      selfbalance\n        /* \"contracts2/tokens/LiquidityGeneratorToken.sol\":45653:45667  initialBalance */\n      dup4\n        /* \"contracts2/tokens/LiquidityGeneratorToken.sol\":45627:45652  address(this).balance.sub */\n      tag_294\n        /* \"contracts2/tokens/LiquidityGeneratorToken.sol\":45627:45668  address(this).balance.sub(initialBalance) */\n      jump\t// in\n    tag_444:\n        /* \"contracts2/tokens/LiquidityGeneratorToken.sol\":45606:45668  uint256 newBalance = address(this).balance.sub(initialBalance) */\n      swap1\n      pop\n        /* \"contracts2/tokens/LiquidityGeneratorToken.sol\":45715:45750  addLiquidity(otherHalf, newBalance) */\n      tag_445\n        /* \"contracts2/tokens/LiquidityGeneratorToken.sol\":45728:45737  otherHalf */\n      dup4\n        /* \"contracts2/tokens/LiquidityGeneratorToken.sol\":45739:45749  newBalance */\n      dup3\n        /* \"contracts2/tokens/LiquidityGeneratorToken.sol\":45715:45727  addLiquidity */\n      tag_446\n        /* \"contracts2/tokens/LiquidityGeneratorToken.sol\":45715:45750  addLiquidity(otherHalf, newBalance) */\n      jump\t// in\n    tag_445:\n        /* \"contracts2/tokens/LiquidityGeneratorToken.sol\":45766:45809  SwapAndLiquify(half, newBalance, otherHalf) */\n      0x40\n      dup1\n      mload\n        /* \"#utility.yul\":10798:10823   */\n      dup6\n      dup2\n      mstore\n        /* \"#utility.yul\":10854:10856   */\n      0x20\n        /* \"#utility.yul\":10839:10857   */\n      dup2\n      add\n        /* \"#utility.yul\":10832:10866   */\n      dup4\n      swap1\n      mstore\n        /* \"#utility.yul\":10882:10900   */\n      swap1\n      dup2\n      add\n        /* \"#utility.yul\":10875:10909   */\n      dup5\n      swap1\n      mstore\n        /* \"contracts2/tokens/LiquidityGeneratorToken.sol\":45766:45809  SwapAndLiquify(half, newBalance, otherHalf) */\n      0x17bbfb9a6069321b6ded73bd96327c9e6b7212a5cd51ff219cd61370acafb561\n      swap1\n        /* \"#utility.yul\":10786:10788   */\n      0x60\n        /* \"#utility.yul\":10771:10789   */\n      add\n        /* \"contracts2/tokens/LiquidityGeneratorToken.sol\":45766:45809  SwapAndLiquify(half, newBalance, otherHalf) */\n      mload(0x40)\n      dup1\n      swap2\n      sub\n      swap1\n      log1\n      pop\n      pop\n        /* \"contracts2/tokens/LiquidityGeneratorToken.sol\":29354:29370  inSwapAndLiquify */\n      0x15\n        /* \"contracts2/tokens/LiquidityGeneratorToken.sol\":29354:29378  inSwapAndLiquify = false */\n      dup1\n      sload\n      not(shl(0xa0, 0xff))\n      and\n      swap1\n      sstore\n      pop\n      pop\n      pop\n        /* \"contracts2/tokens/LiquidityGeneratorToken.sol\":44860:45816  function swapAndLiquify(uint256 contractTokenBalance) private lockTheSwap {... */\n      jump\t// out\n        /* \"contracts2/tokens/LiquidityGeneratorToken.sol\":46979:47796  function _tokenTransfer(... */\n    tag_419:\n        /* \"contracts2/tokens/LiquidityGeneratorToken.sol\":47129:47136  takeFee */\n      dup1\n        /* \"contracts2/tokens/LiquidityGeneratorToken.sol\":47124:47152  if (!takeFee) removeAllFee() */\n      tag_451\n      jumpi\n        /* \"contracts2/tokens/LiquidityGeneratorToken.sol\":47138:47152  removeAllFee() */\n      tag_451\n        /* \"contracts2/tokens/LiquidityGeneratorToken.sol\":47138:47150  removeAllFee */\n      tag_452\n        /* \"contracts2/tokens/LiquidityGeneratorToken.sol\":47138:47152  removeAllFee() */\n      jump\t// in\n    tag_451:\n      sub(shl(0xa0, 0x01), 0x01)\n        /* \"contracts2/tokens/LiquidityGeneratorToken.sol\":47167:47186  _isExcluded[sender] */\n      dup5\n      and\n      0x00\n      swap1\n      dup2\n      mstore\n        /* \"contracts2/tokens/LiquidityGeneratorToken.sol\":47167:47178  _isExcluded */\n      0x05\n        /* \"contracts2/tokens/LiquidityGeneratorToken.sol\":47167:47186  _isExcluded[sender] */\n      0x20\n      mstore\n      0x40\n      swap1\n      keccak256\n      sload\n      0xff\n      and\n        /* \"contracts2/tokens/LiquidityGeneratorToken.sol\":47167:47213  _isExcluded[sender] && !_isExcluded[recipient] */\n      dup1\n      iszero\n      tag_453\n      jumpi\n      pop\n      sub(shl(0xa0, 0x01), 0x01)\n        /* \"contracts2/tokens/LiquidityGeneratorToken.sol\":47191:47213  _isExcluded[recipient] */\n      dup4\n      and\n      0x00\n      swap1\n      dup2\n      mstore\n        /* \"contracts2/tokens/LiquidityGeneratorToken.sol\":47191:47202  _isExcluded */\n      0x05\n        /* \"contracts2/tokens/LiquidityGeneratorToken.sol\":47191:47213  _isExcluded[recipient] */\n      0x20\n      mstore\n      0x40\n      swap1\n      keccak256\n      sload\n      0xff\n      and\n        /* \"contracts2/tokens/LiquidityGeneratorToken.sol\":47190:47213  !_isExcluded[recipient] */\n      iszero\n        /* \"contracts2/tokens/LiquidityGeneratorToken.sol\":47167:47213  _isExcluded[sender] && !_isExcluded[recipient] */\n    tag_453:\n        /* \"contracts2/tokens/LiquidityGeneratorToken.sol\":47163:47750  if (_isExcluded[sender] && !_isExcluded[recipient]) {... */\n      iszero\n      tag_454\n      jumpi\n        /* \"contracts2/tokens/LiquidityGeneratorToken.sol\":47229:47277  _transferFromExcluded(sender, recipient, amount) */\n      tag_455\n        /* \"contracts2/tokens/LiquidityGeneratorToken.sol\":47251:47257  sender */\n      dup5\n        /* \"contracts2/tokens/LiquidityGeneratorToken.sol\":47259:47268  recipient */\n      dup5\n        /* \"contracts2/tokens/LiquidityGeneratorToken.sol\":47270:47276  amount */\n      dup5\n        /* \"contracts2/tokens/LiquidityGeneratorToken.sol\":47229:47250  _transferFromExcluded */\n      tag_456\n        /* \"contracts2/tokens/LiquidityGeneratorToken.sol\":47229:47277  _transferFromExcluded(sender, recipient, amount) */\n      jump\t// in\n    tag_455:\n        /* \"contracts2/tokens/LiquidityGeneratorToken.sol\":47163:47750  if (_isExcluded[sender] && !_isExcluded[recipient]) {... */\n      jump(tag_473)\n    tag_454:\n      sub(shl(0xa0, 0x01), 0x01)\n        /* \"contracts2/tokens/LiquidityGeneratorToken.sol\":47299:47318  _isExcluded[sender] */\n      dup5\n      and\n      0x00\n      swap1\n      dup2\n      mstore\n        /* \"contracts2/tokens/LiquidityGeneratorToken.sol\":47299:47310  _isExcluded */\n      0x05\n        /* \"contracts2/tokens/LiquidityGeneratorToken.sol\":47299:47318  _isExcluded[sender] */\n      0x20\n      mstore\n      0x40\n      swap1\n      keccak256\n      sload\n      0xff\n      and\n        /* \"contracts2/tokens/LiquidityGeneratorToken.sol\":47298:47318  !_isExcluded[sender] */\n      iszero\n        /* \"contracts2/tokens/LiquidityGeneratorToken.sol\":47298:47344  !_isExcluded[sender] && _isExcluded[recipient] */\n      dup1\n      iszero\n      tag_458\n      jumpi\n      pop\n      sub(shl(0xa0, 0x01), 0x01)\n        /* \"contracts2/tokens/LiquidityGeneratorToken.sol\":47322:47344  _isExcluded[recipient] */\n      dup4\n      and\n      0x00\n      swap1\n      dup2\n      mstore\n        /* \"contracts2/tokens/LiquidityGeneratorToken.sol\":47322:47333  _isExcluded */\n      0x05\n        /* \"contracts2/tokens/LiquidityGeneratorToken.sol\":47322:47344  _isExcluded[recipient] */\n      0x20\n      mstore\n      0x40\n      swap1\n      keccak256\n      sload\n      0xff\n      and\n        /* \"contracts2/tokens/LiquidityGeneratorToken.sol\":47298:47344  !_isExcluded[sender] && _isExcluded[recipient] */\n    tag_458:\n        /* \"contracts2/tokens/LiquidityGeneratorToken.sol\":47294:47750  if (!_isExcluded[sender] && _isExcluded[recipient]) {... */\n      iszero\n      tag_459\n      jumpi\n        /* \"contracts2/tokens/LiquidityGeneratorToken.sol\":47360:47406  _transferToExcluded(sender, recipient, amount) */\n      tag_455\n        /* \"contracts2/tokens/LiquidityGeneratorToken.sol\":47380:47386  sender */\n      dup5\n        /* \"contracts2/tokens/LiquidityGeneratorToken.sol\":47388:47397  recipient */\n      dup5\n        /* \"contracts2/tokens/LiquidityGeneratorToken.sol\":47399:47405  amount */\n      dup5\n        /* \"contracts2/tokens/LiquidityGeneratorToken.sol\":47360:47379  _transferToExcluded */\n      tag_461\n        /* \"contracts2/tokens/LiquidityGeneratorToken.sol\":47360:47406  _transferToExcluded(sender, recipient, amount) */\n      jump\t// in\n        /* \"contracts2/tokens/LiquidityGeneratorToken.sol\":47294:47750  if (!_isExcluded[sender] && _isExcluded[recipient]) {... */\n    tag_459:\n      sub(shl(0xa0, 0x01), 0x01)\n        /* \"contracts2/tokens/LiquidityGeneratorToken.sol\":47428:47447  _isExcluded[sender] */\n      dup5\n      and\n      0x00\n      swap1\n      dup2\n      mstore\n        /* \"contracts2/tokens/LiquidityGeneratorToken.sol\":47428:47439  _isExcluded */\n      0x05\n        /* \"contracts2/tokens/LiquidityGeneratorToken.sol\":47428:47447  _isExcluded[sender] */\n      0x20\n      mstore\n      0x40\n      swap1\n      keccak256\n      sload\n      0xff\n      and\n        /* \"contracts2/tokens/LiquidityGeneratorToken.sol\":47427:47447  !_isExcluded[sender] */\n      iszero\n        /* \"contracts2/tokens/LiquidityGeneratorToken.sol\":47427:47474  !_isExcluded[sender] && !_isExcluded[recipient] */\n      dup1\n      iszero\n      tag_463\n      jumpi\n      pop\n      sub(shl(0xa0, 0x01), 0x01)\n        /* \"contracts2/tokens/LiquidityGeneratorToken.sol\":47452:47474  _isExcluded[recipient] */\n      dup4\n      and\n      0x00\n      swap1\n      dup2\n      mstore\n        /* \"contracts2/tokens/LiquidityGeneratorToken.sol\":47452:47463  _isExcluded */\n      0x05\n        /* \"contracts2/tokens/LiquidityGeneratorToken.sol\":47452:47474  _isExcluded[recipient] */\n      0x20\n      mstore\n      0x40\n      swap1\n      keccak256\n      sload\n      0xff\n      and\n        /* \"contracts2/tokens/LiquidityGeneratorToken.sol\":47451:47474  !_isExcluded[recipient] */\n      iszero\n        /* \"contracts2/tokens/LiquidityGeneratorToken.sol\":47427:47474  !_isExcluded[sender] && !_isExcluded[recipient] */\n    tag_463:\n        /* \"contracts2/tokens/LiquidityGeneratorToken.sol\":47423:47750  if (!_isExcluded[sender] && !_isExcluded[recipient]) {... */\n      iszero\n      tag_464\n      jumpi\n        /* \"contracts2/tokens/LiquidityGeneratorToken.sol\":47490:47534  _transferStandard(sender, recipient, amount) */\n      tag_455\n        /* \"contracts2/tokens/LiquidityGeneratorToken.sol\":47508:47514  sender */\n      dup5\n        /* \"contracts2/tokens/LiquidityGeneratorToken.sol\":47516:47525  recipient */\n      dup5\n        /* \"contracts2/tokens/LiquidityGeneratorToken.sol\":47527:47533  amount */\n      dup5\n        /* \"contracts2/tokens/LiquidityGeneratorToken.sol\":47490:47507  _transferStandard */\n      tag_466\n        /* \"contracts2/tokens/LiquidityGeneratorToken.sol\":47490:47534  _transferStandard(sender, recipient, amount) */\n      jump\t// in\n        /* \"contracts2/tokens/LiquidityGeneratorToken.sol\":47423:47750  if (!_isExcluded[sender] && !_isExcluded[recipient]) {... */\n    tag_464:\n      sub(shl(0xa0, 0x01), 0x01)\n        /* \"contracts2/tokens/LiquidityGeneratorToken.sol\":47555:47574  _isExcluded[sender] */\n      dup5\n      and\n      0x00\n      swap1\n      dup2\n      mstore\n        /* \"contracts2/tokens/LiquidityGeneratorToken.sol\":47555:47566  _isExcluded */\n      0x05\n        /* \"contracts2/tokens/LiquidityGeneratorToken.sol\":47555:47574  _isExcluded[sender] */\n      0x20\n      mstore\n      0x40\n      swap1\n      keccak256\n      sload\n      0xff\n      and\n        /* \"contracts2/tokens/LiquidityGeneratorToken.sol\":47555:47600  _isExcluded[sender] && _isExcluded[recipient] */\n      dup1\n      iszero\n      tag_468\n      jumpi\n      pop\n      sub(shl(0xa0, 0x01), 0x01)\n        /* \"contracts2/tokens/LiquidityGeneratorToken.sol\":47578:47600  _isExcluded[recipient] */\n      dup4\n      and\n      0x00\n      swap1\n      dup2\n      mstore\n        /* \"contracts2/tokens/LiquidityGeneratorToken.sol\":47578:47589  _isExcluded */\n      0x05\n        /* \"contracts2/tokens/LiquidityGeneratorToken.sol\":47578:47600  _isExcluded[recipient] */\n      0x20\n      mstore\n      0x40\n      swap1\n      keccak256\n      sload\n      0xff\n      and\n        /* \"contracts2/tokens/LiquidityGeneratorToken.sol\":47555:47600  _isExcluded[sender] && _isExcluded[recipient] */\n    tag_468:\n        /* \"contracts2/tokens/LiquidityGeneratorToken.sol\":47551:47750  if (_isExcluded[sender] && _isExcluded[recipient]) {... */\n      iszero\n      tag_469\n      jumpi\n        /* \"contracts2/tokens/LiquidityGeneratorToken.sol\":47616:47664  _transferBothExcluded(sender, recipient, amount) */\n      tag_455\n        /* \"contracts2/tokens/LiquidityGeneratorToken.sol\":47638:47644  sender */\n      dup5\n        /* \"contracts2/tokens/LiquidityGeneratorToken.sol\":47646:47655  recipient */\n      dup5\n        /* \"contracts2/tokens/LiquidityGeneratorToken.sol\":47657:47663  amount */\n      dup5\n        /* \"contracts2/tokens/LiquidityGeneratorToken.sol\":47616:47637  _transferBothExcluded */\n      tag_471\n        /* \"contracts2/tokens/LiquidityGeneratorToken.sol\":47616:47664  _transferBothExcluded(sender, recipient, amount) */\n      jump\t// in\n        /* \"contracts2/tokens/LiquidityGeneratorToken.sol\":47551:47750  if (_isExcluded[sender] && _isExcluded[recipient]) {... */\n    tag_469:\n        /* \"contracts2/tokens/LiquidityGeneratorToken.sol\":47695:47739  _transferStandard(sender, recipient, amount) */\n      tag_473\n        /* \"contracts2/tokens/LiquidityGeneratorToken.sol\":47713:47719  sender */\n      dup5\n        /* \"contracts2/tokens/LiquidityGeneratorToken.sol\":47721:47730  recipient */\n      dup5\n        /* \"contracts2/tokens/LiquidityGeneratorToken.sol\":47732:47738  amount */\n      dup5\n        /* \"contracts2/tokens/LiquidityGeneratorToken.sol\":47695:47712  _transferStandard */\n      tag_466\n        /* \"contracts2/tokens/LiquidityGeneratorToken.sol\":47695:47739  _transferStandard(sender, recipient, amount) */\n      jump\t// in\n    tag_473:\n        /* \"contracts2/tokens/LiquidityGeneratorToken.sol\":47765:47772  takeFee */\n      dup1\n        /* \"contracts2/tokens/LiquidityGeneratorToken.sol\":47760:47789  if (!takeFee) restoreAllFee() */\n      tag_475\n      jumpi\n        /* \"contracts2/tokens/LiquidityGeneratorToken.sol\":47774:47789  restoreAllFee() */\n      tag_475\n        /* \"contracts2/tokens/LiquidityGeneratorToken.sol\":42748:42763  _previousTaxFee */\n      sload(0x0e)\n        /* \"contracts2/tokens/LiquidityGeneratorToken.sol\":42738:42745  _taxFee */\n      0x0d\n        /* \"contracts2/tokens/LiquidityGeneratorToken.sol\":42738:42763  _taxFee = _previousTaxFee */\n      sstore\n        /* \"contracts2/tokens/LiquidityGeneratorToken.sol\":42789:42810  _previousLiquidityFee */\n      sload(0x10)\n        /* \"contracts2/tokens/LiquidityGeneratorToken.sol\":42773:42786  _liquidityFee */\n      0x0f\n        /* \"contracts2/tokens/LiquidityGeneratorToken.sol\":42773:42810  _liquidityFee = _previousLiquidityFee */\n      sstore\n        /* \"contracts2/tokens/LiquidityGeneratorToken.sol\":42834:42853  _previousCharityFee */\n      sload(0x12)\n        /* \"contracts2/tokens/LiquidityGeneratorToken.sol\":42820:42831  _charityFee */\n      0x11\n        /* \"contracts2/tokens/LiquidityGeneratorToken.sol\":42820:42853  _charityFee = _previousCharityFee */\n      sstore\n        /* \"contracts2/tokens/LiquidityGeneratorToken.sol\":42695:42860  function restoreAllFee() private {... */\n      jump\n        /* \"contracts2/tokens/LiquidityGeneratorToken.sol\":47774:47789  restoreAllFee() */\n    tag_475:\n        /* \"contracts2/tokens/LiquidityGeneratorToken.sol\":46979:47796  function _tokenTransfer(... */\n      pop\n      pop\n      pop\n      pop\n      jump\t// out\n        /* \"contracts2/tokens/LiquidityGeneratorToken.sol\":40370:40962  function _getCurrentSupply() private view returns (uint256, uint256) {... */\n    tag_425:\n        /* \"contracts2/tokens/LiquidityGeneratorToken.sol\":40467:40474  _rTotal */\n      sload(0x08)\n        /* \"contracts2/tokens/LiquidityGeneratorToken.sol\":40502:40509  _tTotal */\n      sload(0x07)\n        /* \"contracts2/tokens/LiquidityGeneratorToken.sol\":40421:40428  uint256 */\n      0x00\n      swap2\n      dup3\n      swap2\n      dup3\n        /* \"contracts2/tokens/LiquidityGeneratorToken.sol\":40519:40850  for (uint256 i = 0; i < _excluded.length; i++) {... */\n    tag_478:\n        /* \"contracts2/tokens/LiquidityGeneratorToken.sol\":40543:40552  _excluded */\n      0x06\n        /* \"contracts2/tokens/LiquidityGeneratorToken.sol\":40543:40559  _excluded.length */\n      sload\n        /* \"contracts2/tokens/LiquidityGeneratorToken.sol\":40539:40559  i < _excluded.length */\n      dup2\n      lt\n        /* \"contracts2/tokens/LiquidityGeneratorToken.sol\":40519:40850  for (uint256 i = 0; i < _excluded.length; i++) {... */\n      iszero\n      tag_479\n      jumpi\n        /* \"contracts2/tokens/LiquidityGeneratorToken.sol\":40625:40632  rSupply */\n      dup3\n        /* \"contracts2/tokens/LiquidityGeneratorToken.sol\":40601:40608  _rOwned */\n      0x01\n        /* \"contracts2/tokens/LiquidityGeneratorToken.sol\":40601:40622  _rOwned[_excluded[i]] */\n      0x00\n        /* \"contracts2/tokens/LiquidityGeneratorToken.sol\":40609:40618  _excluded */\n      0x06\n        /* \"contracts2/tokens/LiquidityGeneratorToken.sol\":40619:40620  i */\n      dup5\n        /* \"contracts2/tokens/LiquidityGeneratorToken.sol\":40609:40621  _excluded[i] */\n      dup2\n      sload\n      dup2\n      lt\n      tag_481\n      jumpi\n      mstore(0x00, shl(0xe0, 0x4e487b71))\n      mstore(0x04, 0x32)\n      revert(0x00, 0x24)\n    tag_481:\n      0x00\n      swap2\n      dup3\n      mstore\n      0x20\n      dup1\n      dup4\n      keccak256\n      swap1\n      swap2\n      add\n      sload\n      sub(shl(0xa0, 0x01), 0x01)\n      and\n        /* \"contracts2/tokens/LiquidityGeneratorToken.sol\":40601:40622  _rOwned[_excluded[i]] */\n      dup4\n      mstore\n      dup3\n      add\n      swap3\n      swap1\n      swap3\n      mstore\n      0x40\n      add\n      swap1\n      keccak256\n      sload\n        /* \"contracts2/tokens/LiquidityGeneratorToken.sol\":40601:40632  _rOwned[_excluded[i]] > rSupply */\n      gt\n      dup1\n        /* \"contracts2/tokens/LiquidityGeneratorToken.sol\":40601:40683  _rOwned[_excluded[i]] > rSupply ||... */\n      tag_483\n      jumpi\n      pop\n        /* \"contracts2/tokens/LiquidityGeneratorToken.sol\":40676:40683  tSupply */\n      dup2\n        /* \"contracts2/tokens/LiquidityGeneratorToken.sol\":40652:40659  _tOwned */\n      0x02\n        /* \"contracts2/tokens/LiquidityGeneratorToken.sol\":40652:40673  _tOwned[_excluded[i]] */\n      0x00\n        /* \"contracts2/tokens/LiquidityGeneratorToken.sol\":40660:40669  _excluded */\n      0x06\n        /* \"contracts2/tokens/LiquidityGeneratorToken.sol\":40670:40671  i */\n      dup5\n        /* \"contracts2/tokens/LiquidityGeneratorToken.sol\":40660:40672  _excluded[i] */\n      dup2\n      sload\n      dup2\n      lt\n      tag_484\n      jumpi\n      mstore(0x00, shl(0xe0, 0x4e487b71))\n      mstore(0x04, 0x32)\n      revert(0x00, 0x24)\n    tag_484:\n      0x00\n      swap2\n      dup3\n      mstore\n      0x20\n      dup1\n      dup4\n      keccak256\n      swap1\n      swap2\n      add\n      sload\n      sub(shl(0xa0, 0x01), 0x01)\n      and\n        /* \"contracts2/tokens/LiquidityGeneratorToken.sol\":40652:40673  _tOwned[_excluded[i]] */\n      dup4\n      mstore\n      dup3\n      add\n      swap3\n      swap1\n      swap3\n      mstore\n      0x40\n      add\n      swap1\n      keccak256\n      sload\n        /* \"contracts2/tokens/LiquidityGeneratorToken.sol\":40652:40683  _tOwned[_excluded[i]] > tSupply */\n      gt\n        /* \"contracts2/tokens/LiquidityGeneratorToken.sol\":40601:40683  _rOwned[_excluded[i]] > rSupply ||... */\n    tag_483:\n        /* \"contracts2/tokens/LiquidityGeneratorToken.sol\":40580:40723  if (... */\n      iszero\n      tag_486\n      jumpi\n        /* \"contracts2/tokens/LiquidityGeneratorToken.sol\":40706:40713  _rTotal */\n      sload(0x08)\n        /* \"contracts2/tokens/LiquidityGeneratorToken.sol\":40715:40722  _tTotal */\n      sload(0x07)\n        /* \"contracts2/tokens/LiquidityGeneratorToken.sol\":40698:40723  return (_rTotal, _tTotal) */\n      swap5\n      pop\n      swap5\n      pop\n      pop\n      pop\n      pop\n        /* \"contracts2/tokens/LiquidityGeneratorToken.sol\":40370:40962  function _getCurrentSupply() private view returns (uint256, uint256) {... */\n      swap1\n      swap2\n      jump\t// out\n        /* \"contracts2/tokens/LiquidityGeneratorToken.sol\":40580:40723  if (... */\n    tag_486:\n        /* \"contracts2/tokens/LiquidityGeneratorToken.sol\":40747:40781  rSupply.sub(_rOwned[_excluded[i]]) */\n      tag_487\n        /* \"contracts2/tokens/LiquidityGeneratorToken.sol\":40759:40766  _rOwned */\n      0x01\n        /* \"contracts2/tokens/LiquidityGeneratorToken.sol\":40759:40780  _rOwned[_excluded[i]] */\n      0x00\n        /* \"contracts2/tokens/LiquidityGeneratorToken.sol\":40767:40776  _excluded */\n      0x06\n        /* \"contracts2/tokens/LiquidityGeneratorToken.sol\":40777:40778  i */\n      dup5\n        /* \"contracts2/tokens/LiquidityGeneratorToken.sol\":40767:40779  _excluded[i] */\n      dup2\n      sload\n      dup2\n      lt\n      tag_488\n      jumpi\n      mstore(0x00, shl(0xe0, 0x4e487b71))\n      mstore(0x04, 0x32)\n      revert(0x00, 0x24)\n    tag_488:\n      0x00\n      swap2\n      dup3\n      mstore\n      0x20\n      dup1\n      dup4\n      keccak256\n      swap1\n      swap2\n      add\n      sload\n      sub(shl(0xa0, 0x01), 0x01)\n      and\n        /* \"contracts2/tokens/LiquidityGeneratorToken.sol\":40759:40780  _rOwned[_excluded[i]] */\n      dup4\n      mstore\n      dup3\n      add\n      swap3\n      swap1\n      swap3\n      mstore\n      0x40\n      add\n      swap1\n      keccak256\n      sload\n        /* \"contracts2/tokens/LiquidityGeneratorToken.sol\":40747:40754  rSupply */\n      dup5\n      swap1\n        /* \"contracts2/tokens/LiquidityGeneratorToken.sol\":40747:40758  rSupply.sub */\n      tag_294\n        /* \"contracts2/tokens/LiquidityGeneratorToken.sol\":40747:40781  rSupply.sub(_rOwned[_excluded[i]]) */\n      jump\t// in\n    tag_487:\n        /* \"contracts2/tokens/LiquidityGeneratorToken.sol\":40737:40781  rSupply = rSupply.sub(_rOwned[_excluded[i]]) */\n      swap3\n      pop\n        /* \"contracts2/tokens/LiquidityGeneratorToken.sol\":40805:40839  tSupply.sub(_tOwned[_excluded[i]]) */\n      tag_490\n        /* \"contracts2/tokens/LiquidityGeneratorToken.sol\":40817:40824  _tOwned */\n      0x02\n        /* \"contracts2/tokens/LiquidityGeneratorToken.sol\":40817:40838  _tOwned[_excluded[i]] */\n      0x00\n        /* \"contracts2/tokens/LiquidityGeneratorToken.sol\":40825:40834  _excluded */\n      0x06\n        /* \"contracts2/tokens/LiquidityGeneratorToken.sol\":40835:40836  i */\n      dup5\n        /* \"contracts2/tokens/LiquidityGeneratorToken.sol\":40825:40837  _excluded[i] */\n      dup2\n      sload\n      dup2\n      lt\n      tag_491\n      jumpi\n      mstore(0x00, shl(0xe0, 0x4e487b71))\n      mstore(0x04, 0x32)\n      revert(0x00, 0x24)\n    tag_491:\n      0x00\n      swap2\n      dup3\n      mstore\n      0x20\n      dup1\n      dup4\n      keccak256\n      swap1\n      swap2\n      add\n      sload\n      sub(shl(0xa0, 0x01), 0x01)\n      and\n        /* \"contracts2/tokens/LiquidityGeneratorToken.sol\":40817:40838  _tOwned[_excluded[i]] */\n      dup4\n      mstore\n      dup3\n      add\n      swap3\n      swap1\n      swap3\n      mstore\n      0x40\n      add\n      swap1\n      keccak256\n      sload\n        /* \"contracts2/tokens/LiquidityGeneratorToken.sol\":40805:40812  tSupply */\n      dup4\n      swap1\n        /* \"contracts2/tokens/LiquidityGeneratorToken.sol\":40805:40816  tSupply.sub */\n      tag_294\n        /* \"contracts2/tokens/LiquidityGeneratorToken.sol\":40805:40839  tSupply.sub(_tOwned[_excluded[i]]) */\n      jump\t// in\n    tag_490:\n        /* \"contracts2/tokens/LiquidityGeneratorToken.sol\":40795:40839  tSupply = tSupply.sub(_tOwned[_excluded[i]]) */\n      swap2\n      pop\n        /* \"contracts2/tokens/LiquidityGeneratorToken.sol\":40561:40564  i++ */\n      dup1\n      tag_493\n      dup2\n      tag_279\n      jump\t// in\n    tag_493:\n      swap2\n      pop\n      pop\n        /* \"contracts2/tokens/LiquidityGeneratorToken.sol\":40519:40850  for (uint256 i = 0; i < _excluded.length; i++) {... */\n      jump(tag_478)\n    tag_479:\n      pop\n        /* \"contracts2/tokens/LiquidityGeneratorToken.sol\":40885:40892  _tTotal */\n      sload(0x07)\n        /* \"contracts2/tokens/LiquidityGeneratorToken.sol\":40873:40880  _rTotal */\n      sload(0x08)\n        /* \"contracts2/tokens/LiquidityGeneratorToken.sol\":40873:40893  _rTotal.div(_tTotal) */\n      tag_494\n      swap2\n        /* \"contracts2/tokens/LiquidityGeneratorToken.sol\":40873:40884  _rTotal.div */\n      tag_211\n        /* \"contracts2/tokens/LiquidityGeneratorToken.sol\":40873:40893  _rTotal.div(_tTotal) */\n      jump\t// in\n    tag_494:\n        /* \"contracts2/tokens/LiquidityGeneratorToken.sol\":40863:40870  rSupply */\n      dup3\n        /* \"contracts2/tokens/LiquidityGeneratorToken.sol\":40863:40893  rSupply < _rTotal.div(_tTotal) */\n      lt\n        /* \"contracts2/tokens/LiquidityGeneratorToken.sol\":40859:40920  if (rSupply < _rTotal.div(_tTotal)) return (_rTotal, _tTotal) */\n      iszero\n      tag_495\n      jumpi\n        /* \"contracts2/tokens/LiquidityGeneratorToken.sol\":40903:40910  _rTotal */\n      sload(0x08)\n        /* \"contracts2/tokens/LiquidityGeneratorToken.sol\":40912:40919  _tTotal */\n      sload(0x07)\n        /* \"contracts2/tokens/LiquidityGeneratorToken.sol\":40895:40920  return (_rTotal, _tTotal) */\n      swap4\n      pop\n      swap4\n      pop\n      pop\n      pop\n        /* \"contracts2/tokens/LiquidityGeneratorToken.sol\":40370:40962  function _getCurrentSupply() private view returns (uint256, uint256) {... */\n      swap1\n      swap2\n      jump\t// out\n        /* \"contracts2/tokens/LiquidityGeneratorToken.sol\":40859:40920  if (rSupply < _rTotal.div(_tTotal)) return (_rTotal, _tTotal) */\n    tag_495:\n        /* \"contracts2/tokens/LiquidityGeneratorToken.sol\":40938:40945  rSupply */\n      swap1\n      swap4\n        /* \"contracts2/tokens/LiquidityGeneratorToken.sol\":40947:40954  tSupply */\n      swap1\n      swap3\n      pop\n        /* \"contracts2/tokens/LiquidityGeneratorToken.sol\":40370:40962  function _getCurrentSupply() private view returns (uint256, uint256) {... */\n      swap1\n      pop\n      jump\t// out\n        /* \"contracts2/tokens/LiquidityGeneratorToken.sol\":39008:39540  function _getTValues(uint256 tAmount)... */\n    tag_431:\n        /* \"contracts2/tokens/LiquidityGeneratorToken.sol\":39105:39112  uint256 */\n      0x00\n        /* \"contracts2/tokens/LiquidityGeneratorToken.sol\":39126:39133  uint256 */\n      dup1\n        /* \"contracts2/tokens/LiquidityGeneratorToken.sol\":39147:39154  uint256 */\n      0x00\n        /* \"contracts2/tokens/LiquidityGeneratorToken.sol\":39168:39175  uint256 */\n      dup1\n        /* \"contracts2/tokens/LiquidityGeneratorToken.sol\":39200:39212  uint256 tFee */\n      0x00\n        /* \"contracts2/tokens/LiquidityGeneratorToken.sol\":39215:39239  calculateTaxFee(tAmount) */\n      tag_497\n        /* \"contracts2/tokens/LiquidityGeneratorToken.sol\":39231:39238  tAmount */\n      dup7\n        /* \"contracts2/tokens/LiquidityGeneratorToken.sol\":39215:39230  calculateTaxFee */\n      tag_498\n        /* \"contracts2/tokens/LiquidityGeneratorToken.sol\":39215:39239  calculateTaxFee(tAmount) */\n      jump\t// in\n    tag_497:\n        /* \"contracts2/tokens/LiquidityGeneratorToken.sol\":39200:39239  uint256 tFee = calculateTaxFee(tAmount) */\n      swap1\n      pop\n        /* \"contracts2/tokens/LiquidityGeneratorToken.sol\":39249:39267  uint256 tLiquidity */\n      0x00\n        /* \"contracts2/tokens/LiquidityGeneratorToken.sol\":39270:39300  calculateLiquidityFee(tAmount) */\n      tag_499\n        /* \"contracts2/tokens/LiquidityGeneratorToken.sol\":39292:39299  tAmount */\n      dup8\n        /* \"contracts2/tokens/LiquidityGeneratorToken.sol\":39270:39291  calculateLiquidityFee */\n      tag_500\n        /* \"contracts2/tokens/LiquidityGeneratorToken.sol\":39270:39300  calculateLiquidityFee(tAmount) */\n      jump\t// in\n    tag_499:\n        /* \"contracts2/tokens/LiquidityGeneratorToken.sol\":39249:39300  uint256 tLiquidity = calculateLiquidityFee(tAmount) */\n      swap1\n      pop\n        /* \"contracts2/tokens/LiquidityGeneratorToken.sol\":39310:39329  uint256 tCharityFee */\n      0x00\n        /* \"contracts2/tokens/LiquidityGeneratorToken.sol\":39332:39360  calculateCharityFee(tAmount) */\n      tag_501\n        /* \"contracts2/tokens/LiquidityGeneratorToken.sol\":39352:39359  tAmount */\n      dup9\n        /* \"contracts2/tokens/LiquidityGeneratorToken.sol\":39332:39351  calculateCharityFee */\n      tag_502\n        /* \"contracts2/tokens/LiquidityGeneratorToken.sol\":39332:39360  calculateCharityFee(tAmount) */\n      jump\t// in\n    tag_501:\n        /* \"contracts2/tokens/LiquidityGeneratorToken.sol\":39310:39360  uint256 tCharityFee = calculateCharityFee(tAmount) */\n      swap1\n      pop\n        /* \"contracts2/tokens/LiquidityGeneratorToken.sol\":39370:39393  uint256 tTransferAmount */\n      0x00\n        /* \"contracts2/tokens/LiquidityGeneratorToken.sol\":39396:39468  tAmount.sub(tFee).sub(tLiquidity).sub(... */\n      tag_503\n        /* \"contracts2/tokens/LiquidityGeneratorToken.sol\":39310:39360  uint256 tCharityFee = calculateCharityFee(tAmount) */\n      dup3\n        /* \"contracts2/tokens/LiquidityGeneratorToken.sol\":39396:39429  tAmount.sub(tFee).sub(tLiquidity) */\n      tag_505\n        /* \"contracts2/tokens/LiquidityGeneratorToken.sol\":39418:39428  tLiquidity */\n      dup6\n        /* \"contracts2/tokens/LiquidityGeneratorToken.sol\":39396:39429  tAmount.sub(tFee).sub(tLiquidity) */\n      dup2\n        /* \"contracts2/tokens/LiquidityGeneratorToken.sol\":39396:39403  tAmount */\n      dup14\n        /* \"contracts2/tokens/LiquidityGeneratorToken.sol\":39408:39412  tFee */\n      dup10\n        /* \"contracts2/tokens/LiquidityGeneratorToken.sol\":39396:39407  tAmount.sub */\n      tag_294\n        /* \"contracts2/tokens/LiquidityGeneratorToken.sol\":39396:39413  tAmount.sub(tFee) */\n      jump\t// in\n    tag_505:\n        /* \"contracts2/tokens/LiquidityGeneratorToken.sol\":39396:39417  tAmount.sub(tFee).sub */\n      swap1\n      tag_294\n        /* \"contracts2/tokens/LiquidityGeneratorToken.sol\":39396:39429  tAmount.sub(tFee).sub(tLiquidity) */\n      jump\t// in\n        /* \"contracts2/tokens/LiquidityGeneratorToken.sol\":39396:39468  tAmount.sub(tFee).sub(tLiquidity).sub(... */\n    tag_503:\n        /* \"contracts2/tokens/LiquidityGeneratorToken.sol\":39370:39468  uint256 tTransferAmount = tAmount.sub(tFee).sub(tLiquidity).sub(... */\n      swap10\n        /* \"contracts2/tokens/LiquidityGeneratorToken.sol\":39503:39507  tFee */\n      swap4\n      swap9\n      pop\n        /* \"contracts2/tokens/LiquidityGeneratorToken.sol\":39509:39519  tLiquidity */\n      swap2\n      swap7\n      pop\n      swap5\n      pop\n        /* \"contracts2/tokens/LiquidityGeneratorToken.sol\":39008:39540  function _getTValues(uint256 tAmount)... */\n      swap1\n      swap3\n      pop\n      pop\n      pop\n      jump\t// out\n        /* \"contracts2/tokens/LiquidityGeneratorToken.sol\":39546:40197  function _getRValues(... */\n    tag_434:\n        /* \"contracts2/tokens/LiquidityGeneratorToken.sol\":39762:39769  uint256 */\n      0x00\n      dup1\n      dup1\n      dup1\n        /* \"contracts2/tokens/LiquidityGeneratorToken.sol\":39854:39878  tAmount.mul(currentRate) */\n      tag_507\n        /* \"contracts2/tokens/LiquidityGeneratorToken.sol\":39854:39861  tAmount */\n      dup10\n        /* \"contracts2/tokens/LiquidityGeneratorToken.sol\":39866:39877  currentRate */\n      dup7\n        /* \"contracts2/tokens/LiquidityGeneratorToken.sol\":39854:39865  tAmount.mul */\n      tag_210\n        /* \"contracts2/tokens/LiquidityGeneratorToken.sol\":39854:39878  tAmount.mul(currentRate) */\n      jump\t// in\n    tag_507:\n        /* \"contracts2/tokens/LiquidityGeneratorToken.sol\":39836:39878  uint256 rAmount = tAmount.mul(currentRate) */\n      swap1\n      pop\n        /* \"contracts2/tokens/LiquidityGeneratorToken.sol\":39888:39900  uint256 rFee */\n      0x00\n        /* \"contracts2/tokens/LiquidityGeneratorToken.sol\":39903:39924  tFee.mul(currentRate) */\n      tag_508\n        /* \"contracts2/tokens/LiquidityGeneratorToken.sol\":39903:39907  tFee */\n      dup10\n        /* \"contracts2/tokens/LiquidityGeneratorToken.sol\":39912:39923  currentRate */\n      dup8\n        /* \"contracts2/tokens/LiquidityGeneratorToken.sol\":39903:39911  tFee.mul */\n      tag_210\n        /* \"contracts2/tokens/LiquidityGeneratorToken.sol\":39903:39924  tFee.mul(currentRate) */\n      jump\t// in\n    tag_508:\n        /* \"contracts2/tokens/LiquidityGeneratorToken.sol\":39888:39924  uint256 rFee = tFee.mul(currentRate) */\n      swap1\n      pop\n        /* \"contracts2/tokens/LiquidityGeneratorToken.sol\":39934:39952  uint256 rLiquidity */\n      0x00\n        /* \"contracts2/tokens/LiquidityGeneratorToken.sol\":39955:39982  tLiquidity.mul(currentRate) */\n      tag_509\n        /* \"contracts2/tokens/LiquidityGeneratorToken.sol\":39955:39965  tLiquidity */\n      dup10\n        /* \"contracts2/tokens/LiquidityGeneratorToken.sol\":39970:39981  currentRate */\n      dup9\n        /* \"contracts2/tokens/LiquidityGeneratorToken.sol\":39955:39969  tLiquidity.mul */\n      tag_210\n        /* \"contracts2/tokens/LiquidityGeneratorToken.sol\":39955:39982  tLiquidity.mul(currentRate) */\n      jump\t// in\n    tag_509:\n        /* \"contracts2/tokens/LiquidityGeneratorToken.sol\":39934:39982  uint256 rLiquidity = tLiquidity.mul(currentRate) */\n      swap1\n      pop\n        /* \"contracts2/tokens/LiquidityGeneratorToken.sol\":39992:40008  uint256 rCharity */\n      0x00\n        /* \"contracts2/tokens/LiquidityGeneratorToken.sol\":40011:40036  tCharity.mul(currentRate) */\n      tag_510\n        /* \"contracts2/tokens/LiquidityGeneratorToken.sol\":40011:40019  tCharity */\n      dup10\n        /* \"contracts2/tokens/LiquidityGeneratorToken.sol\":40024:40035  currentRate */\n      dup10\n        /* \"contracts2/tokens/LiquidityGeneratorToken.sol\":40011:40023  tCharity.mul */\n      tag_210\n        /* \"contracts2/tokens/LiquidityGeneratorToken.sol\":40011:40036  tCharity.mul(currentRate) */\n      jump\t// in\n    tag_510:\n        /* \"contracts2/tokens/LiquidityGeneratorToken.sol\":39992:40036  uint256 rCharity = tCharity.mul(currentRate) */\n      swap1\n      pop\n        /* \"contracts2/tokens/LiquidityGeneratorToken.sol\":40046:40069  uint256 rTransferAmount */\n      0x00\n        /* \"contracts2/tokens/LiquidityGeneratorToken.sol\":40072:40141  rAmount.sub(rFee).sub(rLiquidity).sub(... */\n      tag_511\n        /* \"contracts2/tokens/LiquidityGeneratorToken.sol\":39992:40036  uint256 rCharity = tCharity.mul(currentRate) */\n      dup3\n        /* \"contracts2/tokens/LiquidityGeneratorToken.sol\":40072:40105  rAmount.sub(rFee).sub(rLiquidity) */\n      tag_505\n        /* \"contracts2/tokens/LiquidityGeneratorToken.sol\":40094:40104  rLiquidity */\n      dup6\n        /* \"contracts2/tokens/LiquidityGeneratorToken.sol\":40072:40105  rAmount.sub(rFee).sub(rLiquidity) */\n      dup2\n        /* \"contracts2/tokens/LiquidityGeneratorToken.sol\":40072:40079  rAmount */\n      dup10\n        /* \"contracts2/tokens/LiquidityGeneratorToken.sol\":40084:40088  rFee */\n      dup10\n        /* \"contracts2/tokens/LiquidityGeneratorToken.sol\":40072:40083  rAmount.sub */\n      tag_294\n        /* \"contracts2/tokens/LiquidityGeneratorToken.sol\":40072:40089  rAmount.sub(rFee) */\n      jump\t// in\n        /* \"contracts2/tokens/LiquidityGeneratorToken.sol\":40072:40141  rAmount.sub(rFee).sub(rLiquidity).sub(... */\n    tag_511:\n        /* \"contracts2/tokens/LiquidityGeneratorToken.sol\":40159:40166  rAmount */\n      swap5\n      swap14\n      swap5\n      swap13\n      pop\n        /* \"contracts2/tokens/LiquidityGeneratorToken.sol\":40185:40189  rFee */\n      swap3\n      swap11\n      pop\n        /* \"contracts2/tokens/LiquidityGeneratorToken.sol\":39546:40197  function _getRValues(... */\n      swap3\n      swap9\n      pop\n      pop\n      pop\n      pop\n      pop\n      pop\n      pop\n      pop\n      pop\n      jump\t// out\n        /* \"contracts2/tokens/LiquidityGeneratorToken.sol\":45822:46395  function swapTokensForEth(uint256 tokenAmount) private {... */\n    tag_443:\n        /* \"contracts2/tokens/LiquidityGeneratorToken.sol\":45970:45986  new address[](2) */\n      0x40\n      dup1\n      mload\n        /* \"contracts2/tokens/LiquidityGeneratorToken.sol\":45984:45985  2 */\n      0x02\n        /* \"contracts2/tokens/LiquidityGeneratorToken.sol\":45970:45986  new address[](2) */\n      dup1\n      dup3\n      mstore\n      0x60\n      dup3\n      add\n      dup4\n      mstore\n        /* \"contracts2/tokens/LiquidityGeneratorToken.sol\":45946:45967  address[] memory path */\n      0x00\n      swap3\n        /* \"contracts2/tokens/LiquidityGeneratorToken.sol\":45970:45986  new address[](2) */\n      0x20\n      dup4\n      add\n      swap1\n      dup1\n      calldatasize\n      dup4\n      calldatacopy\n      add\n      swap1\n      pop\n      pop\n        /* \"contracts2/tokens/LiquidityGeneratorToken.sol\":45946:45986  address[] memory path = new address[](2) */\n      swap1\n      pop\n        /* \"contracts2/tokens/LiquidityGeneratorToken.sol\":46014:46018  this */\n      address\n        /* \"contracts2/tokens/LiquidityGeneratorToken.sol\":45996:46000  path */\n      dup2\n        /* \"contracts2/tokens/LiquidityGeneratorToken.sol\":46001:46002  0 */\n      0x00\n        /* \"contracts2/tokens/LiquidityGeneratorToken.sol\":45996:46003  path[0] */\n      dup2\n      mload\n      dup2\n      lt\n      tag_517\n      jumpi\n      mstore(0x00, shl(0xe0, 0x4e487b71))\n      mstore(0x04, 0x32)\n      revert(0x00, 0x24)\n    tag_517:\n      sub(shl(0xa0, 0x01), 0x01)\n        /* \"contracts2/tokens/LiquidityGeneratorToken.sol\":45996:46019  path[0] = address(this) */\n      swap3\n      dup4\n      and\n        /* \"contracts2/tokens/LiquidityGeneratorToken.sol\":45996:46003  path[0] */\n      0x20\n      swap2\n      dup3\n      mul\n      swap3\n      swap1\n      swap3\n      add\n      dup2\n      add\n        /* \"contracts2/tokens/LiquidityGeneratorToken.sol\":45996:46019  path[0] = address(this) */\n      swap2\n      swap1\n      swap2\n      mstore\n        /* \"contracts2/tokens/LiquidityGeneratorToken.sol\":46039:46054  uniswapV2Router */\n      sload(0x13)\n        /* \"contracts2/tokens/LiquidityGeneratorToken.sol\":46039:46061  uniswapV2Router.WETH() */\n      0x40\n      dup1\n      mload\n      shl(0xe3, 0x15ab88c9)\n      dup2\n      mstore\n      swap1\n      mload\n        /* \"contracts2/tokens/LiquidityGeneratorToken.sol\":46039:46054  uniswapV2Router */\n      swap2\n      swap1\n      swap4\n      and\n      swap3\n        /* \"contracts2/tokens/LiquidityGeneratorToken.sol\":46039:46059  uniswapV2Router.WETH */\n      0xad5c4648\n      swap3\n        /* \"contracts2/tokens/LiquidityGeneratorToken.sol\":46039:46061  uniswapV2Router.WETH() */\n      0x04\n      dup1\n      dup4\n      add\n      swap4\n        /* \"contracts2/tokens/LiquidityGeneratorToken.sol\":45996:46003  path[0] */\n      swap2\n      swap3\n        /* \"contracts2/tokens/LiquidityGeneratorToken.sol\":46039:46061  uniswapV2Router.WETH() */\n      dup3\n      swap1\n      sub\n      add\n      dup2\n        /* \"contracts2/tokens/LiquidityGeneratorToken.sol\":46039:46054  uniswapV2Router */\n      dup7\n        /* \"contracts2/tokens/LiquidityGeneratorToken.sol\":46039:46061  uniswapV2Router.WETH() */\n      dup1\n      extcodesize\n      iszero\n      dup1\n      iszero\n      tag_518\n      jumpi\n      0x00\n      dup1\n      revert\n    tag_518:\n      pop\n      gas\n      staticcall\n      iszero\n      dup1\n      iszero\n      tag_520\n      jumpi\n      returndatasize\n      0x00\n      dup1\n      returndatacopy\n      revert(0x00, returndatasize)\n    tag_520:\n      pop\n      pop\n      pop\n      pop\n      mload(0x40)\n      returndatasize\n      not(0x1f)\n      0x1f\n      dup3\n      add\n      and\n      dup3\n      add\n      dup1\n      0x40\n      mstore\n      pop\n      dup2\n      add\n      swap1\n      tag_521\n      swap2\n      swap1\n      tag_522\n      jump\t// in\n    tag_521:\n        /* \"contracts2/tokens/LiquidityGeneratorToken.sol\":46029:46033  path */\n      dup2\n        /* \"contracts2/tokens/LiquidityGeneratorToken.sol\":46034:46035  1 */\n      0x01\n        /* \"contracts2/tokens/LiquidityGeneratorToken.sol\":46029:46036  path[1] */\n      dup2\n      mload\n      dup2\n      lt\n      tag_523\n      jumpi\n      mstore(0x00, shl(0xe0, 0x4e487b71))\n      mstore(0x04, 0x32)\n      revert(0x00, 0x24)\n    tag_523:\n      sub(shl(0xa0, 0x01), 0x01)\n        /* \"contracts2/tokens/LiquidityGeneratorToken.sol\":46029:46061  path[1] = uniswapV2Router.WETH() */\n      swap3\n      dup4\n      and\n        /* \"contracts2/tokens/LiquidityGeneratorToken.sol\":46029:46036  path[1] */\n      0x20\n      swap2\n      dup3\n      mul\n      swap3\n      swap1\n      swap3\n      add\n      add\n        /* \"contracts2/tokens/LiquidityGeneratorToken.sol\":46029:46061  path[1] = uniswapV2Router.WETH() */\n      mstore\n        /* \"contracts2/tokens/LiquidityGeneratorToken.sol\":46104:46119  uniswapV2Router */\n      sload(0x13)\n        /* \"contracts2/tokens/LiquidityGeneratorToken.sol\":46072:46134  _approve(address(this), address(uniswapV2Router), tokenAmount) */\n      tag_524\n      swap2\n        /* \"contracts2/tokens/LiquidityGeneratorToken.sol\":46089:46093  this */\n      address\n      swap2\n        /* \"contracts2/tokens/LiquidityGeneratorToken.sol\":46104:46119  uniswapV2Router */\n      and\n        /* \"contracts2/tokens/LiquidityGeneratorToken.sol\":46122:46133  tokenAmount */\n      dup5\n        /* \"contracts2/tokens/LiquidityGeneratorToken.sol\":46072:46080  _approve */\n      tag_236\n        /* \"contracts2/tokens/LiquidityGeneratorToken.sol\":46072:46134  _approve(address(this), address(uniswapV2Router), tokenAmount) */\n      jump\t// in\n    tag_524:\n        /* \"contracts2/tokens/LiquidityGeneratorToken.sol\":46170:46185  uniswapV2Router */\n      sload(0x13)\n        /* \"contracts2/tokens/LiquidityGeneratorToken.sol\":46170:46388  uniswapV2Router.swapExactTokensForETHSupportingFeeOnTransferTokens(... */\n      mload(0x40)\n      shl(0xe0, 0x791ac947)\n      dup2\n      mstore\n      sub(shl(0xa0, 0x01), 0x01)\n        /* \"contracts2/tokens/LiquidityGeneratorToken.sol\":46170:46185  uniswapV2Router */\n      swap1\n      swap2\n      and\n      swap1\n        /* \"contracts2/tokens/LiquidityGeneratorToken.sol\":46170:46236  uniswapV2Router.swapExactTokensForETHSupportingFeeOnTransferTokens */\n      0x791ac947\n      swap1\n        /* \"contracts2/tokens/LiquidityGeneratorToken.sol\":46170:46388  uniswapV2Router.swapExactTokensForETHSupportingFeeOnTransferTokens(... */\n      tag_525\n      swap1\n        /* \"contracts2/tokens/LiquidityGeneratorToken.sol\":46250:46261  tokenAmount */\n      dup6\n      swap1\n        /* \"contracts2/tokens/LiquidityGeneratorToken.sol\":46170:46185  uniswapV2Router */\n      0x00\n      swap1\n        /* \"contracts2/tokens/LiquidityGeneratorToken.sol\":46318:46322  path */\n      dup7\n      swap1\n        /* \"contracts2/tokens/LiquidityGeneratorToken.sol\":46344:46348  this */\n      address\n      swap1\n        /* \"contracts2/tokens/LiquidityGeneratorToken.sol\":46363:46378  block.timestamp */\n      timestamp\n      swap1\n        /* \"contracts2/tokens/LiquidityGeneratorToken.sol\":46170:46388  uniswapV2Router.swapExactTokensForETHSupportingFeeOnTransferTokens(... */\n      0x04\n      add\n      tag_526\n      jump\t// in\n    tag_525:\n      0x00\n      mload(0x40)\n      dup1\n      dup4\n      sub\n      dup2\n      0x00\n      dup8\n      dup1\n      extcodesize\n      iszero\n      dup1\n      iszero\n      tag_527\n      jumpi\n      0x00\n      dup1\n      revert\n    tag_527:\n      pop\n      gas\n      call\n      iszero\n      dup1\n      iszero\n      tag_418\n      jumpi\n      returndatasize\n      0x00\n      dup1\n      returndatacopy\n      revert(0x00, returndatasize)\n        /* \"contracts2/tokens/LiquidityGeneratorToken.sol\":46401:46901  function addLiquidity(uint256 tokenAmount, uint256 ethAmount) private {... */\n    tag_446:\n        /* \"contracts2/tokens/LiquidityGeneratorToken.sol\":46579:46594  uniswapV2Router */\n      sload(0x13)\n        /* \"contracts2/tokens/LiquidityGeneratorToken.sol\":46547:46609  _approve(address(this), address(uniswapV2Router), tokenAmount) */\n      tag_531\n      swap1\n        /* \"contracts2/tokens/LiquidityGeneratorToken.sol\":46564:46568  this */\n      address\n      swap1\n      sub(shl(0xa0, 0x01), 0x01)\n        /* \"contracts2/tokens/LiquidityGeneratorToken.sol\":46579:46594  uniswapV2Router */\n      and\n        /* \"contracts2/tokens/LiquidityGeneratorToken.sol\":46597:46608  tokenAmount */\n      dup5\n        /* \"contracts2/tokens/LiquidityGeneratorToken.sol\":46547:46555  _approve */\n      tag_236\n        /* \"contracts2/tokens/LiquidityGeneratorToken.sol\":46547:46609  _approve(address(this), address(uniswapV2Router), tokenAmount) */\n      jump\t// in\n    tag_531:\n        /* \"contracts2/tokens/LiquidityGeneratorToken.sol\":46649:46664  uniswapV2Router */\n      and(sub(shl(0xa0, 0x01), 0x01), sload(0x13))\n        /* \"contracts2/tokens/LiquidityGeneratorToken.sol\":46649:46680  uniswapV2Router.addLiquidityETH */\n      0xf305d719\n        /* \"contracts2/tokens/LiquidityGeneratorToken.sol\":46688:46697  ethAmount */\n      dup3\n        /* \"contracts2/tokens/LiquidityGeneratorToken.sol\":46720:46724  this */\n      address\n        /* \"contracts2/tokens/LiquidityGeneratorToken.sol\":46739:46750  tokenAmount */\n      dup6\n        /* \"contracts2/tokens/LiquidityGeneratorToken.sol\":46649:46664  uniswapV2Router */\n      0x00\n      dup1\n        /* \"contracts2/tokens/LiquidityGeneratorToken.sol\":46848:46855  owner() */\n      tag_532\n        /* \"contracts2/tokens/LiquidityGeneratorToken.sol\":4704:4711  address */\n      0x00\n        /* \"contracts2/tokens/LiquidityGeneratorToken.sol\":4730:4736  _owner */\n      sload\n      sub(shl(0xa0, 0x01), 0x01)\n      and\n      swap1\n        /* \"contracts2/tokens/LiquidityGeneratorToken.sol\":4658:4743  function owner() public view virtual returns (address) {... */\n      jump\n        /* \"contracts2/tokens/LiquidityGeneratorToken.sol\":46848:46855  owner() */\n    tag_532:\n        /* \"contracts2/tokens/LiquidityGeneratorToken.sol\":46649:46894  uniswapV2Router.addLiquidityETH{value: ethAmount}(... */\n      mload(0x40)\n      0xe0\n      dup9\n      swap1\n      shl\n      not(sub(shl(0xe0, 0x01), 0x01))\n      and\n      dup2\n      mstore\n      sub(shl(0xa0, 0x01), 0x01)\n        /* \"#utility.yul\":3452:3467   */\n      swap6\n      dup7\n      and\n        /* \"contracts2/tokens/LiquidityGeneratorToken.sol\":46649:46894  uniswapV2Router.addLiquidityETH{value: ethAmount}(... */\n      0x04\n      dup3\n      add\n        /* \"#utility.yul\":3434:3468   */\n      mstore\n        /* \"#utility.yul\":3484:3502   */\n      0x24\n      dup2\n      add\n        /* \"#utility.yul\":3477:3511   */\n      swap5\n      swap1\n      swap5\n      mstore\n        /* \"#utility.yul\":3527:3545   */\n      0x44\n      dup5\n      add\n        /* \"#utility.yul\":3520:3554   */\n      swap3\n      swap1\n      swap3\n      mstore\n        /* \"#utility.yul\":3570:3588   */\n      0x64\n      dup4\n      add\n        /* \"#utility.yul\":3563:3597   */\n      mstore\n        /* \"#utility.yul\":3634:3649   */\n      swap1\n      swap2\n      and\n        /* \"#utility.yul\":3613:3632   */\n      0x84\n      dup3\n      add\n        /* \"#utility.yul\":3606:3650   */\n      mstore\n        /* \"contracts2/tokens/LiquidityGeneratorToken.sol\":46869:46884  block.timestamp */\n      timestamp\n        /* \"#utility.yul\":3666:3685   */\n      0xa4\n      dup3\n      add\n        /* \"#utility.yul\":3659:3694   */\n      mstore\n        /* \"#utility.yul\":3368:3387   */\n      0xc4\n      add\n        /* \"contracts2/tokens/LiquidityGeneratorToken.sol\":46649:46894  uniswapV2Router.addLiquidityETH{value: ethAmount}(... */\n      0x60\n      mload(0x40)\n      dup1\n      dup4\n      sub\n      dup2\n      dup6\n      dup9\n      dup1\n      extcodesize\n      iszero\n      dup1\n      iszero\n      tag_535\n      jumpi\n      0x00\n      dup1\n      revert\n    tag_535:\n      pop\n      gas\n      call\n      iszero\n      dup1\n      iszero\n      tag_537\n      jumpi\n      returndatasize\n      0x00\n      dup1\n      returndatacopy\n      revert(0x00, returndatasize)\n    tag_537:\n      pop\n      pop\n      pop\n      pop\n      pop\n      mload(0x40)\n      returndatasize\n      not(0x1f)\n      0x1f\n      dup3\n      add\n      and\n      dup3\n      add\n      dup1\n      0x40\n      mstore\n      pop\n      dup2\n      add\n      swap1\n      tag_538\n      swap2\n      swap1\n      tag_539\n      jump\t// in\n    tag_538:\n      pop\n      pop\n      pop\n        /* \"contracts2/tokens/LiquidityGeneratorToken.sol\":46401:46901  function addLiquidity(uint256 tokenAmount, uint256 ethAmount) private {... */\n      pop\n      pop\n      jump\t// out\n        /* \"contracts2/tokens/LiquidityGeneratorToken.sol\":42374:42689  function removeAllFee() private {... */\n    tag_452:\n        /* \"contracts2/tokens/LiquidityGeneratorToken.sol\":42420:42427  _taxFee */\n      sload(0x0d)\n        /* \"contracts2/tokens/LiquidityGeneratorToken.sol\":42420:42432  _taxFee == 0 */\n      iszero\n        /* \"contracts2/tokens/LiquidityGeneratorToken.sol\":42420:42454  _taxFee == 0 && _liquidityFee == 0 */\n      dup1\n      iszero\n      tag_541\n      jumpi\n      pop\n        /* \"contracts2/tokens/LiquidityGeneratorToken.sol\":42436:42449  _liquidityFee */\n      sload(0x0f)\n        /* \"contracts2/tokens/LiquidityGeneratorToken.sol\":42436:42454  _liquidityFee == 0 */\n      iszero\n        /* \"contracts2/tokens/LiquidityGeneratorToken.sol\":42420:42454  _taxFee == 0 && _liquidityFee == 0 */\n    tag_541:\n        /* \"contracts2/tokens/LiquidityGeneratorToken.sol\":42420:42474  _taxFee == 0 && _liquidityFee == 0 && _charityFee == 0 */\n      dup1\n      iszero\n      tag_542\n      jumpi\n      pop\n        /* \"contracts2/tokens/LiquidityGeneratorToken.sol\":42458:42469  _charityFee */\n      sload(0x11)\n        /* \"contracts2/tokens/LiquidityGeneratorToken.sol\":42458:42474  _charityFee == 0 */\n      iszero\n        /* \"contracts2/tokens/LiquidityGeneratorToken.sol\":42420:42474  _taxFee == 0 && _liquidityFee == 0 && _charityFee == 0 */\n    tag_542:\n        /* \"contracts2/tokens/LiquidityGeneratorToken.sol\":42416:42483  if (_taxFee == 0 && _liquidityFee == 0 && _charityFee == 0) return; */\n      iszero\n      tag_543\n      jumpi\n        /* \"contracts2/tokens/LiquidityGeneratorToken.sol\":42374:42689  function removeAllFee() private {... */\n      jump\t// out\n        /* \"contracts2/tokens/LiquidityGeneratorToken.sol\":42416:42483  if (_taxFee == 0 && _liquidityFee == 0 && _charityFee == 0) return; */\n    tag_543:\n        /* \"contracts2/tokens/LiquidityGeneratorToken.sol\":42511:42518  _taxFee */\n      0x0d\n      dup1\n      sload\n        /* \"contracts2/tokens/LiquidityGeneratorToken.sol\":42493:42508  _previousTaxFee */\n      0x0e\n        /* \"contracts2/tokens/LiquidityGeneratorToken.sol\":42493:42518  _previousTaxFee = _taxFee */\n      sstore\n        /* \"contracts2/tokens/LiquidityGeneratorToken.sol\":42552:42565  _liquidityFee */\n      0x0f\n      dup1\n      sload\n        /* \"contracts2/tokens/LiquidityGeneratorToken.sol\":42528:42549  _previousLiquidityFee */\n      0x10\n        /* \"contracts2/tokens/LiquidityGeneratorToken.sol\":42528:42565  _previousLiquidityFee = _liquidityFee */\n      sstore\n        /* \"contracts2/tokens/LiquidityGeneratorToken.sol\":42597:42608  _charityFee */\n      0x11\n      dup1\n      sload\n        /* \"contracts2/tokens/LiquidityGeneratorToken.sol\":42575:42594  _previousCharityFee */\n      0x12\n        /* \"contracts2/tokens/LiquidityGeneratorToken.sol\":42575:42608  _previousCharityFee = _charityFee */\n      sstore\n      0x00\n        /* \"contracts2/tokens/LiquidityGeneratorToken.sol\":42619:42630  _taxFee = 0 */\n      swap3\n      dup4\n      swap1\n      sstore\n        /* \"contracts2/tokens/LiquidityGeneratorToken.sol\":42640:42657  _liquidityFee = 0 */\n      swap1\n      dup3\n      swap1\n      sstore\n        /* \"contracts2/tokens/LiquidityGeneratorToken.sol\":42667:42682  _charityFee = 0 */\n      sstore\n        /* \"contracts2/tokens/LiquidityGeneratorToken.sol\":42374:42689  function removeAllFee() private {... */\n      jump\t// out\n        /* \"contracts2/tokens/LiquidityGeneratorToken.sol\":49230:49962  function _transferFromExcluded(... */\n    tag_456:\n        /* \"contracts2/tokens/LiquidityGeneratorToken.sol\":49375:49390  uint256 rAmount */\n      0x00\n        /* \"contracts2/tokens/LiquidityGeneratorToken.sol\":49404:49427  uint256 rTransferAmount */\n      dup1\n        /* \"contracts2/tokens/LiquidityGeneratorToken.sol\":49441:49453  uint256 rFee */\n      0x00\n        /* \"contracts2/tokens/LiquidityGeneratorToken.sol\":49467:49490  uint256 tTransferAmount */\n      dup1\n        /* \"contracts2/tokens/LiquidityGeneratorToken.sol\":49504:49516  uint256 tFee */\n      0x00\n        /* \"contracts2/tokens/LiquidityGeneratorToken.sol\":49530:49548  uint256 tLiquidity */\n      dup1\n        /* \"contracts2/tokens/LiquidityGeneratorToken.sol\":49562:49578  uint256 tCharity */\n      0x00\n        /* \"contracts2/tokens/LiquidityGeneratorToken.sol\":49591:49610  _getValues(tAmount) */\n      tag_545\n        /* \"contracts2/tokens/LiquidityGeneratorToken.sol\":49602:49609  tAmount */\n      dup9\n        /* \"contracts2/tokens/LiquidityGeneratorToken.sol\":49591:49601  _getValues */\n      tag_292\n        /* \"contracts2/tokens/LiquidityGeneratorToken.sol\":49591:49610  _getValues(tAmount) */\n      jump\t// in\n    tag_545:\n        /* \"contracts2/tokens/LiquidityGeneratorToken.sol\":49361:49610  (... */\n      swap7\n      pop\n      swap7\n      pop\n      swap7\n      pop\n      swap7\n      pop\n      swap7\n      pop\n      swap7\n      pop\n      swap7\n      pop\n        /* \"contracts2/tokens/LiquidityGeneratorToken.sol\":49638:49666  _tOwned[sender].sub(tAmount) */\n      tag_546\n        /* \"contracts2/tokens/LiquidityGeneratorToken.sol\":49658:49665  tAmount */\n      dup9\n        /* \"contracts2/tokens/LiquidityGeneratorToken.sol\":49638:49645  _tOwned */\n      0x02\n        /* \"contracts2/tokens/LiquidityGeneratorToken.sol\":49638:49653  _tOwned[sender] */\n      0x00\n        /* \"contracts2/tokens/LiquidityGeneratorToken.sol\":49646:49652  sender */\n      dup14\n      sub(shl(0xa0, 0x01), 0x01)\n        /* \"contracts2/tokens/LiquidityGeneratorToken.sol\":49638:49653  _tOwned[sender] */\n      and\n      sub(shl(0xa0, 0x01), 0x01)\n      and\n      dup2\n      mstore\n      0x20\n      add\n      swap1\n      dup2\n      mstore\n      0x20\n      add\n      0x00\n      keccak256\n      sload\n        /* \"contracts2/tokens/LiquidityGeneratorToken.sol\":49638:49657  _tOwned[sender].sub */\n      tag_294\n      swap1\n        /* \"contracts2/tokens/LiquidityGeneratorToken.sol\":49638:49666  _tOwned[sender].sub(tAmount) */\n      swap2\n      swap1\n      0xffffffff\n      and\n      jump\t// in\n    tag_546:\n      sub(shl(0xa0, 0x01), 0x01)\n        /* \"contracts2/tokens/LiquidityGeneratorToken.sol\":49620:49635  _tOwned[sender] */\n      dup12\n      and\n      0x00\n      swap1\n      dup2\n      mstore\n        /* \"contracts2/tokens/LiquidityGeneratorToken.sol\":49620:49627  _tOwned */\n      0x02\n        /* \"contracts2/tokens/LiquidityGeneratorToken.sol\":49620:49635  _tOwned[sender] */\n      0x20\n      swap1\n      dup2\n      mstore\n      0x40\n      dup1\n      dup4\n      keccak256\n        /* \"contracts2/tokens/LiquidityGeneratorToken.sol\":49620:49666  _tOwned[sender] = _tOwned[sender].sub(tAmount) */\n      swap4\n      swap1\n      swap4\n      sstore\n        /* \"contracts2/tokens/LiquidityGeneratorToken.sol\":49694:49701  _rOwned */\n      0x01\n        /* \"contracts2/tokens/LiquidityGeneratorToken.sol\":49694:49709  _rOwned[sender] */\n      swap1\n      mstore\n      keccak256\n      sload\n        /* \"contracts2/tokens/LiquidityGeneratorToken.sol\":49694:49722  _rOwned[sender].sub(rAmount) */\n      tag_547\n      swap1\n        /* \"contracts2/tokens/LiquidityGeneratorToken.sol\":49714:49721  rAmount */\n      dup9\n        /* \"contracts2/tokens/LiquidityGeneratorToken.sol\":49694:49713  _rOwned[sender].sub */\n      tag_294\n        /* \"contracts2/tokens/LiquidityGeneratorToken.sol\":49694:49722  _rOwned[sender].sub(rAmount) */\n      jump\t// in\n    tag_547:\n      sub(shl(0xa0, 0x01), 0x01)\n        /* \"contracts2/tokens/LiquidityGeneratorToken.sol\":49676:49691  _rOwned[sender] */\n      dup1\n      dup13\n      and\n      0x00\n      swap1\n      dup2\n      mstore\n        /* \"contracts2/tokens/LiquidityGeneratorToken.sol\":49676:49683  _rOwned */\n      0x01\n        /* \"contracts2/tokens/LiquidityGeneratorToken.sol\":49676:49691  _rOwned[sender] */\n      0x20\n      mstore\n      0x40\n      dup1\n      dup3\n      keccak256\n        /* \"contracts2/tokens/LiquidityGeneratorToken.sol\":49676:49722  _rOwned[sender] = _rOwned[sender].sub(rAmount) */\n      swap4\n      swap1\n      swap4\n      sstore\n        /* \"contracts2/tokens/LiquidityGeneratorToken.sol\":49753:49771  _rOwned[recipient] */\n      swap1\n      dup12\n      and\n      dup2\n      mstore\n      keccak256\n      sload\n        /* \"contracts2/tokens/LiquidityGeneratorToken.sol\":49753:49792  _rOwned[recipient].add(rTransferAmount) */\n      tag_548\n      swap1\n        /* \"contracts2/tokens/LiquidityGeneratorToken.sol\":49776:49791  rTransferAmount */\n      dup8\n        /* \"contracts2/tokens/LiquidityGeneratorToken.sol\":49753:49775  _rOwned[recipient].add */\n      tag_285\n        /* \"contracts2/tokens/LiquidityGeneratorToken.sol\":49753:49792  _rOwned[recipient].add(rTransferAmount) */\n      jump\t// in\n    tag_548:\n      sub(shl(0xa0, 0x01), 0x01)\n        /* \"contracts2/tokens/LiquidityGeneratorToken.sol\":49732:49750  _rOwned[recipient] */\n      dup11\n      and\n      0x00\n      swap1\n      dup2\n      mstore\n        /* \"contracts2/tokens/LiquidityGeneratorToken.sol\":49732:49739  _rOwned */\n      0x01\n        /* \"contracts2/tokens/LiquidityGeneratorToken.sol\":49732:49750  _rOwned[recipient] */\n      0x20\n      mstore\n      0x40\n      swap1\n      keccak256\n        /* \"contracts2/tokens/LiquidityGeneratorToken.sol\":49732:49792  _rOwned[recipient] = _rOwned[recipient].add(rTransferAmount) */\n      sstore\n        /* \"contracts2/tokens/LiquidityGeneratorToken.sol\":49802:49828  _takeLiquidity(tLiquidity) */\n      tag_549\n        /* \"contracts2/tokens/LiquidityGeneratorToken.sol\":49817:49827  tLiquidity */\n      dup3\n        /* \"contracts2/tokens/LiquidityGeneratorToken.sol\":49802:49816  _takeLiquidity */\n      tag_550\n        /* \"contracts2/tokens/LiquidityGeneratorToken.sol\":49802:49828  _takeLiquidity(tLiquidity) */\n      jump\t// in\n    tag_549:\n        /* \"contracts2/tokens/LiquidityGeneratorToken.sol\":49838:49863  _takeCharityFee(tCharity) */\n      tag_551\n        /* \"contracts2/tokens/LiquidityGeneratorToken.sol\":49854:49862  tCharity */\n      dup2\n        /* \"contracts2/tokens/LiquidityGeneratorToken.sol\":49838:49853  _takeCharityFee */\n      tag_552\n        /* \"contracts2/tokens/LiquidityGeneratorToken.sol\":49838:49863  _takeCharityFee(tCharity) */\n      jump\t// in\n    tag_551:\n        /* \"contracts2/tokens/LiquidityGeneratorToken.sol\":49873:49896  _reflectFee(rFee, tFee) */\n      tag_553\n        /* \"contracts2/tokens/LiquidityGeneratorToken.sol\":49885:49889  rFee */\n      dup6\n        /* \"contracts2/tokens/LiquidityGeneratorToken.sol\":49891:49895  tFee */\n      dup5\n        /* \"contracts2/tokens/LiquidityGeneratorToken.sol\":49873:49884  _reflectFee */\n      tag_554\n        /* \"contracts2/tokens/LiquidityGeneratorToken.sol\":49873:49896  _reflectFee(rFee, tFee) */\n      jump\t// in\n    tag_553:\n        /* \"contracts2/tokens/LiquidityGeneratorToken.sol\":49928:49937  recipient */\n      dup9\n      sub(shl(0xa0, 0x01), 0x01)\n        /* \"contracts2/tokens/LiquidityGeneratorToken.sol\":49911:49955  Transfer(sender, recipient, tTransferAmount) */\n      and\n        /* \"contracts2/tokens/LiquidityGeneratorToken.sol\":49920:49926  sender */\n      dup11\n      sub(shl(0xa0, 0x01), 0x01)\n        /* \"contracts2/tokens/LiquidityGeneratorToken.sol\":49911:49955  Transfer(sender, recipient, tTransferAmount) */\n      and\n      0xddf252ad1be2c89b69c2b068fc378daa952ba7f163c4a11628f55a4df523b3ef\n        /* \"contracts2/tokens/LiquidityGeneratorToken.sol\":49939:49954  tTransferAmount */\n      dup7\n        /* \"contracts2/tokens/LiquidityGeneratorToken.sol\":49911:49955  Transfer(sender, recipient, tTransferAmount) */\n      mload(0x40)\n      tag_555\n      swap2\n        /* \"#utility.yul\":9572:9597   */\n      dup2\n      mstore\n        /* \"#utility.yul\":9560:9562   */\n      0x20\n        /* \"#utility.yul\":9545:9563   */\n      add\n      swap1\n        /* \"#utility.yul\":9527:9603   */\n      jump\n        /* \"contracts2/tokens/LiquidityGeneratorToken.sol\":49911:49955  Transfer(sender, recipient, tTransferAmount) */\n    tag_555:\n      mload(0x40)\n      dup1\n      swap2\n      sub\n      swap1\n      log3\n        /* \"contracts2/tokens/LiquidityGeneratorToken.sol\":49230:49962  function _transferFromExcluded(... */\n      pop\n      pop\n      pop\n      pop\n      pop\n      pop\n      pop\n      pop\n      pop\n      pop\n      jump\t// out\n        /* \"contracts2/tokens/LiquidityGeneratorToken.sol\":48480:49224  function _transferToExcluded(... */\n    tag_461:\n        /* \"contracts2/tokens/LiquidityGeneratorToken.sol\":48623:48638  uint256 rAmount */\n      0x00\n        /* \"contracts2/tokens/LiquidityGeneratorToken.sol\":48652:48675  uint256 rTransferAmount */\n      dup1\n        /* \"contracts2/tokens/LiquidityGeneratorToken.sol\":48689:48701  uint256 rFee */\n      0x00\n        /* \"contracts2/tokens/LiquidityGeneratorToken.sol\":48715:48738  uint256 tTransferAmount */\n      dup1\n        /* \"contracts2/tokens/LiquidityGeneratorToken.sol\":48752:48764  uint256 tFee */\n      0x00\n        /* \"contracts2/tokens/LiquidityGeneratorToken.sol\":48778:48796  uint256 tLiquidity */\n      dup1\n        /* \"contracts2/tokens/LiquidityGeneratorToken.sol\":48810:48826  uint256 tCharity */\n      0x00\n        /* \"contracts2/tokens/LiquidityGeneratorToken.sol\":48839:48858  _getValues(tAmount) */\n      tag_557\n        /* \"contracts2/tokens/LiquidityGeneratorToken.sol\":48850:48857  tAmount */\n      dup9\n        /* \"contracts2/tokens/LiquidityGeneratorToken.sol\":48839:48849  _getValues */\n      tag_292\n        /* \"contracts2/tokens/LiquidityGeneratorToken.sol\":48839:48858  _getValues(tAmount) */\n      jump\t// in\n    tag_557:\n        /* \"contracts2/tokens/LiquidityGeneratorToken.sol\":48609:48858  (... */\n      swap7\n      pop\n      swap7\n      pop\n      swap7\n      pop\n      swap7\n      pop\n      swap7\n      pop\n      swap7\n      pop\n      swap7\n      pop\n        /* \"contracts2/tokens/LiquidityGeneratorToken.sol\":48886:48914  _rOwned[sender].sub(rAmount) */\n      tag_558\n        /* \"contracts2/tokens/LiquidityGeneratorToken.sol\":48906:48913  rAmount */\n      dup8\n        /* \"contracts2/tokens/LiquidityGeneratorToken.sol\":48886:48893  _rOwned */\n      0x01\n        /* \"contracts2/tokens/LiquidityGeneratorToken.sol\":48886:48901  _rOwned[sender] */\n      0x00\n        /* \"contracts2/tokens/LiquidityGeneratorToken.sol\":48894:48900  sender */\n      dup14\n      sub(shl(0xa0, 0x01), 0x01)\n        /* \"contracts2/tokens/LiquidityGeneratorToken.sol\":48886:48901  _rOwned[sender] */\n      and\n      sub(shl(0xa0, 0x01), 0x01)\n      and\n      dup2\n      mstore\n      0x20\n      add\n      swap1\n      dup2\n      mstore\n      0x20\n      add\n      0x00\n      keccak256\n      sload\n        /* \"contracts2/tokens/LiquidityGeneratorToken.sol\":48886:48905  _rOwned[sender].sub */\n      tag_294\n      swap1\n        /* \"contracts2/tokens/LiquidityGeneratorToken.sol\":48886:48914  _rOwned[sender].sub(rAmount) */\n      swap2\n      swap1\n      0xffffffff\n      and\n      jump\t// in\n    tag_558:\n      sub(shl(0xa0, 0x01), 0x01)\n        /* \"contracts2/tokens/LiquidityGeneratorToken.sol\":48868:48883  _rOwned[sender] */\n      dup1\n      dup13\n      and\n      0x00\n      swap1\n      dup2\n      mstore\n        /* \"contracts2/tokens/LiquidityGeneratorToken.sol\":48868:48875  _rOwned */\n      0x01\n        /* \"contracts2/tokens/LiquidityGeneratorToken.sol\":48868:48883  _rOwned[sender] */\n      0x20\n      swap1\n      dup2\n      mstore\n      0x40\n      dup1\n      dup4\n      keccak256\n        /* \"contracts2/tokens/LiquidityGeneratorToken.sol\":48868:48914  _rOwned[sender] = _rOwned[sender].sub(rAmount) */\n      swap5\n      swap1\n      swap5\n      sstore\n        /* \"contracts2/tokens/LiquidityGeneratorToken.sol\":48945:48963  _tOwned[recipient] */\n      swap2\n      dup13\n      and\n      dup2\n      mstore\n        /* \"contracts2/tokens/LiquidityGeneratorToken.sol\":48945:48952  _tOwned */\n      0x02\n        /* \"contracts2/tokens/LiquidityGeneratorToken.sol\":48945:48963  _tOwned[recipient] */\n      swap1\n      swap2\n      mstore\n      keccak256\n      sload\n        /* \"contracts2/tokens/LiquidityGeneratorToken.sol\":48945:48984  _tOwned[recipient].add(tTransferAmount) */\n      tag_559\n      swap1\n        /* \"contracts2/tokens/LiquidityGeneratorToken.sol\":48968:48983  tTransferAmount */\n      dup6\n        /* \"contracts2/tokens/LiquidityGeneratorToken.sol\":48945:48967  _tOwned[recipient].add */\n      tag_285\n        /* \"contracts2/tokens/LiquidityGeneratorToken.sol\":48945:48984  _tOwned[recipient].add(tTransferAmount) */\n      jump\t// in\n    tag_559:\n      sub(shl(0xa0, 0x01), 0x01)\n        /* \"contracts2/tokens/LiquidityGeneratorToken.sol\":48924:48942  _tOwned[recipient] */\n      dup11\n      and\n      0x00\n      swap1\n      dup2\n      mstore\n        /* \"contracts2/tokens/LiquidityGeneratorToken.sol\":48924:48931  _tOwned */\n      0x02\n        /* \"contracts2/tokens/LiquidityGeneratorToken.sol\":48924:48942  _tOwned[recipient] */\n      0x20\n      swap1\n      dup2\n      mstore\n      0x40\n      dup1\n      dup4\n      keccak256\n        /* \"contracts2/tokens/LiquidityGeneratorToken.sol\":48924:48984  _tOwned[recipient] = _tOwned[recipient].add(tTransferAmount) */\n      swap4\n      swap1\n      swap4\n      sstore\n        /* \"contracts2/tokens/LiquidityGeneratorToken.sol\":49015:49022  _rOwned */\n      0x01\n        /* \"contracts2/tokens/LiquidityGeneratorToken.sol\":49015:49033  _rOwned[recipient] */\n      swap1\n      mstore\n      keccak256\n      sload\n        /* \"contracts2/tokens/LiquidityGeneratorToken.sol\":49015:49054  _rOwned[recipient].add(rTransferAmount) */\n      tag_548\n      swap1\n        /* \"contracts2/tokens/LiquidityGeneratorToken.sol\":49038:49053  rTransferAmount */\n      dup8\n        /* \"contracts2/tokens/LiquidityGeneratorToken.sol\":49015:49037  _rOwned[recipient].add */\n      tag_285\n        /* \"contracts2/tokens/LiquidityGeneratorToken.sol\":49015:49054  _rOwned[recipient].add(rTransferAmount) */\n      jump\t// in\n        /* \"contracts2/tokens/LiquidityGeneratorToken.sol\":47802:48474  function _transferStandard(... */\n    tag_466:\n        /* \"contracts2/tokens/LiquidityGeneratorToken.sol\":47943:47958  uint256 rAmount */\n      0x00\n        /* \"contracts2/tokens/LiquidityGeneratorToken.sol\":47972:47995  uint256 rTransferAmount */\n      dup1\n        /* \"contracts2/tokens/LiquidityGeneratorToken.sol\":48009:48021  uint256 rFee */\n      0x00\n        /* \"contracts2/tokens/LiquidityGeneratorToken.sol\":48035:48058  uint256 tTransferAmount */\n      dup1\n        /* \"contracts2/tokens/LiquidityGeneratorToken.sol\":48072:48084  uint256 tFee */\n      0x00\n        /* \"contracts2/tokens/LiquidityGeneratorToken.sol\":48098:48116  uint256 tLiquidity */\n      dup1\n        /* \"contracts2/tokens/LiquidityGeneratorToken.sol\":48130:48146  uint256 tCharity */\n      0x00\n        /* \"contracts2/tokens/LiquidityGeneratorToken.sol\":48159:48178  _getValues(tAmount) */\n      tag_566\n        /* \"contracts2/tokens/LiquidityGeneratorToken.sol\":48170:48177  tAmount */\n      dup9\n        /* \"contracts2/tokens/LiquidityGeneratorToken.sol\":48159:48169  _getValues */\n      tag_292\n        /* \"contracts2/tokens/LiquidityGeneratorToken.sol\":48159:48178  _getValues(tAmount) */\n      jump\t// in\n    tag_566:\n        /* \"contracts2/tokens/LiquidityGeneratorToken.sol\":47929:48178  (... */\n      swap7\n      pop\n      swap7\n      pop\n      swap7\n      pop\n      swap7\n      pop\n      swap7\n      pop\n      swap7\n      pop\n      swap7\n      pop\n        /* \"contracts2/tokens/LiquidityGeneratorToken.sol\":48206:48234  _rOwned[sender].sub(rAmount) */\n      tag_547\n        /* \"contracts2/tokens/LiquidityGeneratorToken.sol\":48226:48233  rAmount */\n      dup8\n        /* \"contracts2/tokens/LiquidityGeneratorToken.sol\":48206:48213  _rOwned */\n      0x01\n        /* \"contracts2/tokens/LiquidityGeneratorToken.sol\":48206:48221  _rOwned[sender] */\n      0x00\n        /* \"contracts2/tokens/LiquidityGeneratorToken.sol\":48214:48220  sender */\n      dup14\n      sub(shl(0xa0, 0x01), 0x01)\n        /* \"contracts2/tokens/LiquidityGeneratorToken.sol\":48206:48221  _rOwned[sender] */\n      and\n      sub(shl(0xa0, 0x01), 0x01)\n      and\n      dup2\n      mstore\n      0x20\n      add\n      swap1\n      dup2\n      mstore\n      0x20\n      add\n      0x00\n      keccak256\n      sload\n        /* \"contracts2/tokens/LiquidityGeneratorToken.sol\":48206:48225  _rOwned[sender].sub */\n      tag_294\n      swap1\n        /* \"contracts2/tokens/LiquidityGeneratorToken.sol\":48206:48234  _rOwned[sender].sub(rAmount) */\n      swap2\n      swap1\n      0xffffffff\n      and\n      jump\t// in\n        /* \"contracts2/tokens/LiquidityGeneratorToken.sol\":36233:37035  function _transferBothExcluded(... */\n    tag_471:\n        /* \"contracts2/tokens/LiquidityGeneratorToken.sol\":36378:36393  uint256 rAmount */\n      0x00\n        /* \"contracts2/tokens/LiquidityGeneratorToken.sol\":36407:36430  uint256 rTransferAmount */\n      dup1\n        /* \"contracts2/tokens/LiquidityGeneratorToken.sol\":36444:36456  uint256 rFee */\n      0x00\n        /* \"contracts2/tokens/LiquidityGeneratorToken.sol\":36470:36493  uint256 tTransferAmount */\n      dup1\n        /* \"contracts2/tokens/LiquidityGeneratorToken.sol\":36507:36519  uint256 tFee */\n      0x00\n        /* \"contracts2/tokens/LiquidityGeneratorToken.sol\":36533:36551  uint256 tLiquidity */\n      dup1\n        /* \"contracts2/tokens/LiquidityGeneratorToken.sol\":36565:36581  uint256 tCharity */\n      0x00\n        /* \"contracts2/tokens/LiquidityGeneratorToken.sol\":36594:36613  _getValues(tAmount) */\n      tag_574\n        /* \"contracts2/tokens/LiquidityGeneratorToken.sol\":36605:36612  tAmount */\n      dup9\n        /* \"contracts2/tokens/LiquidityGeneratorToken.sol\":36594:36604  _getValues */\n      tag_292\n        /* \"contracts2/tokens/LiquidityGeneratorToken.sol\":36594:36613  _getValues(tAmount) */\n      jump\t// in\n    tag_574:\n        /* \"contracts2/tokens/LiquidityGeneratorToken.sol\":36364:36613  (... */\n      swap7\n      pop\n      swap7\n      pop\n      swap7\n      pop\n      swap7\n      pop\n      swap7\n      pop\n      swap7\n      pop\n      swap7\n      pop\n        /* \"contracts2/tokens/LiquidityGeneratorToken.sol\":36641:36669  _tOwned[sender].sub(tAmount) */\n      tag_575\n        /* \"contracts2/tokens/LiquidityGeneratorToken.sol\":36661:36668  tAmount */\n      dup9\n        /* \"contracts2/tokens/LiquidityGeneratorToken.sol\":36641:36648  _tOwned */\n      0x02\n        /* \"contracts2/tokens/LiquidityGeneratorToken.sol\":36641:36656  _tOwned[sender] */\n      0x00\n        /* \"contracts2/tokens/LiquidityGeneratorToken.sol\":36649:36655  sender */\n      dup14\n      sub(shl(0xa0, 0x01), 0x01)\n        /* \"contracts2/tokens/LiquidityGeneratorToken.sol\":36641:36656  _tOwned[sender] */\n      and\n      sub(shl(0xa0, 0x01), 0x01)\n      and\n      dup2\n      mstore\n      0x20\n      add\n      swap1\n      dup2\n      mstore\n      0x20\n      add\n      0x00\n      keccak256\n      sload\n        /* \"contracts2/tokens/LiquidityGeneratorToken.sol\":36641:36660  _tOwned[sender].sub */\n      tag_294\n      swap1\n        /* \"contracts2/tokens/LiquidityGeneratorToken.sol\":36641:36669  _tOwned[sender].sub(tAmount) */\n      swap2\n      swap1\n      0xffffffff\n      and\n      jump\t// in\n    tag_575:\n      sub(shl(0xa0, 0x01), 0x01)\n        /* \"contracts2/tokens/LiquidityGeneratorToken.sol\":36623:36638  _tOwned[sender] */\n      dup12\n      and\n      0x00\n      swap1\n      dup2\n      mstore\n        /* \"contracts2/tokens/LiquidityGeneratorToken.sol\":36623:36630  _tOwned */\n      0x02\n        /* \"contracts2/tokens/LiquidityGeneratorToken.sol\":36623:36638  _tOwned[sender] */\n      0x20\n      swap1\n      dup2\n      mstore\n      0x40\n      dup1\n      dup4\n      keccak256\n        /* \"contracts2/tokens/LiquidityGeneratorToken.sol\":36623:36669  _tOwned[sender] = _tOwned[sender].sub(tAmount) */\n      swap4\n      swap1\n      swap4\n      sstore\n        /* \"contracts2/tokens/LiquidityGeneratorToken.sol\":36697:36704  _rOwned */\n      0x01\n        /* \"contracts2/tokens/LiquidityGeneratorToken.sol\":36697:36712  _rOwned[sender] */\n      swap1\n      mstore\n      keccak256\n      sload\n        /* \"contracts2/tokens/LiquidityGeneratorToken.sol\":36697:36725  _rOwned[sender].sub(rAmount) */\n      tag_558\n      swap1\n        /* \"contracts2/tokens/LiquidityGeneratorToken.sol\":36717:36724  rAmount */\n      dup9\n        /* \"contracts2/tokens/LiquidityGeneratorToken.sol\":36697:36716  _rOwned[sender].sub */\n      tag_294\n        /* \"contracts2/tokens/LiquidityGeneratorToken.sol\":36697:36725  _rOwned[sender].sub(rAmount) */\n      jump\t// in\n        /* \"contracts2/tokens/LiquidityGeneratorToken.sol\":41843:41971  function calculateTaxFee(uint256 _amount) private view returns (uint256) {... */\n    tag_498:\n        /* \"contracts2/tokens/LiquidityGeneratorToken.sol\":41907:41914  uint256 */\n      0x00\n        /* \"contracts2/tokens/LiquidityGeneratorToken.sol\":41933:41964  _amount.mul(_taxFee).div(10**4) */\n      tag_233\n        /* \"contracts2/tokens/LiquidityGeneratorToken.sol\":41958:41963  10**4 */\n      0x2710\n        /* \"contracts2/tokens/LiquidityGeneratorToken.sol\":41933:41953  _amount.mul(_taxFee) */\n      tag_586\n        /* \"contracts2/tokens/LiquidityGeneratorToken.sol\":41945:41952  _taxFee */\n      sload(0x0d)\n        /* \"contracts2/tokens/LiquidityGeneratorToken.sol\":41933:41940  _amount */\n      dup6\n        /* \"contracts2/tokens/LiquidityGeneratorToken.sol\":41933:41944  _amount.mul */\n      tag_210\n      swap1\n        /* \"contracts2/tokens/LiquidityGeneratorToken.sol\":41933:41953  _amount.mul(_taxFee) */\n      swap2\n      swap1\n      0xffffffff\n      and\n      jump\t// in\n    tag_586:\n        /* \"contracts2/tokens/LiquidityGeneratorToken.sol\":41933:41957  _amount.mul(_taxFee).div */\n      swap1\n      tag_211\n        /* \"contracts2/tokens/LiquidityGeneratorToken.sol\":41933:41964  _amount.mul(_taxFee).div(10**4) */\n      jump\t// in\n        /* \"contracts2/tokens/LiquidityGeneratorToken.sol\":41977:42145  function calculateLiquidityFee(uint256 _amount)... */\n    tag_500:\n        /* \"contracts2/tokens/LiquidityGeneratorToken.sol\":42071:42078  uint256 */\n      0x00\n        /* \"contracts2/tokens/LiquidityGeneratorToken.sol\":42101:42138  _amount.mul(_liquidityFee).div(10**4) */\n      tag_233\n        /* \"contracts2/tokens/LiquidityGeneratorToken.sol\":42132:42137  10**4 */\n      0x2710\n        /* \"contracts2/tokens/LiquidityGeneratorToken.sol\":42101:42127  _amount.mul(_liquidityFee) */\n      tag_586\n        /* \"contracts2/tokens/LiquidityGeneratorToken.sol\":42113:42126  _liquidityFee */\n      sload(0x0f)\n        /* \"contracts2/tokens/LiquidityGeneratorToken.sol\":42101:42108  _amount */\n      dup6\n        /* \"contracts2/tokens/LiquidityGeneratorToken.sol\":42101:42112  _amount.mul */\n      tag_210\n      swap1\n        /* \"contracts2/tokens/LiquidityGeneratorToken.sol\":42101:42127  _amount.mul(_liquidityFee) */\n      swap2\n      swap1\n      0xffffffff\n      and\n      jump\t// in\n        /* \"contracts2/tokens/LiquidityGeneratorToken.sol\":42151:42368  function calculateCharityFee(uint256 _amount)... */\n    tag_502:\n        /* \"contracts2/tokens/LiquidityGeneratorToken.sol\":42270:42285  _charityAddress */\n      sload(0x15)\n        /* \"contracts2/tokens/LiquidityGeneratorToken.sol\":42243:42250  uint256 */\n      0x00\n      swap1\n      sub(shl(0xa0, 0x01), 0x01)\n        /* \"contracts2/tokens/LiquidityGeneratorToken.sol\":42270:42285  _charityAddress */\n      and\n        /* \"contracts2/tokens/LiquidityGeneratorToken.sol\":42266:42309  if (_charityAddress == address(0)) return 0 */\n      tag_591\n      jumpi\n      pop\n        /* \"contracts2/tokens/LiquidityGeneratorToken.sol\":42308:42309  0 */\n      0x00\n      swap2\n        /* \"contracts2/tokens/LiquidityGeneratorToken.sol\":42151:42368  function calculateCharityFee(uint256 _amount)... */\n      swap1\n      pop\n      jump\t// out\n        /* \"contracts2/tokens/LiquidityGeneratorToken.sol\":42266:42309  if (_charityAddress == address(0)) return 0 */\n    tag_591:\n        /* \"contracts2/tokens/LiquidityGeneratorToken.sol\":42326:42361  _amount.mul(_charityFee).div(10**4) */\n      tag_233\n        /* \"contracts2/tokens/LiquidityGeneratorToken.sol\":42355:42360  10**4 */\n      0x2710\n        /* \"contracts2/tokens/LiquidityGeneratorToken.sol\":42326:42350  _amount.mul(_charityFee) */\n      tag_586\n        /* \"contracts2/tokens/LiquidityGeneratorToken.sol\":42338:42349  _charityFee */\n      sload(0x11)\n        /* \"contracts2/tokens/LiquidityGeneratorToken.sol\":42326:42333  _amount */\n      dup6\n        /* \"contracts2/tokens/LiquidityGeneratorToken.sol\":42326:42337  _amount.mul */\n      tag_210\n      swap1\n        /* \"contracts2/tokens/LiquidityGeneratorToken.sol\":42326:42350  _amount.mul(_charityFee) */\n      swap2\n      swap1\n      0xffffffff\n      and\n      jump\t// in\n        /* \"contracts2/tokens/LiquidityGeneratorToken.sol\":40968:41317  function _takeLiquidity(uint256 tLiquidity) private {... */\n    tag_550:\n        /* \"contracts2/tokens/LiquidityGeneratorToken.sol\":41030:41049  uint256 currentRate */\n      0x00\n        /* \"contracts2/tokens/LiquidityGeneratorToken.sol\":41052:41062  _getRate() */\n      tag_595\n        /* \"contracts2/tokens/LiquidityGeneratorToken.sol\":41052:41060  _getRate */\n      tag_252\n        /* \"contracts2/tokens/LiquidityGeneratorToken.sol\":41052:41062  _getRate() */\n      jump\t// in\n    tag_595:\n        /* \"contracts2/tokens/LiquidityGeneratorToken.sol\":41030:41062  uint256 currentRate = _getRate() */\n      swap1\n      pop\n        /* \"contracts2/tokens/LiquidityGeneratorToken.sol\":41072:41090  uint256 rLiquidity */\n      0x00\n        /* \"contracts2/tokens/LiquidityGeneratorToken.sol\":41093:41120  tLiquidity.mul(currentRate) */\n      tag_596\n        /* \"contracts2/tokens/LiquidityGeneratorToken.sol\":41093:41103  tLiquidity */\n      dup4\n        /* \"contracts2/tokens/LiquidityGeneratorToken.sol\":41030:41062  uint256 currentRate = _getRate() */\n      dup4\n        /* \"contracts2/tokens/LiquidityGeneratorToken.sol\":41093:41107  tLiquidity.mul */\n      tag_210\n        /* \"contracts2/tokens/LiquidityGeneratorToken.sol\":41093:41120  tLiquidity.mul(currentRate) */\n      jump\t// in\n    tag_596:\n        /* \"contracts2/tokens/LiquidityGeneratorToken.sol\":41171:41175  this */\n      address\n        /* \"contracts2/tokens/LiquidityGeneratorToken.sol\":41155:41177  _rOwned[address(this)] */\n      0x00\n      swap1\n      dup2\n      mstore\n        /* \"contracts2/tokens/LiquidityGeneratorToken.sol\":41155:41162  _rOwned */\n      0x01\n        /* \"contracts2/tokens/LiquidityGeneratorToken.sol\":41155:41177  _rOwned[address(this)] */\n      0x20\n      mstore\n      0x40\n      swap1\n      keccak256\n      sload\n        /* \"contracts2/tokens/LiquidityGeneratorToken.sol\":41072:41120  uint256 rLiquidity = tLiquidity.mul(currentRate) */\n      swap1\n      swap2\n      pop\n        /* \"contracts2/tokens/LiquidityGeneratorToken.sol\":41155:41193  _rOwned[address(this)].add(rLiquidity) */\n      tag_597\n      swap1\n        /* \"contracts2/tokens/LiquidityGeneratorToken.sol\":41072:41120  uint256 rLiquidity = tLiquidity.mul(currentRate) */\n      dup3\n        /* \"contracts2/tokens/LiquidityGeneratorToken.sol\":41155:41181  _rOwned[address(this)].add */\n      tag_285\n        /* \"contracts2/tokens/LiquidityGeneratorToken.sol\":41155:41193  _rOwned[address(this)].add(rLiquidity) */\n      jump\t// in\n    tag_597:\n        /* \"contracts2/tokens/LiquidityGeneratorToken.sol\":41146:41150  this */\n      address\n        /* \"contracts2/tokens/LiquidityGeneratorToken.sol\":41130:41152  _rOwned[address(this)] */\n      0x00\n      swap1\n      dup2\n      mstore\n        /* \"contracts2/tokens/LiquidityGeneratorToken.sol\":41130:41137  _rOwned */\n      0x01\n        /* \"contracts2/tokens/LiquidityGeneratorToken.sol\":41130:41152  _rOwned[address(this)] */\n      0x20\n      swap1\n      dup2\n      mstore\n      0x40\n      dup1\n      dup4\n      keccak256\n        /* \"contracts2/tokens/LiquidityGeneratorToken.sol\":41130:41193  _rOwned[address(this)] = _rOwned[address(this)].add(rLiquidity) */\n      swap4\n      swap1\n      swap4\n      sstore\n        /* \"contracts2/tokens/LiquidityGeneratorToken.sol\":41207:41218  _isExcluded */\n      0x05\n        /* \"contracts2/tokens/LiquidityGeneratorToken.sol\":41207:41233  _isExcluded[address(this)] */\n      swap1\n      mstore\n      keccak256\n      sload\n      0xff\n      and\n        /* \"contracts2/tokens/LiquidityGeneratorToken.sol\":41203:41310  if (_isExcluded[address(this)])... */\n      iszero\n      tag_598\n      jumpi\n        /* \"contracts2/tokens/LiquidityGeneratorToken.sol\":41288:41292  this */\n      address\n        /* \"contracts2/tokens/LiquidityGeneratorToken.sol\":41272:41294  _tOwned[address(this)] */\n      0x00\n      swap1\n      dup2\n      mstore\n        /* \"contracts2/tokens/LiquidityGeneratorToken.sol\":41272:41279  _tOwned */\n      0x02\n        /* \"contracts2/tokens/LiquidityGeneratorToken.sol\":41272:41294  _tOwned[address(this)] */\n      0x20\n      mstore\n      0x40\n      swap1\n      keccak256\n      sload\n        /* \"contracts2/tokens/LiquidityGeneratorToken.sol\":41272:41310  _tOwned[address(this)].add(tLiquidity) */\n      tag_599\n      swap1\n        /* \"contracts2/tokens/LiquidityGeneratorToken.sol\":41299:41309  tLiquidity */\n      dup5\n        /* \"contracts2/tokens/LiquidityGeneratorToken.sol\":41272:41298  _tOwned[address(this)].add */\n      tag_285\n        /* \"contracts2/tokens/LiquidityGeneratorToken.sol\":41272:41310  _tOwned[address(this)].add(tLiquidity) */\n      jump\t// in\n    tag_599:\n        /* \"contracts2/tokens/LiquidityGeneratorToken.sol\":41263:41267  this */\n      address\n        /* \"contracts2/tokens/LiquidityGeneratorToken.sol\":41247:41269  _tOwned[address(this)] */\n      0x00\n      swap1\n      dup2\n      mstore\n        /* \"contracts2/tokens/LiquidityGeneratorToken.sol\":41247:41254  _tOwned */\n      0x02\n        /* \"contracts2/tokens/LiquidityGeneratorToken.sol\":41247:41269  _tOwned[address(this)] */\n      0x20\n      mstore\n      0x40\n      swap1\n      keccak256\n        /* \"contracts2/tokens/LiquidityGeneratorToken.sol\":41247:41310  _tOwned[address(this)] = _tOwned[address(this)].add(tLiquidity) */\n      sstore\n        /* \"contracts2/tokens/LiquidityGeneratorToken.sol\":41203:41310  if (_isExcluded[address(this)])... */\n    tag_598:\n        /* \"contracts2/tokens/LiquidityGeneratorToken.sol\":40968:41317  function _takeLiquidity(uint256 tLiquidity) private {... */\n      pop\n      pop\n      pop\n      jump\t// out\n        /* \"contracts2/tokens/LiquidityGeneratorToken.sol\":41323:41837  function _takeCharityFee(uint256 tCharity) private {... */\n    tag_552:\n        /* \"contracts2/tokens/LiquidityGeneratorToken.sol\":41388:41400  tCharity > 0 */\n      dup1\n      iszero\n        /* \"contracts2/tokens/LiquidityGeneratorToken.sol\":41384:41831  if (tCharity > 0) {... */\n      tag_223\n      jumpi\n        /* \"contracts2/tokens/LiquidityGeneratorToken.sol\":41416:41435  uint256 currentRate */\n      0x00\n        /* \"contracts2/tokens/LiquidityGeneratorToken.sol\":41438:41448  _getRate() */\n      tag_602\n        /* \"contracts2/tokens/LiquidityGeneratorToken.sol\":41438:41446  _getRate */\n      tag_252\n        /* \"contracts2/tokens/LiquidityGeneratorToken.sol\":41438:41448  _getRate() */\n      jump\t// in\n    tag_602:\n        /* \"contracts2/tokens/LiquidityGeneratorToken.sol\":41416:41448  uint256 currentRate = _getRate() */\n      swap1\n      pop\n        /* \"contracts2/tokens/LiquidityGeneratorToken.sol\":41462:41478  uint256 rCharity */\n      0x00\n        /* \"contracts2/tokens/LiquidityGeneratorToken.sol\":41481:41506  tCharity.mul(currentRate) */\n      tag_603\n        /* \"contracts2/tokens/LiquidityGeneratorToken.sol\":41481:41489  tCharity */\n      dup4\n        /* \"contracts2/tokens/LiquidityGeneratorToken.sol\":41416:41448  uint256 currentRate = _getRate() */\n      dup4\n        /* \"contracts2/tokens/LiquidityGeneratorToken.sol\":41481:41493  tCharity.mul */\n      tag_210\n        /* \"contracts2/tokens/LiquidityGeneratorToken.sol\":41481:41506  tCharity.mul(currentRate) */\n      jump\t// in\n    tag_603:\n        /* \"contracts2/tokens/LiquidityGeneratorToken.sol\":41555:41570  _charityAddress */\n      and(sub(shl(0xa0, 0x01), 0x01), sload(0x15))\n        /* \"contracts2/tokens/LiquidityGeneratorToken.sol\":41547:41571  _rOwned[_charityAddress] */\n      0x00\n      swap1\n      dup2\n      mstore\n        /* \"contracts2/tokens/LiquidityGeneratorToken.sol\":41547:41554  _rOwned */\n      0x01\n        /* \"contracts2/tokens/LiquidityGeneratorToken.sol\":41547:41571  _rOwned[_charityAddress] */\n      0x20\n      mstore\n      0x40\n      swap1\n      keccak256\n      sload\n        /* \"contracts2/tokens/LiquidityGeneratorToken.sol\":41462:41506  uint256 rCharity = tCharity.mul(currentRate) */\n      swap1\n      swap2\n      pop\n        /* \"contracts2/tokens/LiquidityGeneratorToken.sol\":41547:41585  _rOwned[_charityAddress].add(rCharity) */\n      tag_604\n      swap1\n        /* \"contracts2/tokens/LiquidityGeneratorToken.sol\":41462:41506  uint256 rCharity = tCharity.mul(currentRate) */\n      dup3\n        /* \"contracts2/tokens/LiquidityGeneratorToken.sol\":41547:41575  _rOwned[_charityAddress].add */\n      tag_285\n        /* \"contracts2/tokens/LiquidityGeneratorToken.sol\":41547:41585  _rOwned[_charityAddress].add(rCharity) */\n      jump\t// in\n    tag_604:\n        /* \"contracts2/tokens/LiquidityGeneratorToken.sol\":41528:41543  _charityAddress */\n      0x15\n      dup1\n      sload\n      sub(shl(0xa0, 0x01), 0x01)\n      swap1\n      dup2\n      and\n        /* \"contracts2/tokens/LiquidityGeneratorToken.sol\":41520:41544  _rOwned[_charityAddress] */\n      0x00\n      swap1\n      dup2\n      mstore\n        /* \"contracts2/tokens/LiquidityGeneratorToken.sol\":41520:41527  _rOwned */\n      0x01\n        /* \"contracts2/tokens/LiquidityGeneratorToken.sol\":41520:41544  _rOwned[_charityAddress] */\n      0x20\n      swap1\n      dup2\n      mstore\n      0x40\n      dup1\n      dup4\n      keccak256\n        /* \"contracts2/tokens/LiquidityGeneratorToken.sol\":41520:41585  _rOwned[_charityAddress] = _rOwned[_charityAddress].add(rCharity) */\n      swap6\n      swap1\n      swap6\n      sstore\n        /* \"contracts2/tokens/LiquidityGeneratorToken.sol\":41615:41630  _charityAddress */\n      swap3\n      sload\n      swap1\n      swap2\n      and\n        /* \"contracts2/tokens/LiquidityGeneratorToken.sol\":41603:41631  _isExcluded[_charityAddress] */\n      dup2\n      mstore\n        /* \"contracts2/tokens/LiquidityGeneratorToken.sol\":41603:41614  _isExcluded */\n      0x05\n        /* \"contracts2/tokens/LiquidityGeneratorToken.sol\":41603:41631  _isExcluded[_charityAddress] */\n      swap1\n      swap2\n      mstore\n      keccak256\n      sload\n      0xff\n      and\n        /* \"contracts2/tokens/LiquidityGeneratorToken.sol\":41599:41752  if (_isExcluded[_charityAddress])... */\n      iszero\n      tag_605\n      jumpi\n        /* \"contracts2/tokens/LiquidityGeneratorToken.sol\":41684:41699  _charityAddress */\n      and(sub(shl(0xa0, 0x01), 0x01), sload(0x15))\n        /* \"contracts2/tokens/LiquidityGeneratorToken.sol\":41676:41700  _tOwned[_charityAddress] */\n      0x00\n      swap1\n      dup2\n      mstore\n        /* \"contracts2/tokens/LiquidityGeneratorToken.sol\":41676:41683  _tOwned */\n      0x02\n        /* \"contracts2/tokens/LiquidityGeneratorToken.sol\":41676:41700  _tOwned[_charityAddress] */\n      0x20\n      mstore\n      0x40\n      swap1\n      keccak256\n      sload\n        /* \"contracts2/tokens/LiquidityGeneratorToken.sol\":41676:41752  _tOwned[_charityAddress].add(... */\n      tag_606\n      swap1\n        /* \"contracts2/tokens/LiquidityGeneratorToken.sol\":41726:41734  tCharity */\n      dup5\n        /* \"contracts2/tokens/LiquidityGeneratorToken.sol\":41676:41704  _tOwned[_charityAddress].add */\n      tag_285\n        /* \"contracts2/tokens/LiquidityGeneratorToken.sol\":41676:41752  _tOwned[_charityAddress].add(... */\n      jump\t// in\n    tag_606:\n        /* \"contracts2/tokens/LiquidityGeneratorToken.sol\":41657:41672  _charityAddress */\n      and(sub(shl(0xa0, 0x01), 0x01), sload(0x15))\n        /* \"contracts2/tokens/LiquidityGeneratorToken.sol\":41649:41673  _tOwned[_charityAddress] */\n      0x00\n      swap1\n      dup2\n      mstore\n        /* \"contracts2/tokens/LiquidityGeneratorToken.sol\":41649:41656  _tOwned */\n      0x02\n        /* \"contracts2/tokens/LiquidityGeneratorToken.sol\":41649:41673  _tOwned[_charityAddress] */\n      0x20\n      mstore\n      0x40\n      swap1\n      keccak256\n        /* \"contracts2/tokens/LiquidityGeneratorToken.sol\":41649:41752  _tOwned[_charityAddress] = _tOwned[_charityAddress].add(... */\n      sstore\n        /* \"contracts2/tokens/LiquidityGeneratorToken.sol\":41599:41752  if (_isExcluded[_charityAddress])... */\n    tag_605:\n        /* \"contracts2/tokens/LiquidityGeneratorToken.sol\":41794:41809  _charityAddress */\n      and(sub(shl(0xa0, 0x01), 0x01), sload(0x15))\n        /* \"contracts2/tokens/LiquidityGeneratorToken.sol\":3499:3509  msg.sender */\n      caller\n      sub(shl(0xa0, 0x01), 0x01)\n        /* \"contracts2/tokens/LiquidityGeneratorToken.sol\":41771:41820  Transfer(_msgSender(), _charityAddress, tCharity) */\n      and\n      0xddf252ad1be2c89b69c2b068fc378daa952ba7f163c4a11628f55a4df523b3ef\n        /* \"contracts2/tokens/LiquidityGeneratorToken.sol\":41811:41819  tCharity */\n      dup6\n        /* \"contracts2/tokens/LiquidityGeneratorToken.sol\":41771:41820  Transfer(_msgSender(), _charityAddress, tCharity) */\n      mload(0x40)\n      tag_398\n      swap2\n        /* \"#utility.yul\":9572:9597   */\n      dup2\n      mstore\n        /* \"#utility.yul\":9560:9562   */\n      0x20\n        /* \"#utility.yul\":9545:9563   */\n      add\n      swap1\n        /* \"#utility.yul\":9527:9603   */\n      jump\n        /* \"contracts2/tokens/LiquidityGeneratorToken.sol\":38046:38190  function _reflectFee(uint256 rFee, uint256 tFee) private {... */\n    tag_554:\n        /* \"contracts2/tokens/LiquidityGeneratorToken.sol\":38123:38130  _rTotal */\n      sload(0x08)\n        /* \"contracts2/tokens/LiquidityGeneratorToken.sol\":38123:38140  _rTotal.sub(rFee) */\n      tag_610\n      swap1\n        /* \"contracts2/tokens/LiquidityGeneratorToken.sol\":38135:38139  rFee */\n      dup4\n        /* \"contracts2/tokens/LiquidityGeneratorToken.sol\":38123:38134  _rTotal.sub */\n      tag_294\n        /* \"contracts2/tokens/LiquidityGeneratorToken.sol\":38123:38140  _rTotal.sub(rFee) */\n      jump\t// in\n    tag_610:\n        /* \"contracts2/tokens/LiquidityGeneratorToken.sol\":38113:38120  _rTotal */\n      0x08\n        /* \"contracts2/tokens/LiquidityGeneratorToken.sol\":38113:38140  _rTotal = _rTotal.sub(rFee) */\n      sstore\n        /* \"contracts2/tokens/LiquidityGeneratorToken.sol\":38163:38173  _tFeeTotal */\n      sload(0x09)\n        /* \"contracts2/tokens/LiquidityGeneratorToken.sol\":38163:38183  _tFeeTotal.add(tFee) */\n      tag_611\n      swap1\n        /* \"contracts2/tokens/LiquidityGeneratorToken.sol\":38178:38182  tFee */\n      dup3\n        /* \"contracts2/tokens/LiquidityGeneratorToken.sol\":38163:38177  _tFeeTotal.add */\n      tag_285\n        /* \"contracts2/tokens/LiquidityGeneratorToken.sol\":38163:38183  _tFeeTotal.add(tFee) */\n      jump\t// in\n    tag_611:\n        /* \"contracts2/tokens/LiquidityGeneratorToken.sol\":38150:38160  _tFeeTotal */\n      0x09\n        /* \"contracts2/tokens/LiquidityGeneratorToken.sol\":38150:38183  _tFeeTotal = _tFeeTotal.add(tFee) */\n      sstore\n      pop\n      pop\n        /* \"contracts2/tokens/LiquidityGeneratorToken.sol\":38046:38190  function _reflectFee(uint256 rFee, uint256 tFee) private {... */\n      jump\t// out\n        /* \"#utility.yul\":14:174   */\n    tag_613:\n        /* \"#utility.yul\":79:99   */\n      dup1\n      calldataload\n        /* \"#utility.yul\":135:148   */\n      dup1\n      iszero\n        /* \"#utility.yul\":128:149   */\n      iszero\n        /* \"#utility.yul\":118:150   */\n      dup2\n      eq\n        /* \"#utility.yul\":108:110   */\n      tag_615\n      jumpi\n        /* \"#utility.yul\":164:165   */\n      0x00\n        /* \"#utility.yul\":161:162   */\n      dup1\n        /* \"#utility.yul\":154:166   */\n      revert\n        /* \"#utility.yul\":108:110   */\n    tag_615:\n        /* \"#utility.yul\":60:174   */\n      swap2\n      swap1\n      pop\n      jump\t// out\n        /* \"#utility.yul\":179:436   */\n    tag_102:\n        /* \"#utility.yul\":238:244   */\n      0x00\n        /* \"#utility.yul\":291:293   */\n      0x20\n        /* \"#utility.yul\":279:288   */\n      dup3\n        /* \"#utility.yul\":270:277   */\n      dup5\n        /* \"#utility.yul\":266:289   */\n      sub\n        /* \"#utility.yul\":262:294   */\n      slt\n        /* \"#utility.yul\":259:261   */\n      iszero\n      tag_617\n      jumpi\n        /* \"#utility.yul\":312:318   */\n      dup1\n        /* \"#utility.yul\":304:310   */\n      dup2\n        /* \"#utility.yul\":297:319   */\n      revert\n        /* \"#utility.yul\":259:261   */\n    tag_617:\n        /* \"#utility.yul\":356:365   */\n      dup2\n        /* \"#utility.yul\":343:366   */\n      calldataload\n        /* \"#utility.yul\":375:406   */\n      tag_253\n        /* \"#utility.yul\":400:405   */\n      dup2\n        /* \"#utility.yul\":375:406   */\n      tag_619\n      jump\t// in\n        /* \"#utility.yul\":441:702   */\n    tag_522:\n        /* \"#utility.yul\":511:517   */\n      0x00\n        /* \"#utility.yul\":564:566   */\n      0x20\n        /* \"#utility.yul\":552:561   */\n      dup3\n        /* \"#utility.yul\":543:550   */\n      dup5\n        /* \"#utility.yul\":539:562   */\n      sub\n        /* \"#utility.yul\":535:567   */\n      slt\n        /* \"#utility.yul\":532:534   */\n      iszero\n      tag_621\n      jumpi\n        /* \"#utility.yul\":585:591   */\n      dup1\n        /* \"#utility.yul\":577:583   */\n      dup2\n        /* \"#utility.yul\":570:592   */\n      revert\n        /* \"#utility.yul\":532:534   */\n    tag_621:\n        /* \"#utility.yul\":622:631   */\n      dup2\n        /* \"#utility.yul\":616:632   */\n      mload\n        /* \"#utility.yul\":641:672   */\n      tag_253\n        /* \"#utility.yul\":666:671   */\n      dup2\n        /* \"#utility.yul\":641:672   */\n      tag_619\n      jump\t// in\n        /* \"#utility.yul\":707:1105   */\n    tag_195:\n        /* \"#utility.yul\":775:781   */\n      0x00\n        /* \"#utility.yul\":783:789   */\n      dup1\n        /* \"#utility.yul\":836:838   */\n      0x40\n        /* \"#utility.yul\":824:833   */\n      dup4\n        /* \"#utility.yul\":815:822   */\n      dup6\n        /* \"#utility.yul\":811:834   */\n      sub\n        /* \"#utility.yul\":807:839   */\n      slt\n        /* \"#utility.yul\":804:806   */\n      iszero\n      tag_624\n      jumpi\n        /* \"#utility.yul\":857:863   */\n      dup1\n        /* \"#utility.yul\":849:855   */\n      dup2\n        /* \"#utility.yul\":842:864   */\n      revert\n        /* \"#utility.yul\":804:806   */\n    tag_624:\n        /* \"#utility.yul\":901:910   */\n      dup3\n        /* \"#utility.yul\":888:911   */\n      calldataload\n        /* \"#utility.yul\":920:951   */\n      tag_625\n        /* \"#utility.yul\":945:950   */\n      dup2\n        /* \"#utility.yul\":920:951   */\n      tag_619\n      jump\t// in\n    tag_625:\n        /* \"#utility.yul\":970:975   */\n      swap2\n      pop\n        /* \"#utility.yul\":1027:1029   */\n      0x20\n        /* \"#utility.yul\":1012:1030   */\n      dup4\n      add\n        /* \"#utility.yul\":999:1031   */\n      calldataload\n        /* \"#utility.yul\":1040:1073   */\n      tag_626\n        /* \"#utility.yul\":999:1031   */\n      dup2\n        /* \"#utility.yul\":1040:1073   */\n      tag_619\n      jump\t// in\n    tag_626:\n        /* \"#utility.yul\":1092:1099   */\n      dup1\n        /* \"#utility.yul\":1082:1099   */\n      swap2\n      pop\n      pop\n        /* \"#utility.yul\":794:1105   */\n      swap3\n      pop\n      swap3\n      swap1\n      pop\n      jump\t// out\n        /* \"#utility.yul\":1110:1576   */\n    tag_86:\n        /* \"#utility.yul\":1187:1193   */\n      0x00\n        /* \"#utility.yul\":1195:1201   */\n      dup1\n        /* \"#utility.yul\":1203:1209   */\n      0x00\n        /* \"#utility.yul\":1256:1258   */\n      0x60\n        /* \"#utility.yul\":1244:1253   */\n      dup5\n        /* \"#utility.yul\":1235:1242   */\n      dup7\n        /* \"#utility.yul\":1231:1254   */\n      sub\n        /* \"#utility.yul\":1227:1259   */\n      slt\n        /* \"#utility.yul\":1224:1226   */\n      iszero\n      tag_628\n      jumpi\n        /* \"#utility.yul\":1277:1283   */\n      dup1\n        /* \"#utility.yul\":1269:1275   */\n      dup2\n        /* \"#utility.yul\":1262:1284   */\n      revert\n        /* \"#utility.yul\":1224:1226   */\n    tag_628:\n        /* \"#utility.yul\":1321:1330   */\n      dup4\n        /* \"#utility.yul\":1308:1331   */\n      calldataload\n        /* \"#utility.yul\":1340:1371   */\n      tag_629\n        /* \"#utility.yul\":1365:1370   */\n      dup2\n        /* \"#utility.yul\":1340:1371   */\n      tag_619\n      jump\t// in\n    tag_629:\n        /* \"#utility.yul\":1390:1395   */\n      swap3\n      pop\n        /* \"#utility.yul\":1447:1449   */\n      0x20\n        /* \"#utility.yul\":1432:1450   */\n      dup5\n      add\n        /* \"#utility.yul\":1419:1451   */\n      calldataload\n        /* \"#utility.yul\":1460:1493   */\n      tag_630\n        /* \"#utility.yul\":1419:1451   */\n      dup2\n        /* \"#utility.yul\":1460:1493   */\n      tag_619\n      jump\t// in\n    tag_630:\n        /* \"#utility.yul\":1214:1576   */\n      swap3\n      swap6\n        /* \"#utility.yul\":1512:1519   */\n      swap3\n      swap5\n      pop\n      pop\n      pop\n        /* \"#utility.yul\":1566:1568   */\n      0x40\n        /* \"#utility.yul\":1551:1569   */\n      swap2\n      swap1\n      swap2\n      add\n        /* \"#utility.yul\":1538:1570   */\n      calldataload\n      swap1\n        /* \"#utility.yul\":1214:1576   */\n      jump\t// out\n        /* \"#utility.yul\":1581:1906   */\n    tag_60:\n        /* \"#utility.yul\":1649:1655   */\n      0x00\n        /* \"#utility.yul\":1657:1663   */\n      dup1\n        /* \"#utility.yul\":1710:1712   */\n      0x40\n        /* \"#utility.yul\":1698:1707   */\n      dup4\n        /* \"#utility.yul\":1689:1696   */\n      dup6\n        /* \"#utility.yul\":1685:1708   */\n      sub\n        /* \"#utility.yul\":1681:1713   */\n      slt\n        /* \"#utility.yul\":1678:1680   */\n      iszero\n      tag_632\n      jumpi\n        /* \"#utility.yul\":1731:1737   */\n      dup2\n        /* \"#utility.yul\":1723:1729   */\n      dup3\n        /* \"#utility.yul\":1716:1738   */\n      revert\n        /* \"#utility.yul\":1678:1680   */\n    tag_632:\n        /* \"#utility.yul\":1775:1784   */\n      dup3\n        /* \"#utility.yul\":1762:1785   */\n      calldataload\n        /* \"#utility.yul\":1794:1825   */\n      tag_633\n        /* \"#utility.yul\":1819:1824   */\n      dup2\n        /* \"#utility.yul\":1794:1825   */\n      tag_619\n      jump\t// in\n    tag_633:\n        /* \"#utility.yul\":1844:1849   */\n      swap5\n        /* \"#utility.yul\":1896:1898   */\n      0x20\n        /* \"#utility.yul\":1881:1899   */\n      swap4\n      swap1\n      swap4\n      add\n        /* \"#utility.yul\":1868:1900   */\n      calldataload\n      swap4\n      pop\n      pop\n      pop\n        /* \"#utility.yul\":1668:1906   */\n      jump\t// out\n        /* \"#utility.yul\":1911:2101   */\n    tag_190:\n        /* \"#utility.yul\":1967:1973   */\n      0x00\n        /* \"#utility.yul\":2020:2022   */\n      0x20\n        /* \"#utility.yul\":2008:2017   */\n      dup3\n        /* \"#utility.yul\":1999:2006   */\n      dup5\n        /* \"#utility.yul\":1995:2018   */\n      sub\n        /* \"#utility.yul\":1991:2023   */\n      slt\n        /* \"#utility.yul\":1988:1990   */\n      iszero\n      tag_635\n      jumpi\n        /* \"#utility.yul\":2041:2047   */\n      dup1\n        /* \"#utility.yul\":2033:2039   */\n      dup2\n        /* \"#utility.yul\":2026:2048   */\n      revert\n        /* \"#utility.yul\":1988:1990   */\n    tag_635:\n        /* \"#utility.yul\":2069:2095   */\n      tag_253\n        /* \"#utility.yul\":2085:2094   */\n      dup3\n        /* \"#utility.yul\":2069:2095   */\n      tag_613\n      jump\t// in\n        /* \"#utility.yul\":2106:2296   */\n    tag_50:\n        /* \"#utility.yul\":2165:2171   */\n      0x00\n        /* \"#utility.yul\":2218:2220   */\n      0x20\n        /* \"#utility.yul\":2206:2215   */\n      dup3\n        /* \"#utility.yul\":2197:2204   */\n      dup5\n        /* \"#utility.yul\":2193:2216   */\n      sub\n        /* \"#utility.yul\":2189:2221   */\n      slt\n        /* \"#utility.yul\":2186:2188   */\n      iszero\n      tag_638\n      jumpi\n        /* \"#utility.yul\":2239:2245   */\n      dup1\n        /* \"#utility.yul\":2231:2237   */\n      dup2\n        /* \"#utility.yul\":2224:2246   */\n      revert\n        /* \"#utility.yul\":2186:2188   */\n    tag_638:\n      pop\n        /* \"#utility.yul\":2267:2290   */\n      calldataload\n      swap2\n        /* \"#utility.yul\":2176:2296   */\n      swap1\n      pop\n      jump\t// out\n        /* \"#utility.yul\":2301:2559   */\n    tag_128:\n        /* \"#utility.yul\":2366:2372   */\n      0x00\n        /* \"#utility.yul\":2374:2380   */\n      dup1\n        /* \"#utility.yul\":2427:2429   */\n      0x40\n        /* \"#utility.yul\":2415:2424   */\n      dup4\n        /* \"#utility.yul\":2406:2413   */\n      dup6\n        /* \"#utility.yul\":2402:2425   */\n      sub\n        /* \"#utility.yul\":2398:2430   */\n      slt\n        /* \"#utility.yul\":2395:2397   */\n      iszero\n      tag_640\n      jumpi\n        /* \"#utility.yul\":2448:2454   */\n      dup2\n        /* \"#utility.yul\":2440:2446   */\n      dup3\n        /* \"#utility.yul\":2433:2455   */\n      revert\n        /* \"#utility.yul\":2395:2397   */\n    tag_640:\n        /* \"#utility.yul\":2489:2498   */\n      dup3\n        /* \"#utility.yul\":2476:2499   */\n      calldataload\n        /* \"#utility.yul\":2466:2499   */\n      swap2\n      pop\n        /* \"#utility.yul\":2518:2553   */\n      tag_641\n        /* \"#utility.yul\":2549:2551   */\n      0x20\n        /* \"#utility.yul\":2538:2547   */\n      dup5\n        /* \"#utility.yul\":2534:2552   */\n      add\n        /* \"#utility.yul\":2518:2553   */\n      tag_613\n      jump\t// in\n    tag_641:\n        /* \"#utility.yul\":2508:2553   */\n      swap1\n      pop\n        /* \"#utility.yul\":2385:2559   */\n      swap3\n      pop\n      swap3\n      swap1\n      pop\n      jump\t// out\n        /* \"#utility.yul\":2564:2880   */\n    tag_539:\n        /* \"#utility.yul\":2652:2658   */\n      0x00\n        /* \"#utility.yul\":2660:2666   */\n      dup1\n        /* \"#utility.yul\":2668:2674   */\n      0x00\n        /* \"#utility.yul\":2721:2723   */\n      0x60\n        /* \"#utility.yul\":2709:2718   */\n      dup5\n        /* \"#utility.yul\":2700:2707   */\n      dup7\n        /* \"#utility.yul\":2696:2719   */\n      sub\n        /* \"#utility.yul\":2692:2724   */\n      slt\n        /* \"#utility.yul\":2689:2691   */\n      iszero\n      tag_643\n      jumpi\n        /* \"#utility.yul\":2742:2748   */\n      dup3\n        /* \"#utility.yul\":2734:2740   */\n      dup4\n        /* \"#utility.yul\":2727:2749   */\n      revert\n        /* \"#utility.yul\":2689:2691   */\n    tag_643:\n        /* \"#utility.yul\":2776:2785   */\n      dup4\n        /* \"#utility.yul\":2770:2786   */\n      mload\n        /* \"#utility.yul\":2760:2786   */\n      swap3\n      pop\n        /* \"#utility.yul\":2826:2828   */\n      0x20\n        /* \"#utility.yul\":2815:2824   */\n      dup5\n        /* \"#utility.yul\":2811:2829   */\n      add\n        /* \"#utility.yul\":2805:2830   */\n      mload\n        /* \"#utility.yul\":2795:2830   */\n      swap2\n      pop\n        /* \"#utility.yul\":2870:2872   */\n      0x40\n        /* \"#utility.yul\":2859:2868   */\n      dup5\n        /* \"#utility.yul\":2855:2873   */\n      add\n        /* \"#utility.yul\":2849:2874   */\n      mload\n        /* \"#utility.yul\":2839:2874   */\n      swap1\n      pop\n        /* \"#utility.yul\":2679:2880   */\n      swap3\n      pop\n      swap3\n      pop\n      swap3\n      jump\t// out\n        /* \"#utility.yul\":4132:4735   */\n    tag_56:\n        /* \"#utility.yul\":4244:4248   */\n      0x00\n        /* \"#utility.yul\":4273:4275   */\n      0x20\n        /* \"#utility.yul\":4302:4304   */\n      dup1\n        /* \"#utility.yul\":4291:4300   */\n      dup4\n        /* \"#utility.yul\":4284:4305   */\n      mstore\n        /* \"#utility.yul\":4334:4340   */\n      dup4\n        /* \"#utility.yul\":4328:4341   */\n      mload\n        /* \"#utility.yul\":4377:4383   */\n      dup1\n        /* \"#utility.yul\":4372:4374   */\n      dup3\n        /* \"#utility.yul\":4361:4370   */\n      dup6\n        /* \"#utility.yul\":4357:4375   */\n      add\n        /* \"#utility.yul\":4350:4384   */\n      mstore\n        /* \"#utility.yul\":4402:4406   */\n      dup3\n        /* \"#utility.yul\":4415:4555   */\n    tag_649:\n        /* \"#utility.yul\":4429:4435   */\n      dup2\n        /* \"#utility.yul\":4426:4427   */\n      dup2\n        /* \"#utility.yul\":4423:4436   */\n      lt\n        /* \"#utility.yul\":4415:4555   */\n      iszero\n      tag_651\n      jumpi\n        /* \"#utility.yul\":4524:4538   */\n      dup6\n      dup2\n      add\n        /* \"#utility.yul\":4520:4543   */\n      dup4\n      add\n        /* \"#utility.yul\":4514:4544   */\n      mload\n        /* \"#utility.yul\":4490:4507   */\n      dup6\n      dup3\n      add\n        /* \"#utility.yul\":4509:4511   */\n      0x40\n        /* \"#utility.yul\":4486:4512   */\n      add\n        /* \"#utility.yul\":4479:4545   */\n      mstore\n        /* \"#utility.yul\":4444:4454   */\n      dup3\n      add\n        /* \"#utility.yul\":4415:4555   */\n      jump(tag_649)\n    tag_651:\n        /* \"#utility.yul\":4573:4579   */\n      dup2\n        /* \"#utility.yul\":4570:4571   */\n      dup2\n        /* \"#utility.yul\":4567:4580   */\n      gt\n        /* \"#utility.yul\":4564:4566   */\n      iszero\n      tag_652\n      jumpi\n        /* \"#utility.yul\":4643:4647   */\n      dup4\n        /* \"#utility.yul\":4638:4640   */\n      0x40\n        /* \"#utility.yul\":4629:4635   */\n      dup4\n        /* \"#utility.yul\":4618:4627   */\n      dup8\n        /* \"#utility.yul\":4614:4636   */\n      add\n        /* \"#utility.yul\":4610:4641   */\n      add\n        /* \"#utility.yul\":4603:4648   */\n      mstore\n        /* \"#utility.yul\":4564:4566   */\n    tag_652:\n      pop\n        /* \"#utility.yul\":4719:4721   */\n      0x1f\n        /* \"#utility.yul\":4698:4713   */\n      add\n      not(0x1f)\n        /* \"#utility.yul\":4694:4723   */\n      and\n        /* \"#utility.yul\":4679:4724   */\n      swap3\n      swap1\n      swap3\n      add\n        /* \"#utility.yul\":4726:4728   */\n      0x40\n        /* \"#utility.yul\":4675:4729   */\n      add\n      swap4\n        /* \"#utility.yul\":4253:4735   */\n      swap3\n      pop\n      pop\n      pop\n      jump\t// out\n        /* \"#utility.yul\":7431:7787   */\n    tag_218:\n        /* \"#utility.yul\":7633:7635   */\n      0x20\n        /* \"#utility.yul\":7615:7636   */\n      dup1\n      dup3\n      mstore\n        /* \"#utility.yul\":7652:7670   */\n      dup2\n      dup2\n      add\n        /* \"#utility.yul\":7645:7675   */\n      mstore\n        /* \"#utility.yul\":7711:7745   */\n      0x4f776e61626c653a2063616c6c6572206973206e6f7420746865206f776e6572\n        /* \"#utility.yul\":7706:7708   */\n      0x40\n        /* \"#utility.yul\":7691:7709   */\n      dup3\n      add\n        /* \"#utility.yul\":7684:7746   */\n      mstore\n        /* \"#utility.yul\":7778:7780   */\n      0x60\n        /* \"#utility.yul\":7763:7781   */\n      add\n      swap1\n        /* \"#utility.yul\":7605:7787   */\n      jump\t// out\n        /* \"#utility.yul\":9608:10591   */\n    tag_526:\n        /* \"#utility.yul\":9870:9874   */\n      0x00\n        /* \"#utility.yul\":9918:9921   */\n      0xa0\n        /* \"#utility.yul\":9907:9916   */\n      dup3\n        /* \"#utility.yul\":9903:9922   */\n      add\n        /* \"#utility.yul\":9949:9955   */\n      dup8\n        /* \"#utility.yul\":9938:9947   */\n      dup4\n        /* \"#utility.yul\":9931:9956   */\n      mstore\n        /* \"#utility.yul\":9975:9977   */\n      0x20\n        /* \"#utility.yul\":10013:10019   */\n      dup8\n        /* \"#utility.yul\":10008:10010   */\n      dup2\n        /* \"#utility.yul\":9997:10006   */\n      dup6\n        /* \"#utility.yul\":9993:10011   */\n      add\n        /* \"#utility.yul\":9986:10020   */\n      mstore\n        /* \"#utility.yul\":10056:10059   */\n      0xa0\n        /* \"#utility.yul\":10051:10053   */\n      0x40\n        /* \"#utility.yul\":10040:10049   */\n      dup6\n        /* \"#utility.yul\":10036:10054   */\n      add\n        /* \"#utility.yul\":10029:10060   */\n      mstore\n        /* \"#utility.yul\":10080:10086   */\n      dup2\n        /* \"#utility.yul\":10115:10121   */\n      dup8\n        /* \"#utility.yul\":10109:10122   */\n      mload\n        /* \"#utility.yul\":10146:10152   */\n      dup1\n        /* \"#utility.yul\":10138:10144   */\n      dup5\n        /* \"#utility.yul\":10131:10153   */\n      mstore\n        /* \"#utility.yul\":10184:10187   */\n      0xc0\n        /* \"#utility.yul\":10173:10182   */\n      dup7\n        /* \"#utility.yul\":10169:10188   */\n      add\n        /* \"#utility.yul\":10162:10188   */\n      swap2\n      pop\n        /* \"#utility.yul\":10223:10225   */\n      dup3\n        /* \"#utility.yul\":10215:10221   */\n      dup10\n        /* \"#utility.yul\":10211:10226   */\n      add\n        /* \"#utility.yul\":10197:10226   */\n      swap4\n      pop\n        /* \"#utility.yul\":10244:10248   */\n      dup5\n        /* \"#utility.yul\":10257:10452   */\n    tag_667:\n        /* \"#utility.yul\":10271:10277   */\n      dup2\n        /* \"#utility.yul\":10268:10269   */\n      dup2\n        /* \"#utility.yul\":10265:10278   */\n      lt\n        /* \"#utility.yul\":10257:10452   */\n      iszero\n      tag_669\n      jumpi\n        /* \"#utility.yul\":10336:10349   */\n      dup5\n      mload\n      sub(shl(0xa0, 0x01), 0x01)\n        /* \"#utility.yul\":10332:10371   */\n      and\n        /* \"#utility.yul\":10320:10372   */\n      dup4\n      mstore\n        /* \"#utility.yul\":10427:10442   */\n      swap4\n      dup4\n      add\n      swap4\n        /* \"#utility.yul\":10392:10404   */\n      swap2\n      dup4\n      add\n      swap2\n        /* \"#utility.yul\":10368:10369   */\n      0x01\n        /* \"#utility.yul\":10286:10295   */\n      add\n        /* \"#utility.yul\":10257:10452   */\n      jump(tag_667)\n    tag_669:\n      pop\n      pop\n      sub(shl(0xa0, 0x01), 0x01)\n        /* \"#utility.yul\":10508:10540   */\n      swap7\n      swap1\n      swap7\n      and\n        /* \"#utility.yul\":10503:10505   */\n      0x60\n        /* \"#utility.yul\":10488:10506   */\n      dup6\n      add\n        /* \"#utility.yul\":10481:10541   */\n      mstore\n      pop\n      pop\n      pop\n        /* \"#utility.yul\":10572:10575   */\n      0x80\n        /* \"#utility.yul\":10557:10576   */\n      add\n        /* \"#utility.yul\":10550:10585   */\n      mstore\n        /* \"#utility.yul\":10469:10472   */\n      swap4\n        /* \"#utility.yul\":9879:10591   */\n      swap3\n      pop\n      pop\n      pop\n      jump\t// out\n        /* \"#utility.yul\":11109:11237   */\n    tag_221:\n        /* \"#utility.yul\":11149:11152   */\n      0x00\n        /* \"#utility.yul\":11180:11181   */\n      dup3\n        /* \"#utility.yul\":11176:11182   */\n      not\n        /* \"#utility.yul\":11173:11174   */\n      dup3\n        /* \"#utility.yul\":11170:11183   */\n      gt\n        /* \"#utility.yul\":11167:11169   */\n      iszero\n      tag_674\n      jumpi\n        /* \"#utility.yul\":11186:11204   */\n      tag_674\n      tag_675\n      jump\t// in\n    tag_674:\n      pop\n        /* \"#utility.yul\":11222:11231   */\n      add\n      swap1\n        /* \"#utility.yul\":11157:11237   */\n      jump\t// out\n        /* \"#utility.yul\":11242:11459   */\n    tag_389:\n        /* \"#utility.yul\":11282:11283   */\n      0x00\n        /* \"#utility.yul\":11308:11309   */\n      dup3\n        /* \"#utility.yul\":11298:11300   */\n      tag_677\n      jumpi\n      shl(0xe0, 0x4e487b71)\n        /* \"#utility.yul\":11333:11364   */\n      dup2\n      mstore\n        /* \"#utility.yul\":11387:11391   */\n      0x12\n        /* \"#utility.yul\":11384:11385   */\n      0x04\n        /* \"#utility.yul\":11377:11392   */\n      mstore\n        /* \"#utility.yul\":11415:11419   */\n      0x24\n        /* \"#utility.yul\":11340:11341   */\n      dup2\n        /* \"#utility.yul\":11405:11420   */\n      revert\n        /* \"#utility.yul\":11298:11300   */\n    tag_677:\n      pop\n        /* \"#utility.yul\":11444:11453   */\n      div\n      swap1\n        /* \"#utility.yul\":11288:11459   */\n      jump\t// out\n        /* \"#utility.yul\":11464:11632   */\n    tag_386:\n        /* \"#utility.yul\":11504:11511   */\n      0x00\n        /* \"#utility.yul\":11570:11571   */\n      dup2\n        /* \"#utility.yul\":11566:11567   */\n      0x00\n        /* \"#utility.yul\":11562:11568   */\n      not\n        /* \"#utility.yul\":11558:11572   */\n      div\n        /* \"#utility.yul\":11555:11556   */\n      dup4\n        /* \"#utility.yul\":11552:11573   */\n      gt\n        /* \"#utility.yul\":11547:11548   */\n      dup3\n        /* \"#utility.yul\":11540:11549   */\n      iszero\n        /* \"#utility.yul\":11533:11550   */\n      iszero\n        /* \"#utility.yul\":11529:11574   */\n      and\n        /* \"#utility.yul\":11526:11528   */\n      iszero\n      tag_680\n      jumpi\n        /* \"#utility.yul\":11577:11595   */\n      tag_680\n      tag_675\n      jump\t// in\n    tag_680:\n      pop\n        /* \"#utility.yul\":11617:11626   */\n      mul\n      swap1\n        /* \"#utility.yul\":11516:11632   */\n      jump\t// out\n        /* \"#utility.yul\":11637:11762   */\n    tag_271:\n        /* \"#utility.yul\":11677:11681   */\n      0x00\n        /* \"#utility.yul\":11705:11706   */\n      dup3\n        /* \"#utility.yul\":11702:11703   */\n      dup3\n        /* \"#utility.yul\":11699:11707   */\n      lt\n        /* \"#utility.yul\":11696:11698   */\n      iszero\n      tag_683\n      jumpi\n        /* \"#utility.yul\":11710:11728   */\n      tag_683\n      tag_675\n      jump\t// in\n    tag_683:\n      pop\n        /* \"#utility.yul\":11747:11756   */\n      sub\n      swap1\n        /* \"#utility.yul\":11686:11762   */\n      jump\t// out\n        /* \"#utility.yul\":11767:12147   */\n    tag_228:\n        /* \"#utility.yul\":11846:11847   */\n      0x01\n        /* \"#utility.yul\":11842:11854   */\n      dup2\n      dup2\n      shr\n      swap1\n        /* \"#utility.yul\":11889:11901   */\n      dup3\n      and\n      dup1\n        /* \"#utility.yul\":11910:11912   */\n      tag_685\n      jumpi\n        /* \"#utility.yul\":11964:11968   */\n      0x7f\n        /* \"#utility.yul\":11956:11962   */\n      dup3\n        /* \"#utility.yul\":11952:11969   */\n      and\n        /* \"#utility.yul\":11942:11969   */\n      swap2\n      pop\n        /* \"#utility.yul\":11910:11912   */\n    tag_685:\n        /* \"#utility.yul\":12017:12019   */\n      0x20\n        /* \"#utility.yul\":12009:12015   */\n      dup3\n        /* \"#utility.yul\":12006:12020   */\n      lt\n        /* \"#utility.yul\":11986:12004   */\n      dup2\n        /* \"#utility.yul\":11983:12021   */\n      eq\n        /* \"#utility.yul\":11980:11982   */\n      iszero\n      tag_686\n      jumpi\n        /* \"#utility.yul\":12063:12073   */\n      0x4e487b71\n        /* \"#utility.yul\":12058:12061   */\n      0xe0\n        /* \"#utility.yul\":12054:12074   */\n      shl\n        /* \"#utility.yul\":12051:12052   */\n      0x00\n        /* \"#utility.yul\":12044:12075   */\n      mstore\n        /* \"#utility.yul\":12098:12102   */\n      0x22\n        /* \"#utility.yul\":12095:12096   */\n      0x04\n        /* \"#utility.yul\":12088:12103   */\n      mstore\n        /* \"#utility.yul\":12126:12130   */\n      0x24\n        /* \"#utility.yul\":12123:12124   */\n      0x00\n        /* \"#utility.yul\":12116:12131   */\n      revert\n        /* \"#utility.yul\":11980:11982   */\n    tag_686:\n      pop\n        /* \"#utility.yul\":11822:12147   */\n      swap2\n      swap1\n      pop\n      jump\t// out\n        /* \"#utility.yul\":12152:12287   */\n    tag_279:\n        /* \"#utility.yul\":12191:12194   */\n      0x00\n      not(0x00)\n        /* \"#utility.yul\":12212:12229   */\n      dup3\n      eq\n        /* \"#utility.yul\":12209:12211   */\n      iszero\n      tag_689\n      jumpi\n        /* \"#utility.yul\":12232:12250   */\n      tag_689\n      tag_675\n      jump\t// in\n    tag_689:\n      pop\n        /* \"#utility.yul\":12279:12280   */\n      0x01\n        /* \"#utility.yul\":12268:12281   */\n      add\n      swap1\n        /* \"#utility.yul\":12199:12287   */\n      jump\t// out\n        /* \"#utility.yul\":12292:12419   */\n    tag_675:\n        /* \"#utility.yul\":12353:12363   */\n      0x4e487b71\n        /* \"#utility.yul\":12348:12351   */\n      0xe0\n        /* \"#utility.yul\":12344:12364   */\n      shl\n        /* \"#utility.yul\":12341:12342   */\n      0x00\n        /* \"#utility.yul\":12334:12365   */\n      mstore\n        /* \"#utility.yul\":12384:12388   */\n      0x11\n        /* \"#utility.yul\":12381:12382   */\n      0x04\n        /* \"#utility.yul\":12374:12389   */\n      mstore\n        /* \"#utility.yul\":12408:12412   */\n      0x24\n        /* \"#utility.yul\":12405:12406   */\n      0x00\n        /* \"#utility.yul\":12398:12413   */\n      revert\n        /* \"#utility.yul\":12424:12555   */\n    tag_619:\n      sub(shl(0xa0, 0x01), 0x01)\n        /* \"#utility.yul\":12499:12530   */\n      dup2\n      and\n        /* \"#utility.yul\":12489:12531   */\n      dup2\n      eq\n        /* \"#utility.yul\":12479:12481   */\n      tag_223\n      jumpi\n        /* \"#utility.yul\":12545:12546   */\n      0x00\n        /* \"#utility.yul\":12542:12543   */\n      dup1\n        /* \"#utility.yul\":12535:12547   */\n      revert\n    stop\n    data_974d1b4421da69cc60b481194f0dad36a5bb4e23da810da7a7fb30cdba178330 45524332303a207472616e7366657220616d6f756e74206578636565647320616c6c6f77616e6365\n    data_f8b476f7d28209d77d4a4ac1fe36b9f8259aa1bb6bddfa6e89de7e51615cf8a8 45524332303a2064656372656173656420616c6c6f77616e63652062656c6f77207a65726f\n\n    auxdata: 0xa264697066735822122071dfccd9e31060ecabe84f1861afd5ac39e889d9e6b013af71403c9111db89ed64736f6c63430008040033\n}\n",
				"bytecode": {
					"linkReferences": {},
					"object": "6080604052600d54600e55600f5460105560115460125560405162002f3938038062002f398339810160408190526200003891620007aa565b620000433362000591565b62000052565b60405180910390fd5b6001600160a01b038616620000ee5761ffff831615620000ee5760405162461bcd60e51b815260206004820152604a60248201527f43616e742073657420626f74682063686172697479206164647265737320746f60448201527f2061646472657373203020616e6420636861726974792070657263656e74206d60648201526906f7265207468616e20360b41b608482015260a40162000049565b6109c483620000fe8688620008c3565b6200010a9190620008c3565b61ffff1611156200015e5760405162461bcd60e51b815260206004820152601560248201527f546f74616c20666565206973206f766572203235250000000000000000000000604482015260640162000049565b89516200017390600a9060208d019062000604565b5088516200018990600b9060208c019062000604565b50600c805460ff191660091790556007889055620001aa886000196200097c565b620001b89060001962000925565b60085561ffff858116600d819055600e55848116600f819055601055601580546001600160a01b0319166001600160a01b038916179055831660118190556012556200022d612710620002198a6005620005e1602090811b620010d817901c565b620005f660201b620010e41790919060201c565b6016556015805460ff60a81b1916600160a81b179055600854600160006200025d6000546001600160a01b031690565b6001600160a01b03166001600160a01b03168152602001908152602001600020819055506000879050806001600160a01b031663c45a01556040518163ffffffff1660e01b815260040160206040518083038186803b158015620002c057600080fd5b505afa158015620002d5573d6000803e3d6000fd5b505050506040513d601f19601f82011682018060405250810190620002fb91906200078d565b6001600160a01b031663c9c6539630836001600160a01b031663ad5c46486040518163ffffffff1660e01b815260040160206040518083038186803b1580156200034457600080fd5b505afa15801562000359573d6000803e3d6000fd5b505050506040513d601f19601f820116820180604052508101906200037f91906200078d565b6040516001600160e01b031960e085901b1681526001600160a01b03928316600482015291166024820152604401602060405180830381600087803b158015620003c857600080fd5b505af1158015620003dd573d6000803e3d6000fd5b505050506040513d601f19601f820116820180604052508101906200040391906200078d565b601480546001600160a01b03199081166001600160a01b0393841617909155601380549091169183169190911790556001600460006200044b6000546001600160a01b031690565b6001600160a01b0316815260208082019290925260409081016000908120805494151560ff1995861617905530815260049092529020805490911660011790556200049e6000546001600160a01b031690565b6001600160a01b031660006001600160a01b03167fddf252ad1be2c89b69c2b068fc378daa952ba7f163c4a11628f55a4df523b3ef600754604051620004e691815260200190565b60405180910390a330620005026000546001600160a01b031690565b6001600160a01b03167f56358b41df5fa59f5639228f0930994cbdde383c8a8fd74e06c04e1deebe3562600260016040516200054092919062000896565b60405180910390a36040516001600160a01b0384169083156108fc029084906000818181858888f193505050501580156200057f573d6000803e3d6000fd5b505050505050505050505050620009d5565b600080546001600160a01b038381166001600160a01b0319831681178455604051919092169283917f8be0079c531659141344cd1fd0a4f28419497f9722a3daafe3b4186f6b6457e09190a35050565b6000620005ef828462000903565b9392505050565b6000620005ef8284620008ec565b82805462000612906200093f565b90600052602060002090601f01602090048101928262000636576000855562000681565b82601f106200065157805160ff191683800117855562000681565b8280016001018555821562000681579182015b828111156200068157825182559160200191906001019062000664565b506200068f92915062000693565b5090565b5b808211156200068f576000815560010162000694565b80516001600160a01b0381168114620006c257600080fd5b919050565b600082601f830112620006d8578081fd5b81516001600160401b0380821115620006f557620006f5620009bf565b604051601f8301601f19908116603f01168101908282118183101715620007205762000720620009bf565b816040528381526020925086838588010111156200073c578485fd5b8491505b838210156200075f578582018301518183018401529082019062000740565b838211156200077057848385830101525b9695505050505050565b805161ffff81168114620006c257600080fd5b6000602082840312156200079f578081fd5b620005ef82620006aa565b6000806000806000806000806000806101408b8d031215620007ca578586fd5b8a516001600160401b0380821115620007e1578788fd5b620007ef8e838f01620006c7565b9b5060208d015191508082111562000805578788fd5b50620008148d828e01620006c7565b99505060408b015197506200082c60608c01620006aa565b96506200083c60808c01620006aa565b95506200084c60a08c016200077a565b94506200085c60c08c016200077a565b93506200086c60e08c016200077a565b92506200087d6101008c01620006aa565b91506101208b015190509295989b9194979a5092959850565b6040810160088410620008b957634e487b7160e01b600052602160045260246000fd5b9281526020015290565b600061ffff808316818516808303821115620008e357620008e362000993565b01949350505050565b600082620008fe57620008fe620009a9565b500490565b600081600019048311821515161562000920576200092062000993565b500290565b6000828210156200093a576200093a62000993565b500390565b600181811c908216806200095457607f821691505b602082108114156200097657634e487b7160e01b600052602260045260246000fd5b50919050565b6000826200098e576200098e620009a9565b500690565b634e487b7160e01b600052601160045260246000fd5b634e487b7160e01b600052601260045260246000fd5b634e487b7160e01b600052604160045260246000fd5b61255480620009e56000396000f3fe6080604052600436106102085760003560e01c806349bd5a5e116101185780638ee88c53116100a0578063c49b9a801161006f578063c49b9a80146105fc578063dd62ed3e1461061c578063ea2f0b3714610662578063f2fde38b14610682578063ffa1ad74146106a257600080fd5b80638ee88c531461058757806395d89b41146105a7578063a457c2d7146105bc578063a9059cbb146105dc57600080fd5b80636bc87c3a116100e75780636bc87c3a146104e557806370a08231146104fb578063715018a61461051b57806388f82020146105305780638da5cb5b1461056957600080fd5b806349bd5a5e1461044b5780634a74bb021461046b57806352390c021461048c5780635342acb4146104ac57600080fd5b80632d8381191161019b5780633b124fe71161016a5780633b124fe7146103bf5780633bd5d173146103d557806340f8007a146103f5578063437823ec1461040b5780634549b0391461042b57600080fd5b80632d8381191461033d578063313ce5671461035d5780633685d4191461037f578063395093511461039f57600080fd5b80631694505e116101d75780631694505e146102b057806318160ddd146102e857806319a8ac9e146102fd57806323b872dd1461031d57600080fd5b8063061c82d01461021457806306fdde0314610236578063095ea7b31461026157806313114a9d1461029157600080fd5b3661020f57005b600080fd5b34801561022057600080fd5b5061023461022f36600461227a565b6106b7565b005b34801561024257600080fd5b5061024b610757565b60405161025891906122ea565b60405180910390f35b34801561026d57600080fd5b5061028161027c366004612235565b6107e9565b6040519015158152602001610258565b34801561029d57600080fd5b506009545b604051908152602001610258565b3480156102bc57600080fd5b506013546102d0906001600160a01b031681565b6040516001600160a01b039091168152602001610258565b3480156102f457600080fd5b506007546102a2565b34801561030957600080fd5b506015546102d0906001600160a01b031681565b34801561032957600080fd5b506102816103383660046121f5565b610800565b34801561034957600080fd5b506102a261035836600461227a565b610869565b34801561036957600080fd5b50600c5460405160ff9091168152602001610258565b34801561038b57600080fd5b5061023461039a366004612185565b6108ed565b3480156103ab57600080fd5b506102816103ba366004612235565b610adc565b3480156103cb57600080fd5b506102a2600d5481565b3480156103e157600080fd5b506102346103f036600461227a565b610b12565b34801561040157600080fd5b506102a260115481565b34801561041757600080fd5b50610234610426366004612185565b610bfe565b34801561043757600080fd5b506102a2610446366004612292565b610c4c565b34801561045757600080fd5b506014546102d0906001600160a01b031681565b34801561047757600080fd5b5060155461028190600160a81b900460ff1681565b34801561049857600080fd5b506102346104a7366004612185565b610cdb565b3480156104b857600080fd5b506102816104c7366004612185565b6001600160a01b031660009081526004602052604090205460ff1690565b3480156104f157600080fd5b506102a2600f5481565b34801561050757600080fd5b506102a2610516366004612185565b610e2e565b34801561052757600080fd5b50610234610e8d565b34801561053c57600080fd5b5061028161054b366004612185565b6001600160a01b031660009081526005602052604090205460ff1690565b34801561057557600080fd5b506000546001600160a01b03166102d0565b34801561059357600080fd5b506102346105a236600461227a565b610ec3565b3480156105b357600080fd5b5061024b610f08565b3480156105c857600080fd5b506102816105d7366004612235565b610f17565b3480156105e857600080fd5b506102816105f7366004612235565b610f66565b34801561060857600080fd5b50610234610617366004612260565b610f73565b34801561062857600080fd5b506102a26106373660046121bd565b6001600160a01b03918216600090815260036020908152604080832093909416825291909152205490565b34801561066e57600080fd5b5061023461067d366004612185565b610ff5565b34801561068e57600080fd5b5061023461069d366004612185565b611040565b3480156106ae57600080fd5b506102a2600181565b6000546001600160a01b031633146106ea5760405162461bcd60e51b81526004016106e19061233d565b60405180910390fd5b600d819055601154600f546109c4919061070490846123e2565b61070e91906123e2565b11156107545760405162461bcd60e51b8152602060048201526015602482015274546f74616c20666565206973206f7665722032352560581b60448201526064016106e1565b50565b6060600a805461076690612450565b80601f016020809104026020016040519081016040528092919081815260200182805461079290612450565b80156107df5780601f106107b4576101008083540402835291602001916107df565b820191906000526020600020905b8154815290600101906020018083116107c257829003601f168201915b5050505050905090565b60006107f63384846110f0565b5060015b92915050565b600061080d848484611215565b61085f843361085a856040518060600160405280602881526020016124d2602891396001600160a01b038a166000908152600360209081526040808320338452909152902054919061140a565b6110f0565b5060019392505050565b60006008548211156108d05760405162461bcd60e51b815260206004820152602a60248201527f416d6f756e74206d757374206265206c657373207468616e20746f74616c207260448201526965666c656374696f6e7360b01b60648201526084016106e1565b60006108da611436565b90506108e683826110e4565b9392505050565b6000546001600160a01b031633146109175760405162461bcd60e51b81526004016106e19061233d565b6001600160a01b03811660009081526005602052604090205460ff1661097f5760405162461bcd60e51b815260206004820152601b60248201527f4163636f756e7420697320616c7265616479206578636c75646564000000000060448201526064016106e1565b60005b600654811015610ad857816001600160a01b0316600682815481106109b757634e487b7160e01b600052603260045260246000fd5b6000918252602090912001546001600160a01b03161415610ac657600680546109e290600190612439565b81548110610a0057634e487b7160e01b600052603260045260246000fd5b600091825260209091200154600680546001600160a01b039092169183908110610a3a57634e487b7160e01b600052603260045260246000fd5b600091825260208083209190910180546001600160a01b0319166001600160a01b039485161790559184168152600282526040808220829055600590925220805460ff191690556006805480610aa057634e487b7160e01b600052603160045260246000fd5b600082815260209020810160001990810180546001600160a01b03191690550190555050565b80610ad08161248b565b915050610982565b5050565b3360008181526003602090815260408083206001600160a01b038716845290915281205490916107f691859061085a9086611459565b3360008181526005602052604090205460ff1615610b875760405162461bcd60e51b815260206004820152602c60248201527f4578636c75646564206164647265737365732063616e6e6f742063616c6c207460448201526b3434b990333ab731ba34b7b760a11b60648201526084016106e1565b6000610b9283611465565b5050506001600160a01b038616600090815260016020526040902054939450610bc0939250849150506114c0565b6001600160a01b038316600090815260016020526040902055600854610be690826114c0565b600855600954610bf69084611459565b600955505050565b6000546001600160a01b03163314610c285760405162461bcd60e51b81526004016106e19061233d565b6001600160a01b03166000908152600460205260409020805460ff19166001179055565b6000600754831115610ca05760405162461bcd60e51b815260206004820152601f60248201527f416d6f756e74206d757374206265206c657373207468616e20737570706c790060448201526064016106e1565b81610cc0576000610cb084611465565b509496506107fa95505050505050565b6000610ccb84611465565b509396506107fa95505050505050565b6000546001600160a01b03163314610d055760405162461bcd60e51b81526004016106e19061233d565b6001600160a01b03811660009081526005602052604090205460ff1615610d6e5760405162461bcd60e51b815260206004820152601b60248201527f4163636f756e7420697320616c7265616479206578636c75646564000000000060448201526064016106e1565b6001600160a01b03811660009081526001602052604090205415610dc8576001600160a01b038116600090815260016020526040902054610dae90610869565b6001600160a01b0382166000908152600260205260409020555b6001600160a01b03166000818152600560205260408120805460ff191660019081179091556006805491820181559091527ff652222313e28459528d920b65115c16c04f3efc82aaedc97be59f3f377c0d3f0180546001600160a01b0319169091179055565b6001600160a01b03811660009081526005602052604081205460ff1615610e6b57506001600160a01b031660009081526002602052604090205490565b6001600160a01b0382166000908152600160205260409020546107fa90610869565b6000546001600160a01b03163314610eb75760405162461bcd60e51b81526004016106e19061233d565b610ec160006114cc565b565b6000546001600160a01b03163314610eed5760405162461bcd60e51b81526004016106e19061233d565b600f819055601154600d546109c491906107049084906123e2565b6060600b805461076690612450565b60006107f6338461085a856040518060600160405280602581526020016124fa602591393360009081526003602090815260408083206001600160a01b038d168452909152902054919061140a565b60006107f6338484611215565b6000546001600160a01b03163314610f9d5760405162461bcd60e51b81526004016106e19061233d565b60158054821515600160a81b0260ff60a81b199091161790556040517f53726dfcaf90650aa7eb35524f4d3220f07413c8d6cb404cc8c18bf5591bc15990610fea90831515815260200190565b60405180910390a150565b6000546001600160a01b0316331461101f5760405162461bcd60e51b81526004016106e19061233d565b6001600160a01b03166000908152600460205260409020805460ff19169055565b6000546001600160a01b0316331461106a5760405162461bcd60e51b81526004016106e19061233d565b6001600160a01b0381166110cf5760405162461bcd60e51b815260206004820152602660248201527f4f776e61626c653a206e6577206f776e657220697320746865207a65726f206160448201526564647265737360d01b60648201526084016106e1565b610754816114cc565b60006108e6828461241a565b60006108e682846123fa565b6001600160a01b0383166111525760405162461bcd60e51b8152602060048201526024808201527f45524332303a20617070726f76652066726f6d20746865207a65726f206164646044820152637265737360e01b60648201526084016106e1565b6001600160a01b0382166111b35760405162461bcd60e51b815260206004820152602260248201527f45524332303a20617070726f766520746f20746865207a65726f206164647265604482015261737360f01b60648201526084016106e1565b6001600160a01b0383811660008181526003602090815260408083209487168084529482529182902085905590518481527f8c5be1e5ebec7d5bd14f71427d1e84f3dd0314c0f7b2291e5b200ac8c7c3b92591015b60405180910390a3505050565b6001600160a01b0383166112795760405162461bcd60e51b815260206004820152602560248201527f45524332303a207472616e736665722066726f6d20746865207a65726f206164604482015264647265737360d81b60648201526084016106e1565b6001600160a01b0382166112db5760405162461bcd60e51b815260206004820152602360248201527f45524332303a207472616e7366657220746f20746865207a65726f206164647260448201526265737360e81b60648201526084016106e1565b6000811161133d5760405162461bcd60e51b815260206004820152602960248201527f5472616e7366657220616d6f756e74206d7573742062652067726561746572206044820152687468616e207a65726f60b81b60648201526084016106e1565b600061134830610e2e565b601654909150811080159081906113695750601554600160a01b900460ff16155b801561138357506014546001600160a01b03868116911614155b80156113985750601554600160a81b900460ff165b156113ab5760165491506113ab8261151c565b6001600160a01b03851660009081526004602052604090205460019060ff16806113ed57506001600160a01b03851660009081526004602052604090205460ff165b156113f6575060005b611402868686846115c3565b505050505050565b6000818484111561142e5760405162461bcd60e51b81526004016106e191906122ea565b505050900390565b6000806000611443611746565b909250905061145282826110e4565b9250505090565b60006108e682846123e2565b600080600080600080600080600080600061147f8c611900565b935093509350935060008060006114a08f87878761149b611436565b611955565b919f509d509b509599509397509195509350505050919395979092949650565b60006108e68284612439565b600080546001600160a01b038381166001600160a01b0319831681178455604051919092169283917f8be0079c531659141344cd1fd0a4f28419497f9722a3daafe3b4186f6b6457e09190a35050565b6015805460ff60a01b1916600160a01b179055600061153c8260026110e4565b9050600061154a83836114c0565b905047611556836119b7565b600061156247836114c0565b905061156e8382611b34565b60408051858152602081018390529081018490527f17bbfb9a6069321b6ded73bd96327c9e6b7212a5cd51ff219cd61370acafb5619060600160405180910390a150506015805460ff60a01b19169055505050565b806115d0576115d0611c18565b6001600160a01b03841660009081526005602052604090205460ff16801561161157506001600160a01b03831660009081526005602052604090205460ff16155b1561162657611621848484611c5d565b611724565b6001600160a01b03841660009081526005602052604090205460ff1615801561166757506001600160a01b03831660009081526005602052604090205460ff165b1561167757611621848484611da3565b6001600160a01b03841660009081526005602052604090205460ff161580156116b957506001600160a01b03831660009081526005602052604090205460ff16155b156116c957611621848484611e62565b6001600160a01b03841660009081526005602052604090205460ff16801561170957506001600160a01b03831660009081526005602052604090205460ff165b1561171957611621848484611ebc565b611724848484611e62565b8061174057611740600e54600d55601054600f55601254601155565b50505050565b6008546007546000918291825b6006548110156118d05782600160006006848154811061178357634e487b7160e01b600052603260045260246000fd5b60009182526020808320909101546001600160a01b0316835282019290925260400190205411806117fc57508160026000600684815481106117d557634e487b7160e01b600052603260045260246000fd5b60009182526020808320909101546001600160a01b03168352820192909252604001902054115b1561181257600854600754945094505050509091565b611866600160006006848154811061183a57634e487b7160e01b600052603260045260246000fd5b60009182526020808320909101546001600160a01b0316835282019290925260400190205484906114c0565b92506118bc600260006006848154811061189057634e487b7160e01b600052603260045260246000fd5b60009182526020808320909101546001600160a01b0316835282019290925260400190205483906114c0565b9150806118c88161248b565b915050611753565b506007546008546118e0916110e4565b8210156118f7576008546007549350935050509091565b90939092509050565b600080600080600061191186611f45565b9050600061191e87611f68565b9050600061192b88611f85565b905060006119458261193f85818d896114c0565b906114c0565b9993985091965094509092505050565b600080808061196489866110d8565b9050600061197289876110d8565b9050600061198089886110d8565b9050600061198e89896110d8565b905060006119a28261193f858189896114c0565b949d949c50929a509298505050505050505050565b60408051600280825260608201835260009260208301908036833701905050905030816000815181106119fa57634e487b7160e01b600052603260045260246000fd5b6001600160a01b03928316602091820292909201810191909152601354604080516315ab88c960e31b81529051919093169263ad5c4648926004808301939192829003018186803b158015611a4e57600080fd5b505afa158015611a62573d6000803e3d6000fd5b505050506040513d601f19601f82011682018060405250810190611a8691906121a1565b81600181518110611aa757634e487b7160e01b600052603260045260246000fd5b6001600160a01b039283166020918202929092010152601354611acd91309116846110f0565b60135460405163791ac94760e01b81526001600160a01b039091169063791ac94790611b06908590600090869030904290600401612372565b600060405180830381600087803b158015611b2057600080fd5b505af1158015611402573d6000803e3d6000fd5b601354611b4c9030906001600160a01b0316846110f0565b6013546001600160a01b031663f305d719823085600080611b756000546001600160a01b031690565b60405160e088901b6001600160e01b03191681526001600160a01b03958616600482015260248101949094526044840192909252606483015290911660848201524260a482015260c4016060604051808303818588803b158015611bd857600080fd5b505af1158015611bec573d6000803e3d6000fd5b50505050506040513d601f19601f82011682018060405250810190611c1191906122bd565b5050505050565b600d54158015611c285750600f54155b8015611c345750601154155b15611c3b57565b600d8054600e55600f8054601055601180546012556000928390559082905555565b6000806000806000806000611c7188611465565b9650965096509650965096509650611cb788600260008d6001600160a01b03166001600160a01b03168152602001908152602001600020546114c090919063ffffffff16565b6001600160a01b038b16600090815260026020908152604080832093909355600190522054611ce690886114c0565b6001600160a01b03808c1660009081526001602052604080822093909355908b1681522054611d159087611459565b6001600160a01b038a16600090815260016020526040902055611d3782611fbb565b611d4081612044565b611d4a858461214c565b886001600160a01b03168a6001600160a01b03167fddf252ad1be2c89b69c2b068fc378daa952ba7f163c4a11628f55a4df523b3ef86604051611d8f91815260200190565b60405180910390a350505050505050505050565b6000806000806000806000611db788611465565b9650965096509650965096509650611dfd87600160008d6001600160a01b03166001600160a01b03168152602001908152602001600020546114c090919063ffffffff16565b6001600160a01b03808c16600090815260016020908152604080832094909455918c16815260029091522054611e339085611459565b6001600160a01b038a16600090815260026020908152604080832093909355600190522054611d159087611459565b6000806000806000806000611e7688611465565b9650965096509650965096509650611ce687600160008d6001600160a01b03166001600160a01b03168152602001908152602001600020546114c090919063ffffffff16565b6000806000806000806000611ed088611465565b9650965096509650965096509650611f1688600260008d6001600160a01b03166001600160a01b03168152602001908152602001600020546114c090919063ffffffff16565b6001600160a01b038b16600090815260026020908152604080832093909355600190522054611dfd90886114c0565b60006107fa612710611f62600d54856110d890919063ffffffff16565b906110e4565b60006107fa612710611f62600f54856110d890919063ffffffff16565b6015546000906001600160a01b0316611fa057506000919050565b6107fa612710611f62601154856110d890919063ffffffff16565b6000611fc5611436565b90506000611fd383836110d8565b30600090815260016020526040902054909150611ff09082611459565b3060009081526001602090815260408083209390935560059052205460ff161561203f573060009081526002602052604090205461202e9084611459565b306000908152600260205260409020555b505050565b8015610754576000612054611436565b9050600061206283836110d8565b6015546001600160a01b031660009081526001602052604090205490915061208a9082611459565b601580546001600160a01b03908116600090815260016020908152604080832095909555925490911681526005909152205460ff1615612105576015546001600160a01b03166000908152600260205260409020546120e99084611459565b6015546001600160a01b03166000908152600260205260409020555b6015546001600160a01b0316336001600160a01b03167fddf252ad1be2c89b69c2b068fc378daa952ba7f163c4a11628f55a4df523b3ef8560405161120891815260200190565b60085461215990836114c0565b6008556009546121699082611459565b6009555050565b8035801515811461218057600080fd5b919050565b600060208284031215612196578081fd5b81356108e6816124bc565b6000602082840312156121b2578081fd5b81516108e6816124bc565b600080604083850312156121cf578081fd5b82356121da816124bc565b915060208301356121ea816124bc565b809150509250929050565b600080600060608486031215612209578081fd5b8335612214816124bc565b92506020840135612224816124bc565b929592945050506040919091013590565b60008060408385031215612247578182fd5b8235612252816124bc565b946020939093013593505050565b600060208284031215612271578081fd5b6108e682612170565b60006020828403121561228b578081fd5b5035919050565b600080604083850312156122a4578182fd5b823591506122b460208401612170565b90509250929050565b6000806000606084860312156122d1578283fd5b8351925060208401519150604084015190509250925092565b6000602080835283518082850152825b81811015612316578581018301518582016040015282016122fa565b818111156123275783604083870101525b50601f01601f1916929092016040019392505050565b6020808252818101527f4f776e61626c653a2063616c6c6572206973206e6f7420746865206f776e6572604082015260600190565b600060a082018783526020878185015260a0604085015281875180845260c0860191508289019350845b818110156123c15784516001600160a01b03168352938301939183019160010161239c565b50506001600160a01b03969096166060850152505050608001529392505050565b600082198211156123f5576123f56124a6565b500190565b60008261241557634e487b7160e01b81526012600452602481fd5b500490565b6000816000190483118215151615612434576124346124a6565b500290565b60008282101561244b5761244b6124a6565b500390565b600181811c9082168061246457607f821691505b6020821081141561248557634e487b7160e01b600052602260045260246000fd5b50919050565b600060001982141561249f5761249f6124a6565b5060010190565b634e487b7160e01b600052601160045260246000fd5b6001600160a01b038116811461075457600080fdfe45524332303a207472616e7366657220616d6f756e74206578636565647320616c6c6f77616e636545524332303a2064656372656173656420616c6c6f77616e63652062656c6f77207a65726fa264697066735822122071dfccd9e31060ecabe84f1861afd5ac39e889d9e6b013af71403c9111db89ed64736f6c63430008040033",
					"opcodes": "PUSH1 0x80 PUSH1 0x40 MSTORE PUSH1 0xD SLOAD PUSH1 0xE SSTORE PUSH1 0xF SLOAD PUSH1 0x10 SSTORE PUSH1 0x11 SLOAD PUSH1 0x12 SSTORE PUSH1 0x40 MLOAD PUSH3 0x2F39 CODESIZE SUB DUP1 PUSH3 0x2F39 DUP4 CODECOPY DUP2 ADD PUSH1 0x40 DUP2 SWAP1 MSTORE PUSH3 0x38 SWAP2 PUSH3 0x7AA JUMP JUMPDEST PUSH3 0x43 CALLER PUSH3 0x591 JUMP JUMPDEST PUSH3 0x52 JUMP JUMPDEST PUSH1 0x40 MLOAD DUP1 SWAP2 SUB SWAP1 REVERT JUMPDEST PUSH1 0x1 PUSH1 0x1 PUSH1 0xA0 SHL SUB DUP7 AND PUSH3 0xEE JUMPI PUSH2 0xFFFF DUP4 AND ISZERO PUSH3 0xEE JUMPI PUSH1 0x40 MLOAD PUSH3 0x461BCD PUSH1 0xE5 SHL DUP2 MSTORE PUSH1 0x20 PUSH1 0x4 DUP3 ADD MSTORE PUSH1 0x4A PUSH1 0x24 DUP3 ADD MSTORE PUSH32 0x43616E742073657420626F74682063686172697479206164647265737320746F PUSH1 0x44 DUP3 ADD MSTORE PUSH32 0x2061646472657373203020616E6420636861726974792070657263656E74206D PUSH1 0x64 DUP3 ADD MSTORE PUSH10 0x6F7265207468616E203 PUSH1 0xB4 SHL PUSH1 0x84 DUP3 ADD MSTORE PUSH1 0xA4 ADD PUSH3 0x49 JUMP JUMPDEST PUSH2 0x9C4 DUP4 PUSH3 0xFE DUP7 DUP9 PUSH3 0x8C3 JUMP JUMPDEST PUSH3 0x10A SWAP2 SWAP1 PUSH3 0x8C3 JUMP JUMPDEST PUSH2 0xFFFF AND GT ISZERO PUSH3 0x15E JUMPI PUSH1 0x40 MLOAD PUSH3 0x461BCD PUSH1 0xE5 SHL DUP2 MSTORE PUSH1 0x20 PUSH1 0x4 DUP3 ADD MSTORE PUSH1 0x15 PUSH1 0x24 DUP3 ADD MSTORE PUSH32 0x546F74616C20666565206973206F766572203235250000000000000000000000 PUSH1 0x44 DUP3 ADD MSTORE PUSH1 0x64 ADD PUSH3 0x49 JUMP JUMPDEST DUP10 MLOAD PUSH3 0x173 SWAP1 PUSH1 0xA SWAP1 PUSH1 0x20 DUP14 ADD SWAP1 PUSH3 0x604 JUMP JUMPDEST POP DUP9 MLOAD PUSH3 0x189 SWAP1 PUSH1 0xB SWAP1 PUSH1 0x20 DUP13 ADD SWAP1 PUSH3 0x604 JUMP JUMPDEST POP PUSH1 0xC DUP1 SLOAD PUSH1 0xFF NOT AND PUSH1 0x9 OR SWAP1 SSTORE PUSH1 0x7 DUP9 SWAP1 SSTORE PUSH3 0x1AA DUP9 PUSH1 0x0 NOT PUSH3 0x97C JUMP JUMPDEST PUSH3 0x1B8 SWAP1 PUSH1 0x0 NOT PUSH3 0x925 JUMP JUMPDEST PUSH1 0x8 SSTORE PUSH2 0xFFFF DUP6 DUP2 AND PUSH1 0xD DUP2 SWAP1 SSTORE PUSH1 0xE SSTORE DUP5 DUP2 AND PUSH1 0xF DUP2 SWAP1 SSTORE PUSH1 0x10 SSTORE PUSH1 0x15 DUP1 SLOAD PUSH1 0x1 PUSH1 0x1 PUSH1 0xA0 SHL SUB NOT AND PUSH1 0x1 PUSH1 0x1 PUSH1 0xA0 SHL SUB DUP10 AND OR SWAP1 SSTORE DUP4 AND PUSH1 0x11 DUP2 SWAP1 SSTORE PUSH1 0x12 SSTORE PUSH3 0x22D PUSH2 0x2710 PUSH3 0x219 DUP11 PUSH1 0x5 PUSH3 0x5E1 PUSH1 0x20 SWAP1 DUP2 SHL PUSH3 0x10D8 OR SWAP1 SHR JUMP JUMPDEST PUSH3 0x5F6 PUSH1 0x20 SHL PUSH3 0x10E4 OR SWAP1 SWAP2 SWAP1 PUSH1 0x20 SHR JUMP JUMPDEST PUSH1 0x16 SSTORE PUSH1 0x15 DUP1 SLOAD PUSH1 0xFF PUSH1 0xA8 SHL NOT AND PUSH1 0x1 PUSH1 0xA8 SHL OR SWAP1 SSTORE PUSH1 0x8 SLOAD PUSH1 0x1 PUSH1 0x0 PUSH3 0x25D PUSH1 0x0 SLOAD PUSH1 0x1 PUSH1 0x1 PUSH1 0xA0 SHL SUB AND SWAP1 JUMP JUMPDEST PUSH1 0x1 PUSH1 0x1 PUSH1 0xA0 SHL SUB AND PUSH1 0x1 PUSH1 0x1 PUSH1 0xA0 SHL SUB AND DUP2 MSTORE PUSH1 0x20 ADD SWAP1 DUP2 MSTORE PUSH1 0x20 ADD PUSH1 0x0 KECCAK256 DUP2 SWAP1 SSTORE POP PUSH1 0x0 DUP8 SWAP1 POP DUP1 PUSH1 0x1 PUSH1 0x1 PUSH1 0xA0 SHL SUB AND PUSH4 0xC45A0155 PUSH1 0x40 MLOAD DUP2 PUSH4 0xFFFFFFFF AND PUSH1 0xE0 SHL DUP2 MSTORE PUSH1 0x4 ADD PUSH1 0x20 PUSH1 0x40 MLOAD DUP1 DUP4 SUB DUP2 DUP7 DUP1 EXTCODESIZE ISZERO DUP1 ISZERO PUSH3 0x2C0 JUMPI PUSH1 0x0 DUP1 REVERT JUMPDEST POP GAS STATICCALL ISZERO DUP1 ISZERO PUSH3 0x2D5 JUMPI RETURNDATASIZE PUSH1 0x0 DUP1 RETURNDATACOPY RETURNDATASIZE PUSH1 0x0 REVERT JUMPDEST POP POP POP POP PUSH1 0x40 MLOAD RETURNDATASIZE PUSH1 0x1F NOT PUSH1 0x1F DUP3 ADD AND DUP3 ADD DUP1 PUSH1 0x40 MSTORE POP DUP2 ADD SWAP1 PUSH3 0x2FB SWAP2 SWAP1 PUSH3 0x78D JUMP JUMPDEST PUSH1 0x1 PUSH1 0x1 PUSH1 0xA0 SHL SUB AND PUSH4 0xC9C65396 ADDRESS DUP4 PUSH1 0x1 PUSH1 0x1 PUSH1 0xA0 SHL SUB AND PUSH4 0xAD5C4648 PUSH1 0x40 MLOAD DUP2 PUSH4 0xFFFFFFFF AND PUSH1 0xE0 SHL DUP2 MSTORE PUSH1 0x4 ADD PUSH1 0x20 PUSH1 0x40 MLOAD DUP1 DUP4 SUB DUP2 DUP7 DUP1 EXTCODESIZE ISZERO DUP1 ISZERO PUSH3 0x344 JUMPI PUSH1 0x0 DUP1 REVERT JUMPDEST POP GAS STATICCALL ISZERO DUP1 ISZERO PUSH3 0x359 JUMPI RETURNDATASIZE PUSH1 0x0 DUP1 RETURNDATACOPY RETURNDATASIZE PUSH1 0x0 REVERT JUMPDEST POP POP POP POP PUSH1 0x40 MLOAD RETURNDATASIZE PUSH1 0x1F NOT PUSH1 0x1F DUP3 ADD AND DUP3 ADD DUP1 PUSH1 0x40 MSTORE POP DUP2 ADD SWAP1 PUSH3 0x37F SWAP2 SWAP1 PUSH3 0x78D JUMP JUMPDEST PUSH1 0x40 MLOAD PUSH1 0x1 PUSH1 0x1 PUSH1 0xE0 SHL SUB NOT PUSH1 0xE0 DUP6 SWAP1 SHL AND DUP2 MSTORE PUSH1 0x1 PUSH1 0x1 PUSH1 0xA0 SHL SUB SWAP3 DUP4 AND PUSH1 0x4 DUP3 ADD MSTORE SWAP2 AND PUSH1 0x24 DUP3 ADD MSTORE PUSH1 0x44 ADD PUSH1 0x20 PUSH1 0x40 MLOAD DUP1 DUP4 SUB DUP2 PUSH1 0x0 DUP8 DUP1 EXTCODESIZE ISZERO DUP1 ISZERO PUSH3 0x3C8 JUMPI PUSH1 0x0 DUP1 REVERT JUMPDEST POP GAS CALL ISZERO DUP1 ISZERO PUSH3 0x3DD JUMPI RETURNDATASIZE PUSH1 0x0 DUP1 RETURNDATACOPY RETURNDATASIZE PUSH1 0x0 REVERT JUMPDEST POP POP POP POP PUSH1 0x40 MLOAD RETURNDATASIZE PUSH1 0x1F NOT PUSH1 0x1F DUP3 ADD AND DUP3 ADD DUP1 PUSH1 0x40 MSTORE POP DUP2 ADD SWAP1 PUSH3 0x403 SWAP2 SWAP1 PUSH3 0x78D JUMP JUMPDEST PUSH1 0x14 DUP1 SLOAD PUSH1 0x1 PUSH1 0x1 PUSH1 0xA0 SHL SUB NOT SWAP1 DUP2 AND PUSH1 0x1 PUSH1 0x1 PUSH1 0xA0 SHL SUB SWAP4 DUP5 AND OR SWAP1 SWAP2 SSTORE PUSH1 0x13 DUP1 SLOAD SWAP1 SWAP2 AND SWAP2 DUP4 AND SWAP2 SWAP1 SWAP2 OR SWAP1 SSTORE PUSH1 0x1 PUSH1 0x4 PUSH1 0x0 PUSH3 0x44B PUSH1 0x0 SLOAD PUSH1 0x1 PUSH1 0x1 PUSH1 0xA0 SHL SUB AND SWAP1 JUMP JUMPDEST PUSH1 0x1 PUSH1 0x1 PUSH1 0xA0 SHL SUB AND DUP2 MSTORE PUSH1 0x20 DUP1 DUP3 ADD SWAP3 SWAP1 SWAP3 MSTORE PUSH1 0x40 SWAP1 DUP2 ADD PUSH1 0x0 SWAP1 DUP2 KECCAK256 DUP1 SLOAD SWAP5 ISZERO ISZERO PUSH1 0xFF NOT SWAP6 DUP7 AND OR SWAP1 SSTORE ADDRESS DUP2 MSTORE PUSH1 0x4 SWAP1 SWAP3 MSTORE SWAP1 KECCAK256 DUP1 SLOAD SWAP1 SWAP2 AND PUSH1 0x1 OR SWAP1 SSTORE PUSH3 0x49E PUSH1 0x0 SLOAD PUSH1 0x1 PUSH1 0x1 PUSH1 0xA0 SHL SUB AND SWAP1 JUMP JUMPDEST PUSH1 0x1 PUSH1 0x1 PUSH1 0xA0 SHL SUB AND PUSH1 0x0 PUSH1 0x1 PUSH1 0x1 PUSH1 0xA0 SHL SUB AND PUSH32 0xDDF252AD1BE2C89B69C2B068FC378DAA952BA7F163C4A11628F55A4DF523B3EF PUSH1 0x7 SLOAD PUSH1 0x40 MLOAD PUSH3 0x4E6 SWAP2 DUP2 MSTORE PUSH1 0x20 ADD SWAP1 JUMP JUMPDEST PUSH1 0x40 MLOAD DUP1 SWAP2 SUB SWAP1 LOG3 ADDRESS PUSH3 0x502 PUSH1 0x0 SLOAD PUSH1 0x1 PUSH1 0x1 PUSH1 0xA0 SHL SUB AND SWAP1 JUMP JUMPDEST PUSH1 0x1 PUSH1 0x1 PUSH1 0xA0 SHL SUB AND PUSH32 0x56358B41DF5FA59F5639228F0930994CBDDE383C8A8FD74E06C04E1DEEBE3562 PUSH1 0x2 PUSH1 0x1 PUSH1 0x40 MLOAD PUSH3 0x540 SWAP3 SWAP2 SWAP1 PUSH3 0x896 JUMP JUMPDEST PUSH1 0x40 MLOAD DUP1 SWAP2 SUB SWAP1 LOG3 PUSH1 0x40 MLOAD PUSH1 0x1 PUSH1 0x1 PUSH1 0xA0 SHL SUB DUP5 AND SWAP1 DUP4 ISZERO PUSH2 0x8FC MUL SWAP1 DUP5 SWAP1 PUSH1 0x0 DUP2 DUP2 DUP2 DUP6 DUP9 DUP9 CALL SWAP4 POP POP POP POP ISZERO DUP1 ISZERO PUSH3 0x57F JUMPI RETURNDATASIZE PUSH1 0x0 DUP1 RETURNDATACOPY RETURNDATASIZE PUSH1 0x0 REVERT JUMPDEST POP POP POP POP POP POP POP POP POP POP POP POP PUSH3 0x9D5 JUMP JUMPDEST PUSH1 0x0 DUP1 SLOAD PUSH1 0x1 PUSH1 0x1 PUSH1 0xA0 SHL SUB DUP4 DUP2 AND PUSH1 0x1 PUSH1 0x1 PUSH1 0xA0 SHL SUB NOT DUP4 AND DUP2 OR DUP5 SSTORE PUSH1 0x40 MLOAD SWAP2 SWAP1 SWAP3 AND SWAP3 DUP4 SWAP2 PUSH32 0x8BE0079C531659141344CD1FD0A4F28419497F9722A3DAAFE3B4186F6B6457E0 SWAP2 SWAP1 LOG3 POP POP JUMP JUMPDEST PUSH1 0x0 PUSH3 0x5EF DUP3 DUP5 PUSH3 0x903 JUMP JUMPDEST SWAP4 SWAP3 POP POP POP JUMP JUMPDEST PUSH1 0x0 PUSH3 0x5EF DUP3 DUP5 PUSH3 0x8EC JUMP JUMPDEST DUP3 DUP1 SLOAD PUSH3 0x612 SWAP1 PUSH3 0x93F JUMP JUMPDEST SWAP1 PUSH1 0x0 MSTORE PUSH1 0x20 PUSH1 0x0 KECCAK256 SWAP1 PUSH1 0x1F ADD PUSH1 0x20 SWAP1 DIV DUP2 ADD SWAP3 DUP3 PUSH3 0x636 JUMPI PUSH1 0x0 DUP6 SSTORE PUSH3 0x681 JUMP JUMPDEST DUP3 PUSH1 0x1F LT PUSH3 0x651 JUMPI DUP1 MLOAD PUSH1 0xFF NOT AND DUP4 DUP1 ADD OR DUP6 SSTORE PUSH3 0x681 JUMP JUMPDEST DUP3 DUP1 ADD PUSH1 0x1 ADD DUP6 SSTORE DUP3 ISZERO PUSH3 0x681 JUMPI SWAP2 DUP3 ADD JUMPDEST DUP3 DUP2 GT ISZERO PUSH3 0x681 JUMPI DUP3 MLOAD DUP3 SSTORE SWAP2 PUSH1 0x20 ADD SWAP2 SWAP1 PUSH1 0x1 ADD SWAP1 PUSH3 0x664 JUMP JUMPDEST POP PUSH3 0x68F SWAP3 SWAP2 POP PUSH3 0x693 JUMP JUMPDEST POP SWAP1 JUMP JUMPDEST JUMPDEST DUP1 DUP3 GT ISZERO PUSH3 0x68F JUMPI PUSH1 0x0 DUP2 SSTORE PUSH1 0x1 ADD PUSH3 0x694 JUMP JUMPDEST DUP1 MLOAD PUSH1 0x1 PUSH1 0x1 PUSH1 0xA0 SHL SUB DUP2 AND DUP2 EQ PUSH3 0x6C2 JUMPI PUSH1 0x0 DUP1 REVERT JUMPDEST SWAP2 SWAP1 POP JUMP JUMPDEST PUSH1 0x0 DUP3 PUSH1 0x1F DUP4 ADD SLT PUSH3 0x6D8 JUMPI DUP1 DUP2 REVERT JUMPDEST DUP2 MLOAD PUSH1 0x1 PUSH1 0x1 PUSH1 0x40 SHL SUB DUP1 DUP3 GT ISZERO PUSH3 0x6F5 JUMPI PUSH3 0x6F5 PUSH3 0x9BF JUMP JUMPDEST PUSH1 0x40 MLOAD PUSH1 0x1F DUP4 ADD PUSH1 0x1F NOT SWAP1 DUP2 AND PUSH1 0x3F ADD AND DUP2 ADD SWAP1 DUP3 DUP3 GT DUP2 DUP4 LT OR ISZERO PUSH3 0x720 JUMPI PUSH3 0x720 PUSH3 0x9BF JUMP JUMPDEST DUP2 PUSH1 0x40 MSTORE DUP4 DUP2 MSTORE PUSH1 0x20 SWAP3 POP DUP7 DUP4 DUP6 DUP9 ADD ADD GT ISZERO PUSH3 0x73C JUMPI DUP5 DUP6 REVERT JUMPDEST DUP5 SWAP2 POP JUMPDEST DUP4 DUP3 LT ISZERO PUSH3 0x75F JUMPI DUP6 DUP3 ADD DUP4 ADD MLOAD DUP2 DUP4 ADD DUP5 ADD MSTORE SWAP1 DUP3 ADD SWAP1 PUSH3 0x740 JUMP JUMPDEST DUP4 DUP3 GT ISZERO PUSH3 0x770 JUMPI DUP5 DUP4 DUP6 DUP4 ADD ADD MSTORE JUMPDEST SWAP7 SWAP6 POP POP POP POP POP POP JUMP JUMPDEST DUP1 MLOAD PUSH2 0xFFFF DUP2 AND DUP2 EQ PUSH3 0x6C2 JUMPI PUSH1 0x0 DUP1 REVERT JUMPDEST PUSH1 0x0 PUSH1 0x20 DUP3 DUP5 SUB SLT ISZERO PUSH3 0x79F JUMPI DUP1 DUP2 REVERT JUMPDEST PUSH3 0x5EF DUP3 PUSH3 0x6AA JUMP JUMPDEST PUSH1 0x0 DUP1 PUSH1 0x0 DUP1 PUSH1 0x0 DUP1 PUSH1 0x0 DUP1 PUSH1 0x0 DUP1 PUSH2 0x140 DUP12 DUP14 SUB SLT ISZERO PUSH3 0x7CA JUMPI DUP6 DUP7 REVERT JUMPDEST DUP11 MLOAD PUSH1 0x1 PUSH1 0x1 PUSH1 0x40 SHL SUB DUP1 DUP3 GT ISZERO PUSH3 0x7E1 JUMPI DUP8 DUP9 REVERT JUMPDEST PUSH3 0x7EF DUP15 DUP4 DUP16 ADD PUSH3 0x6C7 JUMP JUMPDEST SWAP12 POP PUSH1 0x20 DUP14 ADD MLOAD SWAP2 POP DUP1 DUP3 GT ISZERO PUSH3 0x805 JUMPI DUP8 DUP9 REVERT JUMPDEST POP PUSH3 0x814 DUP14 DUP3 DUP15 ADD PUSH3 0x6C7 JUMP JUMPDEST SWAP10 POP POP PUSH1 0x40 DUP12 ADD MLOAD SWAP8 POP PUSH3 0x82C PUSH1 0x60 DUP13 ADD PUSH3 0x6AA JUMP JUMPDEST SWAP7 POP PUSH3 0x83C PUSH1 0x80 DUP13 ADD PUSH3 0x6AA JUMP JUMPDEST SWAP6 POP PUSH3 0x84C PUSH1 0xA0 DUP13 ADD PUSH3 0x77A JUMP JUMPDEST SWAP5 POP PUSH3 0x85C PUSH1 0xC0 DUP13 ADD PUSH3 0x77A JUMP JUMPDEST SWAP4 POP PUSH3 0x86C PUSH1 0xE0 DUP13 ADD PUSH3 0x77A JUMP JUMPDEST SWAP3 POP PUSH3 0x87D PUSH2 0x100 DUP13 ADD PUSH3 0x6AA JUMP JUMPDEST SWAP2 POP PUSH2 0x120 DUP12 ADD MLOAD SWAP1 POP SWAP3 SWAP6 SWAP9 SWAP12 SWAP2 SWAP5 SWAP8 SWAP11 POP SWAP3 SWAP6 SWAP9 POP JUMP JUMPDEST PUSH1 0x40 DUP2 ADD PUSH1 0x8 DUP5 LT PUSH3 0x8B9 JUMPI PUSH4 0x4E487B71 PUSH1 0xE0 SHL PUSH1 0x0 MSTORE PUSH1 0x21 PUSH1 0x4 MSTORE PUSH1 0x24 PUSH1 0x0 REVERT JUMPDEST SWAP3 DUP2 MSTORE PUSH1 0x20 ADD MSTORE SWAP1 JUMP JUMPDEST PUSH1 0x0 PUSH2 0xFFFF DUP1 DUP4 AND DUP2 DUP6 AND DUP1 DUP4 SUB DUP3 GT ISZERO PUSH3 0x8E3 JUMPI PUSH3 0x8E3 PUSH3 0x993 JUMP JUMPDEST ADD SWAP5 SWAP4 POP POP POP POP JUMP JUMPDEST PUSH1 0x0 DUP3 PUSH3 0x8FE JUMPI PUSH3 0x8FE PUSH3 0x9A9 JUMP JUMPDEST POP DIV SWAP1 JUMP JUMPDEST PUSH1 0x0 DUP2 PUSH1 0x0 NOT DIV DUP4 GT DUP3 ISZERO ISZERO AND ISZERO PUSH3 0x920 JUMPI PUSH3 0x920 PUSH3 0x993 JUMP JUMPDEST POP MUL SWAP1 JUMP JUMPDEST PUSH1 0x0 DUP3 DUP3 LT ISZERO PUSH3 0x93A JUMPI PUSH3 0x93A PUSH3 0x993 JUMP JUMPDEST POP SUB SWAP1 JUMP JUMPDEST PUSH1 0x1 DUP2 DUP2 SHR SWAP1 DUP3 AND DUP1 PUSH3 0x954 JUMPI PUSH1 0x7F DUP3 AND SWAP2 POP JUMPDEST PUSH1 0x20 DUP3 LT DUP2 EQ ISZERO PUSH3 0x976 JUMPI PUSH4 0x4E487B71 PUSH1 0xE0 SHL PUSH1 0x0 MSTORE PUSH1 0x22 PUSH1 0x4 MSTORE PUSH1 0x24 PUSH1 0x0 REVERT JUMPDEST POP SWAP2 SWAP1 POP JUMP JUMPDEST PUSH1 0x0 DUP3 PUSH3 0x98E JUMPI PUSH3 0x98E PUSH3 0x9A9 JUMP JUMPDEST POP MOD SWAP1 JUMP JUMPDEST PUSH4 0x4E487B71 PUSH1 0xE0 SHL PUSH1 0x0 MSTORE PUSH1 0x11 PUSH1 0x4 MSTORE PUSH1 0x24 PUSH1 0x0 REVERT JUMPDEST PUSH4 0x4E487B71 PUSH1 0xE0 SHL PUSH1 0x0 MSTORE PUSH1 0x12 PUSH1 0x4 MSTORE PUSH1 0x24 PUSH1 0x0 REVERT JUMPDEST PUSH4 0x4E487B71 PUSH1 0xE0 SHL PUSH1 0x0 MSTORE PUSH1 0x41 PUSH1 0x4 MSTORE PUSH1 0x24 PUSH1 0x0 REVERT JUMPDEST PUSH2 0x2554 DUP1 PUSH3 0x9E5 PUSH1 0x0 CODECOPY PUSH1 0x0 RETURN INVALID PUSH1 0x80 PUSH1 0x40 MSTORE PUSH1 0x4 CALLDATASIZE LT PUSH2 0x208 JUMPI PUSH1 0x0 CALLDATALOAD PUSH1 0xE0 SHR DUP1 PUSH4 0x49BD5A5E GT PUSH2 0x118 JUMPI DUP1 PUSH4 0x8EE88C53 GT PUSH2 0xA0 JUMPI DUP1 PUSH4 0xC49B9A80 GT PUSH2 0x6F JUMPI DUP1 PUSH4 0xC49B9A80 EQ PUSH2 0x5FC JUMPI DUP1 PUSH4 0xDD62ED3E EQ PUSH2 0x61C JUMPI DUP1 PUSH4 0xEA2F0B37 EQ PUSH2 0x662 JUMPI DUP1 PUSH4 0xF2FDE38B EQ PUSH2 0x682 JUMPI DUP1 PUSH4 0xFFA1AD74 EQ PUSH2 0x6A2 JUMPI PUSH1 0x0 DUP1 REVERT JUMPDEST DUP1 PUSH4 0x8EE88C53 EQ PUSH2 0x587 JUMPI DUP1 PUSH4 0x95D89B41 EQ PUSH2 0x5A7 JUMPI DUP1 PUSH4 0xA457C2D7 EQ PUSH2 0x5BC JUMPI DUP1 PUSH4 0xA9059CBB EQ PUSH2 0x5DC JUMPI PUSH1 0x0 DUP1 REVERT JUMPDEST DUP1 PUSH4 0x6BC87C3A GT PUSH2 0xE7 JUMPI DUP1 PUSH4 0x6BC87C3A EQ PUSH2 0x4E5 JUMPI DUP1 PUSH4 0x70A08231 EQ PUSH2 0x4FB JUMPI DUP1 PUSH4 0x715018A6 EQ PUSH2 0x51B JUMPI DUP1 PUSH4 0x88F82020 EQ PUSH2 0x530 JUMPI DUP1 PUSH4 0x8DA5CB5B EQ PUSH2 0x569 JUMPI PUSH1 0x0 DUP1 REVERT JUMPDEST DUP1 PUSH4 0x49BD5A5E EQ PUSH2 0x44B JUMPI DUP1 PUSH4 0x4A74BB02 EQ PUSH2 0x46B JUMPI DUP1 PUSH4 0x52390C02 EQ PUSH2 0x48C JUMPI DUP1 PUSH4 0x5342ACB4 EQ PUSH2 0x4AC JUMPI PUSH1 0x0 DUP1 REVERT JUMPDEST DUP1 PUSH4 0x2D838119 GT PUSH2 0x19B JUMPI DUP1 PUSH4 0x3B124FE7 GT PUSH2 0x16A JUMPI DUP1 PUSH4 0x3B124FE7 EQ PUSH2 0x3BF JUMPI DUP1 PUSH4 0x3BD5D173 EQ PUSH2 0x3D5 JUMPI DUP1 PUSH4 0x40F8007A EQ PUSH2 0x3F5 JUMPI DUP1 PUSH4 0x437823EC EQ PUSH2 0x40B JUMPI DUP1 PUSH4 0x4549B039 EQ PUSH2 0x42B JUMPI PUSH1 0x0 DUP1 REVERT JUMPDEST DUP1 PUSH4 0x2D838119 EQ PUSH2 0x33D JUMPI DUP1 PUSH4 0x313CE567 EQ PUSH2 0x35D JUMPI DUP1 PUSH4 0x3685D419 EQ PUSH2 0x37F JUMPI DUP1 PUSH4 0x39509351 EQ PUSH2 0x39F JUMPI PUSH1 0x0 DUP1 REVERT JUMPDEST DUP1 PUSH4 0x1694505E GT PUSH2 0x1D7 JUMPI DUP1 PUSH4 0x1694505E EQ PUSH2 0x2B0 JUMPI DUP1 PUSH4 0x18160DDD EQ PUSH2 0x2E8 JUMPI DUP1 PUSH4 0x19A8AC9E EQ PUSH2 0x2FD JUMPI DUP1 PUSH4 0x23B872DD EQ PUSH2 0x31D JUMPI PUSH1 0x0 DUP1 REVERT JUMPDEST DUP1 PUSH4 0x61C82D0 EQ PUSH2 0x214 JUMPI DUP1 PUSH4 0x6FDDE03 EQ PUSH2 0x236 JUMPI DUP1 PUSH4 0x95EA7B3 EQ PUSH2 0x261 JUMPI DUP1 PUSH4 0x13114A9D EQ PUSH2 0x291 JUMPI PUSH1 0x0 DUP1 REVERT JUMPDEST CALLDATASIZE PUSH2 0x20F JUMPI STOP JUMPDEST PUSH1 0x0 DUP1 REVERT JUMPDEST CALLVALUE DUP1 ISZERO PUSH2 0x220 JUMPI PUSH1 0x0 DUP1 REVERT JUMPDEST POP PUSH2 0x234 PUSH2 0x22F CALLDATASIZE PUSH1 0x4 PUSH2 0x227A JUMP JUMPDEST PUSH2 0x6B7 JUMP JUMPDEST STOP JUMPDEST CALLVALUE DUP1 ISZERO PUSH2 0x242 JUMPI PUSH1 0x0 DUP1 REVERT JUMPDEST POP PUSH2 0x24B PUSH2 0x757 JUMP JUMPDEST PUSH1 0x40 MLOAD PUSH2 0x258 SWAP2 SWAP1 PUSH2 0x22EA JUMP JUMPDEST PUSH1 0x40 MLOAD DUP1 SWAP2 SUB SWAP1 RETURN JUMPDEST CALLVALUE DUP1 ISZERO PUSH2 0x26D JUMPI PUSH1 0x0 DUP1 REVERT JUMPDEST POP PUSH2 0x281 PUSH2 0x27C CALLDATASIZE PUSH1 0x4 PUSH2 0x2235 JUMP JUMPDEST PUSH2 0x7E9 JUMP JUMPDEST PUSH1 0x40 MLOAD SWAP1 ISZERO ISZERO DUP2 MSTORE PUSH1 0x20 ADD PUSH2 0x258 JUMP JUMPDEST CALLVALUE DUP1 ISZERO PUSH2 0x29D JUMPI PUSH1 0x0 DUP1 REVERT JUMPDEST POP PUSH1 0x9 SLOAD JUMPDEST PUSH1 0x40 MLOAD SWAP1 DUP2 MSTORE PUSH1 0x20 ADD PUSH2 0x258 JUMP JUMPDEST CALLVALUE DUP1 ISZERO PUSH2 0x2BC JUMPI PUSH1 0x0 DUP1 REVERT JUMPDEST POP PUSH1 0x13 SLOAD PUSH2 0x2D0 SWAP1 PUSH1 0x1 PUSH1 0x1 PUSH1 0xA0 SHL SUB AND DUP2 JUMP JUMPDEST PUSH1 0x40 MLOAD PUSH1 0x1 PUSH1 0x1 PUSH1 0xA0 SHL SUB SWAP1 SWAP2 AND DUP2 MSTORE PUSH1 0x20 ADD PUSH2 0x258 JUMP JUMPDEST CALLVALUE DUP1 ISZERO PUSH2 0x2F4 JUMPI PUSH1 0x0 DUP1 REVERT JUMPDEST POP PUSH1 0x7 SLOAD PUSH2 0x2A2 JUMP JUMPDEST CALLVALUE DUP1 ISZERO PUSH2 0x309 JUMPI PUSH1 0x0 DUP1 REVERT JUMPDEST POP PUSH1 0x15 SLOAD PUSH2 0x2D0 SWAP1 PUSH1 0x1 PUSH1 0x1 PUSH1 0xA0 SHL SUB AND DUP2 JUMP JUMPDEST CALLVALUE DUP1 ISZERO PUSH2 0x329 JUMPI PUSH1 0x0 DUP1 REVERT JUMPDEST POP PUSH2 0x281 PUSH2 0x338 CALLDATASIZE PUSH1 0x4 PUSH2 0x21F5 JUMP JUMPDEST PUSH2 0x800 JUMP JUMPDEST CALLVALUE DUP1 ISZERO PUSH2 0x349 JUMPI PUSH1 0x0 DUP1 REVERT JUMPDEST POP PUSH2 0x2A2 PUSH2 0x358 CALLDATASIZE PUSH1 0x4 PUSH2 0x227A JUMP JUMPDEST PUSH2 0x869 JUMP JUMPDEST CALLVALUE DUP1 ISZERO PUSH2 0x369 JUMPI PUSH1 0x0 DUP1 REVERT JUMPDEST POP PUSH1 0xC SLOAD PUSH1 0x40 MLOAD PUSH1 0xFF SWAP1 SWAP2 AND DUP2 MSTORE PUSH1 0x20 ADD PUSH2 0x258 JUMP JUMPDEST CALLVALUE DUP1 ISZERO PUSH2 0x38B JUMPI PUSH1 0x0 DUP1 REVERT JUMPDEST POP PUSH2 0x234 PUSH2 0x39A CALLDATASIZE PUSH1 0x4 PUSH2 0x2185 JUMP JUMPDEST PUSH2 0x8ED JUMP JUMPDEST CALLVALUE DUP1 ISZERO PUSH2 0x3AB JUMPI PUSH1 0x0 DUP1 REVERT JUMPDEST POP PUSH2 0x281 PUSH2 0x3BA CALLDATASIZE PUSH1 0x4 PUSH2 0x2235 JUMP JUMPDEST PUSH2 0xADC JUMP JUMPDEST CALLVALUE DUP1 ISZERO PUSH2 0x3CB JUMPI PUSH1 0x0 DUP1 REVERT JUMPDEST POP PUSH2 0x2A2 PUSH1 0xD SLOAD DUP2 JUMP JUMPDEST CALLVALUE DUP1 ISZERO PUSH2 0x3E1 JUMPI PUSH1 0x0 DUP1 REVERT JUMPDEST POP PUSH2 0x234 PUSH2 0x3F0 CALLDATASIZE PUSH1 0x4 PUSH2 0x227A JUMP JUMPDEST PUSH2 0xB12 JUMP JUMPDEST CALLVALUE DUP1 ISZERO PUSH2 0x401 JUMPI PUSH1 0x0 DUP1 REVERT JUMPDEST POP PUSH2 0x2A2 PUSH1 0x11 SLOAD DUP2 JUMP JUMPDEST CALLVALUE DUP1 ISZERO PUSH2 0x417 JUMPI PUSH1 0x0 DUP1 REVERT JUMPDEST POP PUSH2 0x234 PUSH2 0x426 CALLDATASIZE PUSH1 0x4 PUSH2 0x2185 JUMP JUMPDEST PUSH2 0xBFE JUMP JUMPDEST CALLVALUE DUP1 ISZERO PUSH2 0x437 JUMPI PUSH1 0x0 DUP1 REVERT JUMPDEST POP PUSH2 0x2A2 PUSH2 0x446 CALLDATASIZE PUSH1 0x4 PUSH2 0x2292 JUMP JUMPDEST PUSH2 0xC4C JUMP JUMPDEST CALLVALUE DUP1 ISZERO PUSH2 0x457 JUMPI PUSH1 0x0 DUP1 REVERT JUMPDEST POP PUSH1 0x14 SLOAD PUSH2 0x2D0 SWAP1 PUSH1 0x1 PUSH1 0x1 PUSH1 0xA0 SHL SUB AND DUP2 JUMP JUMPDEST CALLVALUE DUP1 ISZERO PUSH2 0x477 JUMPI PUSH1 0x0 DUP1 REVERT JUMPDEST POP PUSH1 0x15 SLOAD PUSH2 0x281 SWAP1 PUSH1 0x1 PUSH1 0xA8 SHL SWAP1 DIV PUSH1 0xFF AND DUP2 JUMP JUMPDEST CALLVALUE DUP1 ISZERO PUSH2 0x498 JUMPI PUSH1 0x0 DUP1 REVERT JUMPDEST POP PUSH2 0x234 PUSH2 0x4A7 CALLDATASIZE PUSH1 0x4 PUSH2 0x2185 JUMP JUMPDEST PUSH2 0xCDB JUMP JUMPDEST CALLVALUE DUP1 ISZERO PUSH2 0x4B8 JUMPI PUSH1 0x0 DUP1 REVERT JUMPDEST POP PUSH2 0x281 PUSH2 0x4C7 CALLDATASIZE PUSH1 0x4 PUSH2 0x2185 JUMP JUMPDEST PUSH1 0x1 PUSH1 0x1 PUSH1 0xA0 SHL SUB AND PUSH1 0x0 SWAP1 DUP2 MSTORE PUSH1 0x4 PUSH1 0x20 MSTORE PUSH1 0x40 SWAP1 KECCAK256 SLOAD PUSH1 0xFF AND SWAP1 JUMP JUMPDEST CALLVALUE DUP1 ISZERO PUSH2 0x4F1 JUMPI PUSH1 0x0 DUP1 REVERT JUMPDEST POP PUSH2 0x2A2 PUSH1 0xF SLOAD DUP2 JUMP JUMPDEST CALLVALUE DUP1 ISZERO PUSH2 0x507 JUMPI PUSH1 0x0 DUP1 REVERT JUMPDEST POP PUSH2 0x2A2 PUSH2 0x516 CALLDATASIZE PUSH1 0x4 PUSH2 0x2185 JUMP JUMPDEST PUSH2 0xE2E JUMP JUMPDEST CALLVALUE DUP1 ISZERO PUSH2 0x527 JUMPI PUSH1 0x0 DUP1 REVERT JUMPDEST POP PUSH2 0x234 PUSH2 0xE8D JUMP JUMPDEST CALLVALUE DUP1 ISZERO PUSH2 0x53C JUMPI PUSH1 0x0 DUP1 REVERT JUMPDEST POP PUSH2 0x281 PUSH2 0x54B CALLDATASIZE PUSH1 0x4 PUSH2 0x2185 JUMP JUMPDEST PUSH1 0x1 PUSH1 0x1 PUSH1 0xA0 SHL SUB AND PUSH1 0x0 SWAP1 DUP2 MSTORE PUSH1 0x5 PUSH1 0x20 MSTORE PUSH1 0x40 SWAP1 KECCAK256 SLOAD PUSH1 0xFF AND SWAP1 JUMP JUMPDEST CALLVALUE DUP1 ISZERO PUSH2 0x575 JUMPI PUSH1 0x0 DUP1 REVERT JUMPDEST POP PUSH1 0x0 SLOAD PUSH1 0x1 PUSH1 0x1 PUSH1 0xA0 SHL SUB AND PUSH2 0x2D0 JUMP JUMPDEST CALLVALUE DUP1 ISZERO PUSH2 0x593 JUMPI PUSH1 0x0 DUP1 REVERT JUMPDEST POP PUSH2 0x234 PUSH2 0x5A2 CALLDATASIZE PUSH1 0x4 PUSH2 0x227A JUMP JUMPDEST PUSH2 0xEC3 JUMP JUMPDEST CALLVALUE DUP1 ISZERO PUSH2 0x5B3 JUMPI PUSH1 0x0 DUP1 REVERT JUMPDEST POP PUSH2 0x24B PUSH2 0xF08 JUMP JUMPDEST CALLVALUE DUP1 ISZERO PUSH2 0x5C8 JUMPI PUSH1 0x0 DUP1 REVERT JUMPDEST POP PUSH2 0x281 PUSH2 0x5D7 CALLDATASIZE PUSH1 0x4 PUSH2 0x2235 JUMP JUMPDEST PUSH2 0xF17 JUMP JUMPDEST CALLVALUE DUP1 ISZERO PUSH2 0x5E8 JUMPI PUSH1 0x0 DUP1 REVERT JUMPDEST POP PUSH2 0x281 PUSH2 0x5F7 CALLDATASIZE PUSH1 0x4 PUSH2 0x2235 JUMP JUMPDEST PUSH2 0xF66 JUMP JUMPDEST CALLVALUE DUP1 ISZERO PUSH2 0x608 JUMPI PUSH1 0x0 DUP1 REVERT JUMPDEST POP PUSH2 0x234 PUSH2 0x617 CALLDATASIZE PUSH1 0x4 PUSH2 0x2260 JUMP JUMPDEST PUSH2 0xF73 JUMP JUMPDEST CALLVALUE DUP1 ISZERO PUSH2 0x628 JUMPI PUSH1 0x0 DUP1 REVERT JUMPDEST POP PUSH2 0x2A2 PUSH2 0x637 CALLDATASIZE PUSH1 0x4 PUSH2 0x21BD JUMP JUMPDEST PUSH1 0x1 PUSH1 0x1 PUSH1 0xA0 SHL SUB SWAP2 DUP3 AND PUSH1 0x0 SWAP1 DUP2 MSTORE PUSH1 0x3 PUSH1 0x20 SWAP1 DUP2 MSTORE PUSH1 0x40 DUP1 DUP4 KECCAK256 SWAP4 SWAP1 SWAP5 AND DUP3 MSTORE SWAP2 SWAP1 SWAP2 MSTORE KECCAK256 SLOAD SWAP1 JUMP JUMPDEST CALLVALUE DUP1 ISZERO PUSH2 0x66E JUMPI PUSH1 0x0 DUP1 REVERT JUMPDEST POP PUSH2 0x234 PUSH2 0x67D CALLDATASIZE PUSH1 0x4 PUSH2 0x2185 JUMP JUMPDEST PUSH2 0xFF5 JUMP JUMPDEST CALLVALUE DUP1 ISZERO PUSH2 0x68E JUMPI PUSH1 0x0 DUP1 REVERT JUMPDEST POP PUSH2 0x234 PUSH2 0x69D CALLDATASIZE PUSH1 0x4 PUSH2 0x2185 JUMP JUMPDEST PUSH2 0x1040 JUMP JUMPDEST CALLVALUE DUP1 ISZERO PUSH2 0x6AE JUMPI PUSH1 0x0 DUP1 REVERT JUMPDEST POP PUSH2 0x2A2 PUSH1 0x1 DUP2 JUMP JUMPDEST PUSH1 0x0 SLOAD PUSH1 0x1 PUSH1 0x1 PUSH1 0xA0 SHL SUB AND CALLER EQ PUSH2 0x6EA JUMPI PUSH1 0x40 MLOAD PUSH3 0x461BCD PUSH1 0xE5 SHL DUP2 MSTORE PUSH1 0x4 ADD PUSH2 0x6E1 SWAP1 PUSH2 0x233D JUMP JUMPDEST PUSH1 0x40 MLOAD DUP1 SWAP2 SUB SWAP1 REVERT JUMPDEST PUSH1 0xD DUP2 SWAP1 SSTORE PUSH1 0x11 SLOAD PUSH1 0xF SLOAD PUSH2 0x9C4 SWAP2 SWAP1 PUSH2 0x704 SWAP1 DUP5 PUSH2 0x23E2 JUMP JUMPDEST PUSH2 0x70E SWAP2 SWAP1 PUSH2 0x23E2 JUMP JUMPDEST GT ISZERO PUSH2 0x754 JUMPI PUSH1 0x40 MLOAD PUSH3 0x461BCD PUSH1 0xE5 SHL DUP2 MSTORE PUSH1 0x20 PUSH1 0x4 DUP3 ADD MSTORE PUSH1 0x15 PUSH1 0x24 DUP3 ADD MSTORE PUSH21 0x546F74616C20666565206973206F76657220323525 PUSH1 0x58 SHL PUSH1 0x44 DUP3 ADD MSTORE PUSH1 0x64 ADD PUSH2 0x6E1 JUMP JUMPDEST POP JUMP JUMPDEST PUSH1 0x60 PUSH1 0xA DUP1 SLOAD PUSH2 0x766 SWAP1 PUSH2 0x2450 JUMP JUMPDEST DUP1 PUSH1 0x1F ADD PUSH1 0x20 DUP1 SWAP2 DIV MUL PUSH1 0x20 ADD PUSH1 0x40 MLOAD SWAP1 DUP2 ADD PUSH1 0x40 MSTORE DUP1 SWAP3 SWAP2 SWAP1 DUP2 DUP2 MSTORE PUSH1 0x20 ADD DUP3 DUP1 SLOAD PUSH2 0x792 SWAP1 PUSH2 0x2450 JUMP JUMPDEST DUP1 ISZERO PUSH2 0x7DF JUMPI DUP1 PUSH1 0x1F LT PUSH2 0x7B4 JUMPI PUSH2 0x100 DUP1 DUP4 SLOAD DIV MUL DUP4 MSTORE SWAP2 PUSH1 0x20 ADD SWAP2 PUSH2 0x7DF JUMP JUMPDEST DUP3 ADD SWAP2 SWAP1 PUSH1 0x0 MSTORE PUSH1 0x20 PUSH1 0x0 KECCAK256 SWAP1 JUMPDEST DUP2 SLOAD DUP2 MSTORE SWAP1 PUSH1 0x1 ADD SWAP1 PUSH1 0x20 ADD DUP1 DUP4 GT PUSH2 0x7C2 JUMPI DUP3 SWAP1 SUB PUSH1 0x1F AND DUP3 ADD SWAP2 JUMPDEST POP POP POP POP POP SWAP1 POP SWAP1 JUMP JUMPDEST PUSH1 0x0 PUSH2 0x7F6 CALLER DUP5 DUP5 PUSH2 0x10F0 JUMP JUMPDEST POP PUSH1 0x1 JUMPDEST SWAP3 SWAP2 POP POP JUMP JUMPDEST PUSH1 0x0 PUSH2 0x80D DUP5 DUP5 DUP5 PUSH2 0x1215 JUMP JUMPDEST PUSH2 0x85F DUP5 CALLER PUSH2 0x85A DUP6 PUSH1 0x40 MLOAD DUP1 PUSH1 0x60 ADD PUSH1 0x40 MSTORE DUP1 PUSH1 0x28 DUP2 MSTORE PUSH1 0x20 ADD PUSH2 0x24D2 PUSH1 0x28 SWAP2 CODECOPY PUSH1 0x1 PUSH1 0x1 PUSH1 0xA0 SHL SUB DUP11 AND PUSH1 0x0 SWAP1 DUP2 MSTORE PUSH1 0x3 PUSH1 0x20 SWAP1 DUP2 MSTORE PUSH1 0x40 DUP1 DUP4 KECCAK256 CALLER DUP5 MSTORE SWAP1 SWAP2 MSTORE SWAP1 KECCAK256 SLOAD SWAP2 SWAP1 PUSH2 0x140A JUMP JUMPDEST PUSH2 0x10F0 JUMP JUMPDEST POP PUSH1 0x1 SWAP4 SWAP3 POP POP POP JUMP JUMPDEST PUSH1 0x0 PUSH1 0x8 SLOAD DUP3 GT ISZERO PUSH2 0x8D0 JUMPI PUSH1 0x40 MLOAD PUSH3 0x461BCD PUSH1 0xE5 SHL DUP2 MSTORE PUSH1 0x20 PUSH1 0x4 DUP3 ADD MSTORE PUSH1 0x2A PUSH1 0x24 DUP3 ADD MSTORE PUSH32 0x416D6F756E74206D757374206265206C657373207468616E20746F74616C2072 PUSH1 0x44 DUP3 ADD MSTORE PUSH10 0x65666C656374696F6E73 PUSH1 0xB0 SHL PUSH1 0x64 DUP3 ADD MSTORE PUSH1 0x84 ADD PUSH2 0x6E1 JUMP JUMPDEST PUSH1 0x0 PUSH2 0x8DA PUSH2 0x1436 JUMP JUMPDEST SWAP1 POP PUSH2 0x8E6 DUP4 DUP3 PUSH2 0x10E4 JUMP JUMPDEST SWAP4 SWAP3 POP POP POP JUMP JUMPDEST PUSH1 0x0 SLOAD PUSH1 0x1 PUSH1 0x1 PUSH1 0xA0 SHL SUB AND CALLER EQ PUSH2 0x917 JUMPI PUSH1 0x40 MLOAD PUSH3 0x461BCD PUSH1 0xE5 SHL DUP2 MSTORE PUSH1 0x4 ADD PUSH2 0x6E1 SWAP1 PUSH2 0x233D JUMP JUMPDEST PUSH1 0x1 PUSH1 0x1 PUSH1 0xA0 SHL SUB DUP2 AND PUSH1 0x0 SWAP1 DUP2 MSTORE PUSH1 0x5 PUSH1 0x20 MSTORE PUSH1 0x40 SWAP1 KECCAK256 SLOAD PUSH1 0xFF AND PUSH2 0x97F JUMPI PUSH1 0x40 MLOAD PUSH3 0x461BCD PUSH1 0xE5 SHL DUP2 MSTORE PUSH1 0x20 PUSH1 0x4 DUP3 ADD MSTORE PUSH1 0x1B PUSH1 0x24 DUP3 ADD MSTORE PUSH32 0x4163636F756E7420697320616C7265616479206578636C756465640000000000 PUSH1 0x44 DUP3 ADD MSTORE PUSH1 0x64 ADD PUSH2 0x6E1 JUMP JUMPDEST PUSH1 0x0 JUMPDEST PUSH1 0x6 SLOAD DUP2 LT ISZERO PUSH2 0xAD8 JUMPI DUP2 PUSH1 0x1 PUSH1 0x1 PUSH1 0xA0 SHL SUB AND PUSH1 0x6 DUP3 DUP2 SLOAD DUP2 LT PUSH2 0x9B7 JUMPI PUSH4 0x4E487B71 PUSH1 0xE0 SHL PUSH1 0x0 MSTORE PUSH1 0x32 PUSH1 0x4 MSTORE PUSH1 0x24 PUSH1 0x0 REVERT JUMPDEST PUSH1 0x0 SWAP2 DUP3 MSTORE PUSH1 0x20 SWAP1 SWAP2 KECCAK256 ADD SLOAD PUSH1 0x1 PUSH1 0x1 PUSH1 0xA0 SHL SUB AND EQ ISZERO PUSH2 0xAC6 JUMPI PUSH1 0x6 DUP1 SLOAD PUSH2 0x9E2 SWAP1 PUSH1 0x1 SWAP1 PUSH2 0x2439 JUMP JUMPDEST DUP2 SLOAD DUP2 LT PUSH2 0xA00 JUMPI PUSH4 0x4E487B71 PUSH1 0xE0 SHL PUSH1 0x0 MSTORE PUSH1 0x32 PUSH1 0x4 MSTORE PUSH1 0x24 PUSH1 0x0 REVERT JUMPDEST PUSH1 0x0 SWAP2 DUP3 MSTORE PUSH1 0x20 SWAP1 SWAP2 KECCAK256 ADD SLOAD PUSH1 0x6 DUP1 SLOAD PUSH1 0x1 PUSH1 0x1 PUSH1 0xA0 SHL SUB SWAP1 SWAP3 AND SWAP2 DUP4 SWAP1 DUP2 LT PUSH2 0xA3A JUMPI PUSH4 0x4E487B71 PUSH1 0xE0 SHL PUSH1 0x0 MSTORE PUSH1 0x32 PUSH1 0x4 MSTORE PUSH1 0x24 PUSH1 0x0 REVERT JUMPDEST PUSH1 0x0 SWAP2 DUP3 MSTORE PUSH1 0x20 DUP1 DUP4 KECCAK256 SWAP2 SWAP1 SWAP2 ADD DUP1 SLOAD PUSH1 0x1 PUSH1 0x1 PUSH1 0xA0 SHL SUB NOT AND PUSH1 0x1 PUSH1 0x1 PUSH1 0xA0 SHL SUB SWAP5 DUP6 AND OR SWAP1 SSTORE SWAP2 DUP5 AND DUP2 MSTORE PUSH1 0x2 DUP3 MSTORE PUSH1 0x40 DUP1 DUP3 KECCAK256 DUP3 SWAP1 SSTORE PUSH1 0x5 SWAP1 SWAP3 MSTORE KECCAK256 DUP1 SLOAD PUSH1 0xFF NOT AND SWAP1 SSTORE PUSH1 0x6 DUP1 SLOAD DUP1 PUSH2 0xAA0 JUMPI PUSH4 0x4E487B71 PUSH1 0xE0 SHL PUSH1 0x0 MSTORE PUSH1 0x31 PUSH1 0x4 MSTORE PUSH1 0x24 PUSH1 0x0 REVERT JUMPDEST PUSH1 0x0 DUP3 DUP2 MSTORE PUSH1 0x20 SWAP1 KECCAK256 DUP2 ADD PUSH1 0x0 NOT SWAP1 DUP2 ADD DUP1 SLOAD PUSH1 0x1 PUSH1 0x1 PUSH1 0xA0 SHL SUB NOT AND SWAP1 SSTORE ADD SWAP1 SSTORE POP POP JUMP JUMPDEST DUP1 PUSH2 0xAD0 DUP2 PUSH2 0x248B JUMP JUMPDEST SWAP2 POP POP PUSH2 0x982 JUMP JUMPDEST POP POP JUMP JUMPDEST CALLER PUSH1 0x0 DUP2 DUP2 MSTORE PUSH1 0x3 PUSH1 0x20 SWAP1 DUP2 MSTORE PUSH1 0x40 DUP1 DUP4 KECCAK256 PUSH1 0x1 PUSH1 0x1 PUSH1 0xA0 SHL SUB DUP8 AND DUP5 MSTORE SWAP1 SWAP2 MSTORE DUP2 KECCAK256 SLOAD SWAP1 SWAP2 PUSH2 0x7F6 SWAP2 DUP6 SWAP1 PUSH2 0x85A SWAP1 DUP7 PUSH2 0x1459 JUMP JUMPDEST CALLER PUSH1 0x0 DUP2 DUP2 MSTORE PUSH1 0x5 PUSH1 0x20 MSTORE PUSH1 0x40 SWAP1 KECCAK256 SLOAD PUSH1 0xFF AND ISZERO PUSH2 0xB87 JUMPI PUSH1 0x40 MLOAD PUSH3 0x461BCD PUSH1 0xE5 SHL DUP2 MSTORE PUSH1 0x20 PUSH1 0x4 DUP3 ADD MSTORE PUSH1 0x2C PUSH1 0x24 DUP3 ADD MSTORE PUSH32 0x4578636C75646564206164647265737365732063616E6E6F742063616C6C2074 PUSH1 0x44 DUP3 ADD MSTORE PUSH12 0x3434B990333AB731BA34B7B7 PUSH1 0xA1 SHL PUSH1 0x64 DUP3 ADD MSTORE PUSH1 0x84 ADD PUSH2 0x6E1 JUMP JUMPDEST PUSH1 0x0 PUSH2 0xB92 DUP4 PUSH2 0x1465 JUMP JUMPDEST POP POP POP PUSH1 0x1 PUSH1 0x1 PUSH1 0xA0 SHL SUB DUP7 AND PUSH1 0x0 SWAP1 DUP2 MSTORE PUSH1 0x1 PUSH1 0x20 MSTORE PUSH1 0x40 SWAP1 KECCAK256 SLOAD SWAP4 SWAP5 POP PUSH2 0xBC0 SWAP4 SWAP3 POP DUP5 SWAP2 POP POP PUSH2 0x14C0 JUMP JUMPDEST PUSH1 0x1 PUSH1 0x1 PUSH1 0xA0 SHL SUB DUP4 AND PUSH1 0x0 SWAP1 DUP2 MSTORE PUSH1 0x1 PUSH1 0x20 MSTORE PUSH1 0x40 SWAP1 KECCAK256 SSTORE PUSH1 0x8 SLOAD PUSH2 0xBE6 SWAP1 DUP3 PUSH2 0x14C0 JUMP JUMPDEST PUSH1 0x8 SSTORE PUSH1 0x9 SLOAD PUSH2 0xBF6 SWAP1 DUP5 PUSH2 0x1459 JUMP JUMPDEST PUSH1 0x9 SSTORE POP POP POP JUMP JUMPDEST PUSH1 0x0 SLOAD PUSH1 0x1 PUSH1 0x1 PUSH1 0xA0 SHL SUB AND CALLER EQ PUSH2 0xC28 JUMPI PUSH1 0x40 MLOAD PUSH3 0x461BCD PUSH1 0xE5 SHL DUP2 MSTORE PUSH1 0x4 ADD PUSH2 0x6E1 SWAP1 PUSH2 0x233D JUMP JUMPDEST PUSH1 0x1 PUSH1 0x1 PUSH1 0xA0 SHL SUB AND PUSH1 0x0 SWAP1 DUP2 MSTORE PUSH1 0x4 PUSH1 0x20 MSTORE PUSH1 0x40 SWAP1 KECCAK256 DUP1 SLOAD PUSH1 0xFF NOT AND PUSH1 0x1 OR SWAP1 SSTORE JUMP JUMPDEST PUSH1 0x0 PUSH1 0x7 SLOAD DUP4 GT ISZERO PUSH2 0xCA0 JUMPI PUSH1 0x40 MLOAD PUSH3 0x461BCD PUSH1 0xE5 SHL DUP2 MSTORE PUSH1 0x20 PUSH1 0x4 DUP3 ADD MSTORE PUSH1 0x1F PUSH1 0x24 DUP3 ADD MSTORE PUSH32 0x416D6F756E74206D757374206265206C657373207468616E20737570706C7900 PUSH1 0x44 DUP3 ADD MSTORE PUSH1 0x64 ADD PUSH2 0x6E1 JUMP JUMPDEST DUP2 PUSH2 0xCC0 JUMPI PUSH1 0x0 PUSH2 0xCB0 DUP5 PUSH2 0x1465 JUMP JUMPDEST POP SWAP5 SWAP7 POP PUSH2 0x7FA SWAP6 POP POP POP POP POP POP JUMP JUMPDEST PUSH1 0x0 PUSH2 0xCCB DUP5 PUSH2 0x1465 JUMP JUMPDEST POP SWAP4 SWAP7 POP PUSH2 0x7FA SWAP6 POP POP POP POP POP POP JUMP JUMPDEST PUSH1 0x0 SLOAD PUSH1 0x1 PUSH1 0x1 PUSH1 0xA0 SHL SUB AND CALLER EQ PUSH2 0xD05 JUMPI PUSH1 0x40 MLOAD PUSH3 0x461BCD PUSH1 0xE5 SHL DUP2 MSTORE PUSH1 0x4 ADD PUSH2 0x6E1 SWAP1 PUSH2 0x233D JUMP JUMPDEST PUSH1 0x1 PUSH1 0x1 PUSH1 0xA0 SHL SUB DUP2 AND PUSH1 0x0 SWAP1 DUP2 MSTORE PUSH1 0x5 PUSH1 0x20 MSTORE PUSH1 0x40 SWAP1 KECCAK256 SLOAD PUSH1 0xFF AND ISZERO PUSH2 0xD6E JUMPI PUSH1 0x40 MLOAD PUSH3 0x461BCD PUSH1 0xE5 SHL DUP2 MSTORE PUSH1 0x20 PUSH1 0x4 DUP3 ADD MSTORE PUSH1 0x1B PUSH1 0x24 DUP3 ADD MSTORE PUSH32 0x4163636F756E7420697320616C7265616479206578636C756465640000000000 PUSH1 0x44 DUP3 ADD MSTORE PUSH1 0x64 ADD PUSH2 0x6E1 JUMP JUMPDEST PUSH1 0x1 PUSH1 0x1 PUSH1 0xA0 SHL SUB DUP2 AND PUSH1 0x0 SWAP1 DUP2 MSTORE PUSH1 0x1 PUSH1 0x20 MSTORE PUSH1 0x40 SWAP1 KECCAK256 SLOAD ISZERO PUSH2 0xDC8 JUMPI PUSH1 0x1 PUSH1 0x1 PUSH1 0xA0 SHL SUB DUP2 AND PUSH1 0x0 SWAP1 DUP2 MSTORE PUSH1 0x1 PUSH1 0x20 MSTORE PUSH1 0x40 SWAP1 KECCAK256 SLOAD PUSH2 0xDAE SWAP1 PUSH2 0x869 JUMP JUMPDEST PUSH1 0x1 PUSH1 0x1 PUSH1 0xA0 SHL SUB DUP3 AND PUSH1 0x0 SWAP1 DUP2 MSTORE PUSH1 0x2 PUSH1 0x20 MSTORE PUSH1 0x40 SWAP1 KECCAK256 SSTORE JUMPDEST PUSH1 0x1 PUSH1 0x1 PUSH1 0xA0 SHL SUB AND PUSH1 0x0 DUP2 DUP2 MSTORE PUSH1 0x5 PUSH1 0x20 MSTORE PUSH1 0x40 DUP2 KECCAK256 DUP1 SLOAD PUSH1 0xFF NOT AND PUSH1 0x1 SWAP1 DUP2 OR SWAP1 SWAP2 SSTORE PUSH1 0x6 DUP1 SLOAD SWAP2 DUP3 ADD DUP2 SSTORE SWAP1 SWAP2 MSTORE PUSH32 0xF652222313E28459528D920B65115C16C04F3EFC82AAEDC97BE59F3F377C0D3F ADD DUP1 SLOAD PUSH1 0x1 PUSH1 0x1 PUSH1 0xA0 SHL SUB NOT AND SWAP1 SWAP2 OR SWAP1 SSTORE JUMP JUMPDEST PUSH1 0x1 PUSH1 0x1 PUSH1 0xA0 SHL SUB DUP2 AND PUSH1 0x0 SWAP1 DUP2 MSTORE PUSH1 0x5 PUSH1 0x20 MSTORE PUSH1 0x40 DUP2 KECCAK256 SLOAD PUSH1 0xFF AND ISZERO PUSH2 0xE6B JUMPI POP PUSH1 0x1 PUSH1 0x1 PUSH1 0xA0 SHL SUB AND PUSH1 0x0 SWAP1 DUP2 MSTORE PUSH1 0x2 PUSH1 0x20 MSTORE PUSH1 0x40 SWAP1 KECCAK256 SLOAD SWAP1 JUMP JUMPDEST PUSH1 0x1 PUSH1 0x1 PUSH1 0xA0 SHL SUB DUP3 AND PUSH1 0x0 SWAP1 DUP2 MSTORE PUSH1 0x1 PUSH1 0x20 MSTORE PUSH1 0x40 SWAP1 KECCAK256 SLOAD PUSH2 0x7FA SWAP1 PUSH2 0x869 JUMP JUMPDEST PUSH1 0x0 SLOAD PUSH1 0x1 PUSH1 0x1 PUSH1 0xA0 SHL SUB AND CALLER EQ PUSH2 0xEB7 JUMPI PUSH1 0x40 MLOAD PUSH3 0x461BCD PUSH1 0xE5 SHL DUP2 MSTORE PUSH1 0x4 ADD PUSH2 0x6E1 SWAP1 PUSH2 0x233D JUMP JUMPDEST PUSH2 0xEC1 PUSH1 0x0 PUSH2 0x14CC JUMP JUMPDEST JUMP JUMPDEST PUSH1 0x0 SLOAD PUSH1 0x1 PUSH1 0x1 PUSH1 0xA0 SHL SUB AND CALLER EQ PUSH2 0xEED JUMPI PUSH1 0x40 MLOAD PUSH3 0x461BCD PUSH1 0xE5 SHL DUP2 MSTORE PUSH1 0x4 ADD PUSH2 0x6E1 SWAP1 PUSH2 0x233D JUMP JUMPDEST PUSH1 0xF DUP2 SWAP1 SSTORE PUSH1 0x11 SLOAD PUSH1 0xD SLOAD PUSH2 0x9C4 SWAP2 SWAP1 PUSH2 0x704 SWAP1 DUP5 SWAP1 PUSH2 0x23E2 JUMP JUMPDEST PUSH1 0x60 PUSH1 0xB DUP1 SLOAD PUSH2 0x766 SWAP1 PUSH2 0x2450 JUMP JUMPDEST PUSH1 0x0 PUSH2 0x7F6 CALLER DUP5 PUSH2 0x85A DUP6 PUSH1 0x40 MLOAD DUP1 PUSH1 0x60 ADD PUSH1 0x40 MSTORE DUP1 PUSH1 0x25 DUP2 MSTORE PUSH1 0x20 ADD PUSH2 0x24FA PUSH1 0x25 SWAP2 CODECOPY CALLER PUSH1 0x0 SWAP1 DUP2 MSTORE PUSH1 0x3 PUSH1 0x20 SWAP1 DUP2 MSTORE PUSH1 0x40 DUP1 DUP4 KECCAK256 PUSH1 0x1 PUSH1 0x1 PUSH1 0xA0 SHL SUB DUP14 AND DUP5 MSTORE SWAP1 SWAP2 MSTORE SWAP1 KECCAK256 SLOAD SWAP2 SWAP1 PUSH2 0x140A JUMP JUMPDEST PUSH1 0x0 PUSH2 0x7F6 CALLER DUP5 DUP5 PUSH2 0x1215 JUMP JUMPDEST PUSH1 0x0 SLOAD PUSH1 0x1 PUSH1 0x1 PUSH1 0xA0 SHL SUB AND CALLER EQ PUSH2 0xF9D JUMPI PUSH1 0x40 MLOAD PUSH3 0x461BCD PUSH1 0xE5 SHL DUP2 MSTORE PUSH1 0x4 ADD PUSH2 0x6E1 SWAP1 PUSH2 0x233D JUMP JUMPDEST PUSH1 0x15 DUP1 SLOAD DUP3 ISZERO ISZERO PUSH1 0x1 PUSH1 0xA8 SHL MUL PUSH1 0xFF PUSH1 0xA8 SHL NOT SWAP1 SWAP2 AND OR SWAP1 SSTORE PUSH1 0x40 MLOAD PUSH32 0x53726DFCAF90650AA7EB35524F4D3220F07413C8D6CB404CC8C18BF5591BC159 SWAP1 PUSH2 0xFEA SWAP1 DUP4 ISZERO ISZERO DUP2 MSTORE PUSH1 0x20 ADD SWAP1 JUMP JUMPDEST PUSH1 0x40 MLOAD DUP1 SWAP2 SUB SWAP1 LOG1 POP JUMP JUMPDEST PUSH1 0x0 SLOAD PUSH1 0x1 PUSH1 0x1 PUSH1 0xA0 SHL SUB AND CALLER EQ PUSH2 0x101F JUMPI PUSH1 0x40 MLOAD PUSH3 0x461BCD PUSH1 0xE5 SHL DUP2 MSTORE PUSH1 0x4 ADD PUSH2 0x6E1 SWAP1 PUSH2 0x233D JUMP JUMPDEST PUSH1 0x1 PUSH1 0x1 PUSH1 0xA0 SHL SUB AND PUSH1 0x0 SWAP1 DUP2 MSTORE PUSH1 0x4 PUSH1 0x20 MSTORE PUSH1 0x40 SWAP1 KECCAK256 DUP1 SLOAD PUSH1 0xFF NOT AND SWAP1 SSTORE JUMP JUMPDEST PUSH1 0x0 SLOAD PUSH1 0x1 PUSH1 0x1 PUSH1 0xA0 SHL SUB AND CALLER EQ PUSH2 0x106A JUMPI PUSH1 0x40 MLOAD PUSH3 0x461BCD PUSH1 0xE5 SHL DUP2 MSTORE PUSH1 0x4 ADD PUSH2 0x6E1 SWAP1 PUSH2 0x233D JUMP JUMPDEST PUSH1 0x1 PUSH1 0x1 PUSH1 0xA0 SHL SUB DUP2 AND PUSH2 0x10CF JUMPI PUSH1 0x40 MLOAD PUSH3 0x461BCD PUSH1 0xE5 SHL DUP2 MSTORE PUSH1 0x20 PUSH1 0x4 DUP3 ADD MSTORE PUSH1 0x26 PUSH1 0x24 DUP3 ADD MSTORE PUSH32 0x4F776E61626C653A206E6577206F776E657220697320746865207A65726F2061 PUSH1 0x44 DUP3 ADD MSTORE PUSH6 0x646472657373 PUSH1 0xD0 SHL PUSH1 0x64 DUP3 ADD MSTORE PUSH1 0x84 ADD PUSH2 0x6E1 JUMP JUMPDEST PUSH2 0x754 DUP2 PUSH2 0x14CC JUMP JUMPDEST PUSH1 0x0 PUSH2 0x8E6 DUP3 DUP5 PUSH2 0x241A JUMP JUMPDEST PUSH1 0x0 PUSH2 0x8E6 DUP3 DUP5 PUSH2 0x23FA JUMP JUMPDEST PUSH1 0x1 PUSH1 0x1 PUSH1 0xA0 SHL SUB DUP4 AND PUSH2 0x1152 JUMPI PUSH1 0x40 MLOAD PUSH3 0x461BCD PUSH1 0xE5 SHL DUP2 MSTORE PUSH1 0x20 PUSH1 0x4 DUP3 ADD MSTORE PUSH1 0x24 DUP1 DUP3 ADD MSTORE PUSH32 0x45524332303A20617070726F76652066726F6D20746865207A65726F20616464 PUSH1 0x44 DUP3 ADD MSTORE PUSH4 0x72657373 PUSH1 0xE0 SHL PUSH1 0x64 DUP3 ADD MSTORE PUSH1 0x84 ADD PUSH2 0x6E1 JUMP JUMPDEST PUSH1 0x1 PUSH1 0x1 PUSH1 0xA0 SHL SUB DUP3 AND PUSH2 0x11B3 JUMPI PUSH1 0x40 MLOAD PUSH3 0x461BCD PUSH1 0xE5 SHL DUP2 MSTORE PUSH1 0x20 PUSH1 0x4 DUP3 ADD MSTORE PUSH1 0x22 PUSH1 0x24 DUP3 ADD MSTORE PUSH32 0x45524332303A20617070726F766520746F20746865207A65726F206164647265 PUSH1 0x44 DUP3 ADD MSTORE PUSH2 0x7373 PUSH1 0xF0 SHL PUSH1 0x64 DUP3 ADD MSTORE PUSH1 0x84 ADD PUSH2 0x6E1 JUMP JUMPDEST PUSH1 0x1 PUSH1 0x1 PUSH1 0xA0 SHL SUB DUP4 DUP2 AND PUSH1 0x0 DUP2 DUP2 MSTORE PUSH1 0x3 PUSH1 0x20 SWAP1 DUP2 MSTORE PUSH1 0x40 DUP1 DUP4 KECCAK256 SWAP5 DUP8 AND DUP1 DUP5 MSTORE SWAP5 DUP3 MSTORE SWAP2 DUP3 SWAP1 KECCAK256 DUP6 SWAP1 SSTORE SWAP1 MLOAD DUP5 DUP2 MSTORE PUSH32 0x8C5BE1E5EBEC7D5BD14F71427D1E84F3DD0314C0F7B2291E5B200AC8C7C3B925 SWAP2 ADD JUMPDEST PUSH1 0x40 MLOAD DUP1 SWAP2 SUB SWAP1 LOG3 POP POP POP JUMP JUMPDEST PUSH1 0x1 PUSH1 0x1 PUSH1 0xA0 SHL SUB DUP4 AND PUSH2 0x1279 JUMPI PUSH1 0x40 MLOAD PUSH3 0x461BCD PUSH1 0xE5 SHL DUP2 MSTORE PUSH1 0x20 PUSH1 0x4 DUP3 ADD MSTORE PUSH1 0x25 PUSH1 0x24 DUP3 ADD MSTORE PUSH32 0x45524332303A207472616E736665722066726F6D20746865207A65726F206164 PUSH1 0x44 DUP3 ADD MSTORE PUSH5 0x6472657373 PUSH1 0xD8 SHL PUSH1 0x64 DUP3 ADD MSTORE PUSH1 0x84 ADD PUSH2 0x6E1 JUMP JUMPDEST PUSH1 0x1 PUSH1 0x1 PUSH1 0xA0 SHL SUB DUP3 AND PUSH2 0x12DB JUMPI PUSH1 0x40 MLOAD PUSH3 0x461BCD PUSH1 0xE5 SHL DUP2 MSTORE PUSH1 0x20 PUSH1 0x4 DUP3 ADD MSTORE PUSH1 0x23 PUSH1 0x24 DUP3 ADD MSTORE PUSH32 0x45524332303A207472616E7366657220746F20746865207A65726F2061646472 PUSH1 0x44 DUP3 ADD MSTORE PUSH3 0x657373 PUSH1 0xE8 SHL PUSH1 0x64 DUP3 ADD MSTORE PUSH1 0x84 ADD PUSH2 0x6E1 JUMP JUMPDEST PUSH1 0x0 DUP2 GT PUSH2 0x133D JUMPI PUSH1 0x40 MLOAD PUSH3 0x461BCD PUSH1 0xE5 SHL DUP2 MSTORE PUSH1 0x20 PUSH1 0x4 DUP3 ADD MSTORE PUSH1 0x29 PUSH1 0x24 DUP3 ADD MSTORE PUSH32 0x5472616E7366657220616D6F756E74206D757374206265206772656174657220 PUSH1 0x44 DUP3 ADD MSTORE PUSH9 0x7468616E207A65726F PUSH1 0xB8 SHL PUSH1 0x64 DUP3 ADD MSTORE PUSH1 0x84 ADD PUSH2 0x6E1 JUMP JUMPDEST PUSH1 0x0 PUSH2 0x1348 ADDRESS PUSH2 0xE2E JUMP JUMPDEST PUSH1 0x16 SLOAD SWAP1 SWAP2 POP DUP2 LT DUP1 ISZERO SWAP1 DUP2 SWAP1 PUSH2 0x1369 JUMPI POP PUSH1 0x15 SLOAD PUSH1 0x1 PUSH1 0xA0 SHL SWAP1 DIV PUSH1 0xFF AND ISZERO JUMPDEST DUP1 ISZERO PUSH2 0x1383 JUMPI POP PUSH1 0x14 SLOAD PUSH1 0x1 PUSH1 0x1 PUSH1 0xA0 SHL SUB DUP7 DUP2 AND SWAP2 AND EQ ISZERO JUMPDEST DUP1 ISZERO PUSH2 0x1398 JUMPI POP PUSH1 0x15 SLOAD PUSH1 0x1 PUSH1 0xA8 SHL SWAP1 DIV PUSH1 0xFF AND JUMPDEST ISZERO PUSH2 0x13AB JUMPI PUSH1 0x16 SLOAD SWAP2 POP PUSH2 0x13AB DUP3 PUSH2 0x151C JUMP JUMPDEST PUSH1 0x1 PUSH1 0x1 PUSH1 0xA0 SHL SUB DUP6 AND PUSH1 0x0 SWAP1 DUP2 MSTORE PUSH1 0x4 PUSH1 0x20 MSTORE PUSH1 0x40 SWAP1 KECCAK256 SLOAD PUSH1 0x1 SWAP1 PUSH1 0xFF AND DUP1 PUSH2 0x13ED JUMPI POP PUSH1 0x1 PUSH1 0x1 PUSH1 0xA0 SHL SUB DUP6 AND PUSH1 0x0 SWAP1 DUP2 MSTORE PUSH1 0x4 PUSH1 0x20 MSTORE PUSH1 0x40 SWAP1 KECCAK256 SLOAD PUSH1 0xFF AND JUMPDEST ISZERO PUSH2 0x13F6 JUMPI POP PUSH1 0x0 JUMPDEST PUSH2 0x1402 DUP7 DUP7 DUP7 DUP5 PUSH2 0x15C3 JUMP JUMPDEST POP POP POP POP POP POP JUMP JUMPDEST PUSH1 0x0 DUP2 DUP5 DUP5 GT ISZERO PUSH2 0x142E JUMPI PUSH1 0x40 MLOAD PUSH3 0x461BCD PUSH1 0xE5 SHL DUP2 MSTORE PUSH1 0x4 ADD PUSH2 0x6E1 SWAP2 SWAP1 PUSH2 0x22EA JUMP JUMPDEST POP POP POP SWAP1 SUB SWAP1 JUMP JUMPDEST PUSH1 0x0 DUP1 PUSH1 0x0 PUSH2 0x1443 PUSH2 0x1746 JUMP JUMPDEST SWAP1 SWAP3 POP SWAP1 POP PUSH2 0x1452 DUP3 DUP3 PUSH2 0x10E4 JUMP JUMPDEST SWAP3 POP POP POP SWAP1 JUMP JUMPDEST PUSH1 0x0 PUSH2 0x8E6 DUP3 DUP5 PUSH2 0x23E2 JUMP JUMPDEST PUSH1 0x0 DUP1 PUSH1 0x0 DUP1 PUSH1 0x0 DUP1 PUSH1 0x0 DUP1 PUSH1 0x0 DUP1 PUSH1 0x0 PUSH2 0x147F DUP13 PUSH2 0x1900 JUMP JUMPDEST SWAP4 POP SWAP4 POP SWAP4 POP SWAP4 POP PUSH1 0x0 DUP1 PUSH1 0x0 PUSH2 0x14A0 DUP16 DUP8 DUP8 DUP8 PUSH2 0x149B PUSH2 0x1436 JUMP JUMPDEST PUSH2 0x1955 JUMP JUMPDEST SWAP2 SWAP16 POP SWAP14 POP SWAP12 POP SWAP6 SWAP10 POP SWAP4 SWAP8 POP SWAP2 SWAP6 POP SWAP4 POP POP POP POP SWAP2 SWAP4 SWAP6 SWAP8 SWAP1 SWAP3 SWAP5 SWAP7 POP JUMP JUMPDEST PUSH1 0x0 PUSH2 0x8E6 DUP3 DUP5 PUSH2 0x2439 JUMP JUMPDEST PUSH1 0x0 DUP1 SLOAD PUSH1 0x1 PUSH1 0x1 PUSH1 0xA0 SHL SUB DUP4 DUP2 AND PUSH1 0x1 PUSH1 0x1 PUSH1 0xA0 SHL SUB NOT DUP4 AND DUP2 OR DUP5 SSTORE PUSH1 0x40 MLOAD SWAP2 SWAP1 SWAP3 AND SWAP3 DUP4 SWAP2 PUSH32 0x8BE0079C531659141344CD1FD0A4F28419497F9722A3DAAFE3B4186F6B6457E0 SWAP2 SWAP1 LOG3 POP POP JUMP JUMPDEST PUSH1 0x15 DUP1 SLOAD PUSH1 0xFF PUSH1 0xA0 SHL NOT AND PUSH1 0x1 PUSH1 0xA0 SHL OR SWAP1 SSTORE PUSH1 0x0 PUSH2 0x153C DUP3 PUSH1 0x2 PUSH2 0x10E4 JUMP JUMPDEST SWAP1 POP PUSH1 0x0 PUSH2 0x154A DUP4 DUP4 PUSH2 0x14C0 JUMP JUMPDEST SWAP1 POP SELFBALANCE PUSH2 0x1556 DUP4 PUSH2 0x19B7 JUMP JUMPDEST PUSH1 0x0 PUSH2 0x1562 SELFBALANCE DUP4 PUSH2 0x14C0 JUMP JUMPDEST SWAP1 POP PUSH2 0x156E DUP4 DUP3 PUSH2 0x1B34 JUMP JUMPDEST PUSH1 0x40 DUP1 MLOAD DUP6 DUP2 MSTORE PUSH1 0x20 DUP2 ADD DUP4 SWAP1 MSTORE SWAP1 DUP2 ADD DUP5 SWAP1 MSTORE PUSH32 0x17BBFB9A6069321B6DED73BD96327C9E6B7212A5CD51FF219CD61370ACAFB561 SWAP1 PUSH1 0x60 ADD PUSH1 0x40 MLOAD DUP1 SWAP2 SUB SWAP1 LOG1 POP POP PUSH1 0x15 DUP1 SLOAD PUSH1 0xFF PUSH1 0xA0 SHL NOT AND SWAP1 SSTORE POP POP POP JUMP JUMPDEST DUP1 PUSH2 0x15D0 JUMPI PUSH2 0x15D0 PUSH2 0x1C18 JUMP JUMPDEST PUSH1 0x1 PUSH1 0x1 PUSH1 0xA0 SHL SUB DUP5 AND PUSH1 0x0 SWAP1 DUP2 MSTORE PUSH1 0x5 PUSH1 0x20 MSTORE PUSH1 0x40 SWAP1 KECCAK256 SLOAD PUSH1 0xFF AND DUP1 ISZERO PUSH2 0x1611 JUMPI POP PUSH1 0x1 PUSH1 0x1 PUSH1 0xA0 SHL SUB DUP4 AND PUSH1 0x0 SWAP1 DUP2 MSTORE PUSH1 0x5 PUSH1 0x20 MSTORE PUSH1 0x40 SWAP1 KECCAK256 SLOAD PUSH1 0xFF AND ISZERO JUMPDEST ISZERO PUSH2 0x1626 JUMPI PUSH2 0x1621 DUP5 DUP5 DUP5 PUSH2 0x1C5D JUMP JUMPDEST PUSH2 0x1724 JUMP JUMPDEST PUSH1 0x1 PUSH1 0x1 PUSH1 0xA0 SHL SUB DUP5 AND PUSH1 0x0 SWAP1 DUP2 MSTORE PUSH1 0x5 PUSH1 0x20 MSTORE PUSH1 0x40 SWAP1 KECCAK256 SLOAD PUSH1 0xFF AND ISZERO DUP1 ISZERO PUSH2 0x1667 JUMPI POP PUSH1 0x1 PUSH1 0x1 PUSH1 0xA0 SHL SUB DUP4 AND PUSH1 0x0 SWAP1 DUP2 MSTORE PUSH1 0x5 PUSH1 0x20 MSTORE PUSH1 0x40 SWAP1 KECCAK256 SLOAD PUSH1 0xFF AND JUMPDEST ISZERO PUSH2 0x1677 JUMPI PUSH2 0x1621 DUP5 DUP5 DUP5 PUSH2 0x1DA3 JUMP JUMPDEST PUSH1 0x1 PUSH1 0x1 PUSH1 0xA0 SHL SUB DUP5 AND PUSH1 0x0 SWAP1 DUP2 MSTORE PUSH1 0x5 PUSH1 0x20 MSTORE PUSH1 0x40 SWAP1 KECCAK256 SLOAD PUSH1 0xFF AND ISZERO DUP1 ISZERO PUSH2 0x16B9 JUMPI POP PUSH1 0x1 PUSH1 0x1 PUSH1 0xA0 SHL SUB DUP4 AND PUSH1 0x0 SWAP1 DUP2 MSTORE PUSH1 0x5 PUSH1 0x20 MSTORE PUSH1 0x40 SWAP1 KECCAK256 SLOAD PUSH1 0xFF AND ISZERO JUMPDEST ISZERO PUSH2 0x16C9 JUMPI PUSH2 0x1621 DUP5 DUP5 DUP5 PUSH2 0x1E62 JUMP JUMPDEST PUSH1 0x1 PUSH1 0x1 PUSH1 0xA0 SHL SUB DUP5 AND PUSH1 0x0 SWAP1 DUP2 MSTORE PUSH1 0x5 PUSH1 0x20 MSTORE PUSH1 0x40 SWAP1 KECCAK256 SLOAD PUSH1 0xFF AND DUP1 ISZERO PUSH2 0x1709 JUMPI POP PUSH1 0x1 PUSH1 0x1 PUSH1 0xA0 SHL SUB DUP4 AND PUSH1 0x0 SWAP1 DUP2 MSTORE PUSH1 0x5 PUSH1 0x20 MSTORE PUSH1 0x40 SWAP1 KECCAK256 SLOAD PUSH1 0xFF AND JUMPDEST ISZERO PUSH2 0x1719 JUMPI PUSH2 0x1621 DUP5 DUP5 DUP5 PUSH2 0x1EBC JUMP JUMPDEST PUSH2 0x1724 DUP5 DUP5 DUP5 PUSH2 0x1E62 JUMP JUMPDEST DUP1 PUSH2 0x1740 JUMPI PUSH2 0x1740 PUSH1 0xE SLOAD PUSH1 0xD SSTORE PUSH1 0x10 SLOAD PUSH1 0xF SSTORE PUSH1 0x12 SLOAD PUSH1 0x11 SSTORE JUMP JUMPDEST POP POP POP POP JUMP JUMPDEST PUSH1 0x8 SLOAD PUSH1 0x7 SLOAD PUSH1 0x0 SWAP2 DUP3 SWAP2 DUP3 JUMPDEST PUSH1 0x6 SLOAD DUP2 LT ISZERO PUSH2 0x18D0 JUMPI DUP3 PUSH1 0x1 PUSH1 0x0 PUSH1 0x6 DUP5 DUP2 SLOAD DUP2 LT PUSH2 0x1783 JUMPI PUSH4 0x4E487B71 PUSH1 0xE0 SHL PUSH1 0x0 MSTORE PUSH1 0x32 PUSH1 0x4 MSTORE PUSH1 0x24 PUSH1 0x0 REVERT JUMPDEST PUSH1 0x0 SWAP2 DUP3 MSTORE PUSH1 0x20 DUP1 DUP4 KECCAK256 SWAP1 SWAP2 ADD SLOAD PUSH1 0x1 PUSH1 0x1 PUSH1 0xA0 SHL SUB AND DUP4 MSTORE DUP3 ADD SWAP3 SWAP1 SWAP3 MSTORE PUSH1 0x40 ADD SWAP1 KECCAK256 SLOAD GT DUP1 PUSH2 0x17FC JUMPI POP DUP2 PUSH1 0x2 PUSH1 0x0 PUSH1 0x6 DUP5 DUP2 SLOAD DUP2 LT PUSH2 0x17D5 JUMPI PUSH4 0x4E487B71 PUSH1 0xE0 SHL PUSH1 0x0 MSTORE PUSH1 0x32 PUSH1 0x4 MSTORE PUSH1 0x24 PUSH1 0x0 REVERT JUMPDEST PUSH1 0x0 SWAP2 DUP3 MSTORE PUSH1 0x20 DUP1 DUP4 KECCAK256 SWAP1 SWAP2 ADD SLOAD PUSH1 0x1 PUSH1 0x1 PUSH1 0xA0 SHL SUB AND DUP4 MSTORE DUP3 ADD SWAP3 SWAP1 SWAP3 MSTORE PUSH1 0x40 ADD SWAP1 KECCAK256 SLOAD GT JUMPDEST ISZERO PUSH2 0x1812 JUMPI PUSH1 0x8 SLOAD PUSH1 0x7 SLOAD SWAP5 POP SWAP5 POP POP POP POP SWAP1 SWAP2 JUMP JUMPDEST PUSH2 0x1866 PUSH1 0x1 PUSH1 0x0 PUSH1 0x6 DUP5 DUP2 SLOAD DUP2 LT PUSH2 0x183A JUMPI PUSH4 0x4E487B71 PUSH1 0xE0 SHL PUSH1 0x0 MSTORE PUSH1 0x32 PUSH1 0x4 MSTORE PUSH1 0x24 PUSH1 0x0 REVERT JUMPDEST PUSH1 0x0 SWAP2 DUP3 MSTORE PUSH1 0x20 DUP1 DUP4 KECCAK256 SWAP1 SWAP2 ADD SLOAD PUSH1 0x1 PUSH1 0x1 PUSH1 0xA0 SHL SUB AND DUP4 MSTORE DUP3 ADD SWAP3 SWAP1 SWAP3 MSTORE PUSH1 0x40 ADD SWAP1 KECCAK256 SLOAD DUP5 SWAP1 PUSH2 0x14C0 JUMP JUMPDEST SWAP3 POP PUSH2 0x18BC PUSH1 0x2 PUSH1 0x0 PUSH1 0x6 DUP5 DUP2 SLOAD DUP2 LT PUSH2 0x1890 JUMPI PUSH4 0x4E487B71 PUSH1 0xE0 SHL PUSH1 0x0 MSTORE PUSH1 0x32 PUSH1 0x4 MSTORE PUSH1 0x24 PUSH1 0x0 REVERT JUMPDEST PUSH1 0x0 SWAP2 DUP3 MSTORE PUSH1 0x20 DUP1 DUP4 KECCAK256 SWAP1 SWAP2 ADD SLOAD PUSH1 0x1 PUSH1 0x1 PUSH1 0xA0 SHL SUB AND DUP4 MSTORE DUP3 ADD SWAP3 SWAP1 SWAP3 MSTORE PUSH1 0x40 ADD SWAP1 KECCAK256 SLOAD DUP4 SWAP1 PUSH2 0x14C0 JUMP JUMPDEST SWAP2 POP DUP1 PUSH2 0x18C8 DUP2 PUSH2 0x248B JUMP JUMPDEST SWAP2 POP POP PUSH2 0x1753 JUMP JUMPDEST POP PUSH1 0x7 SLOAD PUSH1 0x8 SLOAD PUSH2 0x18E0 SWAP2 PUSH2 0x10E4 JUMP JUMPDEST DUP3 LT ISZERO PUSH2 0x18F7 JUMPI PUSH1 0x8 SLOAD PUSH1 0x7 SLOAD SWAP4 POP SWAP4 POP POP POP SWAP1 SWAP2 JUMP JUMPDEST SWAP1 SWAP4 SWAP1 SWAP3 POP SWAP1 POP JUMP JUMPDEST PUSH1 0x0 DUP1 PUSH1 0x0 DUP1 PUSH1 0x0 PUSH2 0x1911 DUP7 PUSH2 0x1F45 JUMP JUMPDEST SWAP1 POP PUSH1 0x0 PUSH2 0x191E DUP8 PUSH2 0x1F68 JUMP JUMPDEST SWAP1 POP PUSH1 0x0 PUSH2 0x192B DUP9 PUSH2 0x1F85 JUMP JUMPDEST SWAP1 POP PUSH1 0x0 PUSH2 0x1945 DUP3 PUSH2 0x193F DUP6 DUP2 DUP14 DUP10 PUSH2 0x14C0 JUMP JUMPDEST SWAP1 PUSH2 0x14C0 JUMP JUMPDEST SWAP10 SWAP4 SWAP9 POP SWAP2 SWAP7 POP SWAP5 POP SWAP1 SWAP3 POP POP POP JUMP JUMPDEST PUSH1 0x0 DUP1 DUP1 DUP1 PUSH2 0x1964 DUP10 DUP7 PUSH2 0x10D8 JUMP JUMPDEST SWAP1 POP PUSH1 0x0 PUSH2 0x1972 DUP10 DUP8 PUSH2 0x10D8 JUMP JUMPDEST SWAP1 POP PUSH1 0x0 PUSH2 0x1980 DUP10 DUP9 PUSH2 0x10D8 JUMP JUMPDEST SWAP1 POP PUSH1 0x0 PUSH2 0x198E DUP10 DUP10 PUSH2 0x10D8 JUMP JUMPDEST SWAP1 POP PUSH1 0x0 PUSH2 0x19A2 DUP3 PUSH2 0x193F DUP6 DUP2 DUP10 DUP10 PUSH2 0x14C0 JUMP JUMPDEST SWAP5 SWAP14 SWAP5 SWAP13 POP SWAP3 SWAP11 POP SWAP3 SWAP9 POP POP POP POP POP POP POP POP POP JUMP JUMPDEST PUSH1 0x40 DUP1 MLOAD PUSH1 0x2 DUP1 DUP3 MSTORE PUSH1 0x60 DUP3 ADD DUP4 MSTORE PUSH1 0x0 SWAP3 PUSH1 0x20 DUP4 ADD SWAP1 DUP1 CALLDATASIZE DUP4 CALLDATACOPY ADD SWAP1 POP POP SWAP1 POP ADDRESS DUP2 PUSH1 0x0 DUP2 MLOAD DUP2 LT PUSH2 0x19FA JUMPI PUSH4 0x4E487B71 PUSH1 0xE0 SHL PUSH1 0x0 MSTORE PUSH1 0x32 PUSH1 0x4 MSTORE PUSH1 0x24 PUSH1 0x0 REVERT JUMPDEST PUSH1 0x1 PUSH1 0x1 PUSH1 0xA0 SHL SUB SWAP3 DUP4 AND PUSH1 0x20 SWAP2 DUP3 MUL SWAP3 SWAP1 SWAP3 ADD DUP2 ADD SWAP2 SWAP1 SWAP2 MSTORE PUSH1 0x13 SLOAD PUSH1 0x40 DUP1 MLOAD PUSH4 0x15AB88C9 PUSH1 0xE3 SHL DUP2 MSTORE SWAP1 MLOAD SWAP2 SWAP1 SWAP4 AND SWAP3 PUSH4 0xAD5C4648 SWAP3 PUSH1 0x4 DUP1 DUP4 ADD SWAP4 SWAP2 SWAP3 DUP3 SWAP1 SUB ADD DUP2 DUP7 DUP1 EXTCODESIZE ISZERO DUP1 ISZERO PUSH2 0x1A4E JUMPI PUSH1 0x0 DUP1 REVERT JUMPDEST POP GAS STATICCALL ISZERO DUP1 ISZERO PUSH2 0x1A62 JUMPI RETURNDATASIZE PUSH1 0x0 DUP1 RETURNDATACOPY RETURNDATASIZE PUSH1 0x0 REVERT JUMPDEST POP POP POP POP PUSH1 0x40 MLOAD RETURNDATASIZE PUSH1 0x1F NOT PUSH1 0x1F DUP3 ADD AND DUP3 ADD DUP1 PUSH1 0x40 MSTORE POP DUP2 ADD SWAP1 PUSH2 0x1A86 SWAP2 SWAP1 PUSH2 0x21A1 JUMP JUMPDEST DUP2 PUSH1 0x1 DUP2 MLOAD DUP2 LT PUSH2 0x1AA7 JUMPI PUSH4 0x4E487B71 PUSH1 0xE0 SHL PUSH1 0x0 MSTORE PUSH1 0x32 PUSH1 0x4 MSTORE PUSH1 0x24 PUSH1 0x0 REVERT JUMPDEST PUSH1 0x1 PUSH1 0x1 PUSH1 0xA0 SHL SUB SWAP3 DUP4 AND PUSH1 0x20 SWAP2 DUP3 MUL SWAP3 SWAP1 SWAP3 ADD ADD MSTORE PUSH1 0x13 SLOAD PUSH2 0x1ACD SWAP2 ADDRESS SWAP2 AND DUP5 PUSH2 0x10F0 JUMP JUMPDEST PUSH1 0x13 SLOAD PUSH1 0x40 MLOAD PUSH4 0x791AC947 PUSH1 0xE0 SHL DUP2 MSTORE PUSH1 0x1 PUSH1 0x1 PUSH1 0xA0 SHL SUB SWAP1 SWAP2 AND SWAP1 PUSH4 0x791AC947 SWAP1 PUSH2 0x1B06 SWAP1 DUP6 SWAP1 PUSH1 0x0 SWAP1 DUP7 SWAP1 ADDRESS SWAP1 TIMESTAMP SWAP1 PUSH1 0x4 ADD PUSH2 0x2372 JUMP JUMPDEST PUSH1 0x0 PUSH1 0x40 MLOAD DUP1 DUP4 SUB DUP2 PUSH1 0x0 DUP8 DUP1 EXTCODESIZE ISZERO DUP1 ISZERO PUSH2 0x1B20 JUMPI PUSH1 0x0 DUP1 REVERT JUMPDEST POP GAS CALL ISZERO DUP1 ISZERO PUSH2 0x1402 JUMPI RETURNDATASIZE PUSH1 0x0 DUP1 RETURNDATACOPY RETURNDATASIZE PUSH1 0x0 REVERT JUMPDEST PUSH1 0x13 SLOAD PUSH2 0x1B4C SWAP1 ADDRESS SWAP1 PUSH1 0x1 PUSH1 0x1 PUSH1 0xA0 SHL SUB AND DUP5 PUSH2 0x10F0 JUMP JUMPDEST PUSH1 0x13 SLOAD PUSH1 0x1 PUSH1 0x1 PUSH1 0xA0 SHL SUB AND PUSH4 0xF305D719 DUP3 ADDRESS DUP6 PUSH1 0x0 DUP1 PUSH2 0x1B75 PUSH1 0x0 SLOAD PUSH1 0x1 PUSH1 0x1 PUSH1 0xA0 SHL SUB AND SWAP1 JUMP JUMPDEST PUSH1 0x40 MLOAD PUSH1 0xE0 DUP9 SWAP1 SHL PUSH1 0x1 PUSH1 0x1 PUSH1 0xE0 SHL SUB NOT AND DUP2 MSTORE PUSH1 0x1 PUSH1 0x1 PUSH1 0xA0 SHL SUB SWAP6 DUP7 AND PUSH1 0x4 DUP3 ADD MSTORE PUSH1 0x24 DUP2 ADD SWAP5 SWAP1 SWAP5 MSTORE PUSH1 0x44 DUP5 ADD SWAP3 SWAP1 SWAP3 MSTORE PUSH1 0x64 DUP4 ADD MSTORE SWAP1 SWAP2 AND PUSH1 0x84 DUP3 ADD MSTORE TIMESTAMP PUSH1 0xA4 DUP3 ADD MSTORE PUSH1 0xC4 ADD PUSH1 0x60 PUSH1 0x40 MLOAD DUP1 DUP4 SUB DUP2 DUP6 DUP9 DUP1 EXTCODESIZE ISZERO DUP1 ISZERO PUSH2 0x1BD8 JUMPI PUSH1 0x0 DUP1 REVERT JUMPDEST POP GAS CALL ISZERO DUP1 ISZERO PUSH2 0x1BEC JUMPI RETURNDATASIZE PUSH1 0x0 DUP1 RETURNDATACOPY RETURNDATASIZE PUSH1 0x0 REVERT JUMPDEST POP POP POP POP POP PUSH1 0x40 MLOAD RETURNDATASIZE PUSH1 0x1F NOT PUSH1 0x1F DUP3 ADD AND DUP3 ADD DUP1 PUSH1 0x40 MSTORE POP DUP2 ADD SWAP1 PUSH2 0x1C11 SWAP2 SWAP1 PUSH2 0x22BD JUMP JUMPDEST POP POP POP POP POP JUMP JUMPDEST PUSH1 0xD SLOAD ISZERO DUP1 ISZERO PUSH2 0x1C28 JUMPI POP PUSH1 0xF SLOAD ISZERO JUMPDEST DUP1 ISZERO PUSH2 0x1C34 JUMPI POP PUSH1 0x11 SLOAD ISZERO JUMPDEST ISZERO PUSH2 0x1C3B JUMPI JUMP JUMPDEST PUSH1 0xD DUP1 SLOAD PUSH1 0xE SSTORE PUSH1 0xF DUP1 SLOAD PUSH1 0x10 SSTORE PUSH1 0x11 DUP1 SLOAD PUSH1 0x12 SSTORE PUSH1 0x0 SWAP3 DUP4 SWAP1 SSTORE SWAP1 DUP3 SWAP1 SSTORE SSTORE JUMP JUMPDEST PUSH1 0x0 DUP1 PUSH1 0x0 DUP1 PUSH1 0x0 DUP1 PUSH1 0x0 PUSH2 0x1C71 DUP9 PUSH2 0x1465 JUMP JUMPDEST SWAP7 POP SWAP7 POP SWAP7 POP SWAP7 POP SWAP7 POP SWAP7 POP SWAP7 POP PUSH2 0x1CB7 DUP9 PUSH1 0x2 PUSH1 0x0 DUP14 PUSH1 0x1 PUSH1 0x1 PUSH1 0xA0 SHL SUB AND PUSH1 0x1 PUSH1 0x1 PUSH1 0xA0 SHL SUB AND DUP2 MSTORE PUSH1 0x20 ADD SWAP1 DUP2 MSTORE PUSH1 0x20 ADD PUSH1 0x0 KECCAK256 SLOAD PUSH2 0x14C0 SWAP1 SWAP2 SWAP1 PUSH4 0xFFFFFFFF AND JUMP JUMPDEST PUSH1 0x1 PUSH1 0x1 PUSH1 0xA0 SHL SUB DUP12 AND PUSH1 0x0 SWAP1 DUP2 MSTORE PUSH1 0x2 PUSH1 0x20 SWAP1 DUP2 MSTORE PUSH1 0x40 DUP1 DUP4 KECCAK256 SWAP4 SWAP1 SWAP4 SSTORE PUSH1 0x1 SWAP1 MSTORE KECCAK256 SLOAD PUSH2 0x1CE6 SWAP1 DUP9 PUSH2 0x14C0 JUMP JUMPDEST PUSH1 0x1 PUSH1 0x1 PUSH1 0xA0 SHL SUB DUP1 DUP13 AND PUSH1 0x0 SWAP1 DUP2 MSTORE PUSH1 0x1 PUSH1 0x20 MSTORE PUSH1 0x40 DUP1 DUP3 KECCAK256 SWAP4 SWAP1 SWAP4 SSTORE SWAP1 DUP12 AND DUP2 MSTORE KECCAK256 SLOAD PUSH2 0x1D15 SWAP1 DUP8 PUSH2 0x1459 JUMP JUMPDEST PUSH1 0x1 PUSH1 0x1 PUSH1 0xA0 SHL SUB DUP11 AND PUSH1 0x0 SWAP1 DUP2 MSTORE PUSH1 0x1 PUSH1 0x20 MSTORE PUSH1 0x40 SWAP1 KECCAK256 SSTORE PUSH2 0x1D37 DUP3 PUSH2 0x1FBB JUMP JUMPDEST PUSH2 0x1D40 DUP2 PUSH2 0x2044 JUMP JUMPDEST PUSH2 0x1D4A DUP6 DUP5 PUSH2 0x214C JUMP JUMPDEST DUP9 PUSH1 0x1 PUSH1 0x1 PUSH1 0xA0 SHL SUB AND DUP11 PUSH1 0x1 PUSH1 0x1 PUSH1 0xA0 SHL SUB AND PUSH32 0xDDF252AD1BE2C89B69C2B068FC378DAA952BA7F163C4A11628F55A4DF523B3EF DUP7 PUSH1 0x40 MLOAD PUSH2 0x1D8F SWAP2 DUP2 MSTORE PUSH1 0x20 ADD SWAP1 JUMP JUMPDEST PUSH1 0x40 MLOAD DUP1 SWAP2 SUB SWAP1 LOG3 POP POP POP POP POP POP POP POP POP POP JUMP JUMPDEST PUSH1 0x0 DUP1 PUSH1 0x0 DUP1 PUSH1 0x0 DUP1 PUSH1 0x0 PUSH2 0x1DB7 DUP9 PUSH2 0x1465 JUMP JUMPDEST SWAP7 POP SWAP7 POP SWAP7 POP SWAP7 POP SWAP7 POP SWAP7 POP SWAP7 POP PUSH2 0x1DFD DUP8 PUSH1 0x1 PUSH1 0x0 DUP14 PUSH1 0x1 PUSH1 0x1 PUSH1 0xA0 SHL SUB AND PUSH1 0x1 PUSH1 0x1 PUSH1 0xA0 SHL SUB AND DUP2 MSTORE PUSH1 0x20 ADD SWAP1 DUP2 MSTORE PUSH1 0x20 ADD PUSH1 0x0 KECCAK256 SLOAD PUSH2 0x14C0 SWAP1 SWAP2 SWAP1 PUSH4 0xFFFFFFFF AND JUMP JUMPDEST PUSH1 0x1 PUSH1 0x1 PUSH1 0xA0 SHL SUB DUP1 DUP13 AND PUSH1 0x0 SWAP1 DUP2 MSTORE PUSH1 0x1 PUSH1 0x20 SWAP1 DUP2 MSTORE PUSH1 0x40 DUP1 DUP4 KECCAK256 SWAP5 SWAP1 SWAP5 SSTORE SWAP2 DUP13 AND DUP2 MSTORE PUSH1 0x2 SWAP1 SWAP2 MSTORE KECCAK256 SLOAD PUSH2 0x1E33 SWAP1 DUP6 PUSH2 0x1459 JUMP JUMPDEST PUSH1 0x1 PUSH1 0x1 PUSH1 0xA0 SHL SUB DUP11 AND PUSH1 0x0 SWAP1 DUP2 MSTORE PUSH1 0x2 PUSH1 0x20 SWAP1 DUP2 MSTORE PUSH1 0x40 DUP1 DUP4 KECCAK256 SWAP4 SWAP1 SWAP4 SSTORE PUSH1 0x1 SWAP1 MSTORE KECCAK256 SLOAD PUSH2 0x1D15 SWAP1 DUP8 PUSH2 0x1459 JUMP JUMPDEST PUSH1 0x0 DUP1 PUSH1 0x0 DUP1 PUSH1 0x0 DUP1 PUSH1 0x0 PUSH2 0x1E76 DUP9 PUSH2 0x1465 JUMP JUMPDEST SWAP7 POP SWAP7 POP SWAP7 POP SWAP7 POP SWAP7 POP SWAP7 POP SWAP7 POP PUSH2 0x1CE6 DUP8 PUSH1 0x1 PUSH1 0x0 DUP14 PUSH1 0x1 PUSH1 0x1 PUSH1 0xA0 SHL SUB AND PUSH1 0x1 PUSH1 0x1 PUSH1 0xA0 SHL SUB AND DUP2 MSTORE PUSH1 0x20 ADD SWAP1 DUP2 MSTORE PUSH1 0x20 ADD PUSH1 0x0 KECCAK256 SLOAD PUSH2 0x14C0 SWAP1 SWAP2 SWAP1 PUSH4 0xFFFFFFFF AND JUMP JUMPDEST PUSH1 0x0 DUP1 PUSH1 0x0 DUP1 PUSH1 0x0 DUP1 PUSH1 0x0 PUSH2 0x1ED0 DUP9 PUSH2 0x1465 JUMP JUMPDEST SWAP7 POP SWAP7 POP SWAP7 POP SWAP7 POP SWAP7 POP SWAP7 POP SWAP7 POP PUSH2 0x1F16 DUP9 PUSH1 0x2 PUSH1 0x0 DUP14 PUSH1 0x1 PUSH1 0x1 PUSH1 0xA0 SHL SUB AND PUSH1 0x1 PUSH1 0x1 PUSH1 0xA0 SHL SUB AND DUP2 MSTORE PUSH1 0x20 ADD SWAP1 DUP2 MSTORE PUSH1 0x20 ADD PUSH1 0x0 KECCAK256 SLOAD PUSH2 0x14C0 SWAP1 SWAP2 SWAP1 PUSH4 0xFFFFFFFF AND JUMP JUMPDEST PUSH1 0x1 PUSH1 0x1 PUSH1 0xA0 SHL SUB DUP12 AND PUSH1 0x0 SWAP1 DUP2 MSTORE PUSH1 0x2 PUSH1 0x20 SWAP1 DUP2 MSTORE PUSH1 0x40 DUP1 DUP4 KECCAK256 SWAP4 SWAP1 SWAP4 SSTORE PUSH1 0x1 SWAP1 MSTORE KECCAK256 SLOAD PUSH2 0x1DFD SWAP1 DUP9 PUSH2 0x14C0 JUMP JUMPDEST PUSH1 0x0 PUSH2 0x7FA PUSH2 0x2710 PUSH2 0x1F62 PUSH1 0xD SLOAD DUP6 PUSH2 0x10D8 SWAP1 SWAP2 SWAP1 PUSH4 0xFFFFFFFF AND JUMP JUMPDEST SWAP1 PUSH2 0x10E4 JUMP JUMPDEST PUSH1 0x0 PUSH2 0x7FA PUSH2 0x2710 PUSH2 0x1F62 PUSH1 0xF SLOAD DUP6 PUSH2 0x10D8 SWAP1 SWAP2 SWAP1 PUSH4 0xFFFFFFFF AND JUMP JUMPDEST PUSH1 0x15 SLOAD PUSH1 0x0 SWAP1 PUSH1 0x1 PUSH1 0x1 PUSH1 0xA0 SHL SUB AND PUSH2 0x1FA0 JUMPI POP PUSH1 0x0 SWAP2 SWAP1 POP JUMP JUMPDEST PUSH2 0x7FA PUSH2 0x2710 PUSH2 0x1F62 PUSH1 0x11 SLOAD DUP6 PUSH2 0x10D8 SWAP1 SWAP2 SWAP1 PUSH4 0xFFFFFFFF AND JUMP JUMPDEST PUSH1 0x0 PUSH2 0x1FC5 PUSH2 0x1436 JUMP JUMPDEST SWAP1 POP PUSH1 0x0 PUSH2 0x1FD3 DUP4 DUP4 PUSH2 0x10D8 JUMP JUMPDEST ADDRESS PUSH1 0x0 SWAP1 DUP2 MSTORE PUSH1 0x1 PUSH1 0x20 MSTORE PUSH1 0x40 SWAP1 KECCAK256 SLOAD SWAP1 SWAP2 POP PUSH2 0x1FF0 SWAP1 DUP3 PUSH2 0x1459 JUMP JUMPDEST ADDRESS PUSH1 0x0 SWAP1 DUP2 MSTORE PUSH1 0x1 PUSH1 0x20 SWAP1 DUP2 MSTORE PUSH1 0x40 DUP1 DUP4 KECCAK256 SWAP4 SWAP1 SWAP4 SSTORE PUSH1 0x5 SWAP1 MSTORE KECCAK256 SLOAD PUSH1 0xFF AND ISZERO PUSH2 0x203F JUMPI ADDRESS PUSH1 0x0 SWAP1 DUP2 MSTORE PUSH1 0x2 PUSH1 0x20 MSTORE PUSH1 0x40 SWAP1 KECCAK256 SLOAD PUSH2 0x202E SWAP1 DUP5 PUSH2 0x1459 JUMP JUMPDEST ADDRESS PUSH1 0x0 SWAP1 DUP2 MSTORE PUSH1 0x2 PUSH1 0x20 MSTORE PUSH1 0x40 SWAP1 KECCAK256 SSTORE JUMPDEST POP POP POP JUMP JUMPDEST DUP1 ISZERO PUSH2 0x754 JUMPI PUSH1 0x0 PUSH2 0x2054 PUSH2 0x1436 JUMP JUMPDEST SWAP1 POP PUSH1 0x0 PUSH2 0x2062 DUP4 DUP4 PUSH2 0x10D8 JUMP JUMPDEST PUSH1 0x15 SLOAD PUSH1 0x1 PUSH1 0x1 PUSH1 0xA0 SHL SUB AND PUSH1 0x0 SWAP1 DUP2 MSTORE PUSH1 0x1 PUSH1 0x20 MSTORE PUSH1 0x40 SWAP1 KECCAK256 SLOAD SWAP1 SWAP2 POP PUSH2 0x208A SWAP1 DUP3 PUSH2 0x1459 JUMP JUMPDEST PUSH1 0x15 DUP1 SLOAD PUSH1 0x1 PUSH1 0x1 PUSH1 0xA0 SHL SUB SWAP1 DUP2 AND PUSH1 0x0 SWAP1 DUP2 MSTORE PUSH1 0x1 PUSH1 0x20 SWAP1 DUP2 MSTORE PUSH1 0x40 DUP1 DUP4 KECCAK256 SWAP6 SWAP1 SWAP6 SSTORE SWAP3 SLOAD SWAP1 SWAP2 AND DUP2 MSTORE PUSH1 0x5 SWAP1 SWAP2 MSTORE KECCAK256 SLOAD PUSH1 0xFF AND ISZERO PUSH2 0x2105 JUMPI PUSH1 0x15 SLOAD PUSH1 0x1 PUSH1 0x1 PUSH1 0xA0 SHL SUB AND PUSH1 0x0 SWAP1 DUP2 MSTORE PUSH1 0x2 PUSH1 0x20 MSTORE PUSH1 0x40 SWAP1 KECCAK256 SLOAD PUSH2 0x20E9 SWAP1 DUP5 PUSH2 0x1459 JUMP JUMPDEST PUSH1 0x15 SLOAD PUSH1 0x1 PUSH1 0x1 PUSH1 0xA0 SHL SUB AND PUSH1 0x0 SWAP1 DUP2 MSTORE PUSH1 0x2 PUSH1 0x20 MSTORE PUSH1 0x40 SWAP1 KECCAK256 SSTORE JUMPDEST PUSH1 0x15 SLOAD PUSH1 0x1 PUSH1 0x1 PUSH1 0xA0 SHL SUB AND CALLER PUSH1 0x1 PUSH1 0x1 PUSH1 0xA0 SHL SUB AND PUSH32 0xDDF252AD1BE2C89B69C2B068FC378DAA952BA7F163C4A11628F55A4DF523B3EF DUP6 PUSH1 0x40 MLOAD PUSH2 0x1208 SWAP2 DUP2 MSTORE PUSH1 0x20 ADD SWAP1 JUMP JUMPDEST PUSH1 0x8 SLOAD PUSH2 0x2159 SWAP1 DUP4 PUSH2 0x14C0 JUMP JUMPDEST PUSH1 0x8 SSTORE PUSH1 0x9 SLOAD PUSH2 0x2169 SWAP1 DUP3 PUSH2 0x1459 JUMP JUMPDEST PUSH1 0x9 SSTORE POP POP JUMP JUMPDEST DUP1 CALLDATALOAD DUP1 ISZERO ISZERO DUP2 EQ PUSH2 0x2180 JUMPI PUSH1 0x0 DUP1 REVERT JUMPDEST SWAP2 SWAP1 POP JUMP JUMPDEST PUSH1 0x0 PUSH1 0x20 DUP3 DUP5 SUB SLT ISZERO PUSH2 0x2196 JUMPI DUP1 DUP2 REVERT JUMPDEST DUP2 CALLDATALOAD PUSH2 0x8E6 DUP2 PUSH2 0x24BC JUMP JUMPDEST PUSH1 0x0 PUSH1 0x20 DUP3 DUP5 SUB SLT ISZERO PUSH2 0x21B2 JUMPI DUP1 DUP2 REVERT JUMPDEST DUP2 MLOAD PUSH2 0x8E6 DUP2 PUSH2 0x24BC JUMP JUMPDEST PUSH1 0x0 DUP1 PUSH1 0x40 DUP4 DUP6 SUB SLT ISZERO PUSH2 0x21CF JUMPI DUP1 DUP2 REVERT JUMPDEST DUP3 CALLDATALOAD PUSH2 0x21DA DUP2 PUSH2 0x24BC JUMP JUMPDEST SWAP2 POP PUSH1 0x20 DUP4 ADD CALLDATALOAD PUSH2 0x21EA DUP2 PUSH2 0x24BC JUMP JUMPDEST DUP1 SWAP2 POP POP SWAP3 POP SWAP3 SWAP1 POP JUMP JUMPDEST PUSH1 0x0 DUP1 PUSH1 0x0 PUSH1 0x60 DUP5 DUP7 SUB SLT ISZERO PUSH2 0x2209 JUMPI DUP1 DUP2 REVERT JUMPDEST DUP4 CALLDATALOAD PUSH2 0x2214 DUP2 PUSH2 0x24BC JUMP JUMPDEST SWAP3 POP PUSH1 0x20 DUP5 ADD CALLDATALOAD PUSH2 0x2224 DUP2 PUSH2 0x24BC JUMP JUMPDEST SWAP3 SWAP6 SWAP3 SWAP5 POP POP POP PUSH1 0x40 SWAP2 SWAP1 SWAP2 ADD CALLDATALOAD SWAP1 JUMP JUMPDEST PUSH1 0x0 DUP1 PUSH1 0x40 DUP4 DUP6 SUB SLT ISZERO PUSH2 0x2247 JUMPI DUP2 DUP3 REVERT JUMPDEST DUP3 CALLDATALOAD PUSH2 0x2252 DUP2 PUSH2 0x24BC JUMP JUMPDEST SWAP5 PUSH1 0x20 SWAP4 SWAP1 SWAP4 ADD CALLDATALOAD SWAP4 POP POP POP JUMP JUMPDEST PUSH1 0x0 PUSH1 0x20 DUP3 DUP5 SUB SLT ISZERO PUSH2 0x2271 JUMPI DUP1 DUP2 REVERT JUMPDEST PUSH2 0x8E6 DUP3 PUSH2 0x2170 JUMP JUMPDEST PUSH1 0x0 PUSH1 0x20 DUP3 DUP5 SUB SLT ISZERO PUSH2 0x228B JUMPI DUP1 DUP2 REVERT JUMPDEST POP CALLDATALOAD SWAP2 SWAP1 POP JUMP JUMPDEST PUSH1 0x0 DUP1 PUSH1 0x40 DUP4 DUP6 SUB SLT ISZERO PUSH2 0x22A4 JUMPI DUP2 DUP3 REVERT JUMPDEST DUP3 CALLDATALOAD SWAP2 POP PUSH2 0x22B4 PUSH1 0x20 DUP5 ADD PUSH2 0x2170 JUMP JUMPDEST SWAP1 POP SWAP3 POP SWAP3 SWAP1 POP JUMP JUMPDEST PUSH1 0x0 DUP1 PUSH1 0x0 PUSH1 0x60 DUP5 DUP7 SUB SLT ISZERO PUSH2 0x22D1 JUMPI DUP3 DUP4 REVERT JUMPDEST DUP4 MLOAD SWAP3 POP PUSH1 0x20 DUP5 ADD MLOAD SWAP2 POP PUSH1 0x40 DUP5 ADD MLOAD SWAP1 POP SWAP3 POP SWAP3 POP SWAP3 JUMP JUMPDEST PUSH1 0x0 PUSH1 0x20 DUP1 DUP4 MSTORE DUP4 MLOAD DUP1 DUP3 DUP6 ADD MSTORE DUP3 JUMPDEST DUP2 DUP2 LT ISZERO PUSH2 0x2316 JUMPI DUP6 DUP2 ADD DUP4 ADD MLOAD DUP6 DUP3 ADD PUSH1 0x40 ADD MSTORE DUP3 ADD PUSH2 0x22FA JUMP JUMPDEST DUP2 DUP2 GT ISZERO PUSH2 0x2327 JUMPI DUP4 PUSH1 0x40 DUP4 DUP8 ADD ADD MSTORE JUMPDEST POP PUSH1 0x1F ADD PUSH1 0x1F NOT AND SWAP3 SWAP1 SWAP3 ADD PUSH1 0x40 ADD SWAP4 SWAP3 POP POP POP JUMP JUMPDEST PUSH1 0x20 DUP1 DUP3 MSTORE DUP2 DUP2 ADD MSTORE PUSH32 0x4F776E61626C653A2063616C6C6572206973206E6F7420746865206F776E6572 PUSH1 0x40 DUP3 ADD MSTORE PUSH1 0x60 ADD SWAP1 JUMP JUMPDEST PUSH1 0x0 PUSH1 0xA0 DUP3 ADD DUP8 DUP4 MSTORE PUSH1 0x20 DUP8 DUP2 DUP6 ADD MSTORE PUSH1 0xA0 PUSH1 0x40 DUP6 ADD MSTORE DUP2 DUP8 MLOAD DUP1 DUP5 MSTORE PUSH1 0xC0 DUP7 ADD SWAP2 POP DUP3 DUP10 ADD SWAP4 POP DUP5 JUMPDEST DUP2 DUP2 LT ISZERO PUSH2 0x23C1 JUMPI DUP5 MLOAD PUSH1 0x1 PUSH1 0x1 PUSH1 0xA0 SHL SUB AND DUP4 MSTORE SWAP4 DUP4 ADD SWAP4 SWAP2 DUP4 ADD SWAP2 PUSH1 0x1 ADD PUSH2 0x239C JUMP JUMPDEST POP POP PUSH1 0x1 PUSH1 0x1 PUSH1 0xA0 SHL SUB SWAP7 SWAP1 SWAP7 AND PUSH1 0x60 DUP6 ADD MSTORE POP POP POP PUSH1 0x80 ADD MSTORE SWAP4 SWAP3 POP POP POP JUMP JUMPDEST PUSH1 0x0 DUP3 NOT DUP3 GT ISZERO PUSH2 0x23F5 JUMPI PUSH2 0x23F5 PUSH2 0x24A6 JUMP JUMPDEST POP ADD SWAP1 JUMP JUMPDEST PUSH1 0x0 DUP3 PUSH2 0x2415 JUMPI PUSH4 0x4E487B71 PUSH1 0xE0 SHL DUP2 MSTORE PUSH1 0x12 PUSH1 0x4 MSTORE PUSH1 0x24 DUP2 REVERT JUMPDEST POP DIV SWAP1 JUMP JUMPDEST PUSH1 0x0 DUP2 PUSH1 0x0 NOT DIV DUP4 GT DUP3 ISZERO ISZERO AND ISZERO PUSH2 0x2434 JUMPI PUSH2 0x2434 PUSH2 0x24A6 JUMP JUMPDEST POP MUL SWAP1 JUMP JUMPDEST PUSH1 0x0 DUP3 DUP3 LT ISZERO PUSH2 0x244B JUMPI PUSH2 0x244B PUSH2 0x24A6 JUMP JUMPDEST POP SUB SWAP1 JUMP JUMPDEST PUSH1 0x1 DUP2 DUP2 SHR SWAP1 DUP3 AND DUP1 PUSH2 0x2464 JUMPI PUSH1 0x7F DUP3 AND SWAP2 POP JUMPDEST PUSH1 0x20 DUP3 LT DUP2 EQ ISZERO PUSH2 0x2485 JUMPI PUSH4 0x4E487B71 PUSH1 0xE0 SHL PUSH1 0x0 MSTORE PUSH1 0x22 PUSH1 0x4 MSTORE PUSH1 0x24 PUSH1 0x0 REVERT JUMPDEST POP SWAP2 SWAP1 POP JUMP JUMPDEST PUSH1 0x0 PUSH1 0x0 NOT DUP3 EQ ISZERO PUSH2 0x249F JUMPI PUSH2 0x249F PUSH2 0x24A6 JUMP JUMPDEST POP PUSH1 0x1 ADD SWAP1 JUMP JUMPDEST PUSH4 0x4E487B71 PUSH1 0xE0 SHL PUSH1 0x0 MSTORE PUSH1 0x11 PUSH1 0x4 MSTORE PUSH1 0x24 PUSH1 0x0 REVERT JUMPDEST PUSH1 0x1 PUSH1 0x1 PUSH1 0xA0 SHL SUB DUP2 AND DUP2 EQ PUSH2 0x754 JUMPI PUSH1 0x0 DUP1 REVERT INVALID GASLIMIT MSTORE NUMBER ORIGIN ADDRESS GASPRICE KECCAK256 PUSH21 0x72616E7366657220616D6F756E7420657863656564 PUSH20 0x20616C6C6F77616E636545524332303A20646563 PUSH19 0x656173656420616C6C6F77616E63652062656C PUSH16 0x77207A65726FA2646970667358221220 PUSH18 0xDFCCD9E31060ECABE84F1861AFD5AC39E889 0xD9 0xE6 0xB0 SGT 0xAF PUSH18 0x403C9111DB89ED64736F6C63430008040033 "
				},
				"gasEstimates": {
					"creation": {
						"codeDepositCost": "1911200",
						"executionCost": "infinite",
						"totalCost": "infinite"
					},
					"external": {
						"VERSION()": "327",
						"_charityAddress()": "1127",
						"_charityFee()": "1084",
						"_liquidityFee()": "1040",
						"_taxFee()": "1040",
						"allowance(address,address)": "infinite",
						"approve(address,uint256)": "22583",
						"balanceOf(address)": "infinite",
						"decimals()": "1057",
						"decreaseAllowance(address,uint256)": "infinite",
						"deliver(uint256)": "infinite",
						"excludeFromFee(address)": "22155",
						"excludeFromReward(address)": "infinite",
						"includeInFee(address)": "22126",
						"includeInReward(address)": "infinite",
						"increaseAllowance(address,uint256)": "23684",
						"isExcludedFromFee(address)": "1355",
						"isExcludedFromReward(address)": "1354",
						"name()": "infinite",
						"owner()": "1164",
						"reflectionFromToken(uint256,bool)": "infinite",
						"renounceOwnership()": "23503",
						"setLiquidityFeePercent(uint256)": "infinite",
						"setSwapAndLiquifyEnabled(bool)": "23113",
						"setTaxFeePercent(uint256)": "infinite",
						"swapAndLiquifyEnabled()": "1095",
						"symbol()": "infinite",
						"tokenFromReflection(uint256)": "infinite",
						"totalFees()": "1094",
						"totalSupply()": "1060",
						"transfer(address,uint256)": "infinite",
						"transferFrom(address,address,uint256)": "infinite",
						"transferOwnership(address)": "infinite",
						"uniswapV2Pair()": "1083",
						"uniswapV2Router()": "1083"
					},
					"internal": {
						"_approve(address,address,uint256)": "infinite",
						"_getCurrentSupply()": "infinite",
						"_getRValues(uint256,uint256,uint256,uint256,uint256)": "infinite",
						"_getRate()": "infinite",
						"_getTValues(uint256)": "infinite",
						"_getValues(uint256)": "infinite",
						"_reflectFee(uint256,uint256)": "infinite",
						"_takeCharityFee(uint256)": "infinite",
						"_takeLiquidity(uint256)": "infinite",
						"_tokenTransfer(address,address,uint256,bool)": "infinite",
						"_transfer(address,address,uint256)": "infinite",
						"_transferBothExcluded(address,address,uint256)": "infinite",
						"_transferFromExcluded(address,address,uint256)": "infinite",
						"_transferStandard(address,address,uint256)": "infinite",
						"_transferToExcluded(address,address,uint256)": "infinite",
						"addLiquidity(uint256,uint256)": "infinite",
						"calculateCharityFee(uint256)": "infinite",
						"calculateLiquidityFee(uint256)": "infinite",
						"calculateTaxFee(uint256)": "infinite",
						"removeAllFee()": "79936",
						"restoreAllFee()": "infinite",
						"swapAndLiquify(uint256)": "infinite",
						"swapTokensForEth(uint256)": "infinite"
					}
				},
				"methodIdentifiers": {
					"VERSION()": "ffa1ad74",
					"_charityAddress()": "19a8ac9e",
					"_charityFee()": "40f8007a",
					"_liquidityFee()": "6bc87c3a",
					"_taxFee()": "3b124fe7",
					"allowance(address,address)": "dd62ed3e",
					"approve(address,uint256)": "095ea7b3",
					"balanceOf(address)": "70a08231",
					"decimals()": "313ce567",
					"decreaseAllowance(address,uint256)": "a457c2d7",
					"deliver(uint256)": "3bd5d173",
					"excludeFromFee(address)": "437823ec",
					"excludeFromReward(address)": "52390c02",
					"includeInFee(address)": "ea2f0b37",
					"includeInReward(address)": "3685d419",
					"increaseAllowance(address,uint256)": "39509351",
					"isExcludedFromFee(address)": "5342acb4",
					"isExcludedFromReward(address)": "88f82020",
					"name()": "06fdde03",
					"owner()": "8da5cb5b",
					"reflectionFromToken(uint256,bool)": "4549b039",
					"renounceOwnership()": "715018a6",
					"setLiquidityFeePercent(uint256)": "8ee88c53",
					"setSwapAndLiquifyEnabled(bool)": "c49b9a80",
					"setTaxFeePercent(uint256)": "061c82d0",
					"swapAndLiquifyEnabled()": "4a74bb02",
					"symbol()": "95d89b41",
					"tokenFromReflection(uint256)": "2d838119",
					"totalFees()": "13114a9d",
					"totalSupply()": "18160ddd",
					"transfer(address,uint256)": "a9059cbb",
					"transferFrom(address,address,uint256)": "23b872dd",
					"transferOwnership(address)": "f2fde38b",
					"uniswapV2Pair()": "49bd5a5e",
					"uniswapV2Router()": "1694505e"
				}
			},
			"storageLayout": {
				"storage": [
					{
						"astId": 101,
						"contract": "contracts2/tokens/LiquidityGeneratorToken.sol:LiquidityGeneratorToken",
						"label": "_owner",
						"offset": 0,
						"slot": "0",
						"type": "t_address"
					},
					{
						"astId": 1295,
						"contract": "contracts2/tokens/LiquidityGeneratorToken.sol:LiquidityGeneratorToken",
						"label": "_rOwned",
						"offset": 0,
						"slot": "1",
						"type": "t_mapping(t_address,t_uint256)"
					},
					{
						"astId": 1299,
						"contract": "contracts2/tokens/LiquidityGeneratorToken.sol:LiquidityGeneratorToken",
						"label": "_tOwned",
						"offset": 0,
						"slot": "2",
						"type": "t_mapping(t_address,t_uint256)"
					},
					{
						"astId": 1305,
						"contract": "contracts2/tokens/LiquidityGeneratorToken.sol:LiquidityGeneratorToken",
						"label": "_allowances",
						"offset": 0,
						"slot": "3",
						"type": "t_mapping(t_address,t_mapping(t_address,t_uint256))"
					},
					{
						"astId": 1309,
						"contract": "contracts2/tokens/LiquidityGeneratorToken.sol:LiquidityGeneratorToken",
						"label": "_isExcludedFromFee",
						"offset": 0,
						"slot": "4",
						"type": "t_mapping(t_address,t_bool)"
					},
					{
						"astId": 1313,
						"contract": "contracts2/tokens/LiquidityGeneratorToken.sol:LiquidityGeneratorToken",
						"label": "_isExcluded",
						"offset": 0,
						"slot": "5",
						"type": "t_mapping(t_address,t_bool)"
					},
					{
						"astId": 1316,
						"contract": "contracts2/tokens/LiquidityGeneratorToken.sol:LiquidityGeneratorToken",
						"label": "_excluded",
						"offset": 0,
						"slot": "6",
						"type": "t_array(t_address)dyn_storage"
					},
					{
						"astId": 1325,
						"contract": "contracts2/tokens/LiquidityGeneratorToken.sol:LiquidityGeneratorToken",
						"label": "_tTotal",
						"offset": 0,
						"slot": "7",
						"type": "t_uint256"
					},
					{
						"astId": 1327,
						"contract": "contracts2/tokens/LiquidityGeneratorToken.sol:LiquidityGeneratorToken",
						"label": "_rTotal",
						"offset": 0,
						"slot": "8",
						"type": "t_uint256"
					},
					{
						"astId": 1329,
						"contract": "contracts2/tokens/LiquidityGeneratorToken.sol:LiquidityGeneratorToken",
						"label": "_tFeeTotal",
						"offset": 0,
						"slot": "9",
						"type": "t_uint256"
					},
					{
						"astId": 1331,
						"contract": "contracts2/tokens/LiquidityGeneratorToken.sol:LiquidityGeneratorToken",
						"label": "_name",
						"offset": 0,
						"slot": "10",
						"type": "t_string_storage"
					},
					{
						"astId": 1333,
						"contract": "contracts2/tokens/LiquidityGeneratorToken.sol:LiquidityGeneratorToken",
						"label": "_symbol",
						"offset": 0,
						"slot": "11",
						"type": "t_string_storage"
					},
					{
						"astId": 1335,
						"contract": "contracts2/tokens/LiquidityGeneratorToken.sol:LiquidityGeneratorToken",
						"label": "_decimals",
						"offset": 0,
						"slot": "12",
						"type": "t_uint8"
					},
					{
						"astId": 1337,
						"contract": "contracts2/tokens/LiquidityGeneratorToken.sol:LiquidityGeneratorToken",
						"label": "_taxFee",
						"offset": 0,
						"slot": "13",
						"type": "t_uint256"
					},
					{
						"astId": 1340,
						"contract": "contracts2/tokens/LiquidityGeneratorToken.sol:LiquidityGeneratorToken",
						"label": "_previousTaxFee",
						"offset": 0,
						"slot": "14",
						"type": "t_uint256"
					},
					{
						"astId": 1342,
						"contract": "contracts2/tokens/LiquidityGeneratorToken.sol:LiquidityGeneratorToken",
						"label": "_liquidityFee",
						"offset": 0,
						"slot": "15",
						"type": "t_uint256"
					},
					{
						"astId": 1345,
						"contract": "contracts2/tokens/LiquidityGeneratorToken.sol:LiquidityGeneratorToken",
						"label": "_previousLiquidityFee",
						"offset": 0,
						"slot": "16",
						"type": "t_uint256"
					},
					{
						"astId": 1347,
						"contract": "contracts2/tokens/LiquidityGeneratorToken.sol:LiquidityGeneratorToken",
						"label": "_charityFee",
						"offset": 0,
						"slot": "17",
						"type": "t_uint256"
					},
					{
						"astId": 1350,
						"contract": "contracts2/tokens/LiquidityGeneratorToken.sol:LiquidityGeneratorToken",
						"label": "_previousCharityFee",
						"offset": 0,
						"slot": "18",
						"type": "t_uint256"
					},
					{
						"astId": 1353,
						"contract": "contracts2/tokens/LiquidityGeneratorToken.sol:LiquidityGeneratorToken",
						"label": "uniswapV2Router",
						"offset": 0,
						"slot": "19",
						"type": "t_contract(IUniswapV2Router02)1193"
					},
					{
						"astId": 1355,
						"contract": "contracts2/tokens/LiquidityGeneratorToken.sol:LiquidityGeneratorToken",
						"label": "uniswapV2Pair",
						"offset": 0,
						"slot": "20",
						"type": "t_address"
					},
					{
						"astId": 1357,
						"contract": "contracts2/tokens/LiquidityGeneratorToken.sol:LiquidityGeneratorToken",
						"label": "_charityAddress",
						"offset": 0,
						"slot": "21",
						"type": "t_address"
					},
					{
						"astId": 1359,
						"contract": "contracts2/tokens/LiquidityGeneratorToken.sol:LiquidityGeneratorToken",
						"label": "inSwapAndLiquify",
						"offset": 20,
						"slot": "21",
						"type": "t_bool"
					},
					{
						"astId": 1361,
						"contract": "contracts2/tokens/LiquidityGeneratorToken.sol:LiquidityGeneratorToken",
						"label": "swapAndLiquifyEnabled",
						"offset": 21,
						"slot": "21",
						"type": "t_bool"
					},
					{
						"astId": 1363,
						"contract": "contracts2/tokens/LiquidityGeneratorToken.sol:LiquidityGeneratorToken",
						"label": "numTokensSellToAddToLiquidity",
						"offset": 0,
						"slot": "22",
						"type": "t_uint256"
					}
				],
				"types": {
					"t_address": {
						"encoding": "inplace",
						"label": "address",
						"numberOfBytes": "20"
					},
					"t_array(t_address)dyn_storage": {
						"base": "t_address",
						"encoding": "dynamic_array",
						"label": "address[]",
						"numberOfBytes": "32"
					},
					"t_bool": {
						"encoding": "inplace",
						"label": "bool",
						"numberOfBytes": "1"
					},
					"t_contract(IUniswapV2Router02)1193": {
						"encoding": "inplace",
						"label": "contract IUniswapV2Router02",
						"numberOfBytes": "20"
					},
					"t_mapping(t_address,t_bool)": {
						"encoding": "mapping",
						"key": "t_address",
						"label": "mapping(address => bool)",
						"numberOfBytes": "32",
						"value": "t_bool"
					},
					"t_mapping(t_address,t_mapping(t_address,t_uint256))": {
						"encoding": "mapping",
						"key": "t_address",
						"label": "mapping(address => mapping(address => uint256))",
						"numberOfBytes": "32",
						"value": "t_mapping(t_address,t_uint256)"
					},
					"t_mapping(t_address,t_uint256)": {
						"encoding": "mapping",
						"key": "t_address",
						"label": "mapping(address => uint256)",
						"numberOfBytes": "32",
						"value": "t_uint256"
					},
					"t_string_storage": {
						"encoding": "bytes",
						"label": "string",
						"numberOfBytes": "32"
					},
					"t_uint256": {
						"encoding": "inplace",
						"label": "uint256",
						"numberOfBytes": "32"
					},
					"t_uint8": {
						"encoding": "inplace",
						"label": "uint8",
						"numberOfBytes": "1"
					}
				}
			},
			"userdoc": {
				"kind": "user",
				"methods": {},
				"version": 1
			}
		}
	}
}